:020000040800F2
:1000000048350020A9020008AD020008AF02000830
:10001000B1020008B3020008B502000800000000A9
:10002000000000000000000000000000B70200080F
:10003000B902000800000000BB020008BD02000871
:10004000BF020008BF020008BF020008BF0200088C
:10005000BF020008BF02000849260008BF020008CE
:100060006126000895260008C9260008BF0200087E
:10007000BF020008BF020008BF020008BF0200085C
:10008000BF020008BF020008BF020008BF0200084C
:10009000BF020008BF020008BF020008BF0200083C
:1000A000BF020008BF020008BF020008BF0200082C
:1000B000BF020008BF020008B5740008BF020008B4
:1000C000BF020008BF020008BF020008BF0200080C
:1000D000BF02000841750008BF020008BF02000807
:1000E000BF020008BF020008BF02000800F002F8CB
:1000F00000F0CBF80AA090E8000C82448344AAF1F7
:100100000107DA4501D100F0C0F8AFF2090EBAE8F4
:100110000F0013F0010F18BFFB1A43F0010318473B
:10012000C4280100E42801000A444FF0000C10F834
:10013000013B13F0070408BF10F8014B1D1108BF65
:1001400010F8015B641E05D010F8016B641E01F805
:10015000016BF9D113F0080F1EBF10F8014BAD1C55
:100160000C1B09D16D1E58BF01F801CBFAD505E073
:1001700014F8016B01F8016B6D1EF9D59142D6D3CD
:10018000704700000023002400250026103A28BFF5
:1001900078C1FBD8520728BF30C148BF0B607047F9
:1001A0004B1C012B98BF70472DE9F003911C9B0855
:1001B000B1F80480B1F802900A8831F802CC80448A
:1001C000814402448444D9F80070D8F8006015686E
:1001D000DCF80040C9F80060C8F80070CCF80050A6
:1001E0001460D9F80470D8F804605568DCF804404D
:1001F000C9F80460C8F80470CCF8045054600831A1
:100200005B1ED5D1BDE8F00370474B1C012B98BF96
:1002100070472DE9F003911C9B08B1F80480B1F8F8
:1002200002900A8831F802CC00EB580800EB59091B
:1002300000EB520200EB5C0CD9F80070D8F80060BB
:100240001568DCF80040C9F80060C8F80070CCF808
:100250000050146008315B1EDFD1BDE8F003704729
:10026000642901F0BB86752901F0B886782901F070
:10027000F186632902F02281732902F02781002090
:1002800070471FB51FBD10B510BD02F07BF91146B8
:10029000FFF7F7FF09F0CCF802F099F903B4FFF784
:1002A000F2FF03BC07F011FA08480047FEE7FEE73B
:1002B000FEE7FEE7FEE7FEE7FEE7FEE7FEE7FEE716
:1002C00003480449024A044B70470000ED0000084F
:1002D000483300204835002048330020002A08BF5A
:1002E00070472DE9F04715460E4604464FF00008CA
:1002F00054F8047B54F8040B01460CF07FFE814651
:10030000394608460CF07AFE49460CF077FC374631
:10031000361D10F1FF4F28BFC7F8008002D20AF047
:100320002DFD38606D1EE3D1BDE8F0872DE9FF4F4C
:10033000A3B06FF003022398239940680290896864
:10034000209123990988189102EB810108440390B8
:100350002698C0081F9000F084831898C008219048
:1003600024980168039801602498039950F8042F99
:1003700041F8042F50F8042F41F8042F50F8042FAF
:1003800041F8042F00220C920192139212921092C3
:100390000F920E920D92209D029C50F8042F41F86E
:1003A000042F50F8042F41F8042F50F8042F41F87F
:1003B000042F42684A60083108300391249054F8B1
:1003C000040B0B9054F804AB54F8040B089054F849
:1003D000049BDDF884B054F8048BBBF1000F54F893
:1003E000047B54F8046B00F0B28200BF55F8040B94
:1003F000009054F8040B0A9000990B980CF0FEFD45
:100400001190504600990CF0F9FD1B900099089846
:100410000CF0F4FD1790484600990CF0EFFD1A908F
:10042000404600990CF0EAFD1990384600990CF00E
:10043000E5FD1690304600990CF0E0FD159000990E
:100440000A980CF0DBFD149055F8040B009054F85A
:10045000040B0B90119901980CF0D0FB01901B99A3
:1004600013980CF0CBFB1390179912980CF0C6FB65
:1004700012901A9910980CF0C1FB109019990F98CE
:100480000CF0BCFB0F9016990E980CF0B7FB0E9079
:1004900015990D980CF0B2FB0D9014990C980CF076
:1004A000ADFB0C90504600990CF0A8FD11900099FE
:1004B00008980CF0A3FD1B90484600990CF09EFD97
:1004C0001790404600990CF099FD1A903846009913
:1004D0000CF094FD1990304600990CF08FFD1690A9
:1004E00000990A980CF08AFD159000990B980CF071
:1004F00085FD149055F8040B009054F804AB119945
:1005000001980CF07BFB01901B9913980CF076FB83
:100510001390179912980CF071FB12901A99109879
:100520000CF06CFB109019990F980CF067FB0F9072
:1005300016990E980CF062FB0E9015990D980CF020
:100540005DFB0D9014990C980CF058FB0C900099E1
:1005500008980CF053FD1190484600990CF04EFDA0
:100560001B90404600990CF049FD179038460099C1
:100570000CF044FD1A90304600990CF03FFD1990A4
:1005800000990A980CF03AFD169000990B980CF01F
:1005900035FD1590504600990CF030FD149055F83B
:1005A000040B009054F8040B0890119901980CF07A
:1005B00025FB01901B9913980CF020FB13901799C1
:1005C00012980CF01BFB12901A9910980CF016FB65
:1005D000109019990F980CF011FB0F9016990E9826
:1005E0000CF00CFB0E9015990D980CF007FB0D907C
:1005F00014990C980CF002FB0C90484600990CF0F2
:10060000FDFC1190404600990CF0F8FC1B90384618
:1006100000990CF0F3FC1790304600990CF0EEFCBA
:100620001A9000990A980CF0E9FC199000990B981F
:100630000CF0E4FC1690504600990CF0DFFC15908D
:10064000009908980CF0DAFC149055F8040B00900F
:1006500054F8049B119901980CF0D0FA01901B9961
:1006600013980CF0CBFA1390179912980CF0C6FA65
:1006700012901A9910980CF0C1FA109019990F98CD
:100680000CF0BCFA0F9016990E980CF0B7FA0E9079
:1006900015990D980CF0B2FA0D9014990C980CF075
:1006A000ADFA0C90404600990CF0A8FC1190384629
:1006B00000990CF0A3FC1B90304600990CF09EFCB6
:1006C000179000990A980CF099FC1A9000990B98D1
:1006D0000CF094FC1990504600990CF08FFC169089
:1006E000009908980CF08AFC1590484600990CF087
:1006F00085FC149055F8040B009054F8048B119964
:1007000001980CF07BFA01901B9913980CF076FA83
:100710001390179912980CF071FA12901A99109878
:100720000CF06CFA109019990F980CF067FA0F9072
:1007300016990E980CF062FA0E9015990D980CF01F
:100740005DFA0D9014990C980CF058FA0C903846FC
:1007500000990CF053FC1190304600990CF04EFCBF
:100760001B9000990A980CF049FC179000990B987F
:100770000CF044FC1A90504600990CF03FFC199084
:10078000009908980CF03AFC1690484600990CF035
:1007900035FC1590404600990CF030FC149055F84B
:1007A000040B009054F8047B119901980CF026FA80
:1007B00001901B9913980CF021FA13901799129835
:1007C0000CF01CFA12901A9910980CF017FA10906D
:1007D00019990F980CF012FA0F9016990E980CF0C8
:1007E0000DFA0E9015990D980CF008FA0D901499C9
:1007F0000C980CF003FA0C90304600990CF0FEFBBC
:10080000119000990A980CF0F9FB1B9000990B9835
:100810000CF0F4FB1790504600990CF0EFFB1A9087
:10082000009908980CF0EAFB1990484600990CF0E2
:10083000E5FB1690404600990CF0E0FB1590384619
:1008400000990CF0DBFB149055F8040B009054F861
:10085000046B119901980CF0D1F901901B99139830
:100860000CF0CCF91390179912980CF0C7F912906C
:100870001A9910980CF0C2F9109019990F980CF071
:10088000BDF90F9016990E980CF0B8F90E901599C5
:100890000D980CF0B3F90D9014990C980CF0AEF97A
:1008A0000C9000990A980CF0A9FB119000990B98F4
:1008B0000CF0A4FB1B90504600990CF09FFB179086
:1008C000009908980CF09AFB1A90484600990CF091
:1008D00095FB1990404600990CF090FB1690384615
:1008E00000990CF08BFB1590304600990CF086FBBC
:1008F0001490ABF1010B119901980CF07FF9019064
:100900001B9913980CF07AF91390179912980CF020
:1009100075F912901A9910980CF070F910901999B5
:100920000F980CF06BF90F9016990E980CF066F971
:100930000E9015990D980CF061F90D9014990C9882
:100940000CF05CF90C90BBF1000F7FF44FAD1898E0
:1009500010F0070B63D000BF55F8040B009054F85B
:10096000040B0A9000990B980CF048FB119050462C
:1009700000990CF043FB1B90009908980CF03EFB8B
:100980001790484600990CF039FB1A9040460099A0
:100990000CF034FB1990384600990CF02FFB1690A0
:1009A000304600990CF02AFB159000990A980CF03B
:1009B00025FBCDF82CA0DDF820A0CDF82090C14675
:1009C0001490B84637460A9E119901980CF016F912
:1009D00001901B9913980CF011F913901799129824
:1009E0000CF00CF912901A9910980CF007F910906D
:1009F00019990F980CF002F90F9016990E980CF0B7
:100A0000FDF80E9015990D980CF0F8F80D901499CA
:100A10000C980CF0F3F80C90BBF1010B9CD10298F0
:100A2000203002902599019808602598139940F884
:100A3000041F129940F8041F109940F8041F0F99E1
:100A400040F8041F0E9940F8041F0D9940F8041F48
:100A50000C994160083025901F98401E1F907FF42C
:100A60007FAC269810F0070850D024980025016824
:100A7000039801602498209E001D24900398029CF6
:100A8000001D0390DDF86090316820680CF0B6FA24
:100A900029460CF0B3F8371D261D0546B9F10104AF
:100AA00029D0B4F1004F7DD2002C24DD361F3F1F2A
:100AB00014F0010F09D057F8041F56F8040F0CF07A
:100AC0009DFA29460CF09AF80546641013D079680F
:100AD00070680CF093FA29460CF090F8054657F828
:100AE000081F56F8080F0CF089FA29460CF086F812
:100AF0000546641EEBD1259805602598001D2590BC
:100B00000298001D0290B8F10108AED123981899FF
:100B100040684C1EA30820D0B3F1004F56D2002BE2
:100B20001BDD029A01469C4652F8045B41F8045BC7
:100B300052F8045B41F8045B52F8085B41F8085B2B
:100B400052F8045C41F8045CBCF1010CECD1029950
:100B500000EB031001EB0311029114F0030104BF39
:100B600027B0BDE8F08FB1F1004F44D20029DCBFBF
:100B700027B0BDE8F08F031F029A121F11F0010F7A
:100B800003D052F8040F43F8040F480804BF27B0FD
:100B9000BDE8F08F5168596052F8081F43F8081FEC
:100BA000401E00E003E0F5D127B0BDE8F08F3968C2
:100BB00030680CF023FA29460CF020F80546641E34
:100BC00006F1040607F10407F1D194E702990968D8
:100BD00040F8041B029951F8042F40F8042B51F8F7
:100BE000042F40F8042B4A68083140F8042B029186
:100BF0005B1EEBD1B1E7029A126840F8042B029A0F
:100C0000121D0292491EF6D127B0BDE8F08F70B5D3
:100C100004460498218008448000011F1D461846A0
:100C2000A26001F03BFB656070BD00002DE9F34F51
:100C30009BB00C461B98008801EB80051B9940086F
:100C400004EB8006D1F804800590CDE90B5405EB48
:100C500080075FEA900900F00481236802936268CC
:100C60001792A2681A92E268159229680E91686834
:100C70000690A8681290E868119030681890726821
:100C80000792B2681692F2680392D7E900A0139017
:100C9000B86810901846D7F80CB00BF0AFFF44F8C6
:100CA000040B069917980BF0A9FF44F8040B12994E
:100CB0001A980BF0A3FF44F8040B119915980BF048
:100CC0009DFF44F8040B0E9902980CF027FB0E9040
:100CD000069917980CF022FB069012991A980CF0BE
:100CE0001DFB1290119915980CF018FB11905146AC
:100CF00018980BF083FF46F8040B139907980BF034
:100D00007DFF46F8040B109916980BF077FF46F814
:100D1000040B594603980BF071FF46F8040B50463C
:100D200018990CF0FBFA1490079913980CF0F6FA46
:100D30001390169910980CF0F1FA109058460399F8
:100D40000CF0ECFA824658F8040B019058F804BBFA
:100D500001990E980CF052F90390594606980CF040
:100D60004DF90290019906980CF048F90690594601
:100D70000E980CF043F90790DDE902100BF03EFFEE
:100D800045F8040BDDE906010CF0C8FA45F8040B40
:100D9000594614980CF032F90390019913980CF00D
:100DA0002DF90290594613980CF028F906900199F4
:100DB00014980CF023F98346DDE902100CF0AEFA2A
:100DC00047F8040B594606980BF018FF47F8040B38
:100DD00058F8040B019058F804BB019912980CF0D4
:100DE0000DF90390594611980CF008F902900199F9
:100DF00011980CF003F90690594612980CF0FEF881
:100E00000790DDE902100BF0F9FE45F8040BDDE96F
:100E100006010CF083FA45F8040B594610980CF0C3
:100E2000EDF80390504601990CF0E8F80290504616
:100E300059460CF0E3F88346019910980CF0DEF85F
:100E40008246DDE902100CF069FA47F8040B5146BE
:100E500058460BF0D3FE47F8040BB9F101097FF4B3
:100E6000FCAE1B980223059942680C9800F0F8FB31
:100E70001B980599022342680B981DB0BDE8F04FFE
:100E800000F0EEBB2DE9F34FA7B00F46279800887E
:100E9000400801EB800404EB800606EB8005189601
:100EA0001A95CDE91D412799A5F1040A0AEB80099D
:100EB0004968400806900A910420199006200E9176
:100EC0000D911590306801903868A4F1040BA6F1DB
:100ED0000408009001990BF091FE0290DDE90001F9
:100EE0000CF01CFA039070680590786801900599E1
:100EF0000BF084FE0090059901980CF00FFA019018
:100F000060681090014603980BF078FE69680C91B8
:100F10000CF004FA169020680F90014601980CF02E
:100F2000FDF9296805910BF069FE11900F9902985F
:100F30000CF0F4F905990CF0F1F91490109900985F
:100F40000CF0ECF90C990CF0E9F90B90109903985E
:100F50000CF0E4F90C990BF051FE0C900F990198EC
:100F60000BF04CFE05990CF0D9F912900F990298EC
:100F70000BF044FE05990BF041FE47F8040B616845
:100F800000980BF03BFE69680BF038FE47F8040B45
:100F9000169844F8040B119844F8040B149846F87A
:100FA000040B0B9846F8040B0C9845F8040B1298A8
:100FB00045F8040B0A9901F108000D990A9001F116
:100FC00010000E990D9001F118000E900698801EE9
:100FD0004008209000F0C681306801903868009089
:100FE00001990BF00BFE0290DDE900010CF096F97F
:100FF0000390706805907868019005990BF0FEFDEC
:101000000090059901980CF089F9019060680C90A6
:10101000014603980BF0F2FD696810910CF07EF91F
:10102000169020680F90014601980CF077F9296816
:1010300005910BF0E3FD11900F9902980CF06EF9F9
:1010400005990CF06BF914900C9900980CF066F966
:1010500010990CF063F90B900C9903980CF05EF961
:1010600010990BF0CBFD0C900F9901980BF0C6FD79
:1010700005990CF053F912900F9902980BF0BEFDF0
:1010800005990BF0BBFD47F8040B616800980BF065
:10109000B5FD69680BF0B2FD47F8040B5AF8040C73
:1010A00002905BF8040C019002990BF0A7FD0090F0
:1010B000DDE901010CF032F90190DAF80000059049
:1010C000DBF80000039005990BF098FD029005995C
:1010D00003980CF023F910900390D9F800000590C4
:1010E000D8F80000139005990CF018F92290019996
:1010F0000BF084FD269058F8041C109810910CF009
:101100000DF959F8041C0F910BF078FD23901099FC
:1011100000980CF003F90F990CF000F92490139942
:1011200002980CF0FBF805990CF0F8F82190019961
:1011300022980CF0F3F82290DDE90F010CF0EEF8A4
:1011400003990CF0EBF81790139902980BF056FDE9
:1011500005990BF053FDCBF80000ABF104011F9192
:1011600058F8041C00980BF049FD59F8041C0BF0CA
:1011700045FD1F99ABF1080B08600A9800680190C3
:101180000A984168009108300A90019916980BF06E
:1011900035FF1090009911980BF030FF0F900199D6
:1011A00011980BF02BFF0390009916980BF026FF77
:1011B0000290DDE90F100BF021FD44F8040BDDE98E
:1011C00002100CF0ABF844F8040B009923980BF0D4
:1011D00015FF1090019926980BF010FF0F900099C1
:1011E00026980BF00BFF0390019923980BF006FF54
:1011F0000290DDE90F100CF091F8A8F10401C8F895
:1012000000001C91DDE902100BF0F8FC1C99A8F11C
:10121000080808600D980D99006801900D984068C5
:101220000090199801EB80000D90019914980BF033
:10123000E5FE109000990B980BF0E0FE0F900199DD
:101240000B980BF0DBFE0390009914980BF0D6FE80
:101250000290DDE90F100BF0D1FC46F8040BDDE93C
:1012600002100CF05BF846F8040B2198019980F00D
:1012700000400BF0C3FE1090009924980BF0BEFEC6
:101280000F90019924980BF0B9FE039000992198D2
:101290000BF0B4FE0290DDE90F100CF03FF8AAF15C
:1012A0000401CAF800000991DDE902010CF036F8EA
:1012B0000999AAF1080A08600E98006801900E9832
:1012C0001599406800900E9800EB81000E900199EE
:1012D0000C980BF093FE1090009912980BF08EFE74
:1012E0000F90019912980BF089FE039000990C98C9
:1012F0000BF084FE0290DDE90F100BF07FFC45F847
:10130000040BDDE902100CF009F845F8040B009914
:1013100017980BF073FE1090019922980BF06EFE57
:101320000F90009922980BF069FE0390019917988D
:101330000BF064FE0290DDE90F100BF0EFFFA9F156
:101340000401C9F800001B91DDE902100BF056FC06
:101350001B99A9F1080908602098401E20907FF48D
:101360003BAE00BFD6F80080D7F800904146484613
:101370000BF044FC0290414648460BF0CFFF03902F
:10138000D6F80490D7F80480494640460BF036FC66
:101390000090494640460BF0C1FF019060680F90F5
:1013A000014603980BF02AFCD5F8049049460BF04F
:1013B000B5FF834620680990014601980BF0AEFF07
:1013C000296805910BF01AFC8246099902980BF0E6
:1013D000A5FF05990BF0A2FF80460F9900980BF02E
:1013E0009DFF49460BF09AFF0B900F9903980BF065
:1013F00095FF49460BF002FC0C90099901980BF0FF
:10140000FDFB05990BF08AFF8146099902980BF0C4
:10141000F5FB05990BF0F2FB3860616800980BF062
:10142000EDFB69680BF0EAFB78600A98D0E9007080
:101430000090584639460BF0E1FD10905046009957
:101440000BF0DCFD0F90504639460BF0D7FD0746F8
:10145000584600990BF0D2FD8246DDE90F100BF0E3
:10146000CDFB2060514638460BF058FF60600D9868
:10147000D0E90047404621460BF0C0FD834639467F
:101480000B980BF0BBFD824621460B980BF0B6FD86
:101490000446404639460BF0B1FD074651465846D2
:1014A0000BF0ACFB3060394620460BF037FF706024
:1014B0000E98D0E9004621460C980BF09FFD80461F
:1014C000484631460BF09AFD0746484621460BF048
:1014D00095FD044631460C980BF090FD06463946C2
:1014E00040460BF08BFB2860314620460BF016FF80
:1014F000686027980423069942681E9800F0B0F8A7
:1015000027980423069942681D9800F0A9F82798A7
:10151000042306994268189800F0A2F827980699C3
:10152000042342681A9829B0BDE8F04F00F098B83B
:101530002DE9F0410588984617460C460646012AD3
:1015400018D1201DB5B1083815F0010F04D050F89E
:10155000081F81F00041016069080BD050F8082F86
:10156000491E82F0004240F8082B026882F00042D7
:101570000260F3D1B5F5807F1BD008DC102D13D0AD
:10158000202D16D0402D19D0802D0DD01CE0B5F5A2
:10159000007F13D0B5F5806F06D0B5F5006F08D089
:1015A000B5F5805F0AD00FE021463046FFF73EFBDD
:1015B0000AE021463046FFF765FC05E02946012395
:1015C0002046726800F04CF8B8F1000F04D0B189E1
:1015D0002046B268FEF7E4FD012F18BFBDE8F08198
:1015E00028460BF0C3FC01464FF07E500BF074FB15
:1015F0000646002D08BFBDE8F081083C15F0010F3C
:101600000CD03146A0680BF0F9FCA060E0683146D0
:1016100080F000400BF0F2FCE06008346D0808BF79
:10162000BDE8F0813146A0680BF0E8FCA060E068FE
:10163000314680F000400BF0E1FCE060314620696B
:101640000BF0DCFC20616069314680F000400BF05B
:10165000D5FC606110346D1EE4D1BDE8F08100005E
:101660002DE9FF4FB3B00446349D2895ED080026C0
:1016700006EB050A0AEB050909EB050808EB050B63
:101680000BEB05004719229078192A9054F83B007B
:10169000039054F83600029003990BF0AFFA0090D3
:1016A000DDE902010BF03AFE0990229854F830006F
:1016B000039054F83A00029003990BF09FFA0590BA
:1016C000DDE902010BF02AFE089054F83700039080
:1016D00054F83900029003990BF090FA1590DDE967
:1016E00002010BF01BFE14902A9854F8300004906D
:1016F00054F83800039004990BF080FA0290DDE969
:1017000003010BF00BFE1390159900980BF006FEE9
:101710000490159900980BF071FA009002990598C1
:101720000BF0FCFD1590029905980BF067FA014645
:10173000059000980BF062FA44F83600059900987D
:101740000BF0ECFD44F83B0004EBCB000D9040683F
:1017500004EBC60B0390DBF80400029003990BF036
:101760004DFA0090DDE902010BF0D8FD06902298B9
:1017700004EBC00016904068039004EBCA000E9082
:101780004068029003990BF039FA0590DDE90201F7
:101790000BF0C4FD079004EBC7001A90406803905B
:1017A00004EBC90019904068029003990BF026FAE7
:1017B0001090DDE902010BF0B1FD0F902A9804EBC7
:1017C000C00018904068039004EBC8001790406870
:1017D0000B9003990BF012FA029003990B980BF0FF
:1017E0009DFD1290109900980BF098FD03901099B0
:1017F00000980BF003FA0090029905980BF08EFD0B
:101800001090029905980BF0F9F90146059000989F
:101810000BF0F4F9CBF80400059900980BF07EFD6D
:1018200001460D984160109904980BF0E7F944F8CF
:101830003900109904980BF071FD44F837001599A0
:1018400003980BF06BFD01461998416015990398B8
:101850000BF0D4F901461A984160139908980BF0DF
:101860005DFDFE4F39460BF0C9FB81461399089880
:101870000BF0C4F939460BF0C1FB08901299079898
:101880000BF04CFD39460BF0B9FB834612990798D3
:101890000BF0B4F939460BF0B1FB079049460998B3
:1018A0000BF03CFD0490494609980BF0A7F909900C
:1018B000089914980BF032FD1390089914980BF0C6
:1018C0009DF91490594606980BF028FD039059464F
:1018D00006980BF093F9069007990F980BF01EFDF0
:1018E000814607990F980BF089F9834601460998BC
:1018F0000BF084F944F83A00594609980BF00EFDB4
:1019000001462A9844F83010494604980BF076F9BD
:101910000146229844F83010494604980BF0FEFC2A
:1019200044F83800149906980BF0F8FC01460E981C
:101930004160149906980BF061F9014618984160CE
:10194000139903980BF0EAFC01461698416013992D
:1019500003980BF053F90146179841602898064404
:1019600034988642FFF484AE082D3CBF37B0BDE802
:10197000F08F00201D9001201B9036991D98359FF7
:1019800008441D90DDF874804200161857F838702E
:101990000E97359F810001EB000C57F832700C97C1
:1019A000359F0CEB0003184457F836702097359F8D
:1019B00057F831701997359F57F83C700B97359F42
:1019C00057F833702597359F57F830702997359F12
:1019D00007EBC8077F681797359F07EBC20207EB35
:1019E000C10152681A9207EBC60207EBC0005268A9
:1019F0001E924968189107EBCC011B9E49682791FC
:101A000007EBC3014968239140681C90771907EBE5
:101A1000050808EB050909EB050A0AEB050B0BEBBA
:101A20000500219028442A9054F83A00039054F875
:101A30003600029003990BF0E1F80090DDE9020115
:101A40000BF06CFC099054F83B00039054F83700FD
:101A5000029003990BF0D2F80590DDE902010BF03A
:101A60005DFC0890219854F83000039054F8380039
:101A7000029003990BF0C2F81590DDE902010BF01A
:101A80004DFC14902A9854F83000049054F8390012
:101A9000039004990BF0B2F80290DDE903010BF01A
:101AA0003DFC1390159900980BF038FC04901599A3
:101AB00000980BF0A3F80090029905980BF02EFC0B
:101AC0001590029905980BF099F801460590009839
:101AD0000BF094F844F83600059900980BF01EFCC2
:101AE000059004EBCA002B904068039004EBC600FD
:101AF00016904068009003990BF080F802900399CB
:101B000000980BF00BFC069004EBCB002D90406886
:101B1000039004EBC7002C904068009003990BF0F1
:101B20006DF80D90039900980BF0F8FB0790219841
:101B300004EBC0002F904068039004EBC8002E9087
:101B40004068009003990BF059F8109003990098A1
:101B50000BF0E4FB0F902A9804EBC0003090406833
:101B6000129004EBC90031904068039012990BF079
:101B700045F80090129903980BF0D0FB1290109941
:101B800002980BF0CBFB0390109902980BF036F8FB
:101B9000029000990D980BF0C1FB109000990D98E0
:101BA0000BF02CF80D90109904980BF027F800908A
:101BB000109904980BF0B2FB04900D9902980BF069
:101BC0001DF80146169841600D9902980BF0A6FB8E
:101BD0000D90159903980BF0A1FB029015990398AD
:101BE0000BF00CF80390059919980BF007FA169072
:101BF0000D9918980BF002FA15900D9919980BF0A1
:101C0000FDF90D90059918980BF0F8F90590DDE9AC
:101C100015100AF0F3FF44F83A0005990D980BF0FF
:101C20007DFB01462B98416000990C980BF0E6F97A
:101C3000169002991A980BF0E1F9824602990C98D5
:101C40000BF0DCF90D9000991A980BF0D7F905907C
:101C5000514616980AF0D2FF02E00000F304353F27
:101C600044F8380005990D980BF058FB01462E9862
:101C70004160049925980BF0C1F982460399239895
:101C80000BF0BCF98046039925980BF0B7F90D903D
:101C9000049923980BF0B2F90590414650460AF09A
:101CA000ADFF0146219844F8301005990D980BF0CE
:101CB00035FB01462F984160139908980BF02EFBD5
:101CC00084490BF09BF98046139908980AF096FF17
:101CD00080490BF093F98246129907980BF01EFB8E
:101CE0007C490BF08BF90290129907980AF086FF55
:101CF00078490BF083F90790414609980BF00EFBE9
:101D00000490414609980AF079FF099051461498C9
:101D10000BF004FB1390514614980AF06FFF1490D7
:101D2000029906980BF0FAFA0390029906980AF0C5
:101D300065FF069007990F980BF0F0FA8246079915
:101D40000F980AF05BFF8046014609980AF056FF9B
:101D50000090414609980BF0E1FA09905146049829
:101D60000AF04CFF0890514604980BF0D7FA049003
:101D7000149906980BF0D2FA8046149906980AF046
:101D80003DFF0690139903980BF0C8FA079013993A
:101D900003980AF033FF039000990E980BF02EF988
:101DA0001690414617980BF029F9824641460E9845
:101DB0000BF024F90D90009917980BF01FF980464D
:101DC000514616980AF01AFF44F8370041460D981C
:101DD0000BF0A4FA01462C984160099929980BF060
:101DE0000DF9824606991C980BF008F98046069971
:101DF00029980BF003F90D9009991C980BF0FEF847
:101E00000746414650460AF0F9FE01462A9844F832
:101E1000301039460D980BF081FA01463098416038
:101E200008990B980BF0EAF88046079927980BF071
:101E3000E5F8824607990B980BF0E0F80D900899A9
:101E400027980BF0DBF80746514640460AF0D6FECD
:101E500044F83B0039460D980BF060FA01462D9886
:101E60004160049920980BF0C9F8834603991E98A5
:101E70000BF0C4F88246039920980BF0BFF8804617
:101E800004991E980BF0BAF80746514658460AF0D6
:101E9000B5FE44F83900394640460BF03FFA01469A
:101EA000319841602898064434988642FFF4AEADDC
:101EB0001B98401C1B9085423FF65FAD36984FF64D
:101EC000FF7101EAC0003690072D3FF6CEAB37B068
:101ED000BDE8F08FF304353F704710B54C1084EA2D
:101EE000530404D54042C1F1000138BF491E1B42D2
:101EF00004D55242C3F1000338BF5B1E00F0F9F96C
:101F000014F0804F04D04042C1F1000138BF491E97
:101F100014F0004F04D05242C3F1000338BF5B1EDF
:101F200010BD00000FB4044910B503AA029800F0D8
:101F3000D1FA10BC5DF814FB5C00002070B50446BB
:101F400085690068C10601D5302600E02026C0075B
:101F500007D070BDD4E9012130469047206A401C6B
:101F600020626D1EF6D570BD70B504468569007897
:101F7000C00707D170BDD4E9012120209047206A15
:101F8000401C20626D1EF6D570BD70B50C4605462E
:101F9000012A05D02878800600D5EA69002302E0EE
:101FA000012305E05B1C934202D2E05C0028F9D1DA
:101FB000A869E618C01AA861286A18442862284649
:101FC000FFF7BCFF04E0D5E9012114F8010B9047AD
:101FD000B442F8D32846FFF7C7FF70BD2DE9F041A2
:101FE0000646002410687529314616A510D0AFF3B7
:101FF0000080002802DA404213A507E031688A0712
:1020000001D512A502E0490704D511A5012401E07C
:10201000AFF3008000210A2206F1240709E0B0FB9B
:10202000F2FCB0FBF2F302FB1C003030785418468F
:10203000491C0028F3D123462A463046BDE8F0412A
:1020400000F0D9B9000000002D0000002B000000B6
:102050002000000070B504460D4621461068AFF31D
:1020600000802188090502D50F4A7A4402E00E4A11
:102070007A440E32002104F1240305E000F00F063B
:102080000009965D5E54491C0028F7D12078002392
:10209000000704D5702D02D009B102231132204669
:1020A000BDE8704000F0A7B9020701002DE9F05F1C
:1020B000894604464FF0000ADFF874B1FB44C0F8CB
:1020C00020A02046E1688847002874D0252806D043
:1020D000D4E901219047206A401C2062F1E70026E4
:1020E0005F462046E16888472028054607DB312DFA
:1020F00005D2781910F8200C08B10643F1E7B007B3
:1021000001D526F00406C4F81CA00027C4F818A0C6
:102110002A2D09D0284605F0D1FA38B304EB8708F8
:10212000303DC8F8185019E059F8041B204604EB5C
:1021300087029161E1688847012F054618D1E0695F
:10214000002820DA26F020061DE0D8F8180000EB61
:10215000800005EB40003038C8F818002046E168E0
:102160008847054605F0AAFA0028EED1012F0AD0CB
:102170002E2D08D12046E16888477F1C0546022F96
:1021800046F02006C4DBA069002803DA404246F08E
:102190000106A061F00701D026F010066C2D0BD0CF
:1021A000682D09D04C2D39D06A2D35D0742D35D0FD
:1021B0007A2D33D016E038E0E1682F462046884774
:1021C000B842054609D16C2F26D04FF48060E168F3
:1021D000064320468847054604E06C2F1AD04FF48A
:1021E000807006430DB3A5F14100192802D82035AF
:1021F00046F400664A462946204626604E46FEF7CB
:102200002FF880B101280BD0F61D26F0070000F151
:10221000080956E74020E4E78020D8E70020D6E709
:1022200006F104094DE7284652E7206ABDE8F09F11
:10223000D806010040EA010310B59B070FD1042A1C
:102240000DD310C808C9121F9C42F8D020BA19BA81
:10225000884201D9012010BD4FF0FF3010BD1AB1E6
:10226000D30703D0521C07E0002010BD10F8013B3B
:1022700011F8014B1B1B07D110F8013B11F8014B62
:102280001B1B01D1921EF1D1184610BD02F0FF03B5
:1022900043EA032242EA024200F030B94FF0000262
:1022A00000B5134694469646203922BFA0E80C504C
:1022B000A0E80C50B1F12001BFF4F7AF090728BF27
:1022C000A0E80C5048BF0CC05DF804EB890028BFA3
:1022D00040F8042B08BF704748BF20F8022B11F0CC
:1022E000804F18BF00F8012B704770477047704748
:1022F000704753EA020C00F069802DE9F04B4FF073
:102300000006002B1FBFB3FA83F503FA05F424FA85
:1023100005F65E4012BF1643B2FA82F502FA05F4E2
:10232000C5F120051EBF22FA05FC44EA0C04203545
:1023300056EA044C4FEA144418BF641C4FF00008DE
:102340004FF00009904271EB030C39D3002919BFFB
:10235000B1FA81F701FA07F6B0FA80F700FA07F64A
:10236000C7F120071EBF20FA07FC46EA0C062037FB
:10237000B6FBF4FCA7EB0507103F07F01F0BCBF1F2
:1023800020060CFA0BFB2CFA06F644BFB3460026D7
:10239000202FA4BF5E464FF0000B5BEA060C08BF7F
:1023A0004FF0010B19EB0B09ABFB027C48EB060865
:1023B000C01B06FB02CC0BFB03CC71EB0C01C1E78D
:1023C0000B46024641464846BDE8F08B13B54FF038
:1023D00000004FF00001AFF30080BDE81C407047E3
:1023E00010B500F0ABF8006810BD10B5044600F061
:1023F000A5F8046010BD2DE9F0470D4699469246B8
:10240000044600F124080168880604D5E06921F03B
:102410001001216000E00120A84201DD471B00E01F
:102420000027A1697A1902EB0900081AA061207837
:10243000C00602D42046FFF781FD002608E0D4E95B
:1024400001211AF806009047206A401C761C206281
:102450004E45F4DB2078C0060AD52046FFF76EFD16
:1024600006E0D4E9012130209047206A401C206218
:10247000381EA7F10107F4DC07E0D4E9012118F8C0
:1024800005009047206A401C2062281EA5F1010526
:10249000F3DC2046FFF768FD2078000602D5022015
:1024A000BDE8F0870120FBE710B5436913B1AFF336
:1024B000008001E0FFF769FD012010BD127800F1F6
:1024C00024010A7000224A700122EDE711684FF0E2
:1024D000FF32E9E7074B70B50D467B4400F037F853
:1024E0000446284600F046F810B14FF0FF3070BDAA
:1024F000204670BD676700004FF000020429C0F05D
:10250000128010F0030C3FF4CBAECCF1040CBCF104
:10251000020F18BF00F8012BA8BF20F8022BA1EB77
:102520000C01FFF7BDBE5FEAC17C24BF00F8012BA0
:1025300000F8012B48BF00F8012B70470048704796
:10254000E432002001694A1C02610878704700B536
:102550008FB0CDE901310021059105497944CDE9DC
:10256000031011466846FFF7A1FD0FB000BD000043
:10257000E5FFFFFF007B00F08000704700487047D8
:10258000E43200207546FFF7F9FFAE4605006946C4
:10259000534620F00700854618B020B5FDF790FEA1
:1025A000BDE820404FF000064FF000074FF0000854
:1025B0004FF0000B21F00701AC46ACE8C009ACE8D5
:1025C000C009ACE8C009ACE8C0098D46704710B539
:1025D0000446AFF300802046BDE81040FDF75EBE24
:1025E0002DE9F34F83B08146D9E90056D9E9007847
:1025F00001241DE009EBC40103C92A463346CDE995
:1026000000010AF0BDF803D809EBC40060C8A24677
:1026100009EBC40003C83A464346CDE9000109F07E
:1026200075FF04D809EBC400D0E90078A346641C08
:1026300004988442DEDBCBF10300A0EB0A00029099
:10264000504605B0BDE8F08F002003490860012026
:1026500002490860704700009401234214040140BD
:1026600010B50A2005F006FC0748006838B907488D
:10267000006808B9012000E0002004490860042037
:102680000349086010BD00000801234294812142E3
:102690001404014010B50A2005F0ECFB084800685E
:1026A00048B907488830006808B9012000E00020D8
:1026B00003498831086008200249086010BD000005
:1026C0000C0123421404014010B50A2005F0D2FB8E
:1026D0000C48006888B90C48006808B9012000E07F
:1026E0000020094908600948D0F8940108B9012080
:1026F00000E000200349843108601020044908608C
:1027000010BD0000100123429481214200002342A9
:10271000140401402DE9F04F89B005460E4691465C
:102720009A46002400E0641C55F8240049460AF04B
:1027300031FCF8D355F8240051460AF02BFDF2D3B2
:10274000B44202DC55F8247000E01E4F641C00E027
:10275000641C55F8240049460AF01CFCF8D355F8CF
:10276000240051460AF016FDF2D3B44202DC55F8BB
:10277000248001E0DFF84C8040460AF013FA4FF065
:102780003332114BCDE9000109F0FCFECDE9040123
:1027900038460AF007FA4FF066320C4BCDE90001DB
:1027A00009F0F0FECDE90201DDE9042309F042FC65
:1027B000CDE9060109F00CFC8346584609B0BDE896
:1027C000F08F0000000080BF3333D33F6666E63FE2
:1027D0002DE9F04788B08246894600200546064626
:1027E00000210F46884600240CE05AF824000AF025
:1027F000D9F92A463346CDE9060109F01BFC054606
:102800000E46641C4C45F0DBA9F1010009F053FEB3
:1028100002460B46CDE906012846314609F0C6FCC2
:1028200005460E46002424E05AF824000AF0BAF9BE
:102830002A463346CDE900010AF0CAF8CDE9040181
:102840005AF824000AF0AEF92A463346CDE90001D1
:102850000AF0BEF8CDE90201DDE9042309F092FE99
:102860003A464346CDE9060109F0E4FB07468846AF
:10287000641C4C45D8DB09F1010009F01CFE02463E
:102880000B46CDE906013846414609F08FFC074664
:1028900088463846414608B0BDE8F08701464906FB
:1028A000084A926942F00102064B9A61064A526850
:1028B00022F0E062044B5A601A4652680A435A609A
:1028C0007047000000100240000001401548806978
:1028D00040F00400134988610846806940F04000D8
:1028E00088611148006820F00F000F490860084611
:1028F000006840F0080008600C4800680C49084077
:102900000A490860084600680A4908430749086000
:1029100006480C30006840F01C0004490C31086087
:1029200070470000001002400008014000180140FC
:10293000FF00F0FF0088080070B504460026174825
:102940000588408845431548808846F6040188423A
:1029500016D112488079012812D100200F498871C0
:102960002A2048812B2088810021084603F0C0FFDF
:1029700001200A4988712B2048812A20888103E0A0
:102980000021084603F0B4FF04F0A4F9002602E099
:1029900003480480761CAE42FAD370BDFC190020B7
:1029A0000008006C10B50446002C66D16C49887193
:1029B000F02008804FF4A07048800846808849F2D3
:1029C000413188420BD06648808846F6040188422F
:1029D00005D06348808845F2103188421AD12C20F6
:1029E0005F4908812A2048812B20888108468088F9
:1029F00046F60401884205D05948808845F21031D6
:102A0000884206D14FF4A070554908804FF4F07009
:102A10004880A1E05248808845F21051884210D188
:102A20004FF430504E4908814FF4285048814FF4FC
:102A30002C5088814FF4F07008804FF44870488023
:102A40008AE04748808841F6631188420DD12C20E6
:102A5000434908812B2048812A2088814FF4F07057
:102A600008804FF44870488076E022203C49088175
:102A700020204881212088816EE00120384988711A
:102A80004FF4A0700880F02048800846808849F202
:102A90004131884205D03248808845F21031884261
:102AA00007D12C202E4908812A2048812B2088819B
:102AB0003FE02B48808846F60401884207D12C204D
:102AC000274908812B2048812A20888131E0244829
:102AD000808845F21051884210D14FF4305020497F
:102AE00008814FF4285048814FF42C5088814FF4CE
:102AF000487008804FF4F07048801AE018488088C9
:102B000041F6631188420DD12C20154908812A20F5
:102B100048812B2088814FF4487008804FF4F07072
:102B2000488006E022200E4908812120488120208B
:102B300088810B48808846F60401884205D0084801
:102B4000808845F21031884206D14FF4F070044974
:102B500008804FF4A0704880002003F053FD10BDA2
:102B6000FC19002030B503460C4615465A488088AB
:102B700049F24131884205D05748808845F21031EA
:102B8000884214D15449488904F09EF8181204F080
:102B900095F8D8B204F092F84F49888904F094F877
:102BA000201204F08BF8E0B204F088F88CE04A4878
:102BB000808845F21051884220D14749488904F065
:102BC00083F8181204F07AF843494989491C88B2FD
:102BD00004F07AF8D8B204F071F83F49888904F01B
:102BE00073F8201204F06AF83B498989491C88B2BD
:102BF00004F06AF8E0B204F061F865E036488088D5
:102C000041F66311884228D13348807920B932488F
:102C10000088401EC01A83B22F49488904F054F836
:102C2000181204F04BF8D8B204F048F8181204F067
:102C300045F8D8B204F042F82749888904F044F8EE
:102C4000201204F03BF8E0B204F038F8201204F04F
:102C500035F8E0B204F032F836E01F48808846F6D6
:102C6000040188421DD11C488079012804D11A48EA
:102C70000088401EC01A83B21749488904F024F81E
:102C8000181204F01BF8D8B204F018F81249888919
:102C900004F01AF8201204F011F8E0B204F00EF873
:102CA00012E00D488079012804D10B480088401EAD
:102CB000C01A83B208494889194604F015F8064934
:102CC0008889214604F010F80348008903490880E8
:102CD000881C058030BD0000FC190020FE07006C38
:102CE0002DE9FC4F05460E4617469846DDF82C9018
:102CF000002001902748808846F60401884229D1A7
:102D000024488079012825D1AB46354621480088E2
:102D1000C01B401E86B247461E480088A0EB0B0031
:102D2000401E1FFA80F800201A4988712A20488125
:102D30002B20888143463A4631462846CDF80090FC
:102D4000FFF7CEFF0120134988712B2048812A20EC
:102D500088811CE0781B401C80B20190344614E04E
:102D60002146284603F0C4FD03F0B4FF4FF0000AEB
:102D700006E00948A0F800900AF101001FFA80FA65
:102D800001988245F5DB601C84B24445E8DDBDE86E
:102D9000FC8F0000FC1900200008006C10B5FD48F5
:102DA000406940F48070FB4948610846806940F002
:102DB000080088610846806940F020008861084664
:102DC000806940F0400088610846806940F4807066
:102DD0008861F148006820F00F00EF49086008465C
:102DE000006840F003000860EC480068EC490840C7
:102DF000EA49086008460068EA490843E74908606C
:102E0000081F006800F0FF20091F086008460068DE
:102E100040F0BB100860E44800680020E249086008
:102E20000846006840F0BB300860081F006820F0CA
:102E30007040091F08600846006840F03040086094
:102E4000DA48406820F47020D84948600846406855
:102E500040F4302048600846006820F00F00086009
:102E60000846006840F00B00086000204FF0204149
:102E70008861C861CE4908604FF02040806940F405
:102E800080504FF0204188610846806940F48040BE
:102E900088610846806940F0100088610846C06972
:102EA000C8610846C06940F00100C8610846C069B1
:102EB00040F47060C861BE480068C1F81C01BC489D
:102EC0000068C1F81C010846D0F81C0140F44070AD
:102ED000C1F81C010846806940F001008861322079
:102EE00004F0C8FF002003F057FBB2498880084671
:102EF0008088FF280ADB084680884FF6FF718842E9
:102F000004D0AC488088B0F5134F7CD1D32003F0B7
:102F1000DBFE03F037FBA749888003F033FBA549AC
:102F2000888003F02FFBA3498880084680884FF6ED
:102F3000FF7101EA00209F49888003F023FB9D492F
:102F4000898808439B4988800846808849F2413136
:102F5000884258D0BF2003F0B7FE03F013FB954919
:102F6000888003F00FFB9349888003F00BFB9149A5
:102F7000888003F007FB8F498880084680884FF6D9
:102F8000FF7101EA00208B49888003F0FBFA894930
:102F900089880843874988800846808846F6040166
:102FA00088427AD0D42003F08FFE03F0EBFA8149F7
:102FB000888003F0E7FA7F49888003F0E3FA7D49CF
:102FC0008880084680884FF6FF7101EA0020794921
:102FD000888003F0D7FA7749898808437549888043
:102FE0000846808845F21031884256D04FF45A4046
:102FF00003F06AFE03F0C6FA6E4988804FF45B4026
:1030000003F062FE00E048E003F0BCFA6949888002
:10301000084680884FF6FF7101EA002065498880E4
:103020004FF45C4003F050FE03F0ACFA614989882C
:1030300008436049888008468088B0F5004F02D177
:1030400045F2105088805B48808845F210518842D4
:1030500023D0A12003F038FE03F094FA554988806C
:1030600003F090FA53498880084680884FF6FF7134
:1030700001EA00204F49888003F084FA4D4989888D
:1030800008434C4988800846808845F2617188422F
:1030900003D141F66310474988804648818846A09D
:1030A000FEF740FF4348808849F24131884270D1A1
:1030B000CF2003F009FE002003F000FEC12003F042
:1030C000FDFD302003F0FAFDED2003F0FDFD64204E
:1030D00003F0F4FD032003F0F1FD122003F0EEFDF8
:1030E000812003F0EBFDE82003F0EEFD852003F0E6
:1030F000E5FD102003F0E2FD7A2003F0DFFDCB2098
:1031000003F0E2FD392003F0D9FD2C2003F0D6FDB9
:10311000002003F0D3FD342003F0D0FD022003F0A3
:10312000CDFDF72003F0D0FD202003F0C7FDEA20FD
:1031300003F0CAFD002003F0C1FD002003F0BEFD36
:10314000C02003F0C1FD1B2003F0B8FDC12003F037
:10315000BBFD012003F0B2FDC52003F0B5FD30201A
:1031600003F0ACFD302003F0A9FDC72003F0ACFD57
:10317000B72003F0A3FD362003F0A6FD482003F09E
:103180009DFD3A2003F0A0FD552003F097FDB120EE
:103190001AE0BFE000100240000C0140041401409E
:1031A00000F0FF00BB0B00BB0418014000200140F1
:1031B0001C0100A0FC190020204C43442049443A43
:1031C00025780D0A0000000003F07EFD002003F0CA
:1031D00075FD1A2003F072FDB62003F075FD0A207C
:1031E00003F06CFDA22003F069FDF22003F06CFDFA
:1031F000002003F063FD262003F066FD012003F0AC
:103200005DFDE02003F060FD0F2003F057FD2A2054
:1032100003F054FD282003F051FD082003F04EFD7B
:103220000E2003F04BFD082003F048FD542003F06E
:1032300045FDA92003F042FD432003F03FFD0A2095
:1032400003F03CFD0F2003F039FD002003F036FDB4
:10325000002003F033FD002003F030FD002003F0D8
:103260002DFDE12003F030FD002003F027FD1520A7
:1032700003F024FD172003F021FD072003F01EFDBD
:10328000112003F01BFD062003F018FD2B2003F096
:1032900015FD562003F012FD3C2003F00FFD052024
:1032A00003F00CFD102003F009FD0F2003F006FDD4
:1032B0003F2003F003FD3F2003F000FD0F2003F04B
:1032C000FDFC2B2003F000FD002003F0F7FC0020A4
:1032D00003F0F4FC012003F0F1FC3F2003F0EEFCCE
:1032E0002A2003F0F1FC002003F0E8FC002003F0AA
:1032F000E5FC002003F0E2FCEF2003F0DFFC1120EE
:1033000003F0E2FC782004F0B5FD292003F0DCFC9A
:1033100003F01DB9FE48808846F6040188427CD13E
:10332000112003F0D1FC142004F0A4FDD02003F000
:10333000CBFC072003F0C2FC422003F0BFFC1D20A1
:1033400003F0BCFCD12003F0BFFC002003F0B6FC6E
:103350001A2003F0B3FC092003F0B0FCD22003F0E4
:10336000B3FC012003F0AAFC222003F0A7FCC0203C
:1033700003F0AAFC102003F0A1FC3B2003F09EFC0C
:10338000002003F09BFC022003F098FC112003F0C6
:1033900095FCC52003F098FC032003F08FFCC820A7
:1033A00003F092FC002003F089FC252003F086FC4A
:1033B000212003F083FC052003F080FC002003F0B3
:1033C0007DFC0A2003F07AFC652003F077FC2520C1
:1033D00003F074FC772003F071FC502003F06EFCC6
:1033E0000F2003F06BFC002003F068FCF82003F0D2
:1033F0006BFC012003F062FCFE2003F065FC002062
:1034000003F05CFC022003F059FC202003F05CFC7C
:10341000362003F059FC082000E02CE003F04EFCBD
:103420003A2003F051FC552003F048FC2B2003F018
:103430004BFC002003F042FC002003F03FFC012085
:1034400003F03CFC3F2003F039FC2A2003F03CFC55
:10345000002003F033FC002003F030FC012003F0D7
:103460002DFCDF2003F02AFC782004F003FD292046
:1034700003F02AFC4CE7A648808845F210318842C8
:1034800040F07C87ED2003F01FFC012003F016FCC8
:10349000FE2003F013FCEE2003F016FCDE2003F008
:1034A0000DFC212003F00AFCF12003F00DFC0120AB
:1034B00003F004FCDF2003F007FC102003F0FEFB08
:1034C000C42003F001FC8F2003F0F8FBC62003F0BA
:1034D000FBFB002003F0F2FBE22003F0EFFBE22015
:1034E00003F0ECFBE22003F0E9FBBF2003F0ECFB70
:1034F000AA2003F0E3FBB02003F0E6FB0D2003F06D
:10350000DDFB002003F0DAFB0D2003F0D7FB0020E9
:1035100003F0D4FB112003F0D1FB002003F0CEFB1D
:10352000192003F0CBFB002003F0C8FB212003F09F
:10353000C5FB002003F0C2FB2D2003F0BFFB0020E1
:1035400003F0BCFB3D2003F0B9FB002003F0B6FB09
:103550005D2003F0B3FB002003F0B0FB5D2003F01F
:10356000ADFB002003F0AAFBB12003F0ADFB8020EF
:1035700003F0A4FB002003F0A1FB8B2003F09EFBD3
:10358000002003F09BFB962003F098FB002003F043
:1035900095FBB22003F098FB002003F08FFB002086
:1035A00003F08CFB022003F089FB002003F086FB74
:1035B000032003F083FB002003F080FBB32003F023
:1035C00083FB002003F07AFB002003F077FB002050
:1035D00003F074FB002003F071FB002003F06EFB8E
:1035E000002003F06BFB002003F068FB002003F0D9
:1035F00065FB002003F062FB002003F05FFB00206E
:1036000003F05CFB002003F059FB002003F056FBA5
:10361000002003F053FB002003F050FB002003F0D8
:103620004DFB002003F04AFB002003F047FB002085
:1036300003F044FB002003F041FB002003F03EFBBD
:10364000002003F03BFB002003F038FB002003F0D8
:1036500035FBB42003F038FB8B2003F02FFB002058
:1036600003F02CFB962003F029FB002003F026FB3F
:10367000A12003F023FB002003F020FBB52003F082
:1036800023FB022003F01AFB002003F017FB0320AA
:1036900003F014FB002003F011FB042003F00EFBE9
:1036A000002003F00BFBB62003F00EFB002003F01C
:1036B00005FB002003F002FBB72003F005FB002010
:1036C00003F0FCFA002003F0F9FA3F2003F0F6FAC9
:1036D000002003F0F3FA5E2003F0F0FA002003F07C
:1036E000EDFA642003F0EAFA002003F0E7FA8C20F8
:1036F00003F0E4FA002003F0E1FAAC2003F0DEFA74
:10370000002003F0DBFADC2003F0D8FA002001E00F
:10371000FC19002003F0D2FA702003F0CFFA002049
:1037200003F0CCFA902003F0C9FA002003F0C6FAA7
:10373000EB2003F0C3FA002003F0C0FADC2003F012
:10374000BDFA002003F0BAFAB82003F0BDFA002059
:1037500003F0B4FA002003F0B1FA002003F0AEFA4F
:10376000002003F0ABFA002003F0A8FA002003F0D9
:10377000A5FA002003F0A2FA002003F09FFABA2075
:1037800003F0A2FA242003F099FA002003F096FA3D
:10379000002003F093FA002003F090FAC12003F018
:1037A00093FA202003F08AFA002003F087FA5420CD
:1037B00003F084FA002003F081FAFF2003F07EFA80
:1037C000002003F07BFAC22003F07EFA0A2003F007
:1037D00075FA002003F072FA042003F06FFA00205B
:1037E00003F06CFAC32003F06FFA3C2003F066FA92
:1037F000002003F063FA3A2003F060FA002003F09F
:103800005DFA392003F05AFA002003F057FA372006
:1038100003F054FA002003F051FA3C2003F04EFA72
:10382000002003F04BFA362003F048FA002003F0A2
:1038300045FA322003F042FA002003F03FFA2F202D
:1038400003F03CFA002003F039FA2C2003F036FA9A
:10385000002003F033FA292003F030FA002003F0AF
:103860002DFA262003F02AFA002003F027FA24205C
:1038700003F024FA002003F021FA242003F01EFABA
:10388000002003F01BFA232003F018FA002003F0B5
:1038900015FA3C2003F012FA002003F00FFA36204C
:1038A00003F00CFA002003F009FA322003F006FAC4
:1038B000002003F003FA2F2003F000FA002003F0A9
:1038C000FDF92C2003F0FAF9002003F0F7F9292084
:1038D00003F0F4F9002003F0F1F9262003F0EEF9EB
:1038E000002003F0EBF9242003F0E8F9002003F0B6
:1038F000E5F9242003F0E2F9002003F0DFF92320AA
:1039000003F0DCF9002003F0D9F9C42003F0DCF95E
:10391000622003F0D3F9002003F0D0F9052003F072
:10392000CDF9002003F0CAF9842003F0C7F9002084
:1039300003F0C4F9F02003F0C1F9002003F0BEF950
:10394000182003F0BBF9002003F0B8F9A42003F01D
:10395000B5F9002003F0B2F9182003F0AFF9002008
:1039600003F0ACF9502003F0A9F9002003F0A6F908
:103970000C2003F0A3F9002003F0A0F9172003F0B6
:103980009DF9002003F09AF9952003F097F90020A3
:1039900003F094F9F32003F091F9002003F08EF97D
:1039A000E62003F08BF9002003F088F9C52003F02E
:1039B0008BF9322003F082F9002003F07FF94420D4
:1039C00003F07CF9002003F079F9652003F076F923
:1039D000002003F073F9762003F070F9002003F063
:1039E0006DF9882003F06AF9002003F067F9C6201A
:1039F00003F06AF9202003F061F9002003F05EF97A
:103A0000172003F05BF9002003F058F9012003F0C0
:103A100055F9002003F052F9C72003F055F90020B2
:103A200003F04CF9002003F049F9002003F046F9B7
:103A3000002003F043F9C82003F046F9002003F00A
:103A40003DF9002003F03AF9002003F037F9002097
:103A500003F034F9C92003F037F9002003F02EF900
:103A6000002003F02BF9002003F028F9002003F0D8
:103A700025F9002003F022F9002003F01FF90020AF
:103A800003F01CF9002003F019F9002003F016F9E7
:103A9000002003F013F9002003F010F9002003F0D8
:103AA0000DF9002003F00AF9002003F007F90020C7
:103AB00003F004F9002003F001F9E02003F004F919
:103AC000162003F0FBF8002003F0F8F81C2003F0A8
:103AD000F5F8002003F0F2F8212003F0EFF80020C1
:103AE00003F0ECF8362003F0E9F8002003F0E6F8E4
:103AF000462003F0E3F8002003F0E0F8522003F042
:103B0000DDF8002003F0DAF8642003F0D7F8002095
:103B100003F0D4F87A2003F0D1F8002003F0CEF8B7
:103B20008B2003F0CBF8002003F0C8F8992003F0B5
:103B3000C5F8002003F0C2F8A82003F0BFF8002069
:103B400003F0BCF8B92003F0B9F8002003F0B6F890
:103B5000C42003F0B3F8002003F0B0F8CA2003F04B
:103B6000ADF8002003F0AAF8D22003F0A7F8002057
:103B700003F0A4F8D92003F0A1F8002003F09EF888
:103B8000E02003F09BF8002003F098F8F32003F006
:103B900095F8002003F092F8E12003F095F8162044
:103BA00003F08CF8002003F089F81C2003F086F85D
:103BB000002003F083F8222003F080F8002003F0B7
:103BC0007DF8362003F07AF8002003F077F84520DE
:103BD00003F074F8002003F071F8522003F06EF83F
:103BE000002003F06BF8642003F068F8002003F075
:103BF00065F87A2003F062F8002003F05FF88B206C
:103C000003F05CF8002003F059F8992003F056F80F
:103C1000002003F053F8A82003F050F8002003F030
:103C20004DF8B92003F04AF8002003F047F8C4200B
:103C300003F044F8002003F041F8CA2003F03EF8F6
:103C4000002003F03BF8D22003F038F8002003F006
:103C500035F8D82003F032F8002003F02FF8E020E8
:103C600003F02CF8002003F029F8F32003F026F8E5
:103C7000002003F023F8E22003F026F8052003F0EB
:103C80001DF8002003F01AF80B2003F017F80020AD
:103C900003F014F81B2003F011F8002003F00EF8D5
:103CA000342003F00BF8002003F008F8442003F060
:103CB00005F8002003F002F84F2002F0FFFF00207B
:103CC00002F0FCFF612002F0F9FF002002F0F6FF95
:103CD000792002F0F3FF002002F0F0FF882002F0CC
:103CE000EDFF002002F0EAFF972002F0E7FF00203E
:103CF00002F0E4FFA62002F0E1FF002002F0DEFF68
:103D0000B72002F0DBFF002002F0D8FFC22002F053
:103D1000D5FF002002F0D2FFC72002F0CFFF002025
:103D200002F0CCFFD12002F0C9FF002002F0C6FF54
:103D3000D62002F0C3FF002002F0C0FFDD2002F019
:103D4000BDFF002002F0BAFFF32002F0B7FF002011
:103D500002F0B4FFE32002F0B7FF052002F0AEFF4F
:103D6000002002F0ABFF0A2002F0A8FF002002F0C2
:103D7000A5FF1C2002F0A2FF002002F09FFF3320CD
:103D800002F09CFF002002F099FF442002F096FF11
:103D9000002002F093FF502002F090FF002002F07C
:103DA0008DFF622002F08AFF002002F087FF78205A
:103DB00002F084FF002002F081FF882002F07EFFE5
:103DC000002002F07BFF972002F078FF002002F035
:103DD00075FFA62002F072FF002002F06FFFB720EF
:103DE00002F06CFF002002F069FFC22002F066FFC3
:103DF000002002F063FFC72002F060FF002002F005
:103E00005DFFD12002F05AFF002002F057FFD520BD
:103E100002F054FF002002F051FFDD2002F04EFFBF
:103E2000002002F04BFFF32002F048FF002002F0D8
:103E300045FFE42002F048FF012002F03FFF002090
:103E400002F03CFF012002F039FF002002F036FFB3
:103E5000022002F033FF002002F030FF2A2002F09F
:103E60002DFF002002F02AFF3C2002F027FF002057
:103E700002F024FF4B2002F021FF002002F01EFF81
:103E80005D2002F01BFF002002F018FF742002F0FA
:103E900015FF002002F012FF842002F00FFF002027
:103EA00002F00CFF932002F009FF002002F006FF51
:103EB000A22002F003FF002002F000FFB32002F076
:103EC000FDFE002002F0FAFEBE2002F0F7FE002008
:103ED00002F0F4FEC42002F0F1FE002002F0EEFE3B
:103EE000CD2002F0EBFE002002F0E8FED32002F02D
:103EF000E5FE002002F0E2FEDD2002F0DFFE002001
:103F000002F0DCFEF32002F0D9FE002002F0D6FE23
:103F1000E52002F0D9FE002002F0D0FE002002F0E1
:103F2000CDFE002002F0CAFE002002F0C7FE0220F3
:103F300002F0C4FE002002F0C1FE292002F0BEFE05
:103F4000002002F0BBFE3C2002F0B8FE002002F090
:103F5000B5FE4B2002F0B2FE002002F0AFFE5D2065
:103F600002F0ACFE002002F0A9FE742002F0A6FED2
:103F7000002002F0A3FE842002F0A0FE002002F048
:103F80009DFE932002F09AFE002002F097FEA220F0
:103F900002F094FE002002F091FEB32002F08EFEAB
:103FA000002002F08BFEBE2002F088FE002002F00E
:103FB00085FEC42002F082FE002002F07FFECD20AC
:103FC00002F07CFE002002F079FED32002F076FEA3
:103FD000002002F073FEDC2002F070FE002002F0F0
:103FE0006DFEF32002F06AFE002002F067FEE6207C
:103FF00002F06AFE112002F061FE002002F05EFE77
:10400000342002F05BFE002002F058FE562002F041
:1040100055FE002002F052FE762002F04FFE0020F6
:1040200002F04CFE772002F049FE002002F046FE2E
:10403000662002F043FE002002F040FE882002F0DD
:104040003DFE002002F03AFE992002F037FE0020EB
:1040500002F034FEBB2002F031FE002002F02EFE02
:10406000992002F02BFE002002F028FE662002F0CC
:1040700025FE002002F022FE552002F01FFE002047
:1040800002F01CFE552002F019FE002002F016FE80
:10409000452002F013FE002002F010FE432002F043
:1040A0000DFE002002F00AFE442002F007FE002070
:1040B00002F004FEE72002F007FE322002F0FEFDCF
:1040C000002002F0FBFD552002F0F8FD002002F078
:1040D000F5FD762002F0F2FD002002F0EFFD6620F3
:1040E00002F0ECFD002002F0E9FD672002F0E6FDA1
:1040F000002002F0E3FD672002F0E0FD002002F066
:10410000DDFD872002F0DAFD002002F0D7FD9920C6
:1041100002F0D4FD002002F0D1FDBB2002F0CEFD64
:10412000002002F0CBFD992002F0C8FD002002F033
:10413000C5FD772002F0C2FD002002F0BFFD442043
:1041400002F0BCFD002002F0B9FD562002F0B6FDE1
:10415000002002F0B3FD232002F0B0FD002002F0A9
:10416000ADFD332002F0AAFD002002F0A7FD45209E
:1041700002F0A4FD002002F0A1FDE82002F0A4FD61
:10418000002002F09BFD002002F098FD992002F033
:1041900095FD002002F092FD872002F08FFD0020A7
:1041A00002F08CFD882002F089FD002002F086FDDF
:1041B000772002F083FD002002F080FD662002F0EF
:1041C0007DFD002002F07AFD882002F077FD0020BE
:1041D00002F074FDAA2002F071FD002002F06EFDD5
:1041E000BB2002F06BFD002002F068FD992002F078
:1041F00065FD002002F062FD662002F05FFD0020F8
:1042000002F05CFD552002F059FD002002F056FD41
:10421000552002F053FD002002F050FD442002F032
:104220004DFD002002F04AFD442002F047FD002031
:1042300002F044FD552002F041FD002002F03EFD59
:10424000E92002F041FDAA2002F038FD002002F032
:1042500035FD002002F032FD002002F02FFD00208D
:1042600002F032FDAA2002F029FDCF2002F02CFD41
:10427000002002F023FD002002F020FD002002F0CB
:104280001DFD002002F01AFD002002F017FD0020A5
:1042900002F014FD002002F011FD002002F00EFDDE
:1042A000002002F00BFD002002F008FD002002F0CB
:1042B00005FD002002F002FD002002F0FFFC0020BE
:1042C00002F0FCFC002002F0F9FC002002F0F6FCF9
:1042D000002002F0F3FCF02002F0F6FC002002F0D7
:1042E000EDFC502002F0EAFC002002F0E7FC002088
:1042F00002F0E4FC002002F0E1FCF32002F0E4FC18
:10430000002002F0DBFCF92002F0DEFC062002F0C7
:10431000D5FC102002F0D2FC292002F0CFFC0020B6
:1043200002F0CCFC3A2002F0CFFC552002F0C6FC93
:10433000112002F0C9FC642003F09CFD292002F04A
:10434000C3FC352002F0C0FC002002F0B7FC512075
:1043500002F0BAFCFF2002F0B1FC532002F0B4FCE2
:104360002C2002F0ABFC552002F0AEFC822002F0C3
:10437000A5FC2C2002F0A8FC02F0E9B8FE488088D9
:1043800045F2105188427DD155214FF4704002F022
:10439000ABFCAA214FF2010002F0A6FC52214FF221
:1043A000020002F0A1FC08214FF2030002F09CFC85
:1043B00001214FF2040002F097FC0D214FF4304030
:1043C00002F092FC0D214BF2010002F08DFC0D2158
:1043D0004BF2020002F088FC34214FF4364002F028
:1043E00083FC34214BF2016002F07EFC34214BF25D
:1043F000026002F079FC0D214FF4314002F074FCB0
:104400000D214BF2011002F06FFC0D214BF2021056
:1044100002F06AFC34214FF4374002F065FC34218D
:104420004BF2017002F060FC34214BF2027002F09A
:104430005BFC00214FF4324002F056FC00214BF2AD
:10444000012002F051FC00214BF2022002F04CFC52
:1044500024214FF4384002F047FC24214BF60100A0
:1044600002F042FC24214BF6020002F03DFC012147
:104470004FF43F4002F038FC0F214FF4334002F07C
:1044800033FC00E0FDE30F214BF2013002F02CFC85
:104490000F214BF2023002F027FC34214FF4394057
:1044A00002F022FC34214BF6011002F01DFC3421F5
:1044B0004BF6021002F018FC08214FF4354002F0D0
:1044C00013FC08214BF2015002F00EFC08214BF2C4
:1044D000025002F009FC03214FF4424002F004FCB8
:1044E00024214FF43A4002F0FFFB24214BF6012037
:1044F00002F0FAFB24214BF6022002F0F5FB00212A
:104500004FF43C4002F0F0FB78214BF6014002F002
:10451000EBFB00214BF6024002F0E6FB00214FF4DA
:104520003D4002F0E1FB78214BF6015002F0DCFB4C
:1045300000214BF6025002F0D7FB00214FF43E4021
:1045400002F0D2FB64214BF6016002F0CDFB0021AA
:104550004FF4514002F0C8FB33214DF2011002F03C
:10456000C3FB00214DF2021002F0BEFB34214DF2DC
:10457000031002F0B9FB00214DF2041002F0B4FB6D
:104580003A214DF2051002F0AFFB00214DF206106A
:1045900002F0AAFB4A214DF2071002F0A5FB002110
:1045A0004DF2081002F0A0FB5C214DF2091002F060
:1045B0009BFB00214DF20A1002F096FB81214DF287
:1045C0000B1002F091FB00214DF20C1002F08CFB5D
:1045D000A6214DF20D1002F087FB00214DF20E10C6
:1045E00002F082FBE5214DF20F1002F07DFB01216C
:1045F0004DF2101002F078FB13214DF2111002F071
:1046000073FB01214DF2121002F06EFB54214DF2AA
:10461000131002F069FB01214DF2141002F064FB4B
:1046200082214DF2151002F05FFB01214DF21610B0
:1046300002F05AFBCA214DF2171002F055FB02217D
:104640004DF2181002F050FB00214DF2191002F04B
:104650004BFB02214DF21A1002F046FB01214DF2F4
:104660001B1002F041FB02214DF21C1002F03CFB3A
:1046700034214DF21D1002F037FB02214DF21E10C5
:1046800002F032FB67214DF21F1002F02DFB0221D8
:104690004DF2201002F028FB84214DF2211002F08F
:1046A00023FB02214DF2221002F01EFBA4214DF249
:1046B000231002F019FB02214DF2241002F014FB2A
:1046C000B7214DF2251002F00FFB02214DF226100A
:1046D00002F00AFBCF214DF2271002F005FB022168
:1046E0004DF2281002F000FBDE214DF2291002F0FD
:1046F000FBFA02214DF22A1002F0F6FAF2214DF2F5
:104700002B1002F0F1FA02214DF22C1002F0ECFA1B
:10471000FE214DF22D1002F0E7FA03214DF22E108A
:1047200002F0E2FA10214DF22F1002F0DDFA03211F
:104730004DF2301002F0D8FA33214DF2311002F070
:10474000D3FA03214DF2321002F0CEFA6D214DF270
:10475000331002F0C9FA00214FF4524002F0C4FABB
:1047600033214DF2012002F0BFFA00214DF2022068
:1047700002F0BAFA342101E0FC1900204DF20320C6
:1047800002F0B2FA00214DF2042002F0ADFA3A2113
:104790004DF2052002F0A8FA00214DF2062002F0A9
:1047A000A3FA4A214DF2072002F09EFA00214DF2B1
:1047B000082002F099FA5C214DF2092002F094FAE7
:1047C00000214DF20A2002F08FFA81214DF20B20D8
:1047D00002F08AFA00214DF20C2002F085FAA6219F
:1047E0004DF20D2002F080FA00214DF20E2002F071
:1047F0007BFAE5214DF20F2002F076FA01214DF20D
:10480000102002F071FA13214DF2112002F06CFA1F
:1048100001214DF2122002F067FA54214DF21320CB
:1048200002F062FA01214DF2142002F05DFA8221B9
:104830004DF2152002F058FA01214DF2162002F037
:1048400053FACA214DF2172002F04EFA02214DF21E
:10485000182002F049FA00214DF2192002F044FA22
:1048600002214DF21A2002F03FFA01214DF21B20E5
:1048700002F03AFA02214DF21C2002F035FA3421FE
:104880004DF21D2002F030FA02214DF21E2002F0FE
:104890002BFA67214DF21F2002F026FA02214DF279
:1048A000202002F021FA84214DF2212002F01CFA8E
:1048B00002214DF2222002F017FAA4214DF223200A
:1048C00002F012FA02214DF2242002F00DFAB72173
:1048D0004DF2252002F008FA02214DF2262002F0C6
:1048E00003FACF214DF2272002F0FEF902214DF20A
:1048F000282002F0F9F9DE214DF2292002F0F4F926
:1049000002214DF22A2002F0EFF9F2214DF22B2084
:1049100002F0EAF902214DF22C2002F0E5F9FE2125
:104920004DF22D2002F0E0F903214DF22E2002F08D
:10493000DBF910214DF22F2002F0D6F903214DF2C0
:10494000302002F0D1F933214DF2312002F0CCF9C0
:1049500003214DF2322002F0C7F96D214DF23320D0
:1049600002F0C2F900214FF4534002F0BDF93321A7
:104970004DF2013002F0B8F900214DF2023002F0A0
:10498000B3F934214DF2033002F0AEF900214DF2BB
:10499000043002F0A9F93A214DF2053002F0A4F9F1
:1049A00000214DF2063002F09FF94A214DF2073006
:1049B00002F09AF900214DF2083002F095F95C21DD
:1049C0004DF2093002F090F900214DF20A3002F068
:1049D0008BF981214DF20B3002F086F900214DF266
:1049E0000C3002F081F9A6214DF20D3002F07CF975
:1049F00000214DF20E3002F077F9E5214DF20F3033
:104A000002F072F901214DF2103002F06DF913211C
:104A10004DF2113002F068F901214DF2123002F02E
:104A200063F954214DF2133002F05EF901214DF289
:104A3000143002F059F982214DF2153002F054F988
:104A400001214DF2163002F04FF9CA214DF2173014
:104A500002F04AF902214DF2183002F045F9002126
:104A60004DF2193002F040F902214DF21A3002F0F5
:104A70003BF901214DF21B3002F036F902214DF2D3
:104A80001C3002F031F934214DF21D3002F02CF9C6
:104A900002214DF21E3002F027F967214DF21F303E
:104AA00002F022F902214DF2203002F01DF984219A
:104AB0004DF2213002F018F902214DF2223002F0BD
:104AC00013F9A4214DF2233002F00EF902214DF228
:104AD000243002F009F9B7214DF2253002F004F933
:104AE00002214DF2263002F0FFF8CF214DF227309F
:104AF00002F0FAF802214DF2283002F0F5F8DE213A
:104B00004DF2293002F0F0F802214DF22A3002F085
:104B1000EBF8F2214DF22B3002F0E6F802214DF2D3
:104B20002C3002F0E1F8FE214DF22D3002F0DCF8DD
:104B300003214DF22E3002F0D7F810214DF22F3024
:104B400002F0D2F803214DF2303002F0CDF83321DB
:104B50004DF2313002F0C8F803214DF2323002F04C
:104B6000C3F86D214DF2333002F0BEF800214FF44E
:104B7000544002F0B9F833214DF2014002F0B4F88C
:104B800000214DF2024002F0AFF834214DF2034013
:104B900002F0AAF800214DF2044002F0A5F83A21F3
:104BA0004DF2054002F0A0F800214DF2064002F05F
:104BB0009BF84A214DF2074002F096F800214DF291
:104BC000084002F091F85C214DF2094002F08CF8A7
:104BD00000214DF20A4002F087F881214DF20B408E
:104BE00002F082F800214DF20C4002F07DF8A6217F
:104BF0004DF20D4002F078F800214DF20E4002F027
:104C000073F8E5214DF20F4002F06EF801214DF2EC
:104C1000104002F069F813214DF2114002F064F8DF
:104C200001214DF2124002F05FF854214DF2134081
:104C300002F05AF801214DF2144002F055F8822199
:104C40004DF2154002F050F801214DF2164002F0ED
:104C50004BF8CA214DF2174002F046F802214DF2FE
:104C6000184002F041F800214DF2194002F03CF8E2
:104C700002214DF21A4002F037F801214DF21B409B
:104C800000E006E302F030F802214DF21C4002F091
:104C90002BF834214DF21D4002F026F802214DF28E
:104CA0001E4002F021F867214DF21F4002F01CF86F
:104CB00002214DF2204002F017F884214DF22140EC
:104CC00002F012F802214DF2224002F00DF8A42168
:104CD0004DF2234002F008F802214DF2244002F088
:104CE00003F8B7214DF2254001F0FEFF02214DF2FD
:104CF000264001F0F9FFCF214DF2274001F0F4FFEB
:104D000002214DF2284001F0EFFFDE214DF2294053
:104D100001F0EAFF02214DF22A4001F0E5FFF22105
:104D20004DF22B4001F0E0FF02214DF22C4001F04A
:104D3000DBFFFE214DF22D4001F0D6FF03214DF2A5
:104D40002E4001F0D1FF10214DF22F4001F0CCFF99
:104D500003214DF2304001F0C7FF33214DF23140C5
:104D600001F0C2FF03214DF2324001F0BDFF6D2181
:104D70004DF2334001F0B8FF00214FF4554001F0EF
:104D8000B3FF33214DF2015001F0AEFF00214DF28F
:104D9000025001F0A9FF34214DF2035001F0A4FFAD
:104DA00000214DF2045001F09FFF3A214DF20550D1
:104DB00001F09AFF00214DF2065001F095FF4A21C3
:104DC0004DF2075001F090FF00214DF2085001F024
:104DD0008BFF5C214DF2095001F086FF00214DF25E
:104DE0000A5001F081FF81214DF20B5001F07CFF50
:104DF00000214DF20C5001F077FFA6214DF20D502D
:104E000001F072FF00214DF20E5001F06DFFE5211F
:104E10004DF20F5001F068FF01214DF2105001F0EA
:104E200063FF13214DF2115001F05EFF01214DF29D
:104E3000125001F059FF54214DF2135001F054FF6C
:104E400001214DF2145001F04FFF82214DF2155017
:104E500001F04AFF01214DF2165001F045FFCA2131
:104E60004DF2175001F040FF02214DF2185001F0B1
:104E70003BFF00214DF2195001F036FF02214DF2A7
:104E80001A5001F031FF01214DF21B5001F02CFFAF
:104E900002214DF21C5001F027FF34214DF21D502C
:104EA00001F022FF02214DF21E5001F01DFF67218B
:104EB0004DF21F5001F018FF02214DF2205001F079
:104EC00013FF84214DF2215001F00EFF02214DF21B
:104ED000225001F009FFA4214DF2235001F004FFFC
:104EE00002214DF2245001F0FFFEB7214DF2255072
:104EF00001F0FAFE02214DF2265001F0F5FECF211D
:104F00004DF2275001F0F0FE02214DF2285001F041
:104F1000EBFEDE214DF2295001F0E6FE02214DF2BA
:104F20002A5001F0E1FEF2214DF22B5001F0DCFE9F
:104F300002214DF22C5001F0D7FEFE214DF22D50F2
:104F400001F0D2FE03214DF22E5001F0CDFE1021D2
:104F50004DF22F5001F0C8FE03214DF2305001F008
:104F6000C3FE33214DF2315001F0BEFE03214DF25C
:104F7000325001F0B9FE6D214DF2335001F0B4FE14
:104F800000214FF4564001F0AFFE33214DF2016095
:104F900001F0AAFE00214DF2026001F0A5FE3421CD
:104FA0004DF2036001F0A0FE00214DF2046001F01B
:104FB0009BFE3A214DF2056001F096FE00214DF274
:104FC000066001F091FE4A214DF2076001F08CFE6F
:104FD00000214DF2086001F087FE5C214DF209606E
:104FE00001F082FE00214DF20A6001F07DFE812178
:104FF0004DF20B6001F078FE00214DF20C6001F0E3
:1050000073FEA6214DF20D6001F06EFE00214DF2FF
:105010000E6001F069FEE5214DF20F6001F064FEC3
:1050200001214DF2106001F05FFE13214DF211607D
:1050300001F05AFE01214DF2126001F055FE54219B
:105040004DF2136001F050FE01214DF2146001F0A9
:105050004BFE82214DF2156001F046FE01214DF21A
:10506000166001F041FECA214DF2176001F03CFECE
:1050700002214DF2186001F037FE00214DF2196057
:1050800001F032FE02214DF21A6001F02DFE0121E5
:105090004DF21B6001F028FE02214DF21C6001F070
:1050A00023FE34214DF21D6001F01EFE02214DF25F
:1050B0001E6001F019FE67214DF21F6001F014FE21
:1050C00002214DF2206001F00FFE84214DF221609B
:1050D00001F00AFE02214DF2226001F005FEA4213A
:1050E0004DF2236001F000FE02214DF2246001F038
:1050F000FBFDB7214DF2256001F0F6FD02214DF2D6
:10510000266001F0F1FDCF214DF2276001F0ECFDAA
:1051100002214DF2286001F0E7FDDE214DF2296009
:1051200001F0E2FD02214DF22A6001F0DDFDF221E5
:105130004DF22B6001F0D8FD02214DF22C6001F000
:10514000D3FDFE214DF22D6001F0CEFD03214DF285
:105150002E6001F0C9FD10214DF22F6001F0C4FD59
:1051600003214DF2306001F0BFFD33214DF231607B
:1051700001F0BAFD03214DF2326001F0B5FD6D2161
:105180004DF2336001F0B0FD55214FF4704001F055
:10519000ABFDAA214FF2010001F0A6FD52214FF212
:1051A000020001F0A1FD08214FF2030001F09CFD77
:1051B00000214FF2040001F097FDCC214FF4314063
:1051C00001F092FD00214BF2011001F08DFD05214F
:1051D0004FF4364001F088FD70214FF4374001F064
:1051E00083FD70214BF2017001F07EFD01214FF42F
:1051F000384001F079FD03214BF6010001F074FD08
:1052000003214BF6020001F06FFD03214BF6030072
:1052100001F06AFD02214FF43C4001F065FD0021E0
:105220004BF6014001F060FD00214BF6024001F019
:105230005BFDD0214FF4494001F056FD02214CF6B0
:10524000011001F051FD50214CF6021001F04CFD0F
:1052500050214CF6031001F047FD50214CF604108C
:1052600001F042FD00214FF4545001F03DFD552165
:105270004FF4685001F038FD4FF4885001F024FDE0
:10528000782002F015FE4FF4245001F01DFD01F0CE
:105290005EB9FE48808849F2253188427ED147F6C2
:1052A000F001E52001F020FD4FF48071012001F0B4
:1052B0001BFD4FF4E061022001F016FD41F23001C8
:1052C000032001F011FD0021042001F00DFD40F24A
:1052D0000221082001F008FD0021092001F004FD51
:1052E00000210A2001F000FD00210C2001F0FCFC4F
:1052F00000210D2001F0F8FC00210F2001F0F4FC4A
:105300000021102001F0F0FC0721112001F0ECFC3D
:105310000021122001F0E8FC0021132001F0E4FC40
:105320000021072001F0E0FC41F29061102001F023
:10533000DBFC40F22721112001F0D6FC9D21122038
:1053400001F0D2FC4FF4C851132001F0CDFC25210F
:10535000292001F0C9FC0D212B2001F0C5FC0721FB
:10536000302001F0C1FC40F20331312001F0BCFCDF
:105370000321322001F0B8FC40F20621352001F073
:10538000B3FC0821362001F0AFFC40F20641372083
:1053900001F0AAFC4FF44171382000E057E001F021
:1053A000A3FC0721392001F09FFC40F202613C2060
:1053B00001F09AFC08213D2001F096FC00215020CC
:1053C00001F092FCEF21512001F08EFC00215220CF
:1053D00001F08AFC40F23F11532001F085FC4FF4AC
:1053E0002741602001F080FC0121612001F07CFC5C
:1053F00000216A2001F078FC0021802001F074FC7B
:105400000021812001F070FC0021822001F06CFC61
:105410000021832001F068FC0021842001F064FC5D
:105420000021852001F060FC1021902001F05CFC3F
:105430004FF4C061922001F057FC40F23311072075
:1054400001F052FC2221002001F04EFC1FE78F48A2
:10545000808849F2283188427ED141F28F01EC20C8
:1054600001F042FC41F23421EF2001F03DFC4FF409
:105470008071012001F038FC4FF4E061022001F05E
:1054800033FC41F23001032001F02EFC0021042006
:1054900001F02AFC40F20221082001F025FC002145
:1054A000092001F021FC00210A2001F01DFC01214E
:1054B0000C2001F019FC00210D2001F015FC002149
:1054C0000F2001F011FC0021102001F00DFC07213C
:1054D000112001F009FC0021122001F005FC00213F
:1054E000132001F001FC0121072001F0FDFB322017
:1054F00002F0C0FC41F29041102001F0F5FB40F2B7
:105500002721112001F0F0FB322002F0B3FC8A21A8
:10551000122001F0E9FB322002F0ACFC4FF4D05134
:10552000132001F0E1FB0621292001F0DDFB0D2114
:105530002B2001F0D9FB322002F09CFC002120201E
:1055400001F0D2FB0021212001F0CEFB322002F03D
:1055500091FC0021302000E074E001F0C5FB40F236
:105560000461312001F0C0FB40F20531322001F02E
:10557000BBFB0021352001F0B7FB40F60941362086
:1055800001F0B2FB4FF40171372001F0ADFB40F2A6
:105590000131382001F0A8FB40F20771392001F0F9
:1055A000A3FB00213C2001F09FFB40F60A213D2097
:1055B00001F09AFB322002F05DFC0021502001F046
:1055C00093FBEF21512001F08FFB0021522001F0CD
:1055D0008BFB40F23F11532001F086FB4FF4274133
:1055E000602001F081FB0121612001F07DFB0021A1
:1055F0006A2001F079FB0021802001F075FB002179
:10560000812001F071FB0021822001F06DFB00215F
:10561000832001F069FB0021842001F065FB00215B
:10562000852001F061FB1021902001F05DFB4FF41B
:10563000C061922001F058FB40F23311072001F0C5
:1056400053FB24E61148808849F2203188427DD1FD
:105650000021084601F048FB4FF48071012001F061
:1056600043FB4FF4E061022001F03EFB41F23001C8
:10567000032001F039FB0021042001F035FB40F24A
:105680000221082001F030FB002101E0FC1900207C
:10569000092001F029FB00210A2001F025FB01214E
:1056A0000C2001F021FB00210D2001F01DFB002149
:1056B0000F2001F019FB322002F0DCFB40F2011157
:1056C000072001F011FB322002F0D4FB4FF4865189
:1056D000102001F009FB0721112001F005FB4FF418
:1056E0008871122001F000FB4FF43061132001F0AB
:1056F000FBFA0021292001F0F7FA44F210012B20D7
:1057000001F0F2FA0021502001F0EEFAEF215120D1
:1057100001F0EAFA0021522001F0E6FA40F23F11CE
:10572000532001F0E1FA4FF41C51602001F0DCFA43
:105730000121612001F0D8FA00216A2001F0D4FA99
:105740000021802001F0D0FA002100E031E081202A
:1057500001F0CAFA0021822001F0C6FA002183205C
:1057600001F0C2FA0021842001F0BEFA0021852058
:1057700001F0BAFA1021902001F0B6FA002192202F
:1057800001F0B2FA0121932001F0AEFA4FF48871D2
:10579000952001F0A9FA0021972001F0A5FA002137
:1057A000982001F0A1FA40F27311072001F09CFA51
:1057B0006DE5FE48808849F2313188427DD141F261
:1057C0001401E72001F090FA4FF48071012001F0FC
:1057D0008BFA4FF40071022001F086FA41F2380191
:1057E000032001F081FA40F20221082001F07CFA46
:1057F0000021092001F078FA00210A2001F074FA52
:1058000000210C2001F070FA00210D2001F06CFA4B
:1058100000210F2001F068FA0021102001F064FA45
:105820000721112001F060FA0021122001F05CFA3A
:105830000021132001F058FAC82002F01BFB41F2AE
:105840009061102001F050FA40F22721112001F060
:105850004BFA322002F00EFB0C21122001F044FA28
:10586000322002F007FB4FF40061132001F03CFAF4
:105870001121292001F038FA0B212B2001F034FAF4
:10588000322002F0F7FA0021202001F02DFA40F238
:105890003F11212001F028FA0021302001F024FAE4
:1058A0004FF48371312001F01FFA0021322001F002
:1058B0001BFA4FF40171352000E064E001F014FAA6
:1058C00041F20A61362001F00FFA40F207713720E9
:1058D00001F00AFA4FF48371382001F005FA40F222
:1058E0000771392001F000FA40F202413C2001F03A
:1058F000FBF940F60F413D2001F0F6F90021502060
:1059000001F0F2F9EF21512001F0EEF900215220CF
:1059100001F0EAF940F23F11532001F0E5F94FF4AC
:105920001C51602001F0E0F90121612001F0DCF957
:1059300000216A2001F0D8F90021802001F0D4F97B
:105940000021812001F0D0F90021822001F0CCF962
:105950000021832001F0C8F90021842001F0C4F95E
:105960000021852001F0C0F91021902001F0BCF940
:105970004FF4C061922001F0B7F940F233110720D3
:1059800001F0B2F983E48948808845F208418842F1
:105990007ED14FF48071012001F0A6F94FF4E0614F
:1059A000022001F0A1F941F23001032001F09CF93D
:1059B0000021042001F098F940F20721082001F0AD
:1059C00093F90021092001F08FF900210A2001F04C
:1059D0008BF900210C2001F087F900210D2001F046
:1059E00083F900210F2001F07FF9142002F042FA20
:1059F00041F2B061102001F077F90121112001F08E
:105A000073F90121172001F06FF94FF49C711220F6
:105A100001F06AF94FF40061132001F065F90921E2
:105A2000292001F061F909212A2001F05DF9002106
:105A3000A42001F059F90021502001F055F9EF217F
:105A4000512001F051F90021522001F04DF940F2AE
:105A50003F11532001F048F94FF41C51602001F030
:105A600043F90121612001F03FF900216A2001F092
:105A70003BF90021802001F037F90021812001F05D
:105A800033F90021822001F02FF90021832000E06A
:105A900023E001F029F90021842001F025F90021FB
:105AA000852001F021F91321902001F01DF900213A
:105AB000922001F019F90321932001F015F94FF418
:105AC0008871952001F010F940F27311072001F060
:105AD0000BF9322002F0CEF9B8E43448808841F264
