:020000040800F2
:1000000030350020E9010008ED010008EF0100088B
:10001000F1010008F3010008F501000800000000EC
:10002000000000000000000000000000F7010008D0
:10003000F901000800000000FB010008FD010008B4
:10004000FF010008FF010008FF010008FF01000890
:10005000FF010008FF01000889120008FF010008E5
:10006000FF010008FF010008FF010008FF01000870
:10007000FF010008FF010008FF010008FF01000860
:10008000FF010008FF010008FF010008FF01000850
:10009000FF010008FF010008FF010008FF01000840
:1000A000FF010008FF010008FF010008FF01000830
:1000B000FF010008FF010008011D0008FF01000802
:1000C000FF010008FF010008FF010008FF01000810
:1000D000FF0100088D1D0008FF010008FF01000856
:1000E000FF010008FF010008FF01000800F002F80E
:1000F00000F06BF80AA090E8000C82448344AAF157
:100100000107DA4501D100F060F8AFF2090EBAE854
:100110000F0013F0010F18BFFB1A43F0010318473B
:10012000DC840000FC8400000A444FF0000C10F84E
:10013000013B13F0070408BF10F8014B1D1108BF65
:1001400010F8015B641E05D010F8016B641E01F805
:10015000016BF9D113F0080F1EBF10F8014BAD1C55
:100160000C1B09D16D1E58BF01F801CBFAD505E073
:1001700014F8016B01F8016B6D1EF9D59142D6D3CD
:10018000704700000023002400250026103A28BFF5
:1001900078C1FBD8520728BF30C148BF0B607047F9
:1001A000642900F03B85752900F03885782900F036
:1001B0007185632900F0A287732900F0A7870020CA
:1001C00070471FB51FBD10B510BD00F0FBFF1146F5
:1001D000FFF7F7FF03F030FD01F019F803B4FFF764
:1001E000F2FF03BC01F097FE08480047FEE7FEE778
:1001F000FEE7FEE7FEE7FEE7FEE7FEE7FEE7FEE7D7
:1002000003480449024A044B70470000ED0000080F
:100210003033002030350020303300202DE9FF4FEF
:10022000A3B06FF003022398239940680290896875
:10023000209123990988189102EB810108440390C9
:100240002698C0081F9000F084831898C008219059
:1002500024980168039801602498039950F8042FAA
:1002600041F8042F50F8042F41F8042F50F8042FC0
:1002700041F8042F00220C920192139212921092D4
:100280000F920E920D92209D029C50F8042F41F87F
:10029000042F50F8042F41F8042F50F8042F41F890
:1002A000042F42684A60083108300391249054F8C2
:1002B000040B0B9054F804AB54F8040B089054F85A
:1002C000049BDDF884B054F8048BBBF1000F54F8A4
:1002D000047B54F8046B00F0B28200BF55F8040BA5
:1002E000009054F8040B0A9000990B9807F00EF850
:1002F00011905046009907F009F81B900099089852
:1003000007F004F817904846009906F0FFFF1A908E
:100310004046009906F0FAFF19903846009906F019
:10032000F5FF16903046009906F0F0FF1590009901
:100330000A9806F0EBFF149055F8040B009054F85F
:10034000040B0B901199019806F0E0FD01901B99A8
:10035000139806F0DBFD13901799129806F0D6FD5E
:1003600012901A99109806F0D1FD109019990F98D3
:1003700006F0CCFD0F9016990E9806F0C7FD0E9072
:1003800015990D9806F0C2FD0D9014990C9806F081
:10039000BDFD0C905046009906F0B8FF11900099F1
:1003A000089806F0B3FF1B904846009906F0AEFF90
:1003B00017904046009906F0A9FF1A903846009918
:1003C00006F0A4FF19903046009906F09FFF1690A2
:1003D00000990A9806F09AFF159000990B9806F07C
:1003E00095FF149055F8040B009054F804AB119944
:1003F000019806F08BFD01901B99139806F086FD7D
:1004000013901799129806F081FD12901A9910987E
:1004100006F07CFD109019990F9806F077FD0F906B
:1004200016990E9806F072FD0E9015990D9806F02B
:100430006DFD0D9014990C9806F068FD0C900099D4
:10044000089806F063FF11904846009906F05EFF99
:100450001B904046009906F059FF179038460099C6
:1004600006F054FF1A903046009906F04FFF19909D
:1004700000990A9806F04AFF169000990B9806F02A
:1004800045FF15905046009906F040FF149055F82E
:10049000040B009054F8040B08901199019806F091
:1004A00035FD01901B99139806F030FD13901799B4
:1004B000129806F02BFD12901A99109806F026FD5E
:1004C000109019990F9806F021FD0F9016990E982B
:1004D00006F01CFD0E9015990D9806F017FD0D9075
:1004E00014990C9806F012FD0C904846009906F0FD
:1004F0000DFF11904046009906F008FF1B9038460A
:10050000009906F003FF17903046009906F0FEFEB2
:100510001A9000990A9806F0F9FE199000990B9824
:1005200006F0F4FE16905046009906F0EFFE159086
:100530000099089806F0EAFE149055F8040B009014
:1005400054F8049B1199019806F0E0FC01901B9966
:10055000139806F0DBFC13901799129806F0D6FC5E
:1005600012901A99109806F0D1FC109019990F98D2
:1005700006F0CCFC0F9016990E9806F0C7FC0E9072
:1005800015990D9806F0C2FC0D9014990C9806F080
:10059000BDFC0C904046009906F0B8FE119038461C
:1005A000009906F0B3FE1B903046009906F0AEFEAF
:1005B000179000990A9806F0A9FE1A9000990B98D6
:1005C00006F0A4FE19905046009906F09FFE169082
:1005D0000099089806F09AFE15904846009906F092
:1005E00095FE149055F8040B009054F8048B119963
:1005F000019806F08BFC01901B99139806F086FC7D
:1006000013901799129806F081FC12901A9910987D
:1006100006F07CFC109019990F9806F077FC0F906B
:1006200016990E9806F072FC0E9015990D9806F02A
:100630006DFC0D9014990C9806F068FC0C903846EF
:10064000009906F063FE11903046009906F05EFEB8
:100650001B9000990A9806F059FE179000990B9884
:1006600006F054FE1A905046009906F04FFE19907D
:100670000099089806F04AFE16904846009906F040
:1006800045FE15904046009906F040FE149055F83E
:10069000040B009054F8047B1199019806F036FC85
:1006A00001901B99139806F031FC1390179912983A
:1006B00006F02CFC12901A99109806F027FC109066
:1006C00019990F9806F022FC0F9016990E9806F0D3
:1006D0001DFC0E9015990D9806F018FC0D901499BC
:1006E0000C9806F013FC0C903046009906F00EFEB4
:1006F000119000990A9806F009FE1B9000990B983A
:1007000006F004FE17905046009906F0FFFD1A907F
:100710000099089806F0FAFD19904846009906F0ED
:10072000F5FD16904046009906F0F0FD159038460C
:10073000009906F0EBFD149055F8040B009054F866
:10074000046B1199019806F0E1FB01901B99139835
:1007500006F0DCFB13901799129806F0D7FB129065
:100760001A99109806F0D2FB109019990F9806F07C
:10077000CDFB0F9016990E9806F0C8FB0E901599B8
:100780000D9806F0C3FB0D9014990C9806F0BEFB73
:100790000C9000990A9806F0B9FD119000990B98F9
:1007A00006F0B4FD1B905046009906F0AFFD17907F
:1007B0000099089806F0AAFD1A904846009906F09C
:1007C000A5FD19904046009906F0A0FD1690384608
:1007D000009906F09BFD15903046009906F096FDB5
:1007E0001490ABF1010B1199019806F08FFB019069
:1007F0001B99139806F08AFB13901799129806F02C
:1008000085FB12901A99109806F080FB10901999A8
:100810000F9806F07BFB0F9016990E9806F076FB6A
:100820000E9015990D9806F071FB0D9014990C9887
:1008300006F06CFB0C90BBF1000F7FF44FAD1898E5
:1008400010F0070B63D000BF55F8040B009054F86C
:10085000040B0A9000990B9806F058FD1190504631
:10086000009906F053FD1B900099089806F04EFD84
:1008700017904846009906F049FD1A9040460099A5
:1008800006F044FD19903846009906F03FFD169099
:100890003046009906F03AFD159000990A9806F046
:1008A00035FDCDF82CA0DDF820A0CDF82090C14674
:1008B0001490B84637460A9E1199019806F026FB17
:1008C00001901B99139806F021FB13901799129829
:1008D00006F01CFB12901A99109806F017FB109066
:1008E00019990F9806F012FB0F9016990E9806F0C2
:1008F0000DFB0E9015990D9806F008FB0D901499BC
:100900000C9806F003FB0C90BBF1010B9CD10298F4
:10091000203002902599019808602598139940F895
:10092000041F129940F8041F109940F8041F0F99F2
:1009300040F8041F0E9940F8041F0D9940F8041F59
:100940000C994160083025901F98401E1F907FF43D
:100950007FAC269810F0070850D024980025016835
:10096000039801602498209E001D24900398029C07
:10097000001D0390DDF860903168206806F0C6FC29
:10098000294606F0C3FA371D261D0546B9F10104B4
:1009900029D0B4F1004F7DD2002C24DD361F3F1F3B
:1009A00014F0010F09D057F8041F56F8040F06F091
:1009B000ADFC294606F0AAFA0546641013D0796802
:1009C000706806F0A3FC294606F0A0FA054657F821
:1009D000081F56F8080F06F099FC294606F096FA0B
:1009E0000546641EEBD1259805602598001D2590CD
:1009F0000298001D0290B8F10108AED12398189911
:100A000040684C1EA30820D0B3F1004F56D2002BF3
:100A10001BDD029A01469C4652F8045B41F8045BD8
:100A200052F8045B41F8045B52F8085B41F8085B3C
:100A300052F8045C41F8045CBCF1010CECD1029961
:100A400000EB031001EB0311029114F0030104BF4A
:100A500027B0BDE8F08FB1F1004F44D20029DCBFD0
:100A600027B0BDE8F08F031F029A121F11F0010F8B
:100A700003D052F8040F43F8040F480804BF27B00E
:100A8000BDE8F08F5168596052F8081F43F8081FFD
:100A9000401E00E003E0F5D127B0BDE8F08F3968D3
:100AA000306806F033FC294606F030FA0546641E2D
:100AB00006F1040607F10407F1D194E702990968E9
:100AC00040F8041B029951F8042F40F8042B51F808
:100AD000042F40F8042B4A68083140F8042B029197
:100AE0005B1EEBD1B1E7029A126840F8042B029A20
:100AF000121D0292491EF6D127B0BDE8F08F70B5E5
:100B000004460498218008448000011F1D461846B1
:100B1000A26000F0E3F9656070BD704710B54C103D
:100B200084EA530404D54042C1F1000138BF491E94
:100B30001B4204D55242C3F1000338BF5B1E00F0D4
:100B4000F8F914F0804F04D04042C1F1000138BFE1
:100B5000491E14F0004F04D05242C3F1000338BFC5
:100B60005B1E10BD0FB4044910B503AA029800F033
:100B7000D1FA10BC5DF814FB5800002070B5044693
:100B800085690068C10601D5302600E02026C0072F
:100B900007D070BDD4E9012130469047206A401C3F
:100BA00020626D1EF6D570BD70B50446856900786B
:100BB000C00707D170BDD4E9012120209047206AE9
:100BC000401C20626D1EF6D570BD70B50C46054602
:100BD000012A05D02878800600D5EA69002302E0C2
:100BE000012305E05B1C934202D2E05C0028F9D1AE
:100BF000A869E618C01AA861286A1844286228461D
:100C0000FFF7BCFF04E0D5E9012114F8010B904780
:100C1000B442F8D32846FFF7C7FF70BD2DE9F04175
:100C20000646002410687529314616A510D0AFF38A
:100C30000080002802DA404213A507E031688A07E5
:100C400001D512A502E0490704D511A5012401E050
:100C5000AFF3008000210A2206F1240709E0B0FB6F
:100C6000F2FCB0FBF2F302FB1C0030307854184663
:100C7000491C0028F3D123462A463046BDE8F041FE
:100C800000F0D9B9000000002D0000002B0000008A
:100C90002000000070B504460D4621461068AFF3F1
:100CA00000802188090502D50F4A7A4402E00E4AE5
:100CB0007A440E32002104F1240305E000F00F060F
:100CC0000009965D5E54491C0028F7D12078002366
:100CD000000704D5702D02D009B10223113220463D
:100CE000BDE8704000F0A7B9E07600002DE9F05FA4
:100CF000894604464FF0000ADFF874B1FB44C0F89F
:100D000020A02046E1688847002874D0252806D016
:100D1000D4E901219047206A401C2062F1E70026B7
:100D20005F462046E16888472028054607DB312DCD
:100D300005D2781910F8200C08B10643F1E7B00786
:100D400001D526F00406C4F81CA00027C4F818A09A
:100D50002A2D09D0284601F0D7F838B304EB8708CC
:100D6000303DC8F8185019E059F8041B204604EB30
:100D700087029161E1688847012F054618D1E06933
:100D8000002820DA26F020061DE0D8F8180000EB35
:100D9000800005EB40003038C8F818002046E168B4
:100DA0008847054601F0B0F80028EED1012F0AD09F
:100DB0002E2D08D12046E16888477F1C0546022F6A
:100DC00046F02006C4DBA069002803DA404246F062
:100DD0000106A061F00701D026F010066C2D0BD0A3
:100DE000682D09D04C2D39D06A2D35D0742D35D0D1
:100DF0007A2D33D016E038E0E1682F462046884748
:100E0000B842054609D16C2F26D04FF48060E168C6
:100E1000064320468847054604E06C2F1AD04FF45D
:100E2000807006430DB3A5F14100192802D8203582
:100E300046F400664A462946204626604E46FFF79D
:100E4000AFF980B101280BD0F61D26F0070000F1A4
:100E5000080956E74020E4E78020D8E70020D6E7DD
:100E600006F104094DE7284652E7206ABDE8F09FE5
:100E7000B676000040EA010310B59B070FD1042AA3
:100E80000DD310C808C9121F9C42F8D020BA19BA55
:100E9000884201D9012010BD4FF0FF3010BD1AB1BA
:100EA000D30703D0521C07E0002010BD10F8013B0F
:100EB00011F8014B1B1B07D110F8013B11F8014B36
:100EC0001B1B01D1921EF1D1184610BD02F0FF0389
:100ED00043EA032242EA024200F030B94FF0000236
:100EE00000B5134694469646203922BFA0E80C5020
:100EF000A0E80C50B1F12001BFF4F7AF090728BFFB
:100F0000A0E80C5048BF0CC05DF804EB890028BF76
:100F100040F8042B08BF704748BF20F8022B11F09F
:100F2000804F18BF00F8012B70477047704770471B
:100F3000704753EA020C00F069802DE9F04B4FF046
:100F40000006002B1FBFB3FA83F503FA05F424FA59
:100F500005F65E4012BF1643B2FA82F502FA05F4B6
:100F6000C5F120051EBF22FA05FC44EA0C04203519
:100F700056EA044C4FEA144418BF641C4FF00008B2
:100F80004FF00009904271EB030C39D3002919BFCF
:100F9000B1FA81F701FA07F6B0FA80F700FA07F61E
:100FA000C7F120071EBF20FA07FC46EA0C062037CF
:100FB000B6FBF4FCA7EB0507103F07F01F0BCBF1C6
:100FC00020060CFA0BFB2CFA06F644BFB3460026AB
:100FD000202FA4BF5E464FF0000B5BEA060C08BF53
:100FE0004FF0010B19EB0B09ABFB027C48EB060839
:100FF000C01B06FB02CC0BFB03CC71EB0C01C1E761
:101000000B46024641464846BDE8F08B13B54FF00B
:1010100000004FF00001AFF30080BDE81C407047B6
:1010200010B500F0ABF8006810BD10B5044600F034
:10103000A5F8046010BD2DE9F0470D46994692468B
:10104000044600F124080168880604D5E06921F00F
:101050001001216000E00120A84201DD471B00E0F3
:101060000027A1697A1902EB0900081AA06120780B
:10107000C00602D42046FFF781FD002608E0D4E92F
:1010800001211AF806009047206A401C761C206255
:101090004E45F4DB2078C0060AD52046FFF76EFDEA
:1010A00006E0D4E9012130209047206A401C2062EC
:1010B000381EA7F10107F4DC07E0D4E9012118F894
:1010C00005009047206A401C2062281EA5F10105FA
:1010D000F3DC2046FFF768FD2078000602D50220E9
:1010E000BDE8F0870120FBE710B5436913B1AFF30A
:1010F000008001E0FFF769FD012010BD127800F1CA
:1011000024010A7000224A700122EDE711684FF0B5
:10111000FF32E9E7074B70B50D467B4400F037F826
:101120000446284600F046F810B14FF0FF3070BD7D
:10113000204670BD2F2300004FF000020429C0F0AC
:10114000128010F0030C3FF4CBAECCF1040CBCF1D8
:10115000020F18BF00F8012BA8BF20F8022BA1EB4B
:101160000C01FFF7BDBE5FEAC17C24BF00F8012B74
:1011700000F8012B48BF00F8012B7047004870476A
:10118000D032002001694A1C02610878704700B51E
:101190008FB0CDE901310021059105497944CDE9B0
:1011A000031011466846FFF7A1FD0FB000BD000017
:1011B000E5FFFFFF007B00F08000704700487047AC
:1011C000D03200207546FFF7F9FFAE4605006946AC
:1011D000534620F00700854618B020B5FFF710F8F9
:1011E000BDE820404FF000064FF000074FF0000828
:1011F0004FF0000B21F00701AC46ACE8C009ACE8A9
:10120000C009ACE8C009ACE8C0098D46704710B50C
:101210000446AFF300802046BDE81040FEF7DEBF75
:101220002DE9F34F83B08146D9E90056D9E900781A
:1012300001241DE009EBC40103C92A463346CDE968
:10124000000105F025FC03D809EBC40060C8A246E4
:1012500009EBC40003C83A464346CDE9000105F056
:10126000DDFA04D809EBC400D0E90078A346641C79
:1012700004988442DEDBCBF10300A0EB0A0002906D
:10128000504605B0BDE8F08F10B50A2001F0F6F920
:101290000A48006801280CD1094803F065FE094995
:1012A00008600948006808B9012000E000200649EC
:1012B000086001200549086010BD00009401234228
:1012C000F8190020180000209481214214040140E4
:1012D00010B502220021084600F008F80223062279
:1012E0000321184600F06AFC10BD000070B50446EA
:1012F0000B46CE1701EB9676C6F38700CE1701EBAF
:101300009676B610A1EB8606B606350E1C4B9B6989
:1013100043F001031A4EB3614FEAB63353F820305D
:101320000F26AE40B343174E46F82030334653F8ED
:10133000203004FA05F61E43124B43F82060124B8E
:101340001B6801268E4033430F4E336002F00103C9
:1013500043B10D4B0C331B6801268E4033430A4EBC
:101360000C36336002F0020343B1074B08331E68AA
:1013700001238B401E43044B08331E6070BD0000E8
:101380000010024008000140000401402DE9F04F28
:1013900089B005460E4691469A46002400E0641C3A
:1013A00055F82400494605F07DFFF8D355F8240090
:1013B000514606F077F8F2D3B44202DC55F82470B7
:1013C00000E01E4F641C00E0641C55F824004946F0
:1013D00005F068FFF8D355F82400514606F062F88E
:1013E000F2D3B44202DC55F8248001E0DFF84C80EF
:1013F000404605F05FFD4FF03332114BCDE900015F
:1014000005F048FACDE90401384605F053FD4FF0E8
:1014100066320C4BCDE9000105F03CFACDE9020142
:10142000DDE9042304F0CEFFCDE9060104F098FFC6
:101430008346584609B0BDE8F08F0000000080BF29
:101440003333D33F6666E63F2DE9F04788B08246E6
:10145000894600200546064600210F46884600249E
:101460000CE05AF8240005F025FD2A463346CDE964
:10147000060104F0A7FF05460E46641C4C45F0DB50
:10148000A9F1010005F0B2F902460B46CDE90601CB
:101490002846314605F052F805460E46002424E061
:1014A0005AF8240005F006FD2A463346CDE900012E
:1014B00005F016FCCDE904015AF8240005F0FAFC09
:1014C0002A463346CDE9000105F00AFCCDE90201C8
:1014D000DDE9042305F0DEF93A464346CDE906018D
:1014E00004F070FF07468846641C4C45D8DB09F1C0
:1014F000010005F07BF902460B46CDE906013846AE
:10150000414605F01BF8074688463846414608B074
:10151000BDE8F08701464906084A926942F0010297
:10152000064B9A61064A526822F0E062044B5A6008
:101530001A4652680A435A60704700000010024081
:10154000000001401848806940F008001649886191
:101550000846806940F0400088611448006820F423
:101560007000124908600846006840F440100860A6
:101570000E480C30006840F020000C490C31086027
:101580000B48006820F470000949086008460068AC
:1015900040F44010086006480C30006840F020001D
:1015A00003490C310860704700100240000C0140F4
:1015B000001801402DE9F84F6B46022241216820B6
:1015C00000F0F1F99DF801009DF8001040EA0120BB
:1015D0000FFA80FA504605F009F9804600220B4BBD
:1015E00004F0ACFF06460A4A0A4B04F0EBFE044640
:1015F00004F0B6FE83460849584605F087FE0446C7
:1016000005F0E8FD00B2BDE8F88F0000004075402D
:10161000A4703D0AD74342400000C84210B50020E4
:101620000E4908600E48006820F470400C490860BC
:101630000846006840F44050086000200949C1F89D
:10164000AC0100F011F801200449086000F00CF82A
:1016500000200449C1F8A80110BD0000A881214262
:10166000040C01400080214210B5022001F024F852
:1016700010BD00000C48806940F008000A498861EC
:101680000A48006820F47F4008490860084600685E
:1016900040F44C50086005480830006840F4406051
:1016A000024908310860704700100240040C0140F4
:1016B00010B500200E4908600E48006820F4704004
:1016C0000C4908600846006840F44050086001205A
:1016D0000949C1F8AC01FFF7C7FF012004490860C0
:1016E000FFF7C2FF00200449C1F8A80110BD0000A7
:1016F000A8812142040C01400080214270B50546BA
:1017000000241648006820F4704014490860084618
:10171000006840F400400860002614E000201049F2
:101720000860FFF7A1FF01200E49C1F8A80160067B
:10173000040E0B487C38006808B1601CC4B2FFF787
:1017400093FF701CC6B2082EE8DB15B9FFF7B0FF97
:1017500001E0FFF763FF204670BD0000040C01406C
:10176000A88121420080214270B5044612480068D9
:1017700020F47040104908600846006840F440506A
:10178000086000200D490860002512E0E0090B49BF
:10179000091D08606006040E01200949C1F8A8016E
:1017A000FFF762FF002005490860FFF75DFF681C36
:1017B000C5B2082DEADB70BD040C0140A8812142AE
:1017C0000080214210B50E48006820F470400C499A
:1017D00008600846006840F440500860012009494C
:1017E00008600949C1F8A801FFF73EFF002005493C
:1017F0000860FFF739FF00200349C1F8A80110BDB8
:10180000040C0140AC8121420080214210B50E48F9
:10181000006820F470400C4908600846006840F4F5
:10182000405008600020094908600949C1F8AC012E
:10183000FFF71AFF0120054908600549C1F8AC010E
:10184000FFF712FF10BD0000040C0140A8812142E7
:101850000080214210B500241448006820F4704034
:10186000124908600846006840F400400860012002
:101870000F490860FFF7F8FE01200E49C1F8A801E2
:10188000FFF7F2FE07E0601CC4B2FA2C03DDFFF79D
:10189000BDFF012010BD0648803800680028F2D145
:1018A0000349091F086000BFF4E70000040C014071
:1018B000AC8121420080214210B52948806940F066
:1018C0000400274988612748006820F070402549B6
:1018D00008600846006840F0405008600120FFF7AB
:1018E00019FE002020490860FFF7C4FE80216B200C
:1018F00000F0DDF8642000F0C1FE00216B2000F054
:10190000D6F8032000F091F8002000F086F832208D
:1019100000F0B0F80021382000F0C9F800216A205A
:1019200000F0C5F80021232000F0C1F88021372005
:1019300000F0BDF8752000F019F80446682C0BD1B2
:1019400001216B2000F0B3F800216C2000F0AFF80B
:10195000322000F08FF801E0012010BD0020FCE7EC
:101960000010024004080140BC01214270B5044649
:10197000FFF728FFD020FFF7F7FEFFF76BFF2046A9
:10198000FFF7F2FEFFF766FFFFF71CFFD120FFF71E
:10199000EBFEFFF75FFF0020FFF7B0FE0546FFF705
:1019A00035FF284670BD2DE9F04106460F46144626
:1019B0001D46FFF707FF002141EA4601C8B2FFF7C5
:1019C000D3FEFFF747FF20B1FFF720FF0120BDE85E
:1019D000F0813846FFF7C8FEFFF73CFFFFF7F2FE45
:1019E000012101EB4601C8B2FFF7BEFEFFF732FF4F
:1019F0000DE0012C04D10020FFF780FE287003E0E9
:101A00000120FFF77BFE2870601EC4B26D1C002C05
:101A1000EFD1FFF7FBFE0020D9E710B50446E00642
:101A2000010E1C2000F043F810BD10B50446E0067E
:101A3000010E1B2000F03BF810BD70B504460025D8
:101A4000BC2C01DB012510E0622C01DB02250CE03F
:101A50002A2C01DB032508E0142C01DB042504E01B
:101A60000A2C01DB052500E0062529461A2000F096
:101A70001EF870BD70B50446B4F57A7F01DD4FF4F1
:101A80007A74042C00DA04244FF47A7090FBF4F09A
:101A9000401EC5B22946192000F009F80546264621
:101AA00004EBD671C1F34F00FFF7C7FF70BD70B5EF
:101AB00005460C46FFF786FED020FFF755FEFFF7E0
:101AC000C9FE18B1FFF7A2FE012070BD2846FFF73E
:101AD0004BFEFFF7BFFE2046FFF746FEFFF7BAFEBC
:101AE00018B1FFF793FE0120EFE7FFF78FFE00200C
:101AF000EBE72DE9F04105460E4617469846FFF7FD
:101B000061FE002141EA4501C8B2FFF72DFEFFF753
:101B1000A1FE20B1FFF77AFE0120BDE8F08130463A
:101B2000FFF722FEFFF796FE00240CE018F80400F1
:101B3000FFF71AFEFFF78EFE18B1FFF767FE0120D0
:101B4000EBE7601CC4B2BC42F0DBFFF75FFE002095
:101B5000E3E7000000B5002015490861C8601420C3
:101B6000486100208861C8610846006840F00100B3
:101B70000860084640680F4908400D49486008461B
:101B800000680D4908400A4908600846006820F4CA
:101B9000802008600846406820F4FE00486000206D
:101BA000886000214FF0006000F058F800BD000090
:101BB000001002400000FFF8FFFFF6FE2DE9F041A3
:101BC0000746884614461D46284600F033F8C5F1FE
:101BD000040007FA00F60F20284100EA0800064337
:101BE00006F00F06E21704EBD2625211920002F1E6
:101BF000E022D2F800212146E31704EBD3635B1106
:101C0000A4EB431C012303FA0CF31A432046E31709
:101C100004EBD3635B119B0003F1E023C3F80021C5
:101C20000348005D40EA061001490855BDE8F0810F
:101C300000E400E00146072323EA01021202054BFB
:101C400018684FF6FF031840034B18431043014B2D
:101C5000186070470CED00E00000FA05024A0A40E7
:101C60000243024B1A60704780FFFF1F08ED00E03F
:101C700030B504460025FFF76DFF1F48006840F4AB
:101C800080301D49086000BF1B480068400C0028D8
:101C9000FAD04FF4806018494860A01EC4B20846CC
:101CA000406840EA844048600846406840F480301C
:101CB00048601248006840F03200104908600E4841
:101CC000006840F080700C49086000BF0A48006856
:101CD000400E0028FAD00848406840F0020006494B
:101CE000486005E004484068C0F3870505F0030537
:101CF000022DF7D130BD000000100240002002404C
:101D000010B50C48008800F0010058B10A49086974
:101D1000804700200749143108804FF47A70054944
:101D20001C3108800348008820F001000149088028
:101D300010BD000010080040B400002070B505463A
:101D40000C461048C06940F004000E49C8610E48B6
:101D50000580001F04800C482038008840F00100F6
:101D600009492039088008482C38008840F00100D3
:101D700005492C39088002231E2203210846FFF75B
:101D80001DFF70BD001002402C0800401D4909884D
:101D900001F0200111B31B49091D0988C8B21A4975
:101DA000098801F40041C9B91749098801F4804143
:101DB00061B10A2803D00021134A118020E01249A2
:101DC000098841F40041104A118019E00D2806D11C
:101DD0000D49098841F480410B4A118010E00A49FD
:101DE0000988C1F30D01094A505407490988491C63
:101DF000054A118011460988C72901DD002111809B
:101E000070470000003801405C00002008320020CC
:101E1000490050EAC12018BF04204A0D18BF40F005
:101E2000010040F2FF72B2EB515F08BF40F00200C8
:101E3000012808BF052070472DE9F0414F1E00EB37
:101E4000C7010446D1E9000115461E4637F00602D7
:101E50000DD02A46334604F01DFD7F1E04EBC70358
:101E6000D3E9002304F0AEFA37F00602F1D1022FD5
:101E700025D0042F13D0062F18BFBDE8F0812A46C5
:101E8000334604F007FDD4E90A2304F09BFA2A46FE
:101E9000334604F0FFFCD4E9082304F093FA2A4601
:101EA000334604F0F7FCD4E9062304F08BFA2A4603
:101EB000334604F0EFFCD4E9042304F083FA2A4605
:101EC000334604F0E7FCD4E9022304F07BFA2A4607
:101ED000334604F0DFFCD4E90023BDE8F04104F010
:101EE00071BA012205F0C1BB04F06CBA002213469E
:101EF0001046114604F022BB024A0020110705F0EB
:101F0000B4BB000001FDFFFF30380A2801D20120D8
:101F1000704700207047014600BF70472DE9FE4F13
:101F2000074688460026684601F02CFB002444E062
:101F300057F8240058F82410A0EB010ABAF1000F5A
:101F400001DB514601E0CAF10001084605F07EF9C7
:101F500083464FF08F4105F047F881465DF8240035
:101F6000002105F003F918D05DF82410484605F06B
:101F70003BF882464FF07E5105F0D0FA054600BF8F
:101F800025F0004082460F48416A504605F08AFA23
:101F900012D20120A04006430EE00A48C16948461B
:101FA00005F080F905D30748016A484605F07AFA3A
:101FB00002D20120A0400643641C032CB8DB30464B
:101FC000BDE8FE8F707700082DE9F04D8D4F21F0B0
:101FD000004A86B005460C46BA452ADBAAEB070044
:101FE00028430AD08848824501DC1AD1CDB106B019
:101FF0002846BDE8F04DFFF774BF844A844B28465D
:1020000004F048FC07460E46824A834B2846214688
:1020100004F040FC06B03A463346BDE8F04D04F00B
:10202000D1B90120FFF701F806B0BDE8F04DFFF788
:102030005DBF7A48824542DABAF1795F0BDA284609
:10204000FFF7E6FE042808BFFFF756FF284606B054
:102050002146BDE8F08D2A460B46104604F01AFCD6
:10206000834602466E480E460B4606217844FFF72B
:10207000E3FE5A46334604F00DFC804669488A4622
:102080005A46334604217844FFF7D6FE5A46334673
:1020900004F000FC00223B4604F094F902460B4693
:1020A0004046514604F04AFA2A46234604F0F2FB21
:1020B00006B02A462346BDE8F04D04F083B9284611
:1020C00024F0004100223D463B4604F017FD4FF04E
:1020D000FF3205F0CAFA0646024653480F460B4641
:1020E00006217844FFF7A8FE32463B4604F0D2FBB7
:1020F000CDE900014D4832463B4604217844FFF7C4
:102100009BFE32463B4604F0C5FB00222B4604F002
:1021100059F9834602913046394603F055F8804616
:1021200043480D46504517DCDDE900015A46029B45
:1021300004F004FA42462B4604F0ACFB42462B4620
:1021400004F040F9012205F090FA304A304B04F0D7
:10215000C7FD304A304B4CE04FF0000A52460B4668
:10216000404604F02FF9CDE9031052462B461046A5
:10217000194604F08FFB32463B4604F0BFFCDDE914
:10218000033204F0DBF906460F46DDE900015A464A
:10219000029B04F0D3F98346009101223046394670
:1021A00005F063FA194A1A4B04F0A8FC06460F46DC
:1021B00001224046294605F058FA5A46009B04F091
:1021C00069FB32463B4604F08BFD06460F46012272
:1021D0005046294605F049FA0E4DDFF858802A4648
:1021E000434604F08BFC32463B4604F087FC2A460B
:1021F000434604F083FC002CD8BF81F0004106B0B8
:10220000BDE8F08D0000F03F0000F07F075C143364
:1022100026A6913C182D4454FB21F93F0000E03FD5
:10222000586300006E630000E2620000F862000084
:102230003333EF3FFB21E93F2DE9F84F04460D46CC
:1022400021F0004000917349814211DC72498842BB
:1022500001DC06D12CB120462946BDE8F84FFFF736
:1022600040BE6E48002DCCBF6D496E49BDE8F88F69
:102270006D49814211DD6D498142D8BF4FF0FF3673
:102280006DDD20462946FFF7C3FD042808BFFFF790
:1022900033FE20462946BDE8F88F6549654F25F095
:1022A0000045814233DD6449814219DD0026324612
:1022B0004FF080432046294604F084F880468A4641
:1022C00001222046294605F0D0F900223B4604F0C1
:1022D00007FD4246534604F031F904460D463EE000
:1022E00001260022BA463B462046294604F06AF8F9
:1022F00080460F46002253462046294604F0F0FC53
:1023000042463B4604F01AF904460D4627E04B4985
:1023100081421BDDDFF828A1022600225346204619
:10232000294604F0B7FA00223B4604F04BF88046F9
:102330000F46002253462046294604F0D1FC42466F
:102340003B4604F0FBF804460D4608E0032622460F
:102350002B4600203B4904F0F1F804460D46224686
:102360002B461046194604F095FA8B4682460246E3
:102370000B4604F08FFA07460246334888460B4660
:1023800006217844FFF758FD52465B4604F082FA76
:1023900082462E488B463A46434605217844FFF74D
:1023A0004BFD3A46434604F075FA02460B46002EB2
:1023B000504659460CDA04F005F822462B4604F044
:1023C00069FA01B022462B46BDE8F04F04F096BBF7
:1023D00003F0F8FF22462B4604F05CFA1C4A7A44CC
:1023E00002EBC603D3E9002304F07AFC22462B4615
:1023F00004F076FC174A7A4402EBC603D3E90023C3
:1024000004F07CFB009A002AB8BF81F00041BDE8CF
:10241000F88F0000000010440000F07F182D445495
:10242000FB21F93FFB21F9BF0000DC3F0000203E0B
:102430000000F33F0000F03F0000E63F0080034053
:102440000000F83F0000F0BFFA600000B860000034
:10245000566000001E6000002DE9F04D9446CCF15E
:10246000000423F000464CEA0404524F46EAD474B8
:102470009A46884621F00042BC4206D8454240EACE
:10248000050442EAD474BC4204D9BDE8F04D62466A
:10249000FFF72ABDAAF14055A5F17F6555EA0C0466
:1024A0000BD0022404EAAA74434DDFF810E144EA99
:1024B000D87452EA000B04D00CE0BDE8F04DFFF7F1
:1024C000BBBE002C14BF012CBDE8F08D022C30D017
:1024D000032C32D056EA0C0B0AD0BE4220D1BA42AD
:1024E00009D126F0804622F080423346114617E09B
:1024F00000291ADB25E0DFF8C8B0FB44002C04BF3C
:10250000DBE90001BDE8F08D012C02BFDBE9000131
:1025100081F00041BDE8F08D022C0AD0032C0CD0D4
:10252000BA4212D1B8F1000F0BDA23482549BDE8B1
:10253000F08D28462449BDE8F08D28467146BDE857
:10254000F08D1D482149BDE8F08D921B12153C2AE3
:10255000C4BF19481D490EDCBAF1000FBEBF12F10D
:102560003C0F0020014606DB624603F0E7FF21F046
:102570000041FFF761FE002C08BFBDE8F08D012C83
:1025800004BF81F00041BDE8F08D114A114B022CCF
:1025900007D004F0A5FB2A46BDE8F04D0A4B04F035
:1025A0009FBB04F09DFB2A46BDE8F04D064B04F0AE
:1025B000A5BA00000000F07F182D4454FB2109C08B
:1025C000B25F0000FB21F9BFFB210940FB21F93F6D
:1025D000075C143326A6A13C2DE9F0410446E078BF
:1025E00000F0C006E07800F03F05607800F00100E0
:1025F00098B1EF102846E91705EB5171C910A5EB0A
:10260000C101491C01F0FF080B48006820B10A48CD
:10261000414602683846904700BF607800F00800E5
:1026200030B10548406818B1B011034A5168884775
:102630000020BDE8F0810000F83100204FF0E021DB
:10264000096921F004014FF0E0221161C21700EB8B
:102650005272C2F3C702074B1A701946097801EB90
:102660004102C2EBC1114FF6FF7202EAC101024AF8
:1026700011807047520000205400002001460D4A8E
:1026800012884A434FF0E0235A6100229A610122E6
:102690001A6100BF4FF0E022106900F001021AB188
:1026A00000F48032002AF5D000224FF0E0231A61B6
:1026B0009A6170475400002001460D4A12784A433F
:1026C0004FF0E0235A6100229A6101221A6100BF93
:1026D0004FF0E022106900F001021AB100F48032DC
:1026E000002AF5D000224FF0E0231A619A6170476A
:1026F000520000202DE9F04F97B081468A46002411
:1027000000200546064600210F4688461491159183
:102710001291139100BF00BF00BF00BF00BF36E0A1
:10272000204604F063F82A463346CDE9080103F059
:1027300049FE05460E4659F8240004F0BBFB3A4614
:102740004346CDE9080103F03DFE07468846204692
:1027500004F07CFD079059F8241004F0D7FD83465F
:1027600004F0A8FBCDE90801DDE9142303F02AFEFB
:10277000CDE9140104FB04F004F038F8CDE90801B8
:10278000DDE9122303F01EFECDE91201641C54455D
:10279000C6DB2A4633462846314604F07BF8CDE9AD
:1027A0000401504604F022F8CDE90001DDE91223CE
:1027B00004F070F8CDE90201DDE9042304F090FA99
:1027C0003A464346CDE908012846314604F062F80E
:1027D000CDE90401504604F009F8CDE90001DDE936
:1027E000142304F057F8CDE90201DDE9042304F0D5
:1027F00077FACDE90601DDE9082303F09FFECDE974
:102800000C01504603F0F2FF02460B46CDE90801E9
:102810002846314603F092FECDE91001504603F000
:10282000E5FF02460B46CDE908013846414603F074
:1028300085FECDE90E01DDE91023DDE90C0104F090
:1028400029F8CDE90801DDE90E2304F057F9CDE9B7
:102850000A0100241AE0204603F0C8FFCDE9040174
:10286000DDE90C2304F016F8CDE90601DDE90A23C1
:1028700003F0A8FDCDE9080103F072FD834659F885
:10288000241004F040FE49F82400641C5445E2DBA7
:1028900017B0BDE8F08F38B5044664B120208DF83C
:1028A000000028208DF8010030208DF8020038202B
:1028B0008DF8030004E0A32204216846FEF706FB1E
:1028C0006A46042140F69E2002F00AFB01F0F4FE65
:1028D00038BD00003EB5044602208DF80000CA2035
:1028E0008DF80100E3208DF8020009208DF8030027
:1028F0006A460421682002F0F3FAA3208DF8000054
:1029000004F0400048B1C0208DF80100C8208DF8C7
:102910000200C2208DF8030006E0A3208DF801001C
:102920008DF802008DF8030004F4C07048B1C42093
:102930008DF80400CC208DF80500C6208DF8060027
:1029400006E0A3208DF804008DF805008DF8060040
:10295000A3208DF807008DF808008DF809006A465D
:102960000A2140F6A72002F0BBFA04F0030018B1D8
:1029700020208DF8000002E0D8208DF800006A4683
:10298000012140F6B62002F0ABFA04F0200018B1A5
:10299000012000F0ADF802E0002000F0A9F804F4F6
:1029A000C07008B304F4807060B1B2208DF80000EC
:1029B0008B208DF80100B6208DF802009B208DF849
:1029C00003000BE0B0208DF8000080208DF801009E
:1029D000B4208DF8020090208DF803006A4604218F
:1029E00040F6A22002F07CFA04F0010020B3F820A7
:1029F0008DF800006A4601214FF40B6002F070FA76
:102A0000FA21072000F02CFC072000F0F3FB012046
:102A100000F013FC642000F0F3FC4FF4FA7000F0B7
:102A200002FDC821304800F0A3FB282000F0BCFBC9
:102A30000A2000F0CCFB08E0D8208DF800006A46A0
:102A400001214FF40B6002F04BFA04F0020018B1C0
:102A5000D9208DF8000002E0D8208DF800006A46E9
:102A6000012140F23D7002F03BFA04F0040018B17D
:102A7000012000F069F802E0002000F065F804F0A1
:102A8000100018B10120FFF706FF02E00020FFF759
:102A900002FF44F008001549488101F00DFE0020B6
:102AA0001249887304F0400018B10846807B801DED
:102AB000887304F4C07020B10C48807B801D0B49E2
:102AC000887304F0140020B10848807B1030074957
:102AD000887304F0030020B10448807B001D034983
:102AE000887300203EBD000009E3CA02F8310020CF
:102AF0003EB504466CB10EA1D1E900208968CDE94C
:102B0000002002916A4609214FF4976002F0E8F92B
:102B10003EBD0AA2D2E900109268CDE901020091FF
:102B20006A4609214FF4976002F0DAF9F0E70000F5
:102B3000B8AAB38DB4980D355D000000B8AAAAAA52
:102B4000B088C3C5C700000038B5044664B1C020D2
:102B50008DF80000C2208DF80100C4208DF802001D
:102B6000C6208DF8030004E08B2204216846FEF79E
:102B7000ADF96A46042140F6982002F0B1F901F05F
:102B80009BFD38BD10B5C8234FF48062024940F662
:102B9000F63001F025FC10BD987700082DE9F04FC4
:102BA0008DB00746884615469946DDE9166B002428
:102BB000002030806B49887B5A4605A901F0DCFC77
:102BC00018B1601E0DB0BDE8F08F6648807A00F045
:102BD0001400002867D09DF8140000069DF8151019
:102BE00040EA01409DF8161040EA01209DF81710B8
:102BF000084328609DF8180000069DF8191040EA67
:102C000001409DF81A1040EA01209DF81B1008436E
:102C100068609DF81C0000069DF81D1040EA014008
:102C20009DF81E1040EA01209DF81F100843A8607F
:102C30009DF8200000069DF8211040EA01409DF813
:102C4000221040EA01209DF823100843E86004F1B7
:102C50001000C4B228680014019068680014029043
:102C6000A86800140390E868001404900198404399
:102C7000029901FB0100039901FB0100049901FB8A
:102C8000010ABAF1706F02DBBAF1885F05DD01F06D
:102C900013FD00203080401E94E7B6F9000040F498
:102CA0008070308000BF2F48807A00F0400020B351
:102CB00005A9601C085C095D40EA012000B2A8F883
:102CC000000005A9E01C095C05AAA01C105C41EAF3
:102CD000002000B2A8F8020005A9601D095C201DB3
:102CE000105C41EA002000B2A8F80400A01DC4B2A4
:102CF000B6F9000040F0080030801A48408900F41E
:102D0000C07008B305A9601C085C095D40EA012099
:102D100000B2388005A9E01C095C05AAA01C105C63
:102D200041EA002000B2788005A9601D095C201DE1
:102D3000105C41EA002000B2B880A01DC4B2B6F910
:102D4000000040F0700030800648807A00F00300F8
:102D500018B105A90819FFF73FFC484600F0D2FF5B
:102D600000202FE7F831002070B588B0064601A892
:102D700001F08AF9BDF804000021C90341EA504579
:102D8000C4034448007A00F0030056F82000059080
:102D90004048007A00F0040010B1059840420590C8
:102DA0003C48007AC0F3C10056F82000069039482C
:102DB000007A00F0200010B1069840420690354895
:102DC000007AC0F3811056F820000790314800893E
:102DD00000F4807010B10798404207900598C11721
:102DE000A0FB042301FB043100FB0510810041EA34
:102DF000927005900698C117A0FB042301FB0431D3
:102E000000FB0510810041EA927006900798C117F7
:102E1000A0FB042301FB043100FB0510810041EA03
:102E2000927007900598000E8DF808000598000C28
:102E30008DF809000598000A8DF80A000598C0B2BF
:102E40008DF80B000698000E8DF80C000698000C0B
:102E50008DF80D000698000A8DF80E000698C0B295
:102E60008DF80F000798000E8DF810000798000CE1
:102E70008DF811000798000A8DF812000798C0B26B
:102E80008DF8130002AA0C214FF4257002F028F8E7
:102E900008B070BDF831002030B585B0044616A2E8
:102EA00007CA02AB07C3C82C03DD4FF0FF3005B0E3
:102EB00030BDC82090FBF4F0401E85B2280A8DF882
:102EC0000000E8B28DF801006A46022140F21620A7
:102ED00002F006F810B14FF0FF30E8E702AA0C212B
:102EE00040F6C12001F0FCFF10B14FF0FF30DEE7EB
:102EF000044884810020DAE7FEF2ABC4AAF1DFDFE8
:102F0000BBAFDFDFF83100201FB504464848007A28
:102F100000F0030054F8200001904548007A00F0CA
:102F2000040010B10198404201904148007AC0F37A
:102F3000C10054F8200002903D48007A00F02000C3
:102F400010B10298404202903948007AC0F38110D3
:102F500054F8200003903648008900F4807010B1C6
:102F60000398404203903349019880FB0101800F90
:102F700040EA810001902F49029880FB01108200F5
:102F800042EA917002902B49039880FB0110820065
:102F900042EA917003900198000E8DF800000198AC
:102FA000000C8DF801000198000A8DF802000198CC
:102FB000C0B28DF803006A4604214FF4747001F02A
:102FC0008FFF18B14FF0FF3004B010BD0298000E13
:102FD0008DF800000298000C8DF801000298000A9C
:102FE0008DF802000298C0B28DF803006A460421F1
:102FF0004FF4757001F074FF10B14FF0FF30E3E74C
:103000000398000E8DF800000398000C8DF8010065
:103010000398000A8DF802000398C0B28DF80300EF
:103020006A4604214FF4767001F05AFFCCE70000A5
:10303000F831002009E3CA0210B586B0044647A063
:103040000068039046A00068029046A000680190C6
:1030500045A00068009004F0030003A9085C8DF807
:10306000140003A8C4F3C101405C8DF8150003A847
:10307000C4F38111405C8DF8160004F0030002A92E
:10308000085C8DF8100002A8C4F3C101405C8DF803
:10309000110002A8C4F38111405C8DF8120005AA4A
:1030A000032140F2264001F01BFF18B14FF0FF3022
:1030B00006B010BD04AA032140F22A4001F010FF1F
:1030C00010B14FF0FF30F3E701980590009804909D
:1030D00004F0040058B19DF8140040F001008DF890
:1030E00014009DF8100040F001008DF8100004F06D
:1030F000200058B19DF8150040F001008DF8150032
:103100009DF8110040F001008DF8110004F480706A
:1031100058B19DF8160040F001008DF816009DF89A
:10312000120040F001008DF8120005AA03214FF4AF
:10313000886001F0D5FE10B14FF0FF30B8E704AA67
:10314000032140F2314001F0CBFE10B14FF0FF30CF
:10315000AEE7064804810020AAE700004CCD6C00D1
:103160000CC92C003656760026466600F831002041
:10317000F8B505460E464FF47A7095FBF0F000FB6B
:1031800006F4200E8DF80000200C8DF80100200AB6
:103190008DF80200E0B28DF803006A4604214FF476
:1031A000AE7001F09DFEF8BD38B50446052094FBD5
:1031B000F0F084B220128DF80000E0B28DF801002A
:1031C0006A4602214FF4AD7001F08AFE38BD38B571
:1031D0000446052094FBF0F084B220128DF8000024
:1031E000E0B28DF801006A4602214FF4AC7001F0A4
:1031F00077FE38BD38B504460020009004F0010089
:1032000020B19DF8000040F03000009004F0020072
:1032100020B19DF8000040F00C00009004F0040084
:1032200020B19DF8000040F0030000906A460121A3
:103230004FF4A47001F054FE38BD38B50446012C9B
:1032400001DA012402E0042C00DD0424601EC0B277
:1032500000906A46012140F24F1001F041FE38BD56
:103260002DE9FC4706460F4606F0070010B1B7F5FA
:10327000C86F03DD4FF0FF30BDE8FC87384603F030
:10328000FDFF8146594903F0AFFE8046684600F0D5
:10329000D5FE9DF80000022806D0042816D0082884
:1032A00026D0102848D135E04FF08D41404604F03B
:1032B0002DF8814603F0AAFF84B24D49404604F040
:1032C00025F8814603F0A2FF85B238E04FF08C412B
:1032D000404604F01BF8814603F098FF84B245494C
:1032E000404604F013F8814603F090FF85B226E0D3
:1032F0004FF08B41404604F009F8814603F086FF09
:1033000084B23D49404604F001F8814603F07EFF57
:1033100085B214E04FF08A41404603F0F7FF814642
:1033200003F074FF84B23549404603F0EFFF814655
:1033300003F06CFF85B202E04FF0FF309CE700BF66
:1033400020128DF80400E0B28DF8050028128DF8E7
:103350000600E8B28DF8070006F00100A0B101AA4E
:1033600002214FF4EA7001F0BBFD10B14FF0FF30C5
:1033700082E70DF1060202214FF4927001F0B0FDD8
:1033800010B14FF0FF3077E706F00200A0B101AABC
:1033900002214FF4EC7001F0A3FD10B14FF0FF30AB
:1033A0006AE70DF1060202214FF4947001F098FDD6
:1033B00010B14FF0FF305FE706F00400A0B101AAA2
:1033C00002214FF4EE7001F08BFD10B14FF0FF3091
:1033D00052E70DF1060202214FF4967001F080FDD4
:1033E00010B14FF0FF3047E7002045E700004843A9
:1033F000000040460000C045000040450000C044B9
:1034000038B50446052094FBF0F085B228128DF8FB
:103410000000E8B28DF801006A4602214FF4EF7017
:1034200001F05EFD38BD38B50446052094FBF0F090
:1034300085B228128DF80000E8B28DF801006A46C6
:1034400002214FF4ED7001F04BFD38BD00BF054A7D
:10345000128802F04002002AF9D0C2B2014B1B1DB3
:103460001A807047003801402DE9FE4F81460D4615
:1034700016469A46DDF830B0701E03F0E7FE0746A8
:103480005146584604F04AF88046394603F0ACFDF0
:10349000029000241DE059F8240003F0D7FE804676
:1034A000029903F033FF0746514603F02FFD45F81C
:1034B000240055F8240003F0FDFC0022074BCDE961
:1034C000000103F0E7F9074602F04AFF45F824003F
:1034D000641CB442DFDB0120BDE8FE8F00004E40DB
:1034E0002DE9FF4706460F4601254FF4007AB04606
:1034F000B9460E4B0E4A142101A80095FDF7FFFABC
:1035000000240CE004FB05F009EB800204FB05F04D
:1035100008EB80012B4601A8FCF780FE641C544593
:10352000F0D3012004B0BDE8F0870000A80100201E
:10353000F87600082DE9F84F05460E4617469846DE
:10354000DDF828B0781E03F081FE4FF08241009034
:1035500003F04AFD81464146484603F0D7FE0090FD
:1035600003F038FE8246002406E00AEB040055F81A
:10357000200046F82400641C452CF6DB0120BDE841
:10358000F88F00007CB5054628494968087801ABEA
:1035900004220D21FEF707FA08B107207CBD9DF833
:1035A0000700C0F301109DF8041001F0E00140EAAB
:1035B000E1008DF800009DF80700C0F381009DF840
:1035C000051001F0E00140EAE1008DF801009DF8EE
:1035D000070000F003009DF8061001F0E00140EA4A
:1035E000E1008DF8020000241CE01DF8040018B969
:1035F000002045F8240013E00D4845F8240006E0BB
:1036000055F824000B4903F081FE45F824001DF80D
:103610000400401EC0B20DF804000028F0D100BF25
:10362000601CC4B2032CE0DB0020B7E71C000020C4
:103630007B14AE3E1D5A843F2DE9F04F87B00546FE
:103640000C46914601208DF8100000208DF81100E5
:10365000FE4A1268917CFD4A5268107804AB02223F
:10366000FEF747FA20B14FF0FF3007B0BDE8F08F0A
:10367000C820FFF703F800208DF81000F34A126805
:10368000D17BF24A5268107804AB0122FEF731FA7E
:1036900010B14FF0FF30E8E7EC4A12685179EB4A7D
:1036A0005268107804AB0122FEF723FA10B14FF0F4
:1036B000FF30DAE7E54A1268917CE44A52681078F4
:1036C00004AB0122FEF715FA10B14FF0FF30CCE742
:1036D000DE4A1268D17DDD4A5268107804AB0122BF
:1036E000FEF707FA10B14FF0FF30BEE7D74A126875
:1036F0001179D64A5268107804AB0122FEF7F9F925
:1037000010B14FF0FF30B0E70C208DF81000CF4A19
:1037100012681179CD4A5268107804AB0122FEF785
:10372000E8F910B14FF0FF309FE70F20FEF7A6FF3A
:10373000C648806A407A8DF81000C44A12689178B1
:10374000C24A5268107804AB0122FEF7D2F910B1D8
:103750004FF0FF3089E7BD48806A007A8DF810008D
:10376000BA4A12685178B94A5268107804AB0122FB
:10377000FEF7BFF910B14FF0FF3076E7B9F1000F57
:1037800007D0B248806A807A40F0E0008DF81000DF
:1037900004E0AE48806A807A8DF81000AB4A126867
:1037A0009179AA4A5268107804AB0122FEF7A1F978
:1037B00010B14FF0FF3058E7B9F1000F07D0A34820
:1037C000806AC07A40F0E0008DF8100003E0A04865
:1037D000C07A8DF810009D4A1268D1799B4A5268D0
:1037E000107804AB0122FEF784F910B14FF0FF30DE
:1037F0003BE7B9F1000F02D0C820FEF73FFF4020A1
:103800008DF81000914A12681179904A5268107828
:1038100004AB0122FEF76DF910B14FF0FF3024E741
:1038200078208DF81000894A12685179874A5268C9
:10383000107804AB0122FEF75CF910B14FF0FF30B5
:1038400013E783498889FEF719FF00208DF81000DF
:103850007E4A126851797D4A5268107804AB012281
:10386000FEF747F910B14FF0FF30FEE6774A1268D5
:10387000917A764A5268107804AB0222FEF793F8E8
:1038800010B14FF0FF30F0E69DF811009DF81010D8
:1038900040EA012B0C209BFBF0F0C6B20020A86090
:1038A00068602860A06060602060824665E0674ACA
:1038B0001268D17A654A5268107804AB0C22FEF780
:1038C00072F810B14FF0FF30CFE69DF811009DF86F
:1038D000101040EA012000B2ADF808009DF8130076
:1038E0009DF8121040EA012000B2ADF80A009DF8E0
:1038F00015009DF8141040EA012000B2ADF80C004C
:10390000BDF90810206808442060BDF90A106068FD
:1039100008446060BDF90C10A0680844A0609DF8E0
:1039200017009DF8161040EA012000B2ADF8000023
:103930009DF819009DF8181040EA012000B2ADF87A
:1039400002009DF81B009DF81A1040EA012000B209
:10395000ADF80400BDF90010286808442860BDF9DE
:103960000210686808446860BDF90410A86808443B
:10397000A8600AF1010000F0FF0AB24597DB344865
:10398000D0F800C02868C117090441EA10410704B3
:10399000624600233846FDF7C1F832460023CDE9E0
:1039A0000201FDF7BBF828602948D0F800C068681C
:1039B000C117090441EA1041070462460023384652
:1039C000FDF7ACF832460023CDE90201FDF7A6F879
:1039D00068601F48D0F800C0A868C117090441EA10
:1039E00010410704624600233846FDF797F8324637
:1039F0000023CDE90201FDF791F8A8601448D0F842
:103A000004C02168C817000440EA11480F04624648
:103A1000002338464146FDF781F832460023CDE9C0
:103A20000201FDF77BF820600948D0F804C0606807
:103A3000C117090441EA10410704624600233846D1
:103A4000FDF76CF83246002304E000001C00002063
:103A500070770008CDE90201FDF760F86060114859
:103A6000D0F804C0A068C117090441EA1041070456
:103A7000624600233846FDF751F832460023CDE96F
:103A80000201FDF74BF8A060A068002804DDA068E3
:103A9000A0F58030A06003E0A06800F58030A06051
:103AA0000020E2E5707700082DE9FC5F07468846B4
:103AB00000263F494968087801AB03220D21FDF734
:103AC00072FF10B10720BDE8FC9F9DF8040000F0D4
:103AD0001F008DF804009DF8050000F01F008DF810
:103AE00005009DF8060000F01F008DF80600002478
:103AF00059E057F8240058F82410A0EB010BBBF153
:103B0000000F01DB594601E0CBF10001084603F04C
:103B10009DFB4FF08F41009003F066FA824601A8AA
:103B2000005D78B32349086803F0A8FB8346594633
:103B3000214803F059FA814604E02049484603F041
:103B4000E5FB814601A8005D401EC0B201A90855F1
:103B50000028F2D14946504603F046FA83464FF01A
:103B60007E5103F0DBFC054600BF25F00040834694
:103B700010488169584603F095FC13D20120A040FB
:103B800006430FE0FFE70B480169504603F08AFB4C
:103B900005D308484169504603F084FC02D2012055
:103BA000A0400643641C032CA3DB30468BE70000D7
:103BB0001C0000207077000800B04C4554E3853F9E
:103BC00010B50446204600F00FF80346E01C00F054
:103BD0000BF843EAC00083B2A01D00F005F843EAE9
:103BE000801083B2184610BD014691F90020002ACA
:103BF00001DD00201EE091F90020002A01DA0420F6
:103C000018E091F90120002A01DD012012E091F96C
:103C10000120002A01DA05200CE091F90220002A97
:103C200001DD022006E091F90220002A01DA0620D7
:103C300000E00720704700000EB500260027002492
:103C4000002500202A4908602A49C1F8940109206A
:103C5000FEF70EF84820FEF7F1FC2748416848209F
:103C60008847FDF76FFCFDF727FE00BF00F096F9CF
:103C70000028FBD1FDF72CFB39E06A4601A902A818
:103C800000F07AF840BB781CC7B20C2F24D1002773
:103C9000002411E001250BE0184800EBC42050F887
:103CA0002510164800EBC422681E42F820106D1C37
:103CB000B5F5007FF0DB641C032CEBDB0F490298A9
:103CC000C1F8FC070D480099C0F8FC1F00F58050B2
:103CD0000199C0F8FC17761C402E08D108480068EE
:103CE00008B9012000E00020054908600026C4E76B
:103CF0009481214200002342B4000020F8190020E2
:103D0000940123427047000070B50446002624F059
:103D10000104184890F8240008B1002070BD15482F
:103D2000807A10B94FF0FF30F8E71248057C807AAE
:103D30002040104908740846007CA04202D04FF091
:103D4000FF3600E0002614B90A48007D18B10120B2
:103D500001F0BCF902E0002001F0B8F93CB100F03C
:103D6000ABFC20B1034805744FF0FF30D6E7304676
:103D7000D4E700001C0000202DE9F04F99B0044664
:103D80000D4616464FF07E574FF000084FF00009E1
:103D90004FF0000A12A813A918AB0EAACDE9001023
:103DA00014A916A8FEF7FAFE18B1012019B0BDE853
:103DB000F08FBDF84C0000F4807000287ED00E9883
:103DC00003F044FA83464FF09D4103F00DF9074696
:103DD0000F9803F03BFA83464FF09D4103F004F93E
:103DE0008046109803F032FA83464FF09D4103F06D
:103DF000FBF88146119803F029FA83464FF09D4164
:103E000003F0F2F8824639464FF0804003F07EFA24
:103E10004946059003F07AFA414607904FF040403A
:103E200003F074FA5146059003F070FA0690079972
:103E300003F06CF8834603F03DF8CDE90801FEF786
:103E4000C3F84FF06632544BCDE90A0102F022FD6F
:103E5000CDE90C0102F084FA206049464FF0804021
:103E600003F054FA4946029003F050FA4146049098
:103E70004FF0404003F04AFA4146029003F046FA00
:103E80000390049903F04AFB83464FF07E5103F000
:103E90003DF8059003F00EF8CDE9080139464FF0E2
:103EA000804003F033FA4146039003F02FFA49466D
:103EB00004904FF0804003F029FA00E068E051469A
:103EC000039003F023FA8346049903F01FF805904A
:103ED00002F0F0FFCDE90601DDE90823FEF7BCFAA8
:103EE0004FF066322C4BCDE90A0102F0D3FCCDE94C
:103EF0000C0102F035FA28605146504603F006FAEC
:103F000049460490484603F001FA41460390404672
:103F100003F0FCF939460190384603F0F7F90090B8
:103F2000019902F0F3FF0290039903F0F7FA834638
:103F3000049903F0F3FA059002F0BCFFCDE9080103
:103F40005146384603F0E2F949460490404603F0F2
:103F5000DDF90390049902F0D9FF4FF080410590FC
:103F600003F0D4F9834602F0A5FFCDE90601DDE9AF
:103F70000823FEF771FA4FF06632074BCDE90A01CC
:103F800002F088FCCDE90C0102F0EAF9306001E0B2
:103F900002200BE7002009E766A64C4070B500241C
:103FA000FDF768FB00F024F9002840D1782000F0EC
:103FB0002FFFC4B20CB1012070BD7820FFF7A4FE22
:103FC000C4B20CB10220F7E7642000F0D3FEC4B203
:103FD0000CB10320F0E7FEF7D5FDC4B20CB104200C
:103FE000EAE71548FFF7ECFD0546FFF725F8C4B2F0
:103FF0000CB10520E0E740F27310FEF76BFCC4B291
:104000000CB10620D8E76420FEF746FFC4B20CB11D
:104010000720D1E701F010F804460CB10820CBE7E7
:10402000012000F0A3FDC4B21CB10920C4E70A209E
:10403000C2E70020C0E70000480000200146114808
:10404000407A30B1012807D0022808D003280CD1CB
:1040500008E0022008700BE00420087008E0082047
:10406000087005E01020087002E04FF0FF30704744
:1040700000BF0448C07C18B108784006000E0870E4
:104080000020F4E71C00002001461348407A30B1BC
:10409000012808D002280AD0032810D10BE04FF4E1
:1040A000804008800EE041F69C7008800AE04FF4E2
:1040B0008050088006E04FF40060088002E04FF076
:1040C000FF30704700BF0448C07C10B10888401022
:1040D00008800020F5E700001C000020014602488F
:1040E000007C0870002070471C00002001460F482B
:1040F000007A30B1012807D0022809D003280FD157
:104100000AE0FA2008800EE04FF4FA7008800AE016
:104110004FF47A70088006E04FF4FA60088002E0FD
:104120000020088000BF00BF002070471C00002056
:1041300001460E48007A30B1012807D0022808D085
:1041400003280CD108E00A4808600BE00948086021
:1041500008E00948086005E00848086002E04FF000
:10416000FF30704700BF0020FBE700001C0000206C
:10417000000003430000834233330342333383415F
:1041800001461248C07A082817D2DFE800F0170469
:10419000070A0D101318BC20088013E06220088065
:1041A00010E02A2008800DE0142008800AE00A2090
:1041B000088007E00520088004E000BF00BF002061
:1041C000088000BF00BF0020704700001C000020D6
:1041D0000146064890F8240010B14FF0FF307047B8
:1041E0000248C08908800020F9E700001C00002078
:1041F0001CB580208DF80000654A1268917C644AE5
:10420000526810786B460122FDF773FC10B14FF035
:10421000FF301CBD6420FEF731FA00208DF800004D
:104220005B4A1268917C5A4A526810786B460122A8
:10423000FDF75FFC10B14FF0FF30EAE7544A126817
:10424000917D534A526810786B460622FDF7ABFB0E
:1042500010B14FF0FF30DCE79DF80500C007400FBC
:104260009DF8031001F0010140EA41009DF80110A2
:1042700001F0010140EA010494B1012C03D10121B4
:104280004348C17431E0022C03D100214048C1747D
:104290002BE021463FA0FCF765FC4FF0FF30B8E76C
:1042A0003B4A1268D1783A4A526810786B4601222C
:1042B000FDF779FB10B14FF0FF30AAE79DF8000041
:1042C00000F00F042CB93D48FCF74CFC4FF0FF30D8
:1042D0009FE7042C06D13AA0FCF744FC01212C48AE
:1042E000C17402E000212A48C174FF21284881726C
:1042F000FF2027490872FF2125484172C1724FF6FD
:10430000FF71C181FF21017481740121017380F863
:104310002210002180F823104175017516300160CC
:1043200041608160163880F8241080F82510C1841F
:104330004FF4FA6000F062FC10B14FF0FF3068E714
:10434000022000F02BFB10B14FF0FF3061E72A2074
:1043500000F0CEFC10B14FF0FF305AE7322000F0F1
:1043600009FD10B14FF0FF3053E70020FFF7CCFC00
:1043700010B14FF0FF304CE7002000F051FB10B1BE
:104380004FF0FF3045E7002000F042FD002040E7FD
:104390001C000020556E737570706F727465642018
:1043A000736F6674776172652070726F6475637481
:1043B000207265762025642E0A000000B88400086B
:1043C00048616C662073656E736974697669747987
:1043D000207061727420666F756E642E0A00000092
:1043E0002DE9F04385B005460E469046994629488A
:1043F00090F8250020B14FF0FF3005B0BDE8F08304
:1044000016B94FF0FF30F8E7002423E0281B1028EE
:1044100001DD102000E0281B87B232193946204602
:1044200000F05EFD10B14FF0FF30E6E701AA39461B
:10443000204600F001F910B14FF0FF30DDE73019F0
:104440003A4601A9FCF716FD10B16FF00100D4E760
:10445000E01984B2AC42D9DB4FEA28208DF8000085
:1044600008F0FF008DF801000A4A1268917E094A9F
:10447000526810786B460222FDF73BFB10B14FF0FB
:10448000FF30BAE70121034880F82510A0F82690F4
:104490000020B2E71C00002038B50446282C02DDBD
:1044A0004FF0FF3038BDDCB9002000F0EBFB0020FE
:1044B0008DF8000007208DF801002E4A1268917CCB
:1044C0002C4A526810786B460222FDF712FB10B19D
:1044D0004FF0FF30E6E70021264801750020E1E7B4
:1044E000012000F0CFFB20208DF80000012C06D128
:1044F00000208DF80100052000F0FAFB17E0052CE4
:1045000006DC01208DF80100052000F0F1FB0EE033
:10451000142C06DC02208DF801000A2000F0E8FBD4
:1045200005E003208DF80100142000F0E1FB9DF868
:104530000100072101EB8010C0B28DF801000D4A87
:104540001268917C0B4A526810786B460222FDF784
:10455000D0FA10B14FF0FF30A4E70821054881726E
:1045600000210173012101750020FFF7CDFB002020
:1045700098E700001C000020F8B504460F461646D8
:104580002C4890F8240010B94FF0FF30F8BD2948AE
:10459000807A10B94FF0FF30F8E7264A1268917A16
:1045A000244A526810786B460222FDF7FCF910B1DC
:1045B0004FF0FF30EAE79DF801009DF8001040EA57
:1045C0000125A54203DA00203070401EDEE71948BD
:1045D00040684088B5EB600F17DD164A1268517CC1
:1045E000144A526810786B460122FDF7DCF910B1CD
:1045F0004FF0FF30CAE79DF8000000F0100020B136
:1046000000F05AF86FF00100C0E7E2B2094B1B68F6
:10461000D97A084B5B6818783B46FDF7C4F910B1AE
:104620004FF0FF30B2E795FBF4F0401E30700020F1
:10463000ACE700001C000020F8B504460D46164605
:1046400016B94FF0FF30F8BD1A48807A10B94FF014
:10465000FF30F8E720128DF80000E0B28DF801007D
:104660009DF801002844134949684989884202DDC0
:104670004FF0FF30E7E70F4A1268117E0D4A52688B
:1046800010786B460222FDF734FA10B14FF0FF307C
:10469000D9E7EAB2074B1B68597D064B5B6818786F
:1046A0003346FDF780F910B14FF0FF30CBE7002023
:1046B000C9E700001C00002008B57048807A10B9D6
:1046C0004FF0FF3008BD002000906C4A1268D17B8B
:1046D0006A4A526810786B460122FDF70AFA10B157
:1046E0004FF0FF30EEE7654A12685179634A52682D
:1046F00010786B460122FDF7FCF910B14FF0FF3046
:10470000E0E75E4A126811795C4A526810786B469D
:104710000122FDF7EEF910B14FF0FF30D2E7574814
:1047200090F82400002853D00C200090534A1268BF
:104730001179524A526810786B460122FDF7D9F977
:1047400010B14FF0FF30BDE73220FDF797FFC020DA
:1047500000904A48807A00F0010020B19DF80000E6
:1047600040F020000090454A12681179434A52688F
:1047700010786B460122FDF7BCF910B14FF0FF3005
:10478000A0E73E48407C10B10220009001E00020EC
:1047900000903A4A1268D17B384A526810786B46CA
:1047A0000122FDF7A6F910B14FF0FF308AE7002093
:1047B0000090324A12685179304A526810786B463C
:1047C0000122FDF796F9002855D04FF0FF3079E728
:1047D00004200090294A12681179284A52681078FA
:1047E0006B460122FDF785F910B14FF0FF3069E704
:1047F0002248807C20B92148807A00F0010010B95D
:104800004020009001E0602000901C4A126811795D
:104810001A4A526810786B460122FDF76AF910B106
:104820004FF0FF304EE73220FDF728FF1348407C61
:1048300010B10120009001E0002000900F4A1268A2
:10484000D17B0E4A526810786B460122FDF751F970
:1048500010B14FF0FF3035E7084A12685179074A26
:1048600052681078054B10330122FDF742F910B160
:104870004FF0FF3026E7002024E700001C00002056
:104880002DE9F04F8DB083460F4602200C90424830
:1048900090F8240020B1002000F068F9012600E023
:1048A000002603A8FFF722FC05A8FFF7C7FB01A815
:1048B000FFF766FC02A8FFF78BFC374890F80AA0C8
:1048C00004A8FFF70BFC002407E0002239465846F5
:1048D000FEF7B2FE00B902E0641C022CF5DB00BF5B
:1048E000022C01D1002528E0002407E0012206A9BE
:1048F00009A8FEF7A1FE00B902E0641C022CF5DB5A
:1049000000BF022C01D1002517E006A93846FDF7AB
:1049100005FB00F0FF0809A95846FFF7C5F800F0AD
:10492000FF090025B9F1000F01D145F00105B8F1EB
:10493000000F01D145F0020500BFFF2016490872A3
:10494000FF2115484172C1724FF6FF71C181FF21ED
:104950008172017401210173BDF80C0000F04EF961
:104960009DF8140000F01AF8BDF8040000F0C0F93A
:10497000BDF8080000F0FEF9504600F049FA9DF835
:104980001000FFF7C1F916B1012000F0EFF828463A
:104990000DB0BDE8F08F00001C00002038B50446C3
:1049A0001E48807A10B94FF0FF3038BD022C06D077
:1049B000042C07D0082C08D0102C0CD108E00020C3
:1049C00000900BE00820009008E01020009005E027
:1049D0001820009002E04FF0FF30E6E700BF0F48DC
:1049E000407A9DF80010B0EBE10F01D10020DCE728
:1049F0000A4A1268D179094A526810786B46012236
:104A0000FDF777F810B14FF0FF30CEE79DF80000CA
:104A1000C110024841720020C7E700001C000020BE
:104A200038B504465048807CA04201D1002038BDF2
:104A3000002C46D04C4A126811794B4A52681078C3
:104A40006B460122FCF7AFFF10B14FF0FF30EEE7ED
:104A50009DF8000020F020000090434A1268117970
:104A6000414A526810786B460122FDF742F810B1B6
:104A70004FF0FF30DBE70320FDF700FE022000903F
:104A8000394890F8220020B19DF8000040F08000E5
:104A90000090354890F8230020B19DF8000040F0C8
:104AA00030000090304A1268117D2F4A5268107809
:104AB0006B460122FDF71DF8002851D04FF0FF3062
:104AC000B5E7294A12681179274A526810786B466F
:104AD0000122FCF768FF10B14FF0FF30A7E7224832
:104AE000807A00F0010028B19DF8000040F020001D
:104AF000009004E09DF8000020F0200000901A4A89
:104B000012681179184A526810786B460122FCF736
:104B1000F0FF10B14FF0FF3089E70320FDF7AEFD45
:104B2000114890F8220010B18020009001E0002090
:104B300000900D4890F8230020B19DF8000040F04F
:104B400030000090084A1268117D074A52681078B8
:104B50006B460122FCF7CDFF10B14FF0FF3066E746
:104B600001488474002062E71C00002038B5044628
:104B7000214890F82400A04201D1002038BD24B380
:104B80001D4890F8250010B94FF0FF30F6E70020DF
:104B900000F09CFA0020FFF743FF1749C88C00F093
:104BA000E9F8002000901449496808786B46012212
:104BB0002321FCF79EFF01210F4880F824100120DB
:104BC00000F084FAFFF778FD13E0002000F07EFA91
:104BD0000948007C00900849496808786B46012222
:104BE0002321FCF786FF0021034880F82410FFF7FB
:104BF00063FD0020C2E700001C00002038B5044619
:104C00001F48807A10B94FF0FF3038BDFA2C09D018
:104C1000B4F5FA7F09D0B4F57A7F09D0B4F5FA6F0C
:104C20000CD108E0002000900BE00820009008E084
:104C30001020009005E01820009002E04FF0FF30B7
:104C4000E3E700BF0E48007A9DF80010B0EBE10FDB
:104C500001D10020D9E70A4A12689179084A5268BE
:104C600010786B460122FCF744FF10B14FF0FF3083
:104C7000CBE79DF80000C010014908720020C4E78E
:104C80001C00002038B50446184890F82300A042C4
:104C900001D1002038BD14B13020009001E0002087
:104CA00000901248807C20B19DF8000040F0020086
:104CB00000900E4890F8220020B19DF8000040F0CE
:104CC00080000090094A1268117D084A52681078E5
:104CD0006B460122FCF70DFF10B14FF0FF30D9E712
:104CE000024880F823400020D4E700001C00002088
:104CF00038B504461E48807A10B94FF0FF3038BDF1
:104D0000BC2C02DB0120009015E0622C02DB0220AB
:104D1000009010E02A2C02DB032000900BE0142C02
:104D200002DB0420009006E00A2C02DB0520009044
:104D300001E0062000900E48C07A9DF800108842DD
:104D400001D10020DBE70A4A12689178084A5268CC
:104D500010786B460122FCF7CCFE10B14FF0FF300B
:104D6000CDE79DF800100248C1720020C7E700009F
:104D70001C00002038B504462448807A10B94FF052
:104D8000FF3038BD214890F8240010B14FF0FF30BB
:104D9000F7E71E48007D50B134B1282C04DCE0B2A6
:104DA000FFF77AFB0020ECE70020FFF775FB042CEF
:104DB00001DA042404E0B4F57A7F01DD4FF47A745B
:104DC0004FF47A7090FBF4F0401EC0B200900F4A8E
:104DD000126851780D4A526810786B460122FCF730
:104DE00088FE10B14FF0FF30CBE79DF80000401C6B
:104DF0004FF47A7191FBF0F081B20448C181014611
:104E0000C9894810FFF774FF0020BAE71C00002092
:104E100038B5044604F0700010B10120009005E0A0
:104E200014B10020009001E0402000902B4A12684D
:104E3000917C2A4A526810786B460122FCF759FE91
:104E400020B1002125488172481E38BD9DF8000020
:104E500020F04001214801730020009004F0400040
:104E600020B99DF8000040F00400009004F02000FC
:104E700020B99DF8000040F00200009004F01000FE
:104E800020B99DF8000040F00100009004F00800F7
:104E900020B99DF8000040F0380000900F4A1268D9
:104EA000D17C0E4A526810786B460122FCF721FE35
:104EB00020B1002109488172481EC6E724B1082CA0
:104EC00002D00020FFF7DEFE044884720021017545
:104ED0003220FDF7D3FB0020B7E700001C000020C4
:104EE000F8B504460D46164616B94FF0FF30F8BD2A
:104EF0001A48807A10B94FF0FF30F8E720128DF889
:104F00000000E0B28DF801009DF80100284413492B
:104F100049684989884202DD4FF0FF30E7E70F4AD0
:104F20001268117E0D4A526810786B460222FCF717
:104F3000E0FD10B14FF0FF30D9E7EAB2074B1B6834
:104F4000597D064B5B6818783346FCF7D2FD10B1EB
:104F50004FF0FF30CBE70020C9E700001C00002025
:104F600001460868704700002DE9F04FCFB00546B4
:104F7000182148A8FBF7B2FF4FF000094FF48A71DF
:104F800002A8FBF7ABFF2548019005EBC92ADFF823
:104F900090B058464790234E074600240AE005EBA0
:104FA000C4204FF40071FCF74FFA48AA02EBC40288
:104FB00003C2641C032CF2DB032148A8FCF730F980
:104FC000814659465046FEF78BFA4FF400714798D8
:104FD000FDF790FBDFF848801348144B4FF4007244
:104FE000314600904046FEF7A5FA452202A9304618
:104FF00000F0B4F80C480D4B45223946009002A849
:10500000FEF732FA0A4B0B4A45213846FCF7BEF947
:10501000019001984FB0BDE8F08F00003333234179
:10502000F8110020F80100200000A03FCDCC4C3E3C
:10503000000020420000484170B588B002A905A8D0
:10504000FFF71EFC0446032C3ED101A8FFF770F8C1
:10505000059802F0FBF80646019902F057F905465B
:1050600002F0B8F80590069802F0F0F806460199AB
:1050700002F04CF9054602F0ADF80690079802F0F0
:10508000E5F80646019902F041F9054602F0A2F85A
:10509000079005A8FDF738FF6846FEF7F5FFBDF855
:1050A0000010029848430290BDF80010039848434E
:1050B0000390BDF8001004984843049002A8FDF73F
:1050C00053FE002008B070BD0120FBE738B5044650
:1050D000214890F82400C0B114B10220009001E0F2
:1050E000002000901C4A1268D17B1B4A526810783D
:1050F0006B460122FCF7FDFC10B14FF0FF3038BDCC
:105100009DF800101448417423E01348807A10B9C8
:105110004FF0FF30F3E724B10F48407C08B1002086
:10512000EDE714B10120009001E0002000900A4A50
:105130001268D17B084A526810786B460122FCF74E
:10514000D8FC10B14FF0FF30D9E79DF800100248AD
:1051500041740020D3E700001C0000202DE9F04737
:1051600005460F469046002602E047F82660761C6A
:105170004645FADB002622E000241AE0621C55F8BE
:10518000221055F8240002F08DF811D2601C55F859
:1051900020A055F8241045F8201045F824A057F811
:1051A000249057F8200047F82400601C47F820900E
:1051B000641CA8EB0600401EA042DFDC761C4645BE
:1051C000DADB0120BDE8F0872DE9F04106460F4605
:1051D00001F0A0FC041E0D4618BF0120284320F05A
:1051E0000040C0F17F6000F1E040C00F0ED0301CE5
:1051F00018BF0120384320F00040C0F17F6000F16B
:10520000E040C00F04BF0120FBF70FFF20462946F6
:10521000BDE8F08130B595B0054613AB12AA09A9D7
:10522000284600F03FFA044614B1204615B030BDC0
:105230000020149026E0224909689DF8502001EBD7
:10524000C20113AB11AA486801A900F02BFA044669
:105250000CB12046EAE709A901A800F0DDFC60B91D
:105260009DF844009DF84810884201DD0220DDE7EA
:105270009DF85000124988750AE09DF85000401CC6
:10528000C0B214900E48007D9DF850108842D2DCC8
:1052900000BF0B48007D9DF85010884201D10420CA
:1052A000C4E714A9284600F0DDFA04460CB12046F4
:1052B000BCE79DF85000024948750020B6E70000A1
:1052C000B40000202DE9F0419AB09C48847D007D17
:1052D000A04202DC1AB0BDE8F0819849096801EBF0
:1052E000C40106AB07AA486808A900F0DBF908A9C1
:1052F00093A0FBF737FC002644E09048008B012187
:10530000B1400840D8B122218FA0FBF72BFC3046DA
:1053100000F02EFB89492431471839468BA0FBF752
:1053200021FC222188A0FBF71DFC304600F020FB69
:1053300082492431084410A941F8260018E030467B
:1053400000F016FB7D492431085810A941F82600C9
:105350007A48C07D30B910A850F826107CA0FBF721
:1053600001FC05E010A850F826107AA0FBF7FAFB24
:105370009DF81C00401EB04202D078A0FBF7F2FB63
:10538000701CC6B29DF81C008642B6DB74A0FBF709
:10539000E9FB00F03DFB6948407D0B280DD2DFE8BA
:1053A00000F0060D151E27323F4E5F7287006349DD
:1053B000096851F834008047054690E05F4A12685A
:1053C00052F8341010988847054688E05B4B1B68FC
:1053D00053F83420DDE91001904705467FE0574F30
:1053E0003F6857F8343010A807C89847054676E05C
:1053F000DFF848C1DCF800C05CF8347010A80FC8B2
:10540000B84705466BE01498DFF830C10090DCF82F
:1054100000C05CF8347010A80FC8B84705465EE0BD
:10542000DDE91401DFF814C1CDE90001DCF800C0AA
:105430005CF8347010A80FC8B84705464FE0DDE9A6
:1054400014121698DFF8F4C0CDE900120290DCF8CF
:1054500000C05CF8347010A80FC8B84705463EE09D
:10546000DDE91423DDE91610DFF8D0C0CDE9002313
:10547000CDE90210DCF800C05CF8347010A80FC849
:10548000B84705462BE0DDE91523DDE91710CDE926
:105490000123CDE903101498DFF8A0C00090DCF8D8
:1054A00000C05CF8347010A80FC8B847054616E075
:1054B000DDE91623DDE91810CDE90223CDE904105A
:1054C000DDE91401DFF874C0CDE90001DCF800C0AB
:1054D0005CF8347010A80FC8B847054600BF00BF7D
:1054E00000F056FA9DF8180001280CD11348C07D31
:1054F00020B929461BA0FBF735FB07E029461BA076
:10550000FBF730FB02E018A0FBF72CFB0B4890F8F0
:10551000EC0088B10948D0F8F0000A21B0FBF1F2A4
:1055200001FB12070548D0F8F000B0FBF1F83A464D
:10553000414611A0FBF716FB00BFCBE6B4000020EC
:105540000D0A257328000000256300002573000064
:10555000256C640030582558000000002C00000025
:10556000290000003D256C753B0D0A003D30582593
:10557000583B0D0A0000000046756E6374696F6E3B
:105580002052756E2054696D653A25642E2531646C
:105590006D730D0A00000000F0B5034615460020AB
:1055A0000022002600245BE01F782C2F01D104B9D3
:1055B00001221F78292F01D01F780FB904B950E0BC
:1055C000002E3AD11F78302F02DB1F78392F17DDDC
:1055D0001F782D2F14D01F782B2F11D01F78612FFB
:1055E00002DB1F78662F0BDD1F78412F02DB1F784F
:1055F000462F05DD1F78582F02D01F78782F0CD149
:1056000002B12EE01F78612F03DB1F78203F0F705F
:1056100001E01F780F70491C1FE01F78222F04D172
:1056200002B11EE00126012417E01F78202F14D0BC
:105630001F782C2F11D0FF2613E01F78222F00D1C6
:10564000002402B10DE044B11F785C2F02D15B1C35
:10565000471CF8B21F780F70491C471CF8B25B1C3E
:10566000A2E700BF00270F702E70F0BD10B50446F2
:10567000002010700BE020780870641C491C107822
:10568000401C10701078984201DB012010BD20787A
:10569000202802D020780028EDD10020087000BF1B
:1056A000F4E700002DE9FF4F85B0804689460027CA
:1056B000002004900390012002904FF0000B002581
:1056C00044461DE02078202816D005F07F000528EC
:1056D00012DA0DB945F0800505F07F00042803D1EA
:1056E00020782A2800D00EE0207805F07F010DF800
:1056F0000100681CC5B202E0852D00D103E0641CE6
:1057000020780028DED100BF8DB1002005F07F0198
:105710000DF8010051A1684600F07EFA18B9002189
:105720000898017002E001210898017000254FF0EF
:10573000000A444614E0641C0AF1010000F0FF0A6C
:105740002078202802D020782A2809D1204600F08D
:10575000D5F90646282E03D02A2E01D0CDF810A068
:105760002078282802D020780028E4D144460498E4
:1057700010B10498401C04444FF0000A002654E085
:10578000207810B94FF0010A50E02078282803D182
:1057900016B9781CC7B213E02078292808D13EB981
:1057A00017B1781EC7B201E04FF0010A47B93DE0DA
:1057B0002078222804D10EB9012000E000200646FE
:1057C00047B9207820282FD0207889F8000009F1E7
:1057D000010929E020782C2804D101200290681CBE
:1057E000C5B214E02078202811D0207828280ED0C7
:1057F0004DB9BBF1050F06DA20780DF80B000BF15F
:10580000010000F0FF0B0298401CC0B20290012F73
:105810000AD10298022807D10298401CC0B2029017
:105820000398401CC0B20390641CA9E700BF039812
:10583000012809D100200DF80B0008A1684600F0EE
:10584000EBF908B90020039007990398087000202D
:1058500089F80000504609B0BDE8F08F766F6964A2
:10586000000000002DE9F043B5B005460F460024C6
:10587000002604E000213D488155701CC6B20A2E66
:10588000F8DB06E06D1C287818B9012035B0BDE8BA
:10589000F08328782828F5D16D1C61E034AA694688
:1058A0002846FFF779FE064635449DF8D00020B122
:1058B000012827D0FF284CD149E09DF8000000B313
:1058C00033A9684600F025F906460EB10220DDE74F
:1058D000204600F04DF825490A31339A0A50A1F1CB
:1058E0002400008B0121A140884320491A390883F4
:1058F00004211E480155601CC4B20A2C01DD03209E
:10590000C4E726E0684600F0A3F9401C00F0FF0859
:10591000204600F02DF815490A3100EB01094946EF
:10592000684600F08AF911481A38018B0120A0401E
:10593000014388B20D491A3908830C4800F80480E5
:10594000601CC4B20A2C01DD03209FE701E00220A5
:105950009CE700BF2878292801D0287800B900E00A
:105960009CE700BF3C70002090E70000CE000020C4
:1059700002460020002105E0044B5B5C0344D8B2E2
:105980004B1CD9B29142F7DB70470000CE000020DB
:105990000D48008800F0010040B10C48D0F8F0003C
:1059A0004FF6FF7108440949C1F8F0000748D0F8E4
:1059B000F00005491431098808440449C1F8F00091
:1059C0000846D0F8F000704710080040B4000020EE
:1059D00010B5044604EBC40000EB04100122C2EB36
:1059E000800081B24FF47A70FCF7A8F901200149D8
:1059F000C87510BDB400002010B50246012000E0BB
:105A000050430B1EA1F10104E1B2F9D110BD000019
:105A10000948008820F00100074908804FF6FF7010
:105A200005491C31088000200349143108800349CE
:105A3000C1F8F0007047000010080040B4000020DA
:105A400070B51D48008800F40040002833D01A4883
:105A50000578002019494855194881681748884732
:105A600004461CB91649C868804721E0134800F075
:105A7000FBF80546012D00D02C46CCB1012C06D0F8
:105A8000022C08D0032C0AD0042C10D10BE00DA05E
:105A9000FBF768F80BE00EA0FBF764F807E00FA037
:105AA000FBF760F803E010A0FBF75CF800BF00BF55
:105AB00000200149088070BD5C00002008320020F1
:105AC000B4000020BAAFCAFDB4EDCEF3210D0A0038
:105AD000B2CECAFDB4EDCEF3210D0A00B2CECAFD9E
