:020000040800F2
:1000000030350020A9020008AD020008AF02000848
:10001000B1020008B3020008B502000800000000A9
:10002000000000000000000000000000B70200080F
:10003000B902000800000000BB020008BD02000871
:10004000BF020008BF020008BF020008BF0200088C
:10005000BF020008BF02000849260008BF020008CE
:10006000BF020008BF020008BF020008BF0200086C
:10007000BF020008BF020008BF020008BF0200085C
:10008000BF020008BF020008BF020008BF0200084C
:10009000BF020008BF020008BF020008BF0200083C
:1000A000BF020008BF020008BF020008BF0200082C
:1000B000BF020008BF020008A5300008BF02000808
:1000C000BF020008BF020008BF020008BF0200080C
:1000D000BF02000831310008BF020008BF0200085B
:1000E000BF020008BF020008BF02000800F002F8CB
:1000F00000F0CBF80AA090E8000C82448344AAF1F7
:100100000107DA4501D100F0C0F8AFF2090EBAE8F4
:100110000F0013F0010F18BFFB1A43F0010318473B
:1001200064C8000084C800000A444FF0000C10F8B6
:10013000013B13F0070408BF10F8014B1D1108BF65
:1001400010F8015B641E05D010F8016B641E01F805
:10015000016BF9D113F0080F1EBF10F8014BAD1C55
:100160000C1B09D16D1E58BF01F801CBFAD505E073
:1001700014F8016B01F8016B6D1EF9D59142D6D3CD
:10018000704700000023002400250026103A28BFF5
:1001900078C1FBD8520728BF30C148BF0B607047F9
:1001A0004B1C012B98BF70472DE9F003911C9B0855
:1001B000B1F80480B1F802900A8831F802CC80448A
:1001C000814402448444D9F80070D8F8006015686E
:1001D000DCF80040C9F80060C8F80070CCF80050A6
:1001E0001460D9F80470D8F804605568DCF804404D
:1001F000C9F80460C8F80470CCF8045054600831A1
:100200005B1ED5D1BDE8F00370474B1C012B98BF96
:1002100070472DE9F003911C9B08B1F80480B1F8F8
:1002200002900A8831F802CC00EB580800EB59091B
:1002300000EB520200EB5C0CD9F80070D8F80060BB
:100240001568DCF80040C9F80060C8F80070CCF808
:100250000050146008315B1EDFD1BDE8F003704729
:10026000642901F0BB86752901F0B886782901F070
:10027000F186632902F02281732902F02781002090
:1002800070471FB51FBD10B510BD02F07BF91146B8
:10029000FFF7F7FF04F0C4FE02F099F903B4FFF78B
:1002A000F2FF03BC03F009F808480047FEE7FEE749
:1002B000FEE7FEE7FEE7FEE7FEE7FEE7FEE7FEE716
:1002C00003480449024A044B70470000ED0000084F
:1002D000303300203035002030330020002A08BFA2
:1002E00070472DE9F04715460E4604464FF00008CA
:1002F00054F8047B54F8040B014608F031FA8146A7
:100300003946084608F02CFA494608F029F83746DD
:10031000361D10F1FF4F28BFC7F8008002D206F04B
:100320008DF938606D1EE3D1BDE8F0872DE9FF4FF0
:10033000A3B06FF003022398239940680290896864
:10034000209123990988189102EB810108440390B8
:100350002698C0081F9000F084831898C008219048
:1003600024980168039801602498039950F8042F99
:1003700041F8042F50F8042F41F8042F50F8042FAF
:1003800041F8042F00220C920192139212921092C3
:100390000F920E920D92209D029C50F8042F41F86E
:1003A000042F50F8042F41F8042F50F8042F41F87F
:1003B000042F42684A60083108300391249054F8B1
:1003C000040B0B9054F804AB54F8040B089054F849
:1003D000049BDDF884B054F8048BBBF1000F54F893
:1003E000047B54F8046B00F0B28200BF55F8040B94
:1003F000009054F8040B0A9000990B9808F0B0F99B
:1004000011905046009908F0ABF91B90009908989C
:1004100008F0A6F917904846009908F0A1F91A903B
:100420004046009908F09CF919903846009908F068
:1004300097F916903046009908F092F915900099B6
:100440000A9808F08DF9149055F8040B009054F8B0
:10045000040B0B901199019807F082FF01901B99F2
:10046000139807F07DFF13901799129807F078FF03
:1004700012901A99109807F073FF109019990F981D
:1004800007F06EFF0F9016990E9807F069FF0E9017
:1004900015990D9807F064FF0D9014990C9807F0CA
:1004A0005FFF0C905046009908F05AF9119000999E
:1004B000089808F055F91B904846009908F050F943
:1004C00017904046009908F04BF91A903846009969
:1004D00008F046F919903046009908F041F9169055
:1004E00000990A9808F03CF9159000990B9808F0CB
:1004F00037F9149055F8040B009054F804AB119997
:10050000019807F02DFF01901B99139807F028FF21
:1005100013901799129807F023FF12901A991098C8
:1005200007F01EFF109019990F9807F019FF0F9010
:1005300016990E9807F014FF0E9015990D9807F074
:100540000FFF0D9014990C9807F00AFF0C9000997A
:10055000089808F005F911904846009908F000F94C
:100560001B904046009908F0FBF817903846009918
:1005700008F0F6F81A903046009908F0F1F8199052
:1005800000990A9808F0ECF8169000990B9808F07A
:10059000E7F815905046009908F0E2F8149055F8E5
:1005A000040B009054F8040B08901199019807F07F
:1005B000D7FE01901B99139807F0D2FE139017995C
:1005C000129807F0CDFE12901A99109807F0C8FE05
:1005D000109019990F9807F0C3FE0F9016990E9876
:1005E00007F0BEFE0E9015990D9807F0B9FE0D901C
:1005F00014990C9807F0B4FE0C904846009908F046
:10060000AFF811904046009908F0AAF81B903846C0
:10061000009908F0A5F817903046009908F0A0F866
:100620001A9000990A9808F09BF8199000990B9875
:1006300008F096F816905046009908F091F8159039
:100640000099089808F08CF8149055F8040B009065
:1006500054F8049B1199019807F082FE01901B99B0
:10066000139807F07DFE13901799129807F078FE03
:1006700012901A99109807F073FE109019990F981C
:1006800007F06EFE0F9016990E9807F069FE0E9017
:1006900015990D9807F064FE0D9014990C9807F0C9
:1006A0005FFE0C904046009908F05AF811903846C9
:1006B000009908F055F81B903046009908F050F862
:1006C000179000990A9808F04BF81A9000990B9827
:1006D00008F046F819905046009908F041F8169035
:1006E0000099089808F03CF815904846009908F0E1
:1006F00037F8149055F8040B009054F8048B1199B6
:10070000019807F02DFE01901B99139807F028FE21
:1007100013901799129807F023FE12901A991098C7
:1007200007F01EFE109019990F9807F019FE0F9010
:1007300016990E9807F014FE0E9015990D9807F073
:100740000FFE0D9014990C9807F00AFE0C90384695
:10075000009908F005F811903046009908F000F86B
:100760001B9000990A9807F0FBFF179000990B98CF
:1007700007F0F6FF1A905046009907F0F1FF199024
:100780000099089807F0ECFF16904846009907F08A
:10079000E7FF15904046009907F0E2FF149055F8E6
:1007A000040B009054F8047B1199019807F0D8FDD0
:1007B00001901B99139807F0D3FD13901799129885
:1007C00007F0CEFD12901A99109807F0C9FD10900D
:1007D00019990F9807F0C4FD0F9016990E9807F01D
:1007E000BFFD0E9015990D9807F0BAFD0D90149964
:1007F0000C9807F0B5FD0C903046009907F0B0FF5B
:10080000119000990A9807F0ABFF1B9000990B9884
:1008100007F0A6FF17905046009907F0A1FF1A9025
:100820000099089807F09CFF19904846009907F036
:1008300097FF16904046009907F092FF15903846B2
:10084000009907F08DFF149055F8040B009054F8B0
:10085000046B1199019807F083FD01901B9913987F
:1008600007F07EFD13901799129807F079FD12900A
:100870001A99109807F074FD109019990F9807F0C5
:100880006FFD0F9016990E9807F06AFD0E9015995E
:100890000D9807F065FD0D9014990C9807F060FD18
:1008A0000C9000990A9807F05BFF119000990B9843
:1008B00007F056FF1B905046009907F051FF179024
:1008C0000099089807F04CFF1A904846009907F0E5
:1008D00047FF19904046009907F042FF16903846AE
:1008E000009907F03DFF15903046009907F038FF5A
:1008F0001490ABF1010B1199019807F031FD0190B3
:100900001B99139807F02CFD13901799129807F074
:1009100027FD12901A99109807F022FD109019994E
:100920000F9807F01DFD0F9016990E9807F018FD0F
:100930000E9015990D9807F013FD0D9014990C98D1
:1009400007F00EFD0C90BBF1000F7FF44FAD18982F
:1009500010F0070B63D000BF55F8040B009054F85B
:10096000040B0A9000990B9807F0FAFE119050467C
:10097000009907F0F5FE1B900099089807F0F0FE2B
:1009800017904846009907F0EBFE1A9040460099F0
:1009900007F0E6FE19903846009907F0E1FE169040
:1009A0003046009907F0DCFE159000990A9807F090
:1009B000D7FECDF82CA0DDF820A0CDF82090C146C0
:1009C0001490B84637460A9E1199019807F0C8FC62
:1009D00001901B99139807F0C3FC13901799129874
:1009E00007F0BEFC12901A99109807F0B9FC10900D
:1009F00019990F9807F0B4FC0F9016990E9807F00C
:100A0000AFFC0E9015990D9807F0AAFC0D90149963
:100A10000C9807F0A5FC0C90BBF1010B9CD102983F
:100A2000203002902599019808602598139940F884
:100A3000041F129940F8041F109940F8041F0F99E1
:100A400040F8041F0E9940F8041F0D9940F8041F48
:100A50000C994160083025901F98401E1F907FF42C
:100A60007FAC269810F0070850D024980025016824
:100A7000039801602498209E001D24900398029CF6
:100A8000001D0390DDF860903168206807F068FE73
:100A9000294607F065FC371D261D0546B9F10104FE
:100AA00029D0B4F1004F7DD2002C24DD361F3F1F2A
:100AB00014F0010F09D057F8041F56F8040F07F07F
:100AC0004FFE294607F04CFC0546641013D07968A8
:100AD000706807F045FE294607F042FC054657F8C6
:100AE000081F56F8080F07F03BFE294607F038FCB0
:100AF0000546641EEBD1259805602598001D2590BC
:100B00000298001D0290B8F10108AED123981899FF
:100B100040684C1EA30820D0B3F1004F56D2002BE2
:100B20001BDD029A01469C4652F8045B41F8045BC7
:100B300052F8045B41F8045B52F8085B41F8085B2B
:100B400052F8045C41F8045CBCF1010CECD1029950
:100B500000EB031001EB0311029114F0030104BF39
:100B600027B0BDE8F08FB1F1004F44D20029DCBFBF
:100B700027B0BDE8F08F031F029A121F11F0010F7A
:100B800003D052F8040F43F8040F480804BF27B0FD
:100B9000BDE8F08F5168596052F8081F43F8081FEC
:100BA000401E00E003E0F5D127B0BDE8F08F3968C2
:100BB000306807F0D5FD294607F0D2FB0546641ED4
:100BC00006F1040607F10407F1D194E702990968D8
:100BD00040F8041B029951F8042F40F8042B51F8F7
:100BE000042F40F8042B4A68083140F8042B029186
:100BF0005B1EEBD1B1E7029A126840F8042B029A0F
:100C0000121D0292491EF6D127B0BDE8F08F70B5D3
:100C100004460498218008448000011F1D461846A0
:100C2000A26001F03BFB656070BD00002DE9F34F51
:100C30009BB00C461B98008801EB80051B9940086F
:100C400004EB8006D1F804800590CDE90B5405EB48
:100C500080075FEA900900F00481236802936268CC
:100C60001792A2681A92E268159229680E91686834
:100C70000690A8681290E868119030681890726821
:100C80000792B2681692F2680392D7E900A0139017
:100C9000B86810901846D7F80CB007F061FB44F81C
:100CA000040B0699179807F05BFB44F8040B1299A4
:100CB0001A9807F055FB44F8040B1199159807F0A2
:100CC0004FFB44F8040B0E99029807F0D9FE0E90E2
:100CD0000699179807F0D4FE069012991A9807F013
:100CE000CFFE12901199159807F0CAFE1190514647
:100CF000189807F035FB46F8040B1399079807F08E
:100D00002FFB46F8040B1099169807F029FB46F8BC
:100D1000040B5946039807F023FB46F8040B504692
:100D2000189907F0ADFE14900799139807F0A8FEE4
:100D300013901699109807F0A3FE10905846039947
:100D400007F09EFE824658F8040B019058F804BB49
:100D500001990E9807F004FD03905946069807F094
:100D6000FFFC02900199069807F0FAFC069059469C
:100D70000E9807F0F5FC0790DDE9021007F0F0FA95
:100D800045F8040BDDE9060107F07AFE45F8040B8F
:100D90005946149807F0E4FC03900199139807F062
:100DA000DFFC02905946139807F0DAFC069001998F
:100DB000149807F0D5FC8346DDE9021007F060FEC9
:100DC00047F8040B5946069807F0CAFA47F8040B8F
:100DD00058F8040B019058F804BB0199129807F0D9
:100DE000BFFC03905946119807F0BAFC0290019994
:100DF000119807F0B5FC06905946129807F0B0FC20
:100E00000790DDE9021007F0ABFA45F8040BDDE9C5
:100E1000060107F035FE45F8040B5946109807F017
:100E20009FFC03905046019907F09AFC02905046AF
:100E3000594607F095FC83460199109807F090FCFD
:100E40008246DDE9021007F01BFE47F8040B51460D
:100E5000584607F085FA47F8040BB9F101097FF409
:100E6000FCAE1B980223059942680C9800F0F8FB31
:100E70001B980599022342680B981DB0BDE8F04FFE
:100E800000F0EEBB2DE9F34FA7B00F46279800887E
:100E9000400801EB800404EB800606EB8005189601
:100EA0001A95CDE91D412799A5F1040A0AEB80099D
:100EB0004968400806900A910420199006200E9176
:100EC0000D911590306801903868A4F1040BA6F1DB
:100ED00004080090019907F043FA0290DDE900014F
:100EE00007F0CEFD03907068059078680190059931
:100EF00007F036FA00900599019807F0C1FD0190BE
:100F0000606810900146039807F02AFA69680C910E
:100F100007F0B6FD169020680F900146019807F083
:100F2000AFFD2968059107F01BFA11900F990298FF
:100F300007F0A6FD059907F0A3FD149010990098FD
:100F400007F09EFD0C9907F09BFD0B9010990398FC
:100F500007F096FD0C9907F003FA0C900F99019891
:100F600007F0FEF9059907F08BFD12900F99029892
:100F700007F0F6F9059907F0F3F947F8040B6168F3
:100F8000009807F0EDF9696807F0EAF947F8040BF3
:100F9000169844F8040B119844F8040B149846F87A
:100FA000040B0B9846F8040B0C9845F8040B1298A8
:100FB00045F8040B0A9901F108000D990A9001F116
:100FC00010000E990D9001F118000E900698801EE9
:100FD0004008209000F0C681306801903868009089
:100FE000019907F0BDF90290DDE9000107F048FD25
:100FF00003907068059078680190059907F0B0F942
:1010000000900599019807F03BFD019060680C90F5
:101010000146039807F0A4F96968109107F030FDC4
:10102000169020680F900146019807F029FD296865
:10103000059107F095F911900F99029807F020FD9E
:10104000059907F01DFD14900C99009807F018FD04
:10105000109907F015FD0B900C99039807F010FDFF
:10106000109907F07DF90C900F99019807F078F925
:10107000059907F005FD12900F99029807F070F995
:10108000059907F06DF947F8040B6168009807F0BF
:1010900067F9696807F064F947F8040B5AF8040C1B
:1010A00002905BF8040C0190029907F059F9009046
:1010B000DDE9010107F0E4FC0190DAF80000059099
:1010C000DBF800000390059907F04AF902900599B2
:1010D000039807F0D5FC10900390D9F80000059014
:1010E000D8F800001390059907F0CAFC22900199E6
:1010F00007F036F9269058F8041C1098109107F064
:10110000BFFC59F8041C0F9107F02AF9239010999D
:10111000009807F0B5FC0F9907F0B2FC24901399E2
:10112000029807F0ADFC059907F0AAFC21900199FF
:10113000229807F0A5FC2290DDE90F0107F0A0FC42
:10114000039907F09DFC17901399029807F008F98E
:10115000059907F005F9CBF80000ABF104011F91E8
:1011600058F8041C009807F0FBF859F8041C07F025
:10117000F7F81F99ABF1080B08600A980068019016
:101180000A984168009108300A900199169807F072
:10119000E7FA10900099119807F0E2FA0F90019980
:1011A000119807F0DDFA03900099169807F0D8FA25
:1011B0000290DDE90F1007F0D3F844F8040BDDE9E5
:1011C000021007F05DFC44F8040B0099239807F027
:1011D000C7FA10900199269807F0C2FA0F9000996B
:1011E000269807F0BDFA03900199239807F0B8FA02
:1011F0000290DDE90F1007F043FCA8F10401C8F8E4
:1012000000001C91DDE9021007F0AAF81C99A8F172
:10121000080808600D980D99006801900D984068C5
:101220000090199801EB80000D900199149807F037
:1012300097FA109000990B9807F092FA0F90019985
:101240000B9807F08DFA03900099149807F088FA2C
:101250000290DDE90F1007F083F846F8040BDDE992
:10126000021007F00DFC46F8040B2198019980F05C
:10127000004007F075FA10900099249807F070FA72
:101280000F900199249807F06BFA03900099219828
:1012900007F066FA0290DDE90F1007F0F1FBAAF102
:1012A0000401CAF800000991DDE9020107F0E8FB3A
:1012B0000999AAF1080A08600E98006801900E9832
:1012C0001599406800900E9800EB81000E900199EE
:1012D0000C9807F045FA10900099129807F040FA20
:1012E0000F900199129807F03BFA039000990C981F
:1012F00007F036FA0290DDE90F1007F031F845F8F3
:10130000040BDDE9021007F0BBFB45F8040B009964
:10131000179807F025FA10900199229807F020FA03
:101320000F900099229807F01BFA039001991798E3
:1013300007F016FA0290DDE90F1007F0A1FBA9F102
:101340000401C9F800001B91DDE9021007F008F85C
:101350001B99A9F1080908602098401E20907FF48D
:101360003BAE00BFD6F80080D7F800904146484613
:1013700006F0F6FF02904146484607F081FB0390D5
:10138000D6F80490D7F804804946404606F0E8FFB6
:1013900000904946404607F073FB019060680F904B
:1013A0000146039806F0DCFFD5F80490494607F0A3
:1013B00067FB8346206809900146019807F060FBAF
:1013C0002968059106F0CCFF82460999029807F03A
:1013D00057FB059907F054FB80460F99009807F0DA
:1013E0004FFB494607F04CFB0B900F99039807F011
:1013F00047FB494606F0B4FF0C900999019806F0A6
:10140000AFFF059907F03CFB81460999029806F069
:10141000A7FF059906F0A4FF38606168009806F000
:101420009FFF696806F09CFF78600A98D0E9007019
:1014300000905846394607F093F9109050460099AD
:1014400007F08EF90F905046394607F089F90746A4
:101450005846009907F084F98246DDE90F1006F03E
:101460007FFF20605146384607F00AFB60600D9808
:10147000D0E900474046214607F072F983463946D5
:101480000B9807F06DF9824621460B9807F068F932
:1014900004464046394607F063F907465146584628
:1014A00006F05EFF30603946204607F0E9FA7060CA
:1014B0000E98D0E9004621460C9807F051F9804675
:1014C0004846314607F04CF907464846214607F0A2
:1014D00047F9044631460C9807F042F9064639466A
:1014E000404606F03DFF28603146204607F0C8FA26
:1014F000686027980423069942681E9800F0B0F8A7
:1015000027980423069942681D9800F0A9F82798A7
:10151000042306994268189800F0A2F827980699C3
:10152000042342681A9829B0BDE8F04F00F098B83B
:101530002DE9F0410588984617460C460646012AD3
:1015400018D1201DB5B1083815F0010F04D050F89E
:10155000081F81F00041016069080BD050F8082F86
:10156000491E82F0004240F8082B026882F00042D7
:101570000260F3D1B5F5807F1BD008DC102D13D0AD
:10158000202D16D0402D19D0802D0DD01CE0B5F5A2
:10159000007F13D0B5F5806F06D0B5F5006F08D089
:1015A000B5F5805F0AD00FE021463046FFF73EFBDD
:1015B0000AE021463046FFF765FC05E02946012395
:1015C0002046726800F04CF8B8F1000F04D0B189E1
:1015D0002046B268FEF7E4FD012F18BFBDE8F08198
:1015E000284607F075F801464FF07E5006F026FFBA
:1015F0000646002D08BFBDE8F081083C15F0010F3C
:101600000CD03146A06807F0ABF8A060E068314626
:1016100080F0004007F0A4F8E06008346D0808BFCF
:10162000BDE8F0813146A06807F09AF8A060E06854
:10163000314680F0004007F093F8E06031462069C1
:1016400007F08EF820616069314680F0004007F0B5
:1016500087F8606110346D1EE4D1BDE8F0810000B0
:101660002DE9FF4FB3B00446349D2895ED080026C0
:1016700006EB050A0AEB050909EB050808EB050B63
:101680000BEB05004719229078192A9054F83B007B
:10169000039054F836000290039906F061FE009022
:1016A000DDE9020107F0ECF90990229854F83000C6
:1016B000039054F83A000290039906F051FE059009
:1016C000DDE9020107F0DCF9089054F837000390D7
:1016D00054F839000290039906F042FE1590DDE9B6
:1016E000020107F0CDF914902A9854F830000490C4
:1016F00054F838000390049906F032FE0290DDE9B8
:10170000030107F0BDF913901599009807F0B8F997
:1017100004901599009806F023FE00900299059810
:1017200007F0AEF915900299059806F019FE0146EA
:101730000590009806F014FE44F8360005990098CC
:1017400007F09EF944F83B0004EBCB000D90406895
:1017500004EBC60B0390DBF804000290039906F03B
:10176000FFFD0090DDE9020107F08AF9069022985A
:1017700004EBC00016904068039004EBCA000E9082
:1017800040680290039906F0EBFD0590DDE9020147
:1017900007F076F9079004EBC7001A9040680390B1
:1017A00004EBC900199040680290039906F0D8FD37
:1017B0001090DDE9020107F063F90F902A9804EB1D
:1017C000C00018904068039004EBC8001790406870
:1017D0000B90039906F0C4FD029003990B9807F053
:1017E0004FF912901099009807F04AF90390109958
:1017F000009806F0B5FD00900299059807F040F9B1
:1018000010900299059806F0ABFD014605900098EE
:1018100006F0A6FDCBF804000599009807F030F912
:1018200001460D9841601099049806F099FD44F81E
:1018300039001099049807F023F944F837001599F6
:10184000039807F01DF9014619984160159903980E
:1018500006F086FD01461A9841601399089807F032
:101860000FF9FE4F394606F07BFF81461399089821
:1018700006F076FD394606F073FF08901299079836
:1018800007F0FEF8394606F06BFF83461299079879
:1018900006F066FD394606F063FF07904946099851
:1018A00007F0EEF804904946099806F059FD0990B2
:1018B0000899149807F0E4F813900899149806F022
:1018C0004FFD14905946069807F0DAF803905946F0
:1018D000069806F045FD069007990F9807F0D0F896
:1018E000814607990F9806F03BFD8346014609980B
:1018F00006F036FD44F83A005946099807F0C0F85A
:1019000001462A9844F830104946049806F028FD0C
:101910000146229844F830104946049807F0B0F880
:1019200044F838001499069807F0AAF801460E9872
:1019300041601499069806F013FD0146189841601D
:101940001399039807F09CF8014616984160139983
:10195000039806F005FD0146179841602898064453
:1019600034988642FFF484AE082D3CBF37B0BDE802
:10197000F08F00201D9001201B9036991D98359FF7
:1019800008441D90DDF874804200161857F838702E
:101990000E97359F810001EB000C57F832700C97C1
:1019A000359F0CEB0003184457F836702097359F8D
:1019B00057F831701997359F57F83C700B97359F42
:1019C00057F833702597359F57F830702997359F12
:1019D00007EBC8077F681797359F07EBC20207EB35
:1019E000C10152681A9207EBC60207EBC0005268A9
:1019F0001E924968189107EBCC011B9E49682791FC
:101A000007EBC3014968239140681C90771907EBE5
:101A1000050808EB050909EB050A0AEB050B0BEBBA
:101A20000500219028442A9054F83A00039054F875
:101A300036000290039906F093FC0090DDE9020164
:101A400007F01EF8099054F83B00039054F8370053
:101A50000290039906F084FC0590DDE9020107F08D
:101A60000FF80890219854F83000039054F838008B
:101A70000290039906F074FC1590DDE9020106F06E
:101A8000FFFF14902A9854F83000049054F839005D
:101A90000390049906F064FC0290DDE9030106F06E
:101AA000EFFF13901599009806F0EAFF049015993E
:101AB000009806F055FC00900299059806F0E0FFAA
:101AC00015900299059806F04BFC01460590009888
:101AD00006F046FC44F836000599009806F0D0FF61
:101AE000059004EBCA002B904068039004EBC600FD
:101AF000169040680090039906F032FC029003991A
:101B0000009806F0BDFF069004EBCB002D904068D6
:101B1000039004EBC7002C9040680090039906F0F6
:101B20001FFC0D900399009806F0AAFF07902198DA
:101B300004EBC0002F904068039004EBC8002E9087
:101B400040680090039906F00BFC109003990098F0
:101B500006F096FF0F902A9804EBC0003090406882
:101B6000129004EBC900319040680390129906F07E
:101B7000F7FB00901299039806F082FF12901099DB
:101B8000029806F07DFF03901099029806F0E8FB9A
:101B9000029000990D9806F073FF109000990D982F
:101BA00006F0DEFB0D901099049806F0D9FB00902A
:101BB0001099049806F064FF04900D99029806F0BD
:101BC000CFFB0146169841600D99029806F058FF28
:101BD0000D901599039806F053FF029015990398FC
:101BE00006F0BEFB03900599199806F0B9FD169012
:101BF0000D99189806F0B4FD15900D99199806F0F6
:101C0000AFFD0D900599189806F0AAFD0590DDE945
:101C1000151006F0A5FB44F83A0005990D9806F05A
:101C20002FFF01462B98416000990C9806F098FD13
:101C3000169002991A9806F093FD824602990C9824
:101C400006F08EFD0D9000991A9806F089FD05901A
:101C50005146169806F084FB02E00000F304353F7D
:101C600044F8380005990D9806F00AFF01462E98B1
:101C700041600499259806F073FD824603992398E4
:101C800006F06EFD80460399259806F069FD0D90DB
:101C90000499239806F064FD05904146504606F0ED
:101CA0005FFB0146219844F8301005990D9806F025
:101CB000E7FE01462F9841601399089806F0E0FE70
:101CC000844906F04DFD80461399089806F048FBBC
:101CD000804906F045FD82461299079806F0D0FE2D
:101CE0007C4906F03DFD02901299079806F038FBFA
:101CF000784906F035FD07904146099806F0C0FE88
:101D000004904146099806F02BFB0990514614981F
:101D100006F0B6FE13905146149806F021FB14907D
:101D20000299069806F0ACFE03900299069806F018
:101D300017FB069007990F9806F0A2FE82460799B6
:101D40000F9806F00DFB80460146099806F008FB47
:101D500000904146099806F093FE09905146049878
:101D600006F0FEFA08905146049806F089FE0490A9
:101D70001499069806F084FE80461499069806F099
:101D8000EFFA06901399039806F07AFE07901399DC
:101D9000039806F0E5FA039000990E9806F0E0FC2F
:101DA00016904146179806F0DBFC824641460E9895
:101DB00006F0D6FC0D900099179806F0D1FC8046ED
:101DC0005146169806F0CCFA44F8370041460D9873
:101DD00006F056FE01462C9841600999299806F0B4
:101DE000BFFC824606991C9806F0BAFC804606990C
:101DF000299806F0B5FC0D9009991C9806F0B0FCE6
:101E000007464146504606F0ABFA01462A9844F888
:101E1000301039460D9806F033FE01463098416087
:101E200008990B9806F09CFC80460799279806F0C5
:101E300097FC824607990B9806F092FC0D90089942
:101E4000279806F08DFC07465146404606F088FA72
:101E500044F83B0039460D9806F012FE01462D98D5
:101E600041600499209806F07BFC834603991E98F4
:101E700006F076FC82460399209806F071FC8046B5
:101E800004991E9806F06CFC07465146584606F029
:101E900067FA44F839003946404606F0F1FD01463C
:101EA000319841602898064434988642FFF4AEADDC
:101EB0001B98401C1B9085423FF65FAD36984FF64D
:101EC000FF7101EAC0003690072D3FF6CEAB37B068
:101ED000BDE8F08FF304353F704710B54C1084EA2D
:101EE000530404D54042C1F1000138BF491E1B42D2
:101EF00004D55242C3F1000338BF5B1E00F0F9F96C
:101F000014F0804F04D04042C1F1000138BF491E97
:101F100014F0004F04D05242C3F1000338BF5B1EDF
:101F200010BD00000FB4044910B503AA029800F0D8
:101F3000D1FA10BC5DF814FB5800002070B50446BF
:101F400085690068C10601D5302600E02026C0075B
:101F500007D070BDD4E9012130469047206A401C6B
:101F600020626D1EF6D570BD70B504468569007897
:101F7000C00707D170BDD4E9012120209047206A15
:101F8000401C20626D1EF6D570BD70B50C4605462E
:101F9000012A05D02878800600D5EA69002302E0EE
:101FA000012305E05B1C934202D2E05C0028F9D1DA
:101FB000A869E618C01AA861286A18442862284649
:101FC000FFF7BCFF04E0D5E9012114F8010B9047AD
:101FD000B442F8D32846FFF7C7FF70BD2DE9F041A2
:101FE0000646002410687529314616A510D0AFF3B7
:101FF0000080002802DA404213A507E031688A0712
:1020000001D512A502E0490704D511A5012401E07C
:10201000AFF3008000210A2206F1240709E0B0FB9B
:10202000F2FCB0FBF2F302FB1C003030785418468F
:10203000491C0028F3D123462A463046BDE8F0412A
:1020400000F0D9B9000000002D0000002B000000B6
:102050002000000070B504460D4621461068AFF31D
:1020600000802188090502D50F4A7A4402E00E4A11
:102070007A440E32002104F1240305E000F00F063B
:102080000009965D5E54491C0028F7D12078002392
:10209000000704D5702D02D009B102231132204669
:1020A000BDE8704000F0A7B9A6A600002DE9F05FDA
:1020B000894604464FF0000ADFF874B1FB44C0F8CB
:1020C00020A02046E1688847002874D0252806D043
:1020D000D4E901219047206A401C2062F1E70026E4
:1020E0005F462046E16888472028054607DB312DFA
:1020F00005D2781910F8200C08B10643F1E7B007B3
:1021000001D526F00406C4F81CA00027C4F818A0C6
:102110002A2D09D0284601F0C9F838B304EB870806
:10212000303DC8F8185019E059F8041B204604EB5C
:1021300087029161E1688847012F054618D1E0695F
:10214000002820DA26F020061DE0D8F8180000EB61
:10215000800005EB40003038C8F818002046E168E0
:102160008847054601F0A2F80028EED1012F0AD0D9
:102170002E2D08D12046E16888477F1C0546022F96
:1021800046F02006C4DBA069002803DA404246F08E
:102190000106A061F00701D026F010066C2D0BD0CF
:1021A000682D09D04C2D39D06A2D35D0742D35D0FD
:1021B0007A2D33D016E038E0E1682F462046884774
:1021C000B842054609D16C2F26D04FF48060E168F3
:1021D000064320468847054604E06C2F1AD04FF48A
:1021E000807006430DB3A5F14100192802D82035AF
:1021F00046F400664A462946204626604E46FEF7CB
:102200002FF880B101280BD0F61D26F0070000F151
:10221000080956E74020E4E78020D8E70020D6E709
:1022200006F104094DE7284652E7206ABDE8F09F11
:102230007CA6000040EA010310B59B070FD1042AD9
:102240000DD310C808C9121F9C42F8D020BA19BA81
:10225000884201D9012010BD4FF0FF3010BD1AB1E6
:10226000D30703D0521C07E0002010BD10F8013B3B
:1022700011F8014B1B1B07D110F8013B11F8014B62
:102280001B1B01D1921EF1D1184610BD02F0FF03B5
:1022900043EA032242EA024200F030B94FF0000262
:1022A00000B5134694469646203922BFA0E80C504C
:1022B000A0E80C50B1F12001BFF4F7AF090728BF27
:1022C000A0E80C5048BF0CC05DF804EB890028BFA3
:1022D00040F8042B08BF704748BF20F8022B11F0CC
:1022E000804F18BF00F8012B704770477047704748
:1022F000704753EA020C00F069802DE9F04B4FF073
:102300000006002B1FBFB3FA83F503FA05F424FA85
:1023100005F65E4012BF1643B2FA82F502FA05F4E2
:10232000C5F120051EBF22FA05FC44EA0C04203545
:1023300056EA044C4FEA144418BF641C4FF00008DE
:102340004FF00009904271EB030C39D3002919BFFB
:10235000B1FA81F701FA07F6B0FA80F700FA07F64A
:10236000C7F120071EBF20FA07FC46EA0C062037FB
:10237000B6FBF4FCA7EB0507103F07F01F0BCBF1F2
:1023800020060CFA0BFB2CFA06F644BFB3460026D7
:10239000202FA4BF5E464FF0000B5BEA060C08BF7F
:1023A0004FF0010B19EB0B09ABFB027C48EB060865
:1023B000C01B06FB02CC0BFB03CC71EB0C01C1E78D
:1023C0000B46024641464846BDE8F08B13B54FF038
:1023D00000004FF00001AFF30080BDE81C407047E3
:1023E00010B500F0ABF8006810BD10B5044600F061
:1023F000A5F8046010BD2DE9F0470D4699469246B8
:10240000044600F124080168880604D5E06921F03B
:102410001001216000E00120A84201DD471B00E01F
:102420000027A1697A1902EB0900081AA061207837
:10243000C00602D42046FFF781FD002608E0D4E95B
:1024400001211AF806009047206A401C761C206281
:102450004E45F4DB2078C0060AD52046FFF76EFD16
:1024600006E0D4E9012130209047206A401C206218
:10247000381EA7F10107F4DC07E0D4E9012118F8C0
:1024800005009047206A401C2062281EA5F1010526
:10249000F3DC2046FFF768FD2078000602D5022015
:1024A000BDE8F0870120FBE710B5436913B1AFF336
:1024B000008001E0FFF769FD012010BD127800F1F6
:1024C00024010A7000224A700122EDE711684FF0E2
:1024D000FF32E9E7074B70B50D467B4400F037F853
:1024E0000446284600F046F810B14FF0FF3070BDAA
:1024F000204670BD572300004FF000020429C0F0B1
:10250000128010F0030C3FF4CBAECCF1040CBCF104
:10251000020F18BF00F8012BA8BF20F8022BA1EB77
:102520000C01FFF7BDBE5FEAC17C24BF00F8012BA0
:1025300000F8012B48BF00F8012B70470048704796
:10254000D032002001694A1C02610878704700B54A
:102550008FB0CDE901310021059105497944CDE9DC
:10256000031011466846FFF7A1FD0FB000BD000043
:10257000E5FFFFFF007B00F08000704700487047D8
:10258000D03200207546FFF7F9FFAE4605006946D8
:10259000534620F00700854618B020B5FDF790FEA1
:1025A000BDE820404FF000064FF000074FF0000854
:1025B0004FF0000B21F00701AC46ACE8C009ACE8D5
:1025C000C009ACE8C009ACE8C0098D46704710B539
:1025D0000446AFF300802046BDE81040FDF75EBE24
:1025E0002DE9F34F83B08146D9E90056D9E9007847
:1025F00001241DE009EBC40103C92A463346CDE995
:10260000000105F06FFC03D809EBC40060C8A246C6
:1026100009EBC40003C83A464346CDE9000105F082
:1026200027FB04D809EBC400D0E90078A346641C5A
:1026300004988442DEDBCBF10300A0EB0A00029099
:10264000504605B0BDE8F08F10B5064803F08CFE8B
:102650000549086000200549086001200449086018
:1026600010BD0000F819002018000020940123423A
:102670001404014010B502220021084600F008F8B9
:10268000022306220321184600F06AFC10BD000058
:1026900070B504460B46CE1701EB9676C6F387005D
:1026A000CE1701EB9676B610A1EB8606B606350E70
:1026B0001C4B9B6943F001031A4EB3614FEAB633DA
:1026C00053F820300F26AE40B343174E46F8203063
:1026D000334653F8203004FA05F61E43124B43F8F4
:1026E0002060124B1B6801268E4033430F4E33602F
:1026F00002F0010343B10D4B0C331B6801268E40E1
:1027000033430A4E0C36336002F0020343B1074BE9
:1027100008331E6801238B401E43044B08331E60A0
:1027200070BD00000010024008000140000401409C
:102730002DE9F04F89B005460E4691469A46002491
:1027400000E0641C55F82400494605F0D5FFF8D395
:1027500055F82400514606F0CFF8F2D3B44202DC1B
:1027600055F8247000E01E4F641C00E0641C55F80E
:102770002400494605F0C0FFF8D355F8240051461F
:1027800006F0BAF8F2D3B44202DC55F8248001E036
:10279000DFF84C80404605F0B7FD4FF03332114B67
:1027A000CDE9000105F0A0FACDE90401384605F0B5
:1027B000ABFD4FF066320C4BCDE9000105F094FA09
:1027C000CDE90201DDE9042305F026F8CDE9060193
:1027D00004F0F0FF8346584609B0BDE8F08F0000D2
:1027E000000080BF3333D33F6666E63F2DE9F047F4
:1027F00088B08246894600200546064600210F46DD
:10280000884600240CE05AF8240005F07DFD2A4695
:102810003346CDE9060104F0FFFF05460E46641C71
:102820004C45F0DBA9F1010005F00AFA02460B461F
:10283000CDE906012846314605F0AAF805460E46C0
:10284000002424E05AF8240005F05EFD2A463346B1
:10285000CDE9000105F06EFCCDE904015AF8240031
:1028600005F052FD2A463346CDE9000105F062FC31
:10287000CDE90201DDE9042305F036FA3A46434684
:10288000CDE9060104F0C8FF07468846641C4C45A4
:10289000D8DB09F1010005F0D3F902460B46CDE97A
:1028A00006013846414605F073F807468846384623
:1028B000414608B0BDE8F08701464906084A9269DA
:1028C00042F00102064B9A61064A526822F0E06229
:1028D000044B5A601A4652680A435A607047000017
:1028E00000100240000001401848806940F00800D4
:1028F000164988610846806940F0400088611448A4
:10290000006820F47000124908600846006840F42E
:10291000401008600E480C30006840F020000C4960
:102920000C3108600B48006820F470000949086009
:102930000846006840F44010086006480C30006803
:1029400040F0200003490C3108607047001002403D
:10295000000C0140001801402DE9F84F6B4602229F
:102960004121682000F0F1F99DF801009DF8001068
:1029700040EA01200FFA80FA504605F061F98046DE
:1029800000220B4B05F004F806460A4A0A4B04F0F5
:1029900043FF044604F00EFF83460849584605F0FD
:1029A000DFFE044605F040FE00B2BDE8F88F0000EF
:1029B00000407540A4703D0AD74342400000C84221
:1029C00010B500200E4908600E48006820F47040E1
:1029D0000C4908600846006840F440500860002038
:1029E0000949C1F8AC0100F011F801200449086060
:1029F00000F00CF800200449C1F8A80110BD000047
:102A0000A8812142040C01400080214210B502201F
:102A100001F046F810BD00000C48806940F0080045
:102A20000A4988610A48006820F47F400849086024
:102A30000846006840F44C500860054808300068BB
:102A400040F44060024908310860704700100240BD
:102A5000040C014010B500200E4908600E480068C3
:102A600020F470400C4908600846006840F440506B
:102A7000086001200949C1F8AC01FFF7C7FF012038
:102A800004490860FFF7C2FF00200449C1F8A8010B
:102A900010BD0000A8812142040C014000802142A9
:102AA00070B5054600241648006820F470401449AB
:102AB00008600846006840F400400860002614E002
:102AC000002010490860FFF7A1FF01200E49C1F85E
:102AD000A8016006040E0B487C38006808B1601C31
:102AE000C4B2FFF793FF701CC6B2082EE8DB15B91D
:102AF000FFF7B0FF01E0FFF763FF204670BD000065
:102B0000040C0140A88121420080214270B5044696
:102B10001248006820F470401049086008460068B8
:102B200040F44050086000200D490860002512E084
:102B3000E0090B49091D08606006040E01200949DF
:102B4000C1F8A801FFF762FF002005490860FFF700
:102B50005DFF681CC5B2082DEADB70BD040C0140A6
:102B6000A88121420080214210B50E48006820F45F
:102B700070400C4908600846006840F44050086006
:102B80000120094908600949C1F8A801FFF73EFF83
:102B9000002005490860FFF739FF00200349C1F80C
:102BA000A80110BD040C0140AC81214200802142EB
:102BB00010B50E48006820F470400C4908600846C3
:102BC000006840F440500860002009490860094945
:102BD000C1F8AC01FFF71AFF01200549086005495B
:102BE000C1F8AC01FFF712FF10BD0000040C01405A
:102BF000A88121420080214210B5002414480068B9
:102C000020F47040124908600846006840F4004013
:102C1000086001200F490860FFF7F8FE01200E4907
:102C2000C1F8A801FFF7F2FE07E0601CC4B2FA2C5D
:102C300003DDFFF7BDFF012010BD064880380068A6
:102C40000028F2D10349091F086000BFF4E7000023
:102C5000040C0140AC8121420080214210B529487A
:102C6000806940F00400274988612748006820F007
:102C70007040254908600846006840F040500860F0
:102C80000120FFF719FE002020490860FFF7C4FE6D
:102C900080216B2000F0DDF8642000F0E3FE0021CD
:102CA0006B2000F0D6F8032000F091F8002000F02F
:102CB00086F8082000F0B0F80021382000F0C9F8AC
:102CC00000216A2000F0C5F80021232000F0C1F89F
:102CD0008021372000F0BDF8752000F019F8044677
:102CE000682C0BD101216B2000F0B3F800216C207F
:102CF00000F0AFF8082000F08FF801E0012010BDCF
:102D00000020FCE70010024004080140BC01214201
:102D100070B50446FFF728FFD020FFF7F7FEFFF756
:102D20006BFF2046FFF7F2FEFFF766FFFFF71CFF81
:102D3000D120FFF7EBFEFFF75FFF0020FFF7B0FEAB
:102D40000546FFF735FF284670BD2DE9F0410646E0
:102D50000F4614461D46FFF707FF002141EA4601D2
:102D6000C8B2FFF7D3FEFFF747FF20B1FFF720FF00
:102D70000120BDE8F0813846FFF7C8FEFFF73CFFB1
:102D8000FFF7F2FE012101EB4601C8B2FFF7BEFEDC
:102D9000FFF732FF0DE0012C04D10020FFF780FE89
:102DA000287003E00120FFF77BFE2870601EC4B28C
:102DB0006D1C002CEFD1FFF7FBFE0020D9E710B50A
:102DC0000446E006010E1C2000F043F810BD10B5CB
:102DD0000446E006010E1B2000F03BF810BD70B564
:102DE00004460025BC2C01DB012510E0622C01DB30
:102DF00002250CE02A2C01DB032508E0142C01DB62
:102E0000042504E00A2C01DB052500E006252946FF
:102E10001A2000F01EF870BD70B50446B4F57A7F34
:102E200001DD4FF47A74042C00DA04244FF47A7034
:102E300090FBF4F0401EC5B22946192000F009F8B5
:102E40000546264604EBD671C1F34F00FFF7C7FFD6
:102E500070BD70B505460C46FFF786FED020FFF723
:102E600055FEFFF7C9FE18B1FFF7A2FE012070BDA5
:102E70002846FFF74BFEFFF7BFFE2046FFF746FE52
:102E8000FFF7BAFE18B1FFF793FE0120EFE7FFF757
:102E90008FFE0020EBE72DE9F04105460E46174670
:102EA0009846FFF761FE002141EA4501C8B2FFF7ED
:102EB0002DFEFFF7A1FE20B1FFF77AFE0120BDE84D
:102EC000F0813046FFF722FEFFF796FE00240CE06B
:102ED00018F80400FFF71AFEFFF78EFE18B1FFF78F
:102EE00067FE0120EBE7601CC4B2BC42F0DBFFF7D9
:102EF0005FFE0020E3E7000000B5002015490861EF
:102F0000C8601420486100208861C86108460068D4
:102F100040F001000860084640680F4908400D492C
:102F20004860084600680D4908400A49086008469C
:102F3000006820F4802008600846406820F4FE0005
:102F400048600020886000214FF0006000F058F8D1
:102F500000BD0000001002400000FFF8FFFFF6FE79
:102F60002DE9F0410746884614461D46284600F0E4
:102F700033F8C5F1040007FA00F60F20284100EAF3
:102F80000800064306F00F06E21704EBD262521166
:102F9000920002F1E022D2F800212146E31704EB6F
:102FA000D3635B11A4EB431C012303FA0CF31A4314
:102FB0002046E31704EBD3635B119B0003F1E0238E
:102FC000C3F800210348005D40EA06100149085596
:102FD000BDE8F08100E400E00146072323EA010296
:102FE0001202054B18684FF6FF031840034B1843B5
:102FF0001043014B186070470CED00E00000FA052B
:10300000024A0A400243024B1A60704780FFFF1FCA
:1030100008ED00E030B504460025FFF76DFF1F48BE
:10302000006840F480301D49086000BF1B480068FC
:10303000400C0028FAD04FF4806018494860A01E68
:10304000C4B20846406840EA844048600846406888
:1030500040F4803048601248006840F03200104967
:1030600008600E48006840F080700C49086000BF9E
:103070000A480068400E0028FAD00848406840F02E
:1030800002000649486005E004484068C0F387052F
:1030900005F00305022DF7D130BD000000100240FD
:1030A0000020024010B50C48008800F0010058B123
:1030B0000A490869804700200749143108804FF405
:1030C0007A7005491C3108800348008820F001000F
:1030D0000149088010BD000010080040B400002025
:1030E00070B505460C461048C06940F004000E4912
:1030F000C8610E480580001F04800C4820380088F5
:1031000040F0010009492039088008482C3800881F
:1031100040F0010005492C39088002231E220321BA
:103120000846FFF71DFF70BD001002402C0800404C
:103130001D49098801F0200111B31B49091D0988A7
:10314000C8B21A49098801F40041C9B91749098868
:1031500001F4804161B10A2803D00021134A118093
:1031600020E01249098841F40041104A118019E019
:103170000D2806D10D49098841F480410B4A118080
:1031800010E00A490988C1F30D01094A5054074962
:103190000988491C054A118011460988C72901DDA3
:1031A0000021118070470000003801405C000020C1
:1031B00008320020490050EAC12018BF04204A0DFF
:1031C00018BF40F0010040F2FF72B2EB515F08BF40
:1031D00040F00200012808BF052070472DE9F041AA
:1031E0004F1E00EBC7010446D1E9000115461E46FB
:1031F00037F006020DD02A46334604F075FD7F1ED7
:1032000004EBC703D3E9002304F006FB37F0060202
:10321000F1D1022F25D0042F13D0062F18BFBDE8FF
:10322000F0812A46334604F05FFDD4E90A2304F016
:10323000F3FA2A46334604F057FDD4E9082304F094
:10324000EBFA2A46334604F04FFDD4E9062304F096
:10325000E3FA2A46334604F047FDD4E9042304F098
:10326000DBFA2A46334604F03FFDD4E9022304F09A
:10327000D3FA2A46334604F037FDD4E90023BDE8EB
:10328000F04104F0C9BA012205F0A1BC04F0C4BAAF
:10329000002213461046114604F07ABB024A002071
:1032A000110705F094BC000001FDFFFF30380A282B
:1032B00001D20120704700207047014600BF7047CF
:1032C0002DE9FE4F074688460026684601F04EFB72
:1032D000002444E057F8240058F82410A0EB010A19
:1032E000BAF1000F01DB514601E0CAF100010846C6
:1032F00005F0D6F983464FF08F4105F09FF88146DF
:103300005DF82400002105F05BF918D05DF8241069
:10331000484605F093F882464FF07E5105F0B0FB29
:10332000054600BF25F0004082460F48416A5046DE
:1033300005F0E2FA12D20120A04006430EE00A484E
:10334000C169484605F0D8F905D30748016A4846DF
:1033500005F0D2FA02D20120A0400643641C032CDF
:10336000B8DB3046BDE8FE8FD48C000810B50024D1
:103370000948037809480278094801680948FEF7B6
:10338000D7F8094802680948016805480068FCF751
:10339000A5FF012010BD0000100000200C0000203F
:1033A00000000020F498000808000020040000201D
:1033B0002DE9F04D8D4F21F0004A86B005460C46B0
:1033C000BA452ADBAAEB070028430AD08848824581
:1033D00001DC1AD1CDB106B02846BDE8F04DFFF7AB
:1033E00052BF844A844B284604F07EFC07460E46B2
:1033F000824A834B2846214604F076FC06B03A46C2
:103400003346BDE8F04D04F007BA0120FEF7EDFFAA
:1034100006B0BDE8F04DFFF73BBF7A48824542DA7F
:10342000BAF1795F0BDA2846FFF7C4FE042808BF1B
:10343000FFF734FF284606B02146BDE8F08D2A4646
:103440000B46104604F050FC834602466E480E467A
:103450000B4606217844FFF7C1FE5A46334604F076
:1034600043FC804669488A465A46334604217844DC
:10347000FFF7B4FE5A46334604F036FC00223B46C2
:1034800004F0CAF902460B464046514604F080FA61
:103490002A46234604F028FC06B02A462346BDE807
:1034A000F04D04F0B9B9284624F0004100223D4611
:1034B0003B4604F04DFD4FF0FF3205F088FB064619
:1034C000024653480F460B4606217844FFF786FE16
:1034D00032463B4604F008FCCDE900014D48324637
:1034E0003B4604217844FFF779FE32463B4604F020
:1034F000FBFB00222B4604F08FF9834602913046F5
:10350000394603F075F8804643480D46504517DCB0
:10351000DDE900015A46029B04F03AFA42462B4686
:1035200004F0E2FB42462B4604F076F9012205F056
:103530004EFB304A304B04F0FDFD304A304B4CE03E
:103540004FF0000A52460B46404604F065F9CDE9BB
:10355000031052462B461046194604F0C5FB32466E
:103560003B4604F0F5FCDDE9033204F011FA0646AF
:103570000F46DDE900015A46029B04F009FA834632
:10358000009101223046394605F021FB194A1A4BB9
:1035900004F0DEFC06460F4601224046294605F0AF
:1035A00016FB5A46009B04F09FFB32463B4604F054
:1035B000C1FD06460F4601225046294605F007FB8D
:1035C0000E4DDFF858802A46434604F0C1FC3246CF
:1035D0003B4604F0BDFC2A46434604F0B9FC002CEF
:1035E000D8BF81F0004106B0BDE8F08D0000F03F8B
:1035F0000000F07F075C143326A6913C182D44543C
:10360000FB21F93F0000E03FF89200000E9300001C
:1036100082920000989200003333EF3FFB21E93F94
:103620002DE9F84F04460D4621F000400091734902
:10363000814211DC7249884201DC06D12CB120465E
:103640002946BDE8F84FFFF71EBE6E48002DCCBFDF
:103650006D496E49BDE8F88F6D49814211DD6D49B4
:103660008142D8BF4FF0FF366DDD20462946FFF777
:10367000A1FD042808BFFFF711FE20462946BDE83A
:10368000F88F6549654F25F00045814233DD644977
:10369000814219DD002632464FF0804320462946FC
:1036A00004F0BAF880468A4601222046294605F0F1
:1036B0008EFA00223B4604F03DFD4246534604F09C
:1036C00067F904460D463EE001260022BA463B4615
:1036D0002046294604F0A0F880460F4600225346B3
:1036E0002046294604F026FD42463B4604F050F9A8
:1036F00004460D4627E04B4981421BDDDFF828A137
:103700000226002253462046294604F0EDFA002204
:103710003B4604F081F880460F460022534620467F
:10372000294604F007FD42463B4604F031F90446C1
:103730000D4608E0032622462B4600203B4904F0B4
:1037400027F904460D4622462B461046194604F03A
:10375000CBFA8B46824602460B4604F0C5FA074672
:103760000246334888460B4606217844FFF736FD6B
:1037700052465B4604F0B8FA82462E488B463A46DB
:10378000434605217844FFF729FD3A46434604F0B5
:10379000ABFA02460B46002E504659460CDA04F0AE
:1037A0003BF822462B4604F09FFA01B022462B46F6
:1037B000BDE8F04F04F0CCBB04F02EF822462B46B7
:1037C00004F092FA1C4A7A4402EBC603D3E90023C0
:1037D00004F0B0FC22462B4604F0ACFC174A7A44B5
:1037E00002EBC603D3E9002304F0B2FB009A002ADF
:1037F000B8BF81F00041BDE8F88F00000000104420
:103800000000F07F182D4454FB21F93FFB21F9BF44
:103810000000DC3F0000203E0000F33F0000F03FCE
:103820000000E63F008003400000F83F0000F0BFCA
:103830009A90000058900000F68F0000BE8F0000A4
:103840002DE9F04D9446CCF1000423F000464CEAFB
:103850000404524F46EAD4749A46884621F0004246
:10386000BC4206D8454240EA050442EAD474BC4250
:1038700004D9BDE8F04D6246FFF708BDAAF14055F6
:10388000A5F17F6555EA0C040BD0022404EAAA7462
:10389000434DDFF810E144EAD87452EA000B04D03B
:1038A0000CE0BDE8F04DFFF7BBBE002C14BF012CAF
:1038B000BDE8F08D022C30D0032C32D056EA0C0B30
:1038C0000AD0BE4220D1BA4209D126F0804622F069
:1038D00080423346114617E000291ADB25E0DFF865
:1038E000C8B0FB44002C04BFDBE90001BDE8F08D4B
:1038F000012C02BFDBE9000181F00041BDE8F08D41
:10390000022C0AD0032C0CD0BA4212D1B8F1000F0D
:103910000BDA23482549BDE8F08D28462449BDE847
:10392000F08D28467146BDE8F08D1D482149BDE85F
:10393000F08D921B12153C2AC4BF19481D490EDC9C
:10394000BAF1000FBEBF12F13C0F0020014606DBAA
:10395000624604F01DF821F00041FFF761FE002CE3
:1039600008BFBDE8F08D012C04BF81F00041BDE827
:10397000F08D114A114B022C07D004F0DBFB2A46D4
:10398000BDE8F04D0A4B04F0D5BB04F0D3FB2A464A
:10399000BDE8F04D064B04F0DBBA00000000F07FFC
:1039A000182D4454FB2109C0528F0000FB21F9BFA0
:1039B000FB210940FB21F93F075C143326A6A13CFB
:1039C0002DE9F0410446E07800F0C006E07800F010
:1039D0003F05607800F0010098B1EF102846E91724
:1039E00005EB5171C910A5EBC101491C01F0FF089D
:1039F0000B48006820B10A484146026838469047A3
:103A000000BF607800F0080030B10548406818B188
:103A1000B011034A516888470020BDE8F0810000DA
:103A2000F83100204FF0E021096921F004014FF046
:103A3000E0221161C21700EB5272C2F3C702074BBA
:103A40001A701946097801EB4102C2EBC1114FF619
:103A5000FF7202EAC101024A118070475200002041
:103A60005400002001460D4A12884A434FF0E023DB
:103A70005A6100229A6101221A6100BF4FF0E022D0
:103A8000106900F001021AB100F48032002AF5D06A
:103A900000224FF0E0231A619A6170475400002021
:103AA00001460D4A12784A434FF0E0235A61002242
:103AB0009A6101221A6100BF4FF0E022106900F004
:103AC00001021AB100F48032002AF5D000224FF032
:103AD000E0231A619A617047520000202DE9F04FEF
:103AE00097B081468A4600240020054606460021FC
:103AF0000F468846149115911291139100BF00BF93
:103B000000BF00BF00BF36E0204604F099F82A4607
:103B10003346CDE9080103F07FFE05460E4659F80D
:103B2000240004F0F1FB3A464346CDE9080103F0D6
:103B300073FE07468846204604F0B2FD079059F808
:103B4000241004F00DFE834604F0DEFBCDE90801ED
:103B5000DDE9142303F060FECDE9140104FB04F059
:103B600004F06EF8CDE90801DDE9122303F054FEFC
:103B7000CDE91201641C5445C6DB2A46334628466B
:103B8000314604F0B1F8CDE90401504604F058F88C
:103B9000CDE90001DDE9122304F0A6F8CDE9020128
:103BA000DDE9042304F0C6FA3A464346CDE90801AC
:103BB0002846314604F098F8CDE90401504604F057
:103BC0003FF8CDE90001DDE9142304F08DF8CDE9DB
:103BD0000201DDE9042304F0ADFACDE90601DDE9D7
:103BE000082303F0D5FECDE90C01504604F028F877
:103BF00002460B46CDE908012846314603F0C8FECF
:103C0000CDE91001504604F01BF802460B46CDE901
:103C100008013846414603F0BBFECDE90E01DDE95F
:103C20001023DDE90C0104F05FF8CDE90801DDE9BE
:103C30000E2304F08DF9CDE90A0100241AE0204694
:103C400003F0FEFFCDE90401DDE90C2304F04CF89C
:103C5000CDE90601DDE90A2303F0DEFDCDE9080127
:103C600003F0A8FD834659F8241004F076FE49F8C5
:103C70002400641C5445E2DB17B0BDE8F08F38B572
:103C8000044664B120208DF8000028208DF8010042
:103C900030208DF8020038208DF8030004E0A322C4
:103CA00004216846FEF7F2FA6A46042140F69E2097
:103CB00002F016FB01F000FF38BD00003EB50446DF
:103CC00002208DF80000CA208DF80100E3208DF855
:103CD000020009208DF803006A460421682002F0E2
:103CE000FFFAA3208DF8000004F0400048B1C02086
:103CF0008DF80100C8208DF80200C2208DF8030065
:103D000006E0A3208DF801008DF802008DF8030075
:103D100004F4C07048B1C4208DF80400CC208DF8A4
:103D20000500C6208DF8060006E0A3208DF80400EB
:103D30008DF805008DF80600A3208DF807008DF89A
:103D400008008DF809006A460A2140F6A72002F013
:103D5000C7FA04F0030018B120208DF8000002E03B
:103D6000D8208DF800006A46012140F6B62002F006
:103D7000B7FA04F0200018B1012000F0ADF802E01D
:103D8000002000F0A9F804F4C07008B304F48070B7
:103D900060B1B2208DF800008B208DF80100B620B4
:103DA0008DF802009B208DF803000BE0B0208DF809
:103DB000000080208DF80100B4208DF802009020D2
:103DC0008DF803006A46042140F6A22002F088FA2A
:103DD00004F0010020B3F8208DF800006A460121AC
:103DE0004FF40B6002F07CFAFA21072000F02CFC63
:103DF000072000F0F3FB012000F013FC642000F02A
:103E0000F3FC4FF4FA7000F002FDC821304800F0D6
:103E1000A3FB282000F0BCFB0A2000F0CCFB08E04C
:103E2000D8208DF800006A4601214FF40B6002F0A3
:103E300057FA04F0020018B1D9208DF8000002E012
:103E4000D8208DF800006A46012140F23D7002F052
:103E500047FA04F0040018B1012000F069F802E00C
:103E6000002000F065F804F0100018B10120FFF701
:103E700006FF02E00020FFF702FF44F008001549AA
:103E8000488101F019FE00201249887304F04000B7
:103E900018B10846807B801D887304F4C07020B17F
:103EA0000C48807B801D0B49887304F0140020B1FE
:103EB0000848807B10300749887304F0030020B164
:103EC0000448807B001D0349887300203EBD00002C
:103ED00009E3CA02F83100203EB504466CB10EA1D8
:103EE000D1E900208968CDE9002002916A460921C4
:103EF0004FF4976002F0F4F93EBD0AA2D2E9001037
:103F00009268CDE9010200916A4609214FF4976059
:103F100002F0E6F9F0E70000B8AAB38DB4980D35C9
:103F20005D000000B8AAAAAAB088C3C5C7000000F7
:103F300038B5044664B1C0208DF80000C2208DF869
:103F40000100C4208DF80200C6208DF8030004E0B3
:103F50008B2204216846FEF799F96A46042140F64F
:103F6000982002F0BDF901F0A7FD38BD10B5C823B7
:103F70004FF48062024940F6F63001F031FC10BD8A
:103F8000FC8C00082DE9F04F8DB007468846154699
:103F90009946DDE9166B0024002030806B49887B50
:103FA0005A4605A901F0E8FC18B1601E0DB0BDE845
:103FB000F08F6648807A00F01400002867D09DF8E2
:103FC000140000069DF8151040EA01409DF81610F7
:103FD00040EA01209DF81710084328609DF818005A
:103FE00000069DF8191040EA01409DF81A1040EAB9
:103FF00001209DF81B10084368609DF81C00000616
:104000009DF81D1040EA01409DF81E1040EA012075
:104010009DF81F100843A8609DF8200000069DF839
:10402000211040EA01409DF8221040EA01209DF84D
:1040300023100843E86004F11000C4B2286800149B
:104040000190686800140290A86800140390E86862
:104050000014049001984043029901FB0100039968
:1040600001FB0100049901FB010ABAF1706F02DB48
:10407000BAF1885F05DD01F01FFD00203080401E91
:1040800094E7B6F9000040F48070308000BF2F48FC
:10409000807A00F0400020B305A9601C085C095D2F
:1040A00040EA012000B2A8F8000005A9E01C095C64
:1040B00005AAA01C105C41EA002000B2A8F802008A
:1040C00005A9601D095C201D105C41EA002000B2BA
:1040D000A8F80400A01DC4B2B6F9000040F0080022
:1040E00030801A48408900F4C07008B305A9601CEC
:1040F000085C095D40EA012000B2388005A9E01C97
:10410000095C05AAA01C105C41EA002000B278807E
:1041100005A9601D095C201D105C41EA002000B269
:10412000B880A01DC4B2B6F9000040F07000308025
:104130000648807A00F0030018B105A90819FFF7B6
:104140003FFC484600F0DEFF00202FE7F83100205A
:1041500070B588B0064601A801F096F9BDF80400D4
:104160000021C90341EA5045C4034448007A00F0E5
:10417000030056F8200005904048007A00F0040043
:1041800010B10598404205903C48007AC0F3C10048
:1041900056F8200006903948007A00F0200010B14F
:1041A0000698404206903548007AC0F3811056F8D0
:1041B000200007903148008900F4807010B1079802
:1041C000404207900598C117A0FB042301FB04316E
:1041D00000FB0510810041EA927005900698C11716
:1041E000A0FB042301FB043100FB0510810041EA20
:1041F000927006900798C117A0FB042301FB0431BD
:1042000000FB0510810041EA927007900598000EAE
:104210008DF808000598000C8DF809000598000A33
:104220008DF80A000598C0B28DF80B000698000EB4
:104230008DF80C000698000C8DF80D000698000A09
:104240008DF80E000698C0B28DF80F000798000E8A
:104250008DF810000798000C8DF811000798000ADF
:104260008DF812000798C0B28DF8130002AA0C2135
:104270004FF4257002F034F808B070BDF83100201A
:1042800030B585B0044616A207CA02AB07C3C82CD6
:1042900003DD4FF0FF3005B030BDC82090FBF4F0D7
:1042A000401E85B2280A8DF80000E8B28DF80100A2
:1042B0006A46022140F2162002F012F810B14FF0C7
:1042C000FF30E8E702AA0C2140F6C12002F008F80E
:1042D00010B14FF0FF30DEE7044884810020DAE7B8
:1042E000FEF2ABC4AAF1DFDFBBAFDFDFF8310020A5
:1042F0001FB504464848007A00F0030054F8200037
:1043000001904548007A00F0040010B10198404245
:1043100001904148007AC0F3C10054F82000029097
:104320003D48007A00F0200010B10298404202900F
:104330003948007AC0F3811054F8200003903648C1
:10434000008900F4807010B1039840420390334913
:10435000019880FB0101800F40EA810001902F4904
:10436000029880FB0110820042EA917002902B4972
:10437000039880FB0110820042EA9170039001983B
:10438000000E8DF800000198000C8DF801000198D6
:10439000000A8DF802000198C0B28DF803006A4649
:1043A00004214FF4747001F09BFF18B14FF0FF30FF
:1043B00004B010BD0298000E8DF800000298000CA9
:1043C0008DF801000298000A8DF802000298C0B230
:1043D0008DF803006A4604214FF4757001F080FFE8
:1043E00010B14FF0FF30E3E70398000E8DF80000A6
:1043F0000398000C8DF801000398000A8DF8020064
:104400000398C0B28DF803006A4604214FF4767019
:1044100001F066FFCCE70000F831002009E3CA0292
:1044200010B586B0044647A00068039046A0006817
:10443000029046A00068019045A00068009004F03A
:10444000030003A9085C8DF8140003A8C4F3C1019C
:10445000405C8DF8150003A8C4F38111405C8DF811
:10446000160004F0030002A9085C8DF8100002A8F1
:10447000C4F3C101405C8DF8110002A8C4F381119E
:10448000405C8DF8120005AA032140F2264001F09D
:1044900027FF18B14FF0FF3006B010BD04AA03216A
:1044A00040F22A4001F01CFF10B14FF0FF30F3E75B
:1044B000019805900098049004F0040058B19DF80C
:1044C000140040F001008DF814009DF8100040F039
:1044D00001008DF8100004F0200058B19DF815007F
:1044E00040F001008DF815009DF8110040F001002A
:1044F0008DF8110004F4807058B19DF8160040F05A
:1045000001008DF816009DF8120040F001008DF8B2
:10451000120005AA03214FF4886001F0E1FE10B1FA
:104520004FF0FF30B8E704AA032140F2314001F018
:10453000D7FE10B14FF0FF30AEE7064804810020EF
:10454000AAE700004CCD6C000CC92C003656760052
:1045500026466600F8310020F8B505460E464FF4B1
:104560007A7095FBF0F000FB06F4200E8DF8000049
:10457000200C8DF80100200A8DF80200E0B28DF8C1
:1045800003006A4604214FF4AE7001F0A9FEF8BDA5
:1045900038B50446052094FBF0F084B220128DF863
:1045A0000000E0B28DF801006A4602214FF4AD70C0
:1045B00001F096FE38BD38B50446052094FBF0F0B6
:1045C00084B220128DF80000E0B28DF801006A4636
:1045D00002214FF4AC7001F083FE38BD38B50446BB
:1045E0000020009004F0010020B19DF8000040F090
:1045F0003000009004F0020020B19DF8000040F06F
:104600000C00009004F0040020B19DF8000040F080
:10461000030000906A4601214FF4A47001F060FE8F
:1046200038BD38B50446012C01DA012402E0042C1F
:1046300000DD0424601EC0B200906A46012140F2F1
:104640004F1001F04DFE38BD2DE9FC4706460F46E0
:1046500006F0070010B1B7F5C86F03DD4FF0FF306B
:10466000BDE8FC87384604F033F88146594903F029
:10467000E5FE8046684600F0E1FE9DF80000022855
:1046800006D0042816D0082826D0102848D135E0B6
:104690004FF08D41404604F063F8814603F0E0FF9F
:1046A00084B24D49404604F05BF8814603F0D8FFE0
:1046B00085B238E04FF08C41404604F051F8814615
:1046C00003F0CEFF84B24549404604F049F88146E4
:1046D00003F0C6FF85B226E04FF08B41404604F060
:1046E0003FF8814603F0BCFF84B23D49404604F0E8
:1046F00037F8814603F0B4FF85B214E04FF08A41E9
:10470000404604F02DF8814603F0AAFF84B23549F3
:10471000404604F025F8814603F0A2FF85B202E08E
:104720004FF0FF309CE700BF20128DF80400E0B28C
:104730008DF8050028128DF80600E8B28DF8070004
:1047400006F00100A0B101AA02214FF4EA7001F0C5
:10475000C7FD10B14FF0FF3082E70DF106020221D4
:104760004FF4927001F0BCFD10B14FF0FF3077E7CD
:1047700006F00200A0B101AA02214FF4EC7001F092
:10478000AFFD10B14FF0FF306AE70DF106020221D4
:104790004FF4947001F0A4FD10B14FF0FF305FE7CB
:1047A00006F00400A0B101AA02214FF4EE7001F05E
:1047B00097FD10B14FF0FF3052E70DF106020221D4
:1047C0004FF4967001F08CFD10B14FF0FF3047E7C9
:1047D000002045E700004843000040460000C04577
:1047E000000040450000C04438B50446052094FB55
:1047F000F0F085B228128DF80000E8B28DF80100C3
:104800006A4602214FF4EF7001F06AFD38BD38B5F9
:104810000446052094FBF0F085B228128DF80000C4
:10482000E8B28DF801006A4602214FF4ED7001F004
:1048300057FD38BD00BF054A128802F04002002A29
:10484000F9D0C2B2014B1B1D1A80704700380140DD
:104850002DE9FE4F81460D4616469A46DDF830B0EA
:10486000701E03F01DFF07465146584604F008F934
:104870008046394603F0E2FD029000241DE059F81D
:10488000240003F00DFF8046029903F069FF0746FC
:10489000514603F065FD45F8240055F8240003F067
:1048A00033FD0022074BCDE9000103F01DFA074656
:1048B00002F080FF45F82400641CB442DFDB0120D5
:1048C000BDE8FE8F00004E402DE9FF4706460F462B
:1048D00001254FF4007AB046B9460E4B0E4A14211A
:1048E00001A80095FCF793F900240CE004FB05F007
:1048F00009EB800204FB05F008EB80012B4601A8C0
:10490000FBF714FD641C5445F0D3012004B0BDE84E
:10491000F0870000A80100205C8C00082DE9F84F0A
:1049200005460E4617469846DDF828B0781E03F077
:10493000B7FE4FF08241009003F080FD8146414672
:10494000484603F00DFF009003F06EFE82460024FF
:1049500006E00AEB040055F8200046F82400641C29
:10496000452CF6DB0120BDE8F88F00007CB505463C
:1049700028494968087801AB04220D21FEF7E5F9C2
:1049800008B107207CBD9DF80700C0F301109DF819
:10499000041001F0E00140EAE1008DF800009DF80C
:1049A0000700C0F381009DF8051001F0E00140EA26
:1049B000E1008DF801009DF8070000F003009DF86C
:1049C000061001F0E00140EAE1008DF80200002449
:1049D0001CE01DF8040018B9002045F8240013E07D
:1049E0000D4845F8240006E055F824000B4903F073
:1049F000B7FE45F824001DF80400401EC0B20DF8B3
:104A000004000028F0D100BF601CC4B2032CE0DB1E
:104A10000020B7E71C0000207B14AE3E1D5A843FE7
:104A20002DE9F04F87B005460C46914601208DF8E0
:104A3000100000208DF81100FE4A1268917CFD4A9A
:104A40005268107804AB0222FEF725FA20B14FF02D
:104A5000FF3007B0BDE8F08FC820FFF703F8002053
:104A60008DF81000F34A1268D17BF24A5268107830
:104A700004AB0122FEF70FFA10B14FF0FF30E8E768
:104A8000EC4A12685179EB4A5268107804AB012263
:104A9000FEF701FA10B14FF0FF30DAE7E54A12688D
:104AA000917CE44A5268107804AB0122FEF7F3F9D6
:104AB00010B14FF0FF30CCE7DE4A1268D17DDD4AFD
:104AC0005268107804AB0122FEF7E5F910B14FF0FF
:104AD000FF30BEE7D74A12681179D64A526810787B
:104AE00004AB0122FEF7D7F910B14FF0FF30B0E769
:104AF0000C208DF81000CF4A12681179CD4A526807
:104B0000107804AB0122FEF7C6F910B14FF0FF3068
:104B10009FE70F20FEF7A6FFC648806A407A8DF80F
:104B20001000C44A12689178C24A5268107804ABE7
:104B30000122FEF7B0F910B14FF0FF3089E7BD4810
:104B4000806A007A8DF81000BA4A12685178B94A22
:104B50005268107804AB0122FEF79DF910B14FF0B6
:104B6000FF3076E7B9F1000F07D0B248806A807A4B
:104B700040F0E0008DF8100004E0AE48806A807AD2
:104B80008DF81000AB4A12689179AA4A52681078E1
:104B900004AB0122FEF77FF910B14FF0FF3058E768
:104BA000B9F1000F07D0A348806AC07A40F0E00056
:104BB0008DF8100003E0A048C07A8DF810009D4ADF
:104BC0001268D1799B4A5268107804AB0122FEF733
:104BD00062F910B14FF0FF303BE7B9F1000F02D09E
:104BE000C820FEF73FFF40208DF81000914A126860
:104BF0001179904A5268107804AB0122FEF74BF904
:104C000010B14FF0FF3024E778208DF81000894A6A
:104C100012685179874A5268107804AB0122FEF776
:104C20003AF910B14FF0FF3013E783498889FEF756
:104C300019FF00208DF810007E4A126851797D4AD4
:104C40005268107804AB0122FEF725F910B14FF03D
:104C5000FF30FEE6774A1268917A764A52681078F9
:104C600004AB0222FEF771F810B14FF0FF30F0E60E
:104C70009DF811009DF8101040EA012B0C209BFBC1
:104C8000F0F0C6B20020A86068602860A060606094
:104C90002060824665E0674A1268D17A654A5268A8
:104CA000107804AB0C22FEF750F810B14FF0FF3033
:104CB000CFE69DF811009DF8101040EA012000B2E7
:104CC000ADF808009DF813009DF8121040EA01208D
:104CD00000B2ADF80A009DF815009DF8141040EAE6
:104CE000012000B2ADF80C00BDF90810206808449E
:104CF0002060BDF90A10606808446060BDF90C10BE
:104D0000A0680844A0609DF817009DF8161040EABE
:104D1000012000B2ADF800009DF819009DF81810B0
:104D200040EA012000B2ADF802009DF81B009DF89A
:104D30001A1040EA012000B2ADF80400BDF90010DD
:104D4000286808442860BDF9021068680844686053
:104D5000BDF90410A8680844A8600AF1010000F039
:104D6000FF0AB24597DB3448D0F800C02868C11765
:104D7000090441EA10410704624600233846FDF762
:104D8000ACF832460023CDE90201FDF7A6F8286011
:104D90002948D0F800C06868C117090441EA1041E9
:104DA0000704624600233846FDF797F83246002391
:104DB000CDE90201FDF791F868601F48D0F800C006
:104DC000A868C117090441EA10410704624600239C
:104DD0003846FDF782F832460023CDE90201FDF79F
:104DE0007CF8A8601448D0F804C02168C8170004F3
:104DF00040EA11480F046246002338464146FDF759
:104E00006CF832460023CDE90201FDF766F8206018
:104E10000948D0F804C06068C117090441EA10418C
:104E20000704624600233846FDF757F83246002350
:104E300004E000001C000020D48C0008CDE9020131
:104E4000FDF74BF860601148D0F804C0A068C117A6
:104E5000090441EA10410704624600233846FDF781
:104E60003CF832460023CDE90201FDF736F8A06098
:104E7000A068002804DDA068A0F58030A06003E0F1
:104E8000A06800F58030A0600020E2E5D48C000826
:104E90002DE9FC5F0746884600263F4949680878A7
:104EA00001AB03220D21FDF750FF10B10720BDE833
:104EB000FC9F9DF8040000F01F008DF804009DF891
:104EC000050000F01F008DF805009DF8060000F0B9
:104ED0001F008DF80600002459E057F8240058F808
:104EE0002410A0EB010BBBF1000F01DB594601E0E0
:104EF000CBF10001084603F0D3FB4FF08F41009047
:104F000003F09CFA824601A8005D78B32349086843
:104F100003F0DEFB83465946214803F08FFA8146B1
:104F200004E02049484603F01BFC814601A8005DCF
:104F3000401EC0B201A908550028F2D1494650468A
:104F400003F07CFA83464FF07E5103F099FD05464D
:104F500000BF25F00040834610488169584603F0A1
:104F6000CBFC13D20120A04006430FE0FFE70B4823
:104F70000169504603F0C0FB05D30848416950461B
:104F800003F0BAFC02D20120A0400643641C032CAB
:104F9000A3DB30468BE700001C000020D48C000807
:104FA00000B04C4554E3853F10B50446204600F060
:104FB0000FF80346E01C00F00BF843EAC00083B290
:104FC000A01D00F005F843EA801083B2184610BD1A
:104FD000014691F90020002A01DD00201EE091F930
:104FE0000020002A01DA042018E091F90120002AAB
:104FF00001DD012012E091F90120002A01DA0520EB
:105000000CE091F90220002A01DD022006E091F96E
:105010000220002A01DA062000E007207047000085
:105020000EB500260024002500203049086000BF8E
:105030000920FDF7EFFF4820FEF7F4FC2C484168FB
:1050400048208847FDF750FCFDF708FE00BF00F040
:10505000A5F90028FBD1FDF70DFB45E06A4601A943
:1050600002A800F089F850BB002411E001250BE0F4
:10507000204800EBC42050F825101E4800EBC42245
:10508000681E42F820106D1CB5F5007FF0DB641C33
:10509000032CEBDB17490298C1F8FC07154800996F
:1050A000C0F8FC1F00F580500199C0F8FC171248A9
:1050B000006808B9012000E000200F490860761C54
:1050C000802E11D10D48006808B9012000E00020B1
:1050D0000A49086000260A48D0F8940108B901205E
:1050E00000E0002001490860B8E700009401234275
:1050F000B4000020F819002094812142B40122421A
:10510000000023427047000070B50446002624F0DA
:105110000104184890F8240008B1002070BD15481B
:10512000807A10B94FF0FF30F8E71248057C807A9A
:105130002040104908740846007CA04202D04FF07D
:10514000FF3600E0002614B90A48007D18B101209E
:1051500001F0D0F902E0002001F0CCF93CB100F000
:10516000ABFC20B1034805744FF0FF30D6E7304662
:10517000D4E700001C0000202DE9F04F99B0044650
:105180000D4616464FF07E574FF000084FF00009CD
:105190004FF0000A12A813A918AB0EAACDE900100F
:1051A00014A916A8FEF7EEFE18B1012019B0BDE84B
:1051B000F08FBDF84C0000F4807000287ED00E986F
:1051C00003F06EFA83464FF09D4103F037F907462E
:1051D0000F9803F065FA83464FF09D4103F02EF9D6
:1051E0008046109803F05CFA83464FF09D4103F02F
:1051F00025F98146119803F053FA83464FF09D41FB
:1052000003F01CF9824639464FF0804003F0A8FABB
:105210004946059003F0A4FA414607904FF04040FC
:1052200003F09EFA5146059003F09AFA069007990A
:1052300003F096F8834603F067F8CDE90801FEF71E
:10524000B7F84FF06632544BCDE90A0102F04CFD3D
:10525000CDE90C0102F0AEFA206049464FF08040E3
:1052600003F07EFA4946029003F07AFA4146049030
:105270004FF0404003F074FA4146029003F070FA98
:105280000390049903F0FCFB83464FF07E5103F03A
:1052900067F8059003F038F8CDE9080139464FF07A
:1052A000804003F05DFA4146039003F059FA494605
:1052B00004904FF0804003F053FA00E068E051465C
:1052C000039003F04DFA8346049903F049F80590E2
:1052D00003F01AF8CDE90601DDE90823FEF7B0FA7C
:1052E0004FF066322C4BCDE90A0102F0FDFCCDE90E
:1052F0000C0102F05FFA28605146504603F030FA84
:1053000049460490484603F02BFA41460390404634
:1053100003F026FA39460190384603F021FA00904E
:10532000019903F01DF80290039903F0A9FB83464D
:10533000049903F0A5FB059002F0E6FFCDE9080112
:105340005146384603F00CFA49460490404603F0B3
:1053500007FA0390049903F003F84FF08041059099
:1053600003F0FEF9834602F0CFFFCDE90601DDE947
:105370000823FEF765FA4FF06632074BCDE90A01C4
:1053800002F0B2FCCDE90C0102F014FA306001E049
:1053900002200BE7002009E766A64C4070B5002408
:1053A000FDF73AFB00F024F9002840D1782000F006
:1053B0002FFFC4B20CB1012070BD7820FFF7A4FE0E
:1053C000C4B20CB10220F7E7642000F0D3FEC4B2EF
:1053D0000CB10320F0E7FEF7C9FDC4B20CB1042004
:1053E000EAE71548FFF7E0FD0546FFF719F8C4B2F4
:1053F0000CB10520E0E740F27310FEF75FFCC4B289
:105400000CB10620D8E76420FEF73AFFC4B20CB115
:105410000720D1E701F024F804460CB10820CBE7BF
:10542000012000F0A3FDC4B21CB10920C4E70A208A
:10543000C2E70020C0E700004800002001461148F4
:10544000407A30B1012807D0022808D003280CD1B7
:1054500008E0022008700BE00420087008E0082033
:10546000087005E01020087002E04FF0FF30704730
:1054700000BF0448C07C18B108784006000E0870D0
:105480000020F4E71C00002001461348407A30B1A8
:10549000012808D002280AD0032810D10BE04FF4CD
:1054A000804008800EE041F69C7008800AE04FF4CE
:1054B0008050088006E04FF40060088002E04FF062
:1054C000FF30704700BF0448C07C10B1088840100E
:1054D00008800020F5E700001C000020014602487B
:1054E000007C0870002070471C00002001460F4817
:1054F000007A30B1012807D0022809D003280FD143
:105500000AE0FA2008800EE04FF4FA7008800AE002
:105510004FF47A70088006E04FF4FA60088002E0E9
:105520000020088000BF00BF002070471C00002042
:1055300001460E48007A30B1012807D0022808D071
:1055400003280CD108E00A4808600BE0094808600D
:1055500008E00948086005E00848086002E04FF0EC
:10556000FF30704700BF0020FBE700001C00002058
:10557000000003430000834233330342333383414B
:1055800001461248C07A082817D2DFE800F0170455
:10559000070A0D101318BC20088013E06220088051
:1055A00010E02A2008800DE0142008800AE00A207C
:1055B000088007E00520088004E000BF00BF00204D
:1055C000088000BF00BF0020704700001C000020C2
:1055D0000146064890F8240010B14FF0FF307047A4
:1055E0000248C08908800020F9E700001C00002064
:1055F0001CB580208DF80000654A1268917C644AD1
:10560000526810786B460122FDF745FC10B14FF04F
:10561000FF301CBD6420FEF725FA00208DF8000045
:105620005B4A1268917C5A4A526810786B46012294
:10563000FDF731FC10B14FF0FF30EAE7544A126831
:10564000917D534A526810786B460622FDF77DFB28
:1056500010B14FF0FF30DCE79DF80500C007400FA8
:105660009DF8031001F0010140EA41009DF801108E
:1056700001F0010140EA010494B1012C03D10121A0
:105680004348C17431E0022C03D100214048C17469
:105690002BE021463FA0FCF745FC4FF0FF30B8E778
:1056A0003B4A1268D1783A4A526810786B46012218
:1056B000FDF74BFB10B14FF0FF30AAE79DF800005B
:1056C00000F00F042CB93D48FCF72CFC4FF0FF30E4
:1056D0009FE7042C06D13AA0FCF724FC01212C48BA
:1056E000C17402E000212A48C174FF212848817258
:1056F000FF2027490872FF2125484172C1724FF6E9
:10570000FF71C181FF21017481740121017380F84F
:105710002210002180F823104175017516300160B8
:1057200041608160163880F8241080F82510C1840B
:105730004FF4FA6000F062FC10B14FF0FF3068E700
:10574000022000F02BFB10B14FF0FF3061E72A2060
:1057500000F0CEFC10B14FF0FF305AE7322000F0DD
:1057600009FD10B14FF0FF3053E70020FFF7CCFCEC
:1057700010B14FF0FF304CE7002000F051FB10B1AA
:105780004FF0FF3045E7002000F042FD002040E7E9
:105790001C000020556E737570706F727465642004
:1057A000736F6674776172652070726F647563746D
:1057B000207265762025642E0A00000040C800088B
:1057C00048616C662073656E736974697669747973
:1057D000207061727420666F756E642E0A0000007E
:1057E0002DE9F04385B005460E4690469946294876
:1057F00090F8250020B14FF0FF3005B0BDE8F083F0
:1058000016B94FF0FF30F8E7002423E0281B1028DA
:1058100001DD102000E0281B87B2321939462046EE
:1058200000F05EFD10B14FF0FF30E6E701AA394607
:10583000204600F001F910B14FF0FF30DDE73019DC
:105840003A4601A9FCF7F6FC10B16FF00100D4E76D
:10585000E01984B2AC42D9DB4FEA28208DF8000071
:1058600008F0FF008DF801000A4A1268917E094A8B
:10587000526810786B460222FDF70DFB10B14FF015
:10588000FF30BAE70121034880F82510A0F82690E0
:105890000020B2E71C00002038B50446282C02DDA9
:1058A0004FF0FF3038BDDCB9002000F0EBFB0020EA
:1058B0008DF8000007208DF801002E4A1268917CB7
:1058C0002C4A526810786B460222FDF7E4FA10B1B8
:1058D0004FF0FF30E6E70021264801750020E1E7A0
:1058E000012000F0CFFB20208DF80000012C06D114
:1058F00000208DF80100052000F0FAFB17E0052CD0
:1059000006DC01208DF80100052000F0F1FB0EE01F
:10591000142C06DC02208DF801000A2000F0E8FBC0
:1059200005E003208DF80100142000F0E1FB9DF854
:105930000100072101EB8010C0B28DF801000D4A73
:105940001268917C0B4A526810786B460222FDF770
:10595000A2FA10B14FF0FF30A4E708210548817288
:1059600000210173012101750020FFF7CDFB00200C
:1059700098E700001C000020F8B504460F461646C4
:105980002C4890F8240010B94FF0FF30F8BD29489A
:10599000807A10B94FF0FF30F8E7264A1268917A02
:1059A000244A526810786B460222FDF7CEF910B1F6
:1059B0004FF0FF30EAE79DF801009DF8001040EA43
:1059C0000125A54203DA00203070401EDEE71948A9
:1059D00040684088B5EB600F17DD164A1268517CAD
:1059E000144A526810786B460122FDF7AEF910B1E7
:1059F0004FF0FF30CAE79DF8000000F0100020B122
:105A000000F05AF86FF00100C0E7E2B2094B1B68E2
:105A1000D97A084B5B6818783B46FDF796F910B1C8
:105A20004FF0FF30B2E795FBF4F0401E30700020DD
:105A3000ACE700001C000020F8B504460D461646F1
:105A400016B94FF0FF30F8BD1A48807A10B94FF000
:105A5000FF30F8E720128DF80000E0B28DF8010069
:105A60009DF801002844134949684989884202DDAC
:105A70004FF0FF30E7E70F4A1268117E0D4A526877
:105A800010786B460222FDF706FA10B14FF0FF3096
:105A9000D9E7EAB2074B1B68597D064B5B6818785B
:105AA0003346FDF752F910B14FF0FF30CBE700203D
:105AB000C9E700001C00002008B57048807A10B9C2
:105AC0004FF0FF3008BD002000906C4A1268D17B77
:105AD0006A4A526810786B460122FDF7DCF910B172
