:020000040800F2
:10000000401D0020E9010008ED010008EF01000893
:10001000F1010008F3010008F501000800000000EC
:10002000000000000000000000000000F7010008D0
:10003000F901000800000000FB010008FD010008B4
:10004000FF010008FF010008FF010008FF01000890
:10005000FF010008FF010008A9120008FF010008C5
:10006000FF010008FF010008FF010008FF01000870
:10007000FF010008FF010008FF010008FF01000860
:10008000FF010008FF010008FF010008FF01000850
:10009000FF010008FF010008FF010008FF01000840
:1000A000FF010008FF010008FF010008FF01000830
:1000B000FF010008FF010008F91C0008FF0100080B
:1000C000FF010008FF010008FF010008FF01000810
:1000D000FF010008851D0008FF010008FF0100085E
:1000E000FF010008FF010008FF01000800F002F80E
:1000F00000F06BF80AA090E8000C82448344AAF157
:100100000107DA4501D100F060F8AFF2090EBAE854
:100110000F0013F0010F18BFFB1A43F0010318473B
:10012000A4860000C48600000A444FF0000C10F8BA
:10013000013B13F0070408BF10F8014B1D1108BF65
:1001400010F8015B641E05D010F8016B641E01F805
:10015000016BF9D113F0080F1EBF10F8014BAD1C55
:100160000C1B09D16D1E58BF01F801CBFAD505E073
:1001700014F8016B01F8016B6D1EF9D59142D6D3CD
:10018000704700000023002400250026103A28BFF5
:1001900078C1FBD8520728BF30C148BF0B607047F9
:1001A000642900F06385752900F06085782900F0E6
:1001B0009985632900F0CA87732900F0CF87002052
:1001C00070471FB51FBD10B510BD01F023F81146D3
:1001D000FFF7F7FF03F03AFD01F041F803B4FFF732
:1001E000F2FF03BC01F093FE08480047FEE7FEE77C
:1001F000FEE7FEE7FEE7FEE7FEE7FEE7FEE7FEE7D7
:1002000003480449024A044B70470000ED0000080F
:10021000401B0020401D0020401B0020002A08BF7A
:1002200070472DE9F04715460E4604464FF000088A
:1002300054F8047B54F8040B014607F0C3F88146D8
:100240003946084607F0BEF8494606F0BBFE374679
:10025000361D10F1FF4F28BFC7F8008002D205F00D
:100260001FF838606D1EE3D1BDE8F0872DE9FF4F20
:10027000A3B06FF003022398239940680290896825
:10028000209123990988189102EB81010844039079
:100290002698C0081F9000F084831898C008219009
:1002A00024980168039801602498039950F8042F5A
:1002B00041F8042F50F8042F41F8042F50F8042F70
:1002C00041F8042F00220C92019213921292109284
:1002D0000F920E920D92209D029C50F8042F41F82F
:1002E000042F50F8042F41F8042F50F8042F41F840
:1002F000042F42684A60083108300391249054F872
:10030000040B0B9054F804AB54F8040B089054F809
:10031000049BDDF884B054F8048BBBF1000F54F853
:10032000047B54F8046B00F0B28200BF55F8040B54
:10033000009054F8040B0A9000990B9807F042F8CB
:1003400011905046009907F03DF81B9000990898CD
:1003500007F038F817904846009907F033F81A90DC
:100360004046009907F02EF819903846009907F09A
:1003700029F816903046009907F024F81590009956
:100380000A9807F01FF8149055F8040B009054F8E1
:10039000040B0B901199019806F014FE01901B9923
:1003A000139806F00FFE13901799129806F00AFEA4
:1003B00012901A99109806F005FE109019990F984E
:1003C00006F000FE0F9016990E9806F0FBFD0E90B9
:1003D00015990D9806F0F6FD0D9014990C9806F0FD
:1003E000F1FD0C905046009906F0ECFF1190009939
:1003F000089806F0E7FF1B904846009906F0E2FFD8
:1004000017904046009906F0DDFF1A903846009993
:1004100006F0D8FF19903046009906F0D3FF1690E9
:1004200000990A9806F0CEFF159000990B9806F0F7
:10043000C9FF149055F8040B009054F804AB1199BF
:10044000019806F0BFFD01901B99139806F0BAFDC4
:1004500013901799129806F0B5FD12901A991098FA
:1004600006F0B0FD109019990F9806F0ABFD0F90B3
:1004700016990E9806F0A6FD0E9015990D9806F0A7
:10048000A1FD0D9014990C9806F09CFD0C9000991C
:10049000089806F097FF11904846009906F092FFE1
:1004A0001B904046009906F08DFF17903846009942
:1004B00006F088FF1A903046009906F083FF1990E5
:1004C00000990A9806F07EFF169000990B9806F0A6
:1004D00079FF15905046009906F074FF149055F876
:1004E000040B009054F8040B08901199019806F041
:1004F00069FD01901B99139806F064FD13901799FC
:10050000129806F05FFD12901A99109806F05AFDA5
:10051000109019990F9806F055FD0F9016990E98A6
:1005200006F050FD0E9015990D9806F04BFD0D90BC
:1005300014990C9806F046FD0C904846009906F078
:1005400041FF11904046009906F03CFF1B90384651
:10055000009906F037FF17903046009906F032FFF9
:100560001A9000990A9806F02DFF199000990B989F
:1005700006F028FF16905046009906F023FF1590CC
:100580000099089806F01EFF149055F8040B00908F
:1005900054F8049B1199019806F014FD01901B99E1
:1005A000139806F00FFD13901799129806F00AFDA4
:1005B00012901A99109806F005FD109019990F984D
:1005C00006F000FD0F9016990E9806F0FBFC0E90B9
:1005D00015990D9806F0F6FC0D9014990C9806F0FC
:1005E000F1FC0C904046009906F0ECFE1190384664
:1005F000009906F0E7FE1B903046009906F0E2FEF7
:10060000179000990A9806F0DDFE1A9000990B9851
:1006100006F0D8FE19905046009906F0D3FE1690C9
:100620000099089806F0CEFE15904846009906F00D
:10063000C9FE149055F8040B009054F8048B1199DE
:10064000019806F0BFFC01901B99139806F0BAFCC4
:1006500013901799129806F0B5FC12901A991098F9
:1006600006F0B0FC109019990F9806F0ABFC0F90B3
:1006700016990E9806F0A6FC0E9015990D9806F0A6
:10068000A1FC0D9014990C9806F09CFC0C90384637
:10069000009906F097FE11903046009906F092FE00
:1006A0001B9000990A9806F08DFE179000990B9800
:1006B00006F088FE1A905046009906F083FE1990C5
:1006C0000099089806F07EFE16904846009906F0BC
:1006D00079FE15904046009906F074FE149055F886
:1006E000040B009054F8047B1199019806F06AFC01
:1006F00001901B99139806F065FC139017991298B6
:1007000006F060FC12901A99109806F05BFC1090AD
:1007100019990F9806F056FC0F9016990E9806F04E
:1007200051FC0E9015990D9806F04CFC0D90149903
:100730000C9806F047FC0C903046009906F042FEFB
:10074000119000990A9806F03DFE1B9000990B98B5
:1007500006F038FE17905046009906F033FE1A90C6
:100760000099089806F02EFE19904846009906F068
:1007700029FE16904046009906F024FE1590384652
:10078000009906F01FFE149055F8040B009054F8E1
:10079000046B1199019806F015FC01901B991398B0
:1007A00006F010FC13901799129806F00BFC1290AB
:1007B0001A99109806F006FC109019990F9806F0F7
:1007C00001FC0F9016990E9806F0FCFB0E901599FF
:1007D0000D9806F0F7FB0D9014990C9806F0F2FBBB
:1007E0000C9000990A9806F0EDFD119000990B9875
:1007F00006F0E8FD1B905046009906F0E3FD1790C7
:100800000099089806F0DEFD1A904846009906F017
:10081000D9FD19904046009906F0D4FD169038464F
:10082000009906F0CFFD15903046009906F0CAFDFC
:100830001490ABF1010B1199019806F0C3FB0190E4
:100840001B99139806F0BEFB13901799129806F0A7
:10085000B9FB12901A99109806F0B4FB10901999F0
:100860000F9806F0AFFB0F9016990E9806F0AAFBB2
:100870000E9015990D9806F0A5FB0D9014990C9803
:1008800006F0A0FB0C90BBF1000F7FF44FAD189861
:1008900010F0070B63D000BF55F8040B009054F81C
:1008A000040B0A9000990B9806F08CFD11905046AD
:1008B000009906F087FD1B900099089806F082FDCC
:1008C00017904846009906F07DFD1A904046009921
:1008D00006F078FD19903846009906F073FD1690E1
:1008E0003046009906F06EFD159000990A9806F0C2
:1008F00069FDCDF82CA0DDF820A0CDF82090C146F0
:100900001490B84637460A9E1199019806F05AFB92
:1009100001901B99139806F055FB139017991298A4
:1009200006F050FB12901A99109806F04BFB1090AD
:1009300019990F9806F046FB0F9016990E9806F03D
:1009400041FB0E9015990D9806F03CFB0D90149903
:100950000C9806F037FB0C90BBF1010B9CD1029870
:10096000203002902599019808602598139940F845
:10097000041F129940F8041F109940F8041F0F99A2
:1009800040F8041F0E9940F8041F0D9940F8041F09
:100990000C994160083025901F98401E1F907FF4ED
:1009A0007FAC269810F0070850D0249800250168E5
:1009B000039801602498209E001D24900398029CB7
:1009C000001D0390DDF860903168206806F0FAFCA5
:1009D000294606F0F7FA371D261D0546B9F1010430
:1009E00029D0B4F1004F7DD2002C24DD361F3F1FEB
:1009F00014F0010F09D057F8041F56F8040F06F041
:100A0000E1FC294606F0DEFA0546641013D0796849
:100A1000706806F0D7FC294606F0D4FA054657F868
:100A2000081F56F8080F06F0CDFC294606F0CAFA52
:100A30000546641EEBD1259805602598001D25907C
:100A40000298001D0290B8F10108AED123981899C0
:100A500040684C1EA30820D0B3F1004F56D2002BA3
:100A60001BDD029A01469C4652F8045B41F8045B88
:100A700052F8045B41F8045B52F8085B41F8085BEC
:100A800052F8045C41F8045CBCF1010CECD1029911
:100A900000EB031001EB0311029114F0030104BFFA
:100AA00027B0BDE8F08FB1F1004F44D20029DCBF80
:100AB00027B0BDE8F08F031F029A121F11F0010F3B
:100AC00003D052F8040F43F8040F480804BF27B0BE
:100AD000BDE8F08F5168596052F8081F43F8081FAD
:100AE000401E00E003E0F5D127B0BDE8F08F396883
:100AF000306806F067FC294606F064FA0546641E75
:100B000006F1040607F10407F1D194E70299096898
:100B100040F8041B029951F8042F40F8042B51F8B7
:100B2000042F40F8042B4A68083140F8042B029146
:100B30005B1EEBD1B1E7029A126840F8042B029ACF
:100B4000121D0292491EF6D127B0BDE8F08F70B594
:100B500004460498218008448000011F1D46184661
:100B6000A26000F0E3F9656070BD704710B54C10ED
:100B700084EA530404D54042C1F1000138BF491E44
:100B80001B4204D55242C3F1000338BF5B1E00F084
:100B9000F8F914F0804F04D04042C1F1000138BF91
:100BA000491E14F0004F04D05242C3F1000338BF75
:100BB0005B1E10BD0FB4044910B503AA029800F0E3
:100BC000D1FA10BC5DF814FB6400002070B5044637
:100BD00085690068C10601D5302600E02026C007DF
:100BE00007D070BDD4E9012130469047206A401CEF
:100BF00020626D1EF6D570BD70B50446856900781B
:100C0000C00707D170BDD4E9012120209047206A98
:100C1000401C20626D1EF6D570BD70B50C460546B1
:100C2000012A05D02878800600D5EA69002302E071
:100C3000012305E05B1C934202D2E05C0028F9D15D
:100C4000A869E618C01AA861286A184428622846CC
:100C5000FFF7BCFF04E0D5E9012114F8010B904730
:100C6000B442F8D32846FFF7C7FF70BD2DE9F04125
:100C70000646002410687529314616A510D0AFF33A
:100C80000080002802DA404213A507E031688A0795
:100C900001D512A502E0490704D511A5012401E000
:100CA000AFF3008000210A2206F1240709E0B0FB1F
:100CB000F2FCB0FBF2F302FB1C0030307854184613
:100CC000491C0028F3D123462A463046BDE8F041AE
:100CD00000F0D9B9000000002D0000002B0000003A
:100CE0002000000070B504460D4621461068AFF3A1
:100CF00000802188090502D50F4A7A4402E00E4A95
:100D00007A440E32002104F1240305E000F00F06BE
:100D10000009965D5E54491C0028F7D12078002315
:100D2000000704D5702D02D009B1022311322046EC
:100D3000BDE8704000F0A7B9587800002DE9F05FD9
:100D4000894604464FF0000ADFF874B1FB44C0F84E
:100D500020A02046E1688847002874D0252806D0C6
:100D6000D4E901219047206A401C2062F1E7002667
:100D70005F462046E16888472028054607DB312D7D
:100D800005D2781910F8200C08B10643F1E7B00736
:100D900001D526F00406C4F81CA00027C4F818A04A
:100DA0002A2D09D0284601F0ABF838B304EB8708A8
:100DB000303DC8F8185019E059F8041B204604EBE0
:100DC00087029161E1688847012F054618D1E069E3
:100DD000002820DA26F020061DE0D8F8180000EBE5
:100DE000800005EB40003038C8F818002046E16864
:100DF0008847054601F084F80028EED1012F0AD07B
:100E00002E2D08D12046E16888477F1C0546022F19
:100E100046F02006C4DBA069002803DA404246F011
:100E20000106A061F00701D026F010066C2D0BD052
:100E3000682D09D04C2D39D06A2D35D0742D35D080
:100E40007A2D33D016E038E0E1682F4620468847F7
:100E5000B842054609D16C2F26D04FF48060E16876
:100E6000064320468847054604E06C2F1AD04FF40D
:100E7000807006430DB3A5F14100192802D8203532
:100E800046F400664A462946204626604E46FFF74D
:100E900087F980B101280BD0F61D26F0070000F17C
:100EA000080956E74020E4E78020D8E70020D6E78D
:100EB00006F104094DE7284652E7206ABDE8F09F95
:100EC0002E78000040EA010310B59B070FD1042AD9
:100ED0000DD310C808C9121F9C42F8D020BA19BA05
:100EE000884201D9012010BD4FF0FF3010BD1AB16A
:100EF000D30703D0521C07E0002010BD10F8013BBF
:100F000011F8014B1B1B07D110F8013B11F8014BE5
:100F10001B1B01D1921EF1D1184610BD02F0FF0338
:100F200043EA032242EA024200F030B94FF00002E5
:100F300000B5134694469646203922BFA0E80C50CF
:100F4000A0E80C50B1F12001BFF4F7AF090728BFAA
:100F5000A0E80C5048BF0CC05DF804EB890028BF26
:100F600040F8042B08BF704748BF20F8022B11F04F
:100F7000804F18BF00F8012B7047704770477047CB
:100F8000704753EA020C00F069802DE9F04B4FF0F6
:100F90000006002B1FBFB3FA83F503FA05F424FA09
:100FA00005F65E4012BF1643B2FA82F502FA05F466
:100FB000C5F120051EBF22FA05FC44EA0C042035C9
:100FC00056EA044C4FEA144418BF641C4FF0000862
:100FD0004FF00009904271EB030C39D3002919BF7F
:100FE000B1FA81F701FA07F6B0FA80F700FA07F6CE
:100FF000C7F120071EBF20FA07FC46EA0C0620377F
:10100000B6FBF4FCA7EB0507103F07F01F0BCBF175
:1010100020060CFA0BFB2CFA06F644BFB34600265A
:10102000202FA4BF5E464FF0000B5BEA060C08BF02
:101030004FF0010B19EB0B09ABFB027C48EB0608E8
:10104000C01B06FB02CC0BFB03CC71EB0C01C1E710
:101050000B46024641464846BDE8F08B13B54FF0BB
:1010600000004FF00001AFF30080BDE81C40704766
:1010700010B500F0ABF8006810BD10B5044600F0E4
:10108000A5F8046010BD2DE9F0470D46994692463B
:10109000044600F124080168880604D5E06921F0BF
:1010A0001001216000E00120A84201DD471B00E0A3
:1010B0000027A1697A1902EB0900081AA0612078BB
:1010C000C00602D42046FFF781FD002608E0D4E9DF
:1010D00001211AF806009047206A401C761C206205
:1010E0004E45F4DB2078C0060AD52046FFF76EFD9A
:1010F00006E0D4E9012130209047206A401C20629C
:10110000381EA7F10107F4DC07E0D4E9012118F843
:1011100005009047206A401C2062281EA5F10105A9
:10112000F3DC2046FFF768FD2078000602D5022098
:10113000BDE8F0870120FBE710B5436913B1AFF3B9
:10114000008001E0FFF769FD012010BD127800F179
:1011500024010A7000224A700122EDE711684FF065
:10116000FF32E9E7074B70B50D467B4400F037F8D6
:101170000446284600F046F810B14FF0FF3070BD2D
:10118000204670BDF32200004FF000020429C0F099
:10119000128010F0030C3FF4CBAECCF1040CBCF188
:1011A000020F18BF00F8012BA8BF20F8022BA1EBFB
:1011B0000C01FFF7BDBE5FEAC17C24BF00F8012B24
:1011C00000F8012B48BF00F8012B7047004870471A
:1011D000DC1A002001694A1C02610878704700B5DA
:1011E0008FB0CDE901310021059105497944CDE960
:1011F000031011466846FFF7A1FD0FB000BD0000C7
:10120000E5FFFFFF007B00F080007047004870475B
:10121000DC1A00207546FFF7F9FFAE460500694667
:10122000534620F00700854618B020B5FEF7E8FFCA
:10123000BDE820404FF000064FF000074FF00008D7
:101240004FF0000B21F00701AC46ACE8C009ACE858
:10125000C009ACE8C009ACE8C0098D46704710B5BC
:101260000446AFF300802046BDE81040FEF7B6BF4D
:101270002DE9F05F81468B46D9E9005601240EE046
:1012800009EBC401D1E900712A463346384605F01E
:101290005BFC03D809EBC40060C8A246641C5C4533
:1012A000EEDB5046BDE8F09F10B5044803F08CFE1D
:1012B0000349086001200349086010BD040E0020A6
:1012C000240000201404014010B50122002108462A
:1012D00000F008F8022306220321184600F06AFCF9
:1012E00010BD000070B504460B46CE1701EB967694
:1012F000C6F38700CE1701EB9676B610A1EB8606F3
:10130000B606350E1C4B9B6943F001031A4EB361C0
:101310004FEAB63353F820300F26AE40B343174E92
:1013200046F82030334653F8203004FA05F61E43C1
:10133000124B43F82060124B1B6801268E4033434A
:101340000F4E336002F0010343B10D4B0C331B68A9
:1013500001268E4033430A4E0C36336002F00203FE
:1013600043B1074B08331E6801238B401E43044BD7
:1013700008331E6070BD00000010024008000140EC
:10138000000401402DE9F04F89B005460E46914614
:101390009A46002400E0641C55F82400494605F0F4
:1013A000DDFFF8D355F82400514606F0D7F8F2D304
:1013B000B44202DC55F8247000E01E4F641C00E0CB
:1013C000641C55F82400494605F0C8FFF8D355F8C9
:1013D0002400514606F0C2F8F2D3B44202DC55F8BC
:1013E000248001E0DFF84C80404605F0BFFD4FF05F
:1013F0003332114BCDE9000105F0A8FACDE9040123
:10140000384605F0B3FD4FF066320C4BCDE90001D4
:1014100005F09CFACDE90201DDE9042305F02EF880
:10142000CDE9060104F0F8FF8346584609B0BDE84F
:10143000F08F0000000080BF3333D33F6666E63F85
:101440002DE9F04788B082468946002005460646C9
:1014500000210F46884600240CE05AF8240005F0CD
:1014600085FD2A463346CDE9060105F007F8054615
:101470000E46641C4C45F0DBA9F1010005F012FAA0
:1014800002460B46CDE906012846314605F0B2F882
:1014900005460E46002424E05AF8240005F066FDB7
:1014A0002A463346CDE9000105F076FCCDE904017A
:1014B0005AF8240005F05AFD2A463346CDE90001CA
:1014C00005F06AFCCDE90201DDE9042305F03EFAEE
:1014D0003A464346CDE9060104F0D0FF0746884668
:1014E000641C4C45D8DB09F1010005F0DBF902462C
:1014F0000B46CDE906013846414605F07BF8074624
:1015000088463846414608B0BDE8F087014649069E
:10151000084A926942F00102064B9A61064A5268F3
:1015200022F0E062044B5A601A4652680A435A603D
:101530007047000000100240000001401848806918
:1015400040F00800164988610846806940F0400074
:1015500088611448006820F4700012490860084649
:10156000006840F4401008600E480C30006840F0FD
:1015700020000C490C3108600B48006820F4700012
:10158000094908600846006840F4401008600648B1
:101590000C30006840F0200003490C3108607047AF
:1015A00000100240000C0140001801402DE9F84FE6
:1015B0006B4602224121682000F0F1F99DF80100FC
:1015C0009DF8001040EA01200FFA80FA504605F01D
:1015D00069F9804600220B4B05F00CF806460A4AD2
:1015E0000A4B04F04BFF044604F016FF83460849FB
:1015F000584605F0E7FE044605F048FE00B2BDE897
:10160000F88F000000407540A4703D0AD743424067
:101610000000C84210B500200E4908600E4800685E
:1016200020F470400C4908600846006840F44050BF
:10163000086000200949C1F8AC0100F011F8012050
:101640000449086000F00CF800200449C1F8A80122
:1016500010BD0000A8812142040C014000802142FD
:1016600010B5022001F032F810BD00000C4880696E
:1016700040F008000A4988610A48006820F47F4069
:10168000084908600846006840F44C500860054866
:101690000830006840F44060024908310860704733
:1016A00000100240040C014010B500200E490860F3
:1016B0000E48006820F470400C4908600846006835
:1016C00040F44050086001200949C1F8AC01FFF71F
:1016D000C7FF012004490860FFF7C2FF002004494A
:1016E000C1F8A80110BD0000A8812142040C0140EE
:1016F0000080214270B5054600241648006820F499
:101700007040144908600846006840F400400860D2
:10171000002614E0002010490860FFF7A1FF012017
:101720000E49C1F8A8016006040E0B487C38006819
:1017300008B1601CC4B2FFF793FF701CC6B2082E3C
:10174000E8DB15B9FFF7B0FF01E0FFF763FF2046C4
:1017500070BD0000040C0140A8812142008021429C
:1017600070B504461248006820F4704010490860C3
:101770000846006840F44050086000200D490860A9
:10178000002512E0E0090B49091D08606006040EFF
:1017900001200949C1F8A801FFF762FF00200549AF
:1017A0000860FFF75DFF681CC5B2082DEADB70BD5D
:1017B000040C0140A88121420080214210B50E484E
:1017C000006820F470400C4908600846006840F446
:1017D000405008600120094908600949C1F8A80182
:1017E000FFF73EFF002005490860FFF739FF0020A2
:1017F0000349C1F8A80110BD040C0140AC8121428D
:101800000080214210B50E48006820F470400C4959
:1018100008600846006840F440500860002009490C
:1018200008600949C1F8AC01FFF71AFF012005491A
:1018300008600549C1F8AC01FFF712FF10BD0000B8
:10184000040C0140A88121420080214210B50024EF
:101850001448006820F47040124908600846006887
:1018600040F40040086001200F490860FFF7F8FECF
:1018700001200E49C1F8A801FFF7F2FE07E0601C45
:10188000C4B2FA2C03DDFFF7BDFF012010BD0648EE
:10189000803800680028F2D10349091F086000BFA2
:1018A000F4E70000040C0140AC8121420080214299
:1018B00010B52948806940F004002749886127480D
:1018C000006820F07040254908600846006840F034
:1018D000405008600120FFF719FE002020490860F1
:1018E000FFF7C4FE80216B2000F0DDF8642000F0DB
:1018F000CFFE00216B2000F0D6F8032000F091F815
:10190000002000F086F8322000F0B0F800213820E6
:1019100000F0C9F800216A2000F0C5F8002123205A
:1019200000F0C1F88021372000F0BDF8752000F0EC
:1019300019F80446682C0BD101216B2000F0B3F894
:1019400000216C2000F0AFF8322000F08FF801E0A9
:10195000012010BD0020FCE70010024004080140F7
:10196000BC01214270B50446FFF728FFD020FFF7E5
:10197000F7FEFFF76BFF2046FFF7F2FEFFF766FF6B
:10198000FFF71CFFD120FFF7EBFEFFF75FFF002002
:10199000FFF7B0FE0546FFF735FF284670BD2DE97D
:1019A000F04106460F4614461D46FFF707FF00218B
:1019B00041EA4601C8B2FFF7D3FEFFF747FF20B167
:1019C000FFF720FF0120BDE8F0813846FFF7C8FE91
:1019D000FFF73CFFFFF7F2FE012101EB4601C8B221
:1019E000FFF7BEFEFFF732FF0DE0012C04D100200F
:1019F000FFF780FE287003E00120FFF77BFE2870D0
:101A0000601EC4B26D1C002CEFD1FFF7FBFE00205E
:101A1000D9E710B50446E006010E1C2000F043F89B
:101A200010BD10B50446E006010E1B2000F03BF887
:101A300010BD70B504460025BC2C01DB012510E06B
:101A4000622C01DB02250CE02A2C01DB032508E0D7
:101A5000142C01DB042504E00A2C01DB052500E041
:101A6000062529461A2000F01EF870BD70B5044600
:101A7000B4F57A7F01DD4FF47A74042C00DA042483
:101A80004FF47A7090FBF4F0401EC5B2294619203D
:101A900000F009F80546264604EBD671C1F34F0065
:101AA000FFF7C7FF70BD70B505460C46FFF786FE11
:101AB000D020FFF755FEFFF7C9FE18B1FFF7A2FED1
:101AC000012070BD2846FFF74BFEFFF7BFFE204602
:101AD000FFF746FEFFF7BAFE18B1FFF793FE0120AD
:101AE000EFE7FFF78FFE0020EBE72DE9F041054619
:101AF0000E4617469846FFF761FE002141EA450170
:101B0000C8B2FFF72DFEFFF7A1FE20B1FFF77AFE66
:101B10000120BDE8F0813046FFF722FEFFF796FE78
:101B200000240CE018F80400FFF71AFEFFF78EFE01
:101B300018B1FFF767FE0120EBE7601CC4B2BC429E
:101B4000F0DBFFF75FFE0020E3E7000000B50020B8
:101B500015490861C8601420486100208861C86187
:101B60000846006840F001000860084640680F49D8
:101B700008400D494860084600680D4908400A4978
:101B800008600846006820F4802008600846406825
:101B900020F4FE0048600020886000214FF00060C3
:101BA00000F058F800BD0000001002400000FFF8EF
:101BB000FFFFF6FE2DE9F0410746884614461D4614
:101BC000284600F033F8C5F1040007FA00F60F20AC
:101BD000284100EA0800064306F00F06E21704EB6E
:101BE000D2625211920002F1E022D2F80021214685
:101BF000E31704EBD3635B11A4EB431C012303FA4B
:101C00000CF31A432046E31704EBD3635B119B00EC
:101C100003F1E023C3F800210348005D40EA061009
:101C200001490855BDE8F08100E400E001460723C2
:101C300023EA01021202054B18684FF6FF03184011
:101C4000034B18431043014B186070470CED00E044
:101C50000000FA05024A0A400243024B1A6070472C
:101C600080FFFF1F08ED00E030B504460025FFF7B8
:101C70006DFF1F48006840F480301D49086000BFB8
:101C80001B480068400C0028FAD04FF480601849C7
:101C90004860A01EC4B20846406840EA84404860DC
:101CA0000846406840F4803048601248006840F0C0
:101CB0003200104908600E48006840F080700C49FE
:101CC000086000BF0A480068400E0028FAD00848A3
:101CD000406840F002000649486005E0044840685A
:101CE000C0F3870505F00305022DF7D130BD0000D4
:101CF000001002400020024010B50C48008800F09F
:101D0000010058B10A490869804700200749143189
:101D100008804FF47A7005491C3108800348008818
:101D200020F001000149088010BD000010080040AB
:101D3000C000002070B505460C461048C06940F050
:101D400004000E49C8610E480580001F04800C483D
:101D50002038008840F001000949203908800848EF
:101D60002C38008840F0010005492C3908800223F6
:101D70001E2203210846FFF71DFF70BD0010024020
:101D80002C0800401D49098801F0200111B31B49AE
:101D9000091D0988C8B21A49098801F40041C9B966
:101DA0001749098801F4804161B10A2803D0002154
:101DB000134A118020E01249098841F40041104A79
:101DC000118019E00D2806D10D49098841F48041A0
:101DD0000B4A118010E00A490988C1F30D01094A34
:101DE000505407490988491C054A11801146098841
:101DF000C72901DD00211180704700000038014033
:101E000068000020141A0020490050EAC12018BFC1
:101E100004204A0D18BF40F0010040F2FF72B2EBFF
:101E2000515F08BF40F00200012808BF052070473D
:101E30002DE9F0414F1E00EBC7010446D1E9000136
:101E400015461E4637F006020DD02A46334604F0EA
:101E50007DFD7F1E04EBC703D3E9002304F00EFBD6
:101E600037F00602F1D1022F25D0042F13D0062F10
:101E700018BFBDE8F0812A46334604F067FDD4E977
:101E80000A2304F0FBFA2A46334604F05FFDD4E946
:101E9000082304F0F3FA2A46334604F057FDD4E948
:101EA000062304F0EBFA2A46334604F04FFDD4E94A
:101EB000042304F0E3FA2A46334604F047FDD4E94C
:101EC000022304F0DBFA2A46334604F03FFDD4E94E
:101ED0000023BDE8F04104F0D1BA012205F0A9BC0D
:101EE00004F0CCBA002213461046114604F082BB1F
:101EF000024A0020110705F09CBC000001FDFFFF15
:101F000030380A2801D2012070470020704701466E
:101F100000BF70472DE9FE4F0746884600266846F9
:101F200001F03AFB002444E057F8240058F824104C
:101F3000A0EB010ABAF1000F01DB514601E0CAF142
:101F40000001084605F0DEF983464FF08F4105F0A9
:101F5000A7F881465DF82400002105F063F918D048
:101F60005DF82410484605F09BF882464FF07E51FC
:101F700005F0B8FB054600BF25F0004082460F483B
:101F8000416A504605F0EAFA12D20120A040064309
:101F90000EE00A48C169484605F0E0F905D3074854
:101FA000016A484605F0DAFA02D20120A040064351
:101FB000641C032CB8DB3046BDE8FE8F387900087E
:101FC00070B504460D460448294602682046FEF7CF
:101FD00025F9012070BD0000140000202DE9F04D0E
:101FE0008D4F21F0004A86B005460C46BA452ADBE3
:101FF000AAEB070028430AD08848824501DC1AD1A1
:10200000CDB106B02846BDE8F04DFFF766BF844A63
:10201000844B284604F09AFC07460E46824A834BBE
:102020002846214604F092FC06B03A463346BDE805
:10203000F04D04F023BA0120FFF71FF806B0BDE809
:10204000F04DFFF74FBF7A48824542DABAF1795F27
:102050000BDA2846FFF7D8FE042808BFFFF748FF31
:10206000284606B02146BDE8F08D2A460B461046AC
:1020700004F06CFC834602466E480E460B46062171
:102080007844FFF7D5FE5A46334604F05FFC80469D
:1020900069488A465A46334604217844FFF7C8FE09
:1020A0005A46334604F052FC00223B4604F0E6F95F
:1020B00002460B464046514604F09CFA2A46234607
:1020C00004F044FC06B02A462346BDE8F04D04F077
:1020D000D5B9284624F0004100223D463B4604F095
:1020E00069FD4FF0FF3205F0A4FB06460246534857
:1020F0000F460B4606217844FFF79AFE32463B46D0
:1021000004F024FCCDE900014D4832463B46042151
:102110007844FFF78DFE32463B4604F017FC002260
:102120002B4604F0ABF9834602913046394603F062
:1021300091F8804643480D46504517DCDDE9000123
:102140005A46029B04F056FA42462B4604F0FEFB28
:1021500042462B4604F092F9012205F06AFB304A10
:10216000304B04F019FE304A304B4CE04FF0000A7F
:1021700052460B46404604F081F9CDE90310524621
:102180002B461046194604F0E1FB32463B4604F06C
:1021900011FDDDE9033204F02DFA06460F46DDE9B4
:1021A00000015A46029B04F025FA83460091012261
:1021B0003046394605F03DFB194A1A4B04F0FAFC4B
:1021C00006460F4601224046294605F032FB5A4694
:1021D000009B04F0BBFB32463B4604F0DDFD0646A7
:1021E0000F4601225046294605F023FB0E4DDFF82D
:1021F00058802A46434604F0DDFC32463B4604F054
:10220000D9FC2A46434604F0D5FC002CD8BF81F007
:10221000004106B0BDE8F08D0000F03F0000F07F07
:10222000075C143326A6913C182D4454FB21F93F3A
:102230000000E03F0C65000022650000966400008D
:10224000AC6400003333EF3FFB21E93F2DE9F84F49
:1022500004460D4621F0004000917349814211DC93
:102260007249884201DC06D12CB120462946BDE8DE
:10227000F84FFFF732BE6E48002DCCBF6D496E4956
:10228000BDE8F88F6D49814211DD6D498142D8BFAB
:102290004FF0FF366DDD20462946FFF7B5FD0428D7
:1022A00008BFFFF725FE20462946BDE8F88F65499F
:1022B000654F25F00045814233DD6449814219DDD7
:1022C000002632464FF080432046294604F0D6F8D7
:1022D00080468A4601222046294605F0AAFA0022B5
:1022E0003B4604F059FD4246534604F083F9044648
:1022F0000D463EE001260022BA463B4620462946CE
:1023000004F0BCF880460F4600225346204629467A
:1023100004F042FD42463B4604F06CF904460D468B
:1023200027E04B4981421BDDDFF828A1022600226D
:1023300053462046294604F009FB00223B4604F0A0
:102340009DF880460F46002253462046294604F059
:1023500023FD42463B4604F04DF904460D4608E095
:10236000032622462B4600203B4904F043F904464D
:102370000D4622462B461046194604F0E7FA8B46D6
:10238000824602460B4604F0E1FA0746024633480D
:1023900088460B4606217844FFF74AFD52465B46C5
:1023A00004F0D4FA82462E488B463A46434605212D
:1023B0007844FFF73DFD3A46434604F0C7FA02462B
:1023C0000B46002E504659460CDA04F057F82246C8
:1023D0002B4604F0BBFA01B022462B46BDE8F04F75
:1023E00004F0E8BB04F04AF822462B4604F0AEFAAB
:1023F0001C4A7A4402EBC603D3E9002304F0CCFC68
:1024000022462B4604F0C8FC174A7A4402EBC60366
:10241000D3E9002304F0CEFB009A002AB8BF81F074
:102420000041BDE8F88F0000000010440000F07F7C
:10243000182D4454FB21F93FFB21F9BF0000DC3F7C
:102440000000203E0000F33F0000F03F0000E63FA8
:10245000008003400000F83F0000F0BFAE620000C3
:102460006C6200000A620000D26100002DE9F04DAC
:102470009446CCF1000423F000464CEA0404524F89
:1024800046EAD4749A46884621F00042BC4206D8F7
:10249000454240EA050442EAD474BC4204D9BDE88E
:1024A000F04D6246FFF71CBDAAF14055A5F17F65CE
:1024B00055EA0C040BD0022404EAAA74434DDFF859
:1024C00010E144EAD87452EA000B04D00CE0BDE8F5
:1024D000F04DFFF7BBBE002C14BF012CBDE8F08D02
:1024E000022C30D0032C32D056EA0C0B0AD0BE425C
:1024F00020D1BA4209D126F0804622F080423346EC
:10250000114617E000291ADB25E0DFF8C8B0FB44CC
:10251000002C04BFDBE90001BDE8F08D012C02BFF7
:10252000DBE9000181F00041BDE8F08D022C0AD00A
:10253000032C0CD0BA4212D1B8F1000F0BDA2348A9
:102540002549BDE8F08D28462449BDE8F08D284690
:102550007146BDE8F08D1D482149BDE8F08D921B04
:1025600012153C2AC4BF19481D490EDCBAF1000FF0
:10257000BEBF12F13C0F0020014606DB624604F0AC
:1025800039F821F00041FFF761FE002C08BFBDE8DB
:10259000F08D012C04BF81F00041BDE8F08D114A9F
:1025A000114B022C07D004F0F7FB2A46BDE8F04D92
:1025B0000A4B04F0F1BB04F0EFFB2A46BDE8F04DF6
:1025C000064B04F0F7BA00000000F07F182D4454C9
:1025D000FB2109C066610000FB21F9BFFB21094016
:1025E000FB21F93F075C143326A6A13C2DE9F041FD
:1025F0000446E07800F0C006E07800F03F0560781F
:1026000000F0010098B1EF102846E91705EB517171
:10261000C910A5EBC101491C01F0FF080B48006877
:1026200020B10A48414602683846904700BF6078AA
:1026300000F0080030B10548406818B1B011034AF5
:10264000516888470020BDE8F0810000041A00208E
:102650004FF0E021096921F004014FF0E0221161FF
:10266000C21700EB5272C2F3C702074B1A70194629
:10267000097801EB4102C2EBC1114FF6FF7202EA89
:10268000C101024A118070475E00002060000020F6
:1026900001460D4A12884A434FF0E0235A61002256
:1026A0009A6101221A6100BF4FF0E022106900F028
:1026B00001021AB100F48032002AF5D000224FF056
:1026C000E0231A619A6170476000002001460D4ABC
:1026D00012784A434FF0E0235A6100229A610122A6
:1026E0001A6100BF4FF0E022106900F001021AB138
:1026F00000F48032002AF5D000224FF0E0231A6166
:102700009A6170475E0000202DE9F04F97B0814636
:102710008A46002400200546064600210F468846CA
:10272000149115911291139100BF00BF00BF00BF1B
:1027300000BF36E0204604F0B5F82A463346CDE91E
:10274000080103F09BFE05460E4659F8240004F0EC
:102750000DFC3A464346CDE9080103F08FFE0746DB
:102760008846204604F0CEFD079059F8241004F066
:1027700029FE834604F0FAFBCDE90801DDE91423C4
:1027800003F07CFECDE9140104FB04F004F08AF8A8
:10279000CDE90801DDE9122303F070FECDE9120155
:1027A000641C5445C6DB2A4633462846314604F0AD
:1027B000CDF8CDE90401504604F074F8CDE90001EC
:1027C000DDE9122304F0C2F8CDE90201DDE90423BA
:1027D00004F0E2FA3A464346CDE90801284631467C
:1027E00004F0B4F8CDE90401504604F05BF8CDE9FB
:1027F0000001DDE9142304F0A9F8CDE90201DDE9C7
:10280000042304F0C9FACDE90601DDE9082303F049
:10281000F1FECDE90C01504604F044F802460B46A7
:10282000CDE908012846314603F0E4FECDE9100168
:10283000504604F037F802460B46CDE90801384609
:10284000414603F0D7FECDE90E01DDE91023DDE9B5
:102850000C0104F07BF8CDE90801DDE90E2304F05A
:10286000A9F9CDE90A0100241AE0204604F01AF87B
:10287000CDE90401DDE90C2304F068F8CDE9060197
:10288000DDE90A2303F0FAFDCDE9080103F0C4FDF8
:10289000834659F8241004F092FE49F82400641C81
:1028A0005445E2DB17B0BDE8F08F38B5044664B19B
:1028B00020208DF8000028208DF8010030208DF8B0
:1028C000020038208DF8030004E0A32204216846AA
:1028D000FEF724FB6A46042140F69E2002F030FBFE
:1028E00001F01AFF38BD00003EB5044602208DF805
:1028F0000000CA208DF80100E3208DF802000920B5
:102900008DF803006A460421682002F019FBA32019
:102910008DF8000004F0400048B1C0208DF801009F
:10292000C8208DF80200C2208DF8030006E0A32025
:102930008DF801008DF802008DF8030004F4C070DA
:1029400048B1C4208DF80400CC208DF80500C620C5
:102950008DF8060006E0A3208DF804008DF8050030
:102960008DF80600A3208DF807008DF808008DF87B
:1029700009006A460A2140F6A72002F0E1FA04F0B5
:10298000030018B120208DF8000002E0D8208DF857
:1029900000006A46012140F6B62002F0D1FA04F0A8
:1029A000200018B1012000F0ADF802E0002000F096
:1029B000A9F804F4C07008B304F4807060B1B220C8
:1029C0008DF800008B208DF80100B6208DF80200F4
:1029D0009B208DF803000BE0B0208DF800008020D4
:1029E0008DF80100B4208DF8020090208DF80300CE
:1029F0006A46042140F6A22002F0A2FA04F0010087
:102A000020B3F8208DF800006A4601214FF40B60D6
:102A100002F096FAFA21072000F02CFC072000F0C3
:102A2000F3FB012000F013FC642000F0F3FC4FF4F2
:102A3000FA7000F002FDC821304800F0A3FB282006
:102A400000F0BCFB0A2000F0CCFB08E0D8208DF899
:102A500000006A4601214FF40B6002F071FA04F0A5
:102A6000020018B1D9208DF8000002E0D8208DF8BE
:102A700000006A46012140F23D7002F061FA04F064
:102A8000040018B1012000F069F802E0002000F015
:102A900065F804F0100018B10120FFF706FF02E00E
:102AA0000020FFF702FF44F008001549488101F0BB
:102AB00033FE00201249887304F0400018B1084624
:102AC000807B801D887304F4C07020B10C48807B2B
:102AD000801D0B49887304F0140020B10848807BE6
:102AE00010300749887304F0030020B10448807B4C
:102AF000001D0349887300203EBD000009E3CA029F
:102B0000041A00203EB504466CB10EA1D1E90020A4
:102B10008968CDE9002002916A4609214FF4976047
:102B200002F00EFA3EBD0AA2D2E900109268CDE989
:102B3000010200916A4609214FF4976002F000FA01
:102B4000F0E70000B8AAB38DB4980D355D00000021
:102B5000B8AAAAAAB088C3C5C700000038B5044601
:102B600064B1C0208DF80000C2208DF80100C4209F
:102B70008DF80200C6208DF8030004E08B220421AA
:102B80006846FEF7CBF96A46042140F6982002F029
:102B9000D7F901F0C1FD38BD10B5C8234FF48062EC
:102BA000024940F6F63001F0F9FB10BD60790008EB
:102BB0002DE9F04F8DB00746884615469946DDE968
:102BC000166B0024002030806B49887B5A4605A98B
:102BD00001F002FD18B1601E0DB0BDE8F08F66482F
:102BE000807A00F01400002867D09DF814000006D9
:102BF0009DF8151040EA01409DF8161040EA0120AA
:102C00009DF81710084328609DF8180000069DF8ED
:102C1000191040EA01409DF81A1040EA01209DF881
:102C20001B10084368609DF81C0000069DF81D10ED
:102C300040EA01409DF81E1040EA01209DF81F1057
:102C40000843A8609DF8200000069DF8211040EA86
:102C500001409DF8221040EA01209DF8231008430E
:102C6000E86004F11000C4B228680014019068689C
:102C700000140290A86800140390E86800140490FF
:102C800001984043029901FB0100039901FB0100F7
:102C9000049901FB010ABAF1706F02DBBAF1885F97
:102CA00005DD01F039FD00203080401E94E7B6F9C3
:102CB000000040F48070308000BF2F48807A00F020
:102CC000400020B305A9601C085C095D40EA0120B2
:102CD00000B2A8F8000005A9E01C095C05AAA01C28
:102CE000105C41EA002000B2A8F8020005A9601DAE
:102CF000095C201D105C41EA002000B2A8F8040025
:102D0000A01DC4B2B6F9000040F0080030801A4897
:102D1000408900F4C07008B305A9601C085C095D17
:102D200040EA012000B2388005A9E01C095C05AA30
:102D3000A01C105C41EA002000B2788005A9601D4B
:102D4000095C201D105C41EA002000B2B880A01D83
:102D5000C4B2B6F9000040F0700030800648807AB6
:102D600000F0030018B105A90819FFF73FFC484619
:102D700000F0A6FF00202FE7041A002070B588B0ED
:102D8000064601A801F05EF9BDF804000021C90360
:102D900041EA5045C4034448007A00F0030056F865
:102DA000200005904048007A00F0040010B105981A
:102DB000404205903C48007AC0F3C10056F820001C
:102DC00006903948007A00F0200010B10698404281
:102DD00006903548007AC0F3811056F8200007901D
:102DE0003148008900F4807010B107984042079084
:102DF0000598C117A0FB042301FB043100FB05105B
:102E0000810041EA927005900698C117A0FB042347
:102E100001FB043100FB0510810041EA927006902D
:102E20000798C117A0FB042301FB043100FB051028
:102E3000810041EA927007900598000E8DF8080015
:102E40000598000C8DF809000598000A8DF80A0015
:102E50000598C0B28DF80B000698000E8DF80C0096
:102E60000698000C8DF80D000698000A8DF80E00EB
:102E70000698C0B28DF80F000798000E8DF810006C
:102E80000798000C8DF811000798000A8DF81200C1
:102E90000798C0B28DF8130002AA0C214FF42570D8
:102EA00002F04EF808B070BD041A002030B585B0AD
:102EB000044616A207CA02AB07C3C82C03DD4FF0B5
:102EC000FF3005B030BDC82090FBF4F0401E85B245
:102ED000280A8DF80000E8B28DF801006A46022148
:102EE00040F2162002F02CF810B14FF0FF30E8E766
:102EF00002AA0C2140F6C12002F022F810B14FF0D6
:102F0000FF30DEE7044884810020DAE7FEF2ABC43C
:102F1000AAF1DFDFBBAFDFDF041A00201FB50446D4
:102F20004848007A00F0030054F82000019045481A
:102F3000007A00F0040010B101984042019041482D
:102F4000007AC0F3C10054F8200002903D48007A96
:102F500000F0200010B10298404202903948007AF7
:102F6000C0F3811054F8200003903648008900F423
:102F7000807010B10398404203903349019880FB60
:102F80000101800F40EA810001902F49029880FBE7
:102F90000110820042EA917002902B49039880FB55
:102FA0000110820042EA917003900198000E8DF8A2
:102FB00000000198000C8DF801000198000A8DF8BE
:102FC00002000198C0B28DF803006A4604214FF454
:102FD000747001F0B5FF18B14FF0FF3004B010BDB0
:102FE0000298000E8DF800000298000C8DF8010088
:102FF0000298000A8DF802000298C0B28DF8030012
:103000006A4604214FF4757001F09AFF10B14FF039
:10301000FF30E3E70398000E8DF800000398000CE2
:103020008DF801000398000A8DF802000398C0B2E1
:103030008DF803006A4604214FF4767001F080FF9A
:10304000CCE70000041A002009E3CA0210B586B0DC
:10305000044647A00068039046A00068029046A07E
:103060000068019045A00068009004F0030003A9E7
:10307000085C8DF8140003A8C4F3C101405C8DF80E
:10308000150003A8C4F38111405C8DF8160004F00C
:10309000030002A9085C8DF8100002A8C4F3C10166
:1030A000405C8DF8110002A8C4F38111405C8DF8DA
:1030B000120005AA032140F2264001F041FF18B199
:1030C0004FF0FF3006B010BD04AA032140F22A40A1
:1030D00001F036FF10B14FF0FF30F3E70198059093
:1030E0000098049004F0040058B19DF8140040F0DA
:1030F00001008DF814009DF8100040F001008DF8DB
:10310000100004F0200058B19DF8150040F00100B7
:103110008DF815009DF8110040F001008DF81100A8
:1031200004F4807058B19DF8160040F001008DF84D
:1031300016009DF8120040F001008DF8120005AA5B
:1031400003214FF4886001F0FBFE10B14FF0FF3017
:10315000B8E704AA032140F2314001F0F1FE10B1BA
:103160004FF0FF30AEE7064804810020AAE70000D8
:103170004CCD6C000CC92C003656760026466600F5
:10318000041A0020F8B505460E464FF47A7095FBF8
:10319000F0F000FB06F4200E8DF80000200C8DF8F6
:1031A0000100200A8DF80200E0B28DF803006A46A3
:1031B00004214FF4AE7001F0C3FEF8BD38B50446EB
:1031C000052094FBF0F084B220128DF80000E0B2EC
:1031D0008DF801006A4602214FF4AD7001F0B0FE97
:1031E00038BD38B50446052094FBF0F084B22012B7
:1031F0008DF80000E0B28DF801006A4602214FF41C
:10320000AC7001F09DFE38BD38B50446002000903A
:1032100004F0010020B19DF8000040F03000009063
:1032200004F0020020B19DF8000040F00C00009076
:1032300004F0040020B19DF8000040F0030000906D
:103240006A4601214FF4A47001F07AFE38BD38B50A
:103250000446012C01DA012402E0042C00DD0424E0
:10326000601EC0B200906A46012140F24F1001F08A
:1032700067FE38BD2DE9FC4706460F4606F00700FD
:1032800010B1B7F5C86F03DD4FF0FF30BDE8FC8724
:10329000384604F04FF88146594903F001FF804653
:1032A000684600F0A9FE9DF80000022806D0042818
:1032B00016D0082826D0102848D135E04FF08D418F
:1032C000404604F07FF8814603F0FCFF84B24D498C
:1032D000404604F077F8814603F0F4FF85B238E009
:1032E0004FF08C41404604F06DF8814603F0EAFF50
:1032F00084B24549404604F065F8814603F0E2FF98
:1033000085B226E04FF08B41404604F05BF88146E1
:1033100003F0D8FF84B23D49404604F053F881469B
:1033200003F0D0FF85B214E04FF08A41404604F02C
:1033300049F8814603F0C6FF84B23549404604F09F
:1033400041F8814603F0BEFF85B202E04FF0FF3046
:103350009CE700BF20128DF80400E0B28DF8050054
:1033600028128DF80600E8B28DF8070006F001007B
:10337000A0B101AA02214FF4EA7001F0E1FD10B101
:103380004FF0FF3082E70DF1060202214FF49270F8
:1033900001F0D6FD10B14FF0FF3077E706F00200E4
:1033A000A0B101AA02214FF4EC7001F0C9FD10B1E7
:1033B0004FF0FF306AE70DF1060202214FF49470DE
:1033C00001F0BEFD10B14FF0FF305FE706F00400E2
:1033D000A0B101AA02214FF4EE7001F0B1FD10B1CD
:1033E0004FF0FF3052E70DF1060202214FF49670C4
:1033F00001F0A6FD10B14FF0FF3047E7002045E790
:1034000000004843000040460000C0450000404521
:103410000000C04438B50446052094FBF0F085B2A6
:1034200028128DF80000E8B28DF801006A460221EA
:103430004FF4EF7001F084FD38BD38B50446052027
:1034400094FBF0F085B228128DF80000E8B28DF8F8
:1034500001006A4602214FF4ED7001F071FD38BDA4
:1034600000BF054A128802F04002002AF9D0C2B219
:10347000014B1B1D1A807047003801402DE9FE4F9B
:1034800081460D4616469A46DDF830B0701E03F0B0
:1034900039FF07465146584604F024F9804639461C
:1034A00003F0FEFD029000241DE059F8240003F013
:1034B00029FF8046029903F085FF0746514603F035
:1034C00081FD45F8240055F8240003F04FFD00224B
:1034D000074BCDE9000103F039FA074602F09CFFE3
:1034E00045F82400641CB442DFDB0120BDE8FE8FF8
:1034F00000004E402DE9FF4706460F4601254FF4D8
:10350000807AB046B9460E4B0E4A142101A80095A8
:10351000FDF71DFB00240CE004FB05F009EB800225
:1035200004FB05F008EB80012B4601A8FCF79EFE8A
:10353000641C5445F0D3012004B0BDE8F0870000BE
:10354000B4010020C07800082DE9F84F05460E466A
:1035500017469846DDF828B0781E03F0D3FE4FF0EA
:103560008141009003F09CFD81464146484603F0AE
:1035700029FF009003F08AFE8246002406E00AEB51
:10358000040055F8200046F82400641C452CF6DBA6
:103590000120BDE8F88F00007CB505462849496840
:1035A000087801AB04220D21FEF7F9F908B10720D4
:1035B0007CBD9DF80700C0F301109DF8041001F0D8
:1035C000E00140EAE1008DF800009DF80700C0F33B
:1035D00081009DF8051001F0E00140EAE1008DF85E
:1035E00001009DF8070000F003009DF8061001F0AF
:1035F000E00140EAE1008DF8020000241CE01DF823
:10360000040018B9002045F8240013E00D4845F8DF
:10361000240006E055F824000B4903F0D3FE45F8DA
:1036200024001DF80400401EC0B20DF8040000285C
:10363000F0D100BF601CC4B2032CE0DB0020B7E770
:10364000280000207B14AE3E1D5A843F2DE9F04F28
:1036500087B005460C46914601208DF810000020E9
:103660008DF81100FE4A1268917CFD4A526810786C
:1036700004AB0222FEF739FA20B14FF0FF3007B059
:10368000BDE8F08FC820FFF703F800208DF8100088
:10369000F34A1268D17BF24A5268107804AB0122D7
:1036A000FEF723FA10B14FF0FF30E8E7EC4A12685A
:1036B0005179EB4A5268107804AB0122FEF715FAF3
:1036C00010B14FF0FF30DAE7E54A1268917CE44A26
:1036D0005268107804AB0122FEF707FA10B14FF0E0
:1036E000FF30CCE7DE4A1268D17DDD4A526810789F
:1036F00004AB0122FEF7F9F910B14FF0FF30BEE73D
:10370000D74A12681179D64A5268107804AB012260
:10371000FEF7EBF910B14FF0FF30B0E70C208DF859
:103720001000CF4A12681179CD4A5268107804AB64
:103730000122FEF7DAF910B14FF0FF309FE70F20BA
:10374000FEF7A6FFC648806A407A8DF81000C44A8A
:1037500012689178C24A5268107804AB0122FEF7D1
:10376000C4F910B14FF0FF3089E7BD48806A007A94
:103770008DF81000BA4A12685178B94A5268107828
:1037800004AB0122FEF7B1F910B14FF0FF3076E73C
:10379000B9F1000F07D0B248806A807A40F0E000AB
:1037A0008DF8100004E0AE48806A807A8DF8100031
:1037B000AB4A12689179AA4A5268107804AB012288
:1037C000FEF793F910B14FF0FF3058E7B9F1000F51
:1037D00007D0A348806AC07A40F0E0008DF810005E
:1037E00003E0A048C07A8DF810009D4A1268D17994
:1037F0009B4A5268107804AB0122FEF776F910B1AB
:103800004FF0FF303BE7B9F1000F02D0C820FEF7C0
:103810003FFF40208DF81000914A12681179904ABC
:103820005268107804AB0122FEF75FF910B14FF037
:10383000FF3024E778208DF81000894A126851790A
:10384000874A5268107804AB0122FEF74EF910B196
:103850004FF0FF3013E783498889FEF719FF0020F6
:103860008DF810007E4A126851797D4A52681078AE
:1038700004AB0122FEF739F910B14FF0FF30FEE63C
:10388000774A1268917A764A5268107804AB02221D
:10389000FEF785F810B14FF0FF30F0E69DF811000B
:1038A0009DF8101040EA012B0C209BFBF0F0C6B2F3
:1038B0000020A86068602860A06060602060824688
:1038C00065E0674A1268D17A654A5268107804AB9D
:1038D0000C22FEF764F810B14FF0FF30CFE69DF8F0
:1038E00011009DF8101040EA012000B2ADF8080068
:1038F0009DF813009DF8121040EA012000B2ADF8C7
:103900000A009DF815009DF8141040EA012000B24D
:10391000ADF80C00BDF90810206808442060BDF91E
:103920000A10606808446060BDF90C10A068084483
:10393000A0609DF817009DF8161040EA012000B223
:10394000ADF800009DF819009DF8181040EA01201C
:1039500000B2ADF802009DF81B009DF81A1040EA75
:10396000012000B2ADF80400BDF900102868084439
:103970002860BDF90210686808446860BDF9041049
:10398000A8680844A8600AF1010000F0FF0AB245E7
:1039900097DB3448D0F800C02868C117090441EA11
:1039A00010410704624600233846FDF7DFF832462F
:1039B0000023CDE90201FDF7D9F828602948D0F8A5
:1039C00000C06868C117090441EA10410704624653
:1039D00000233846FDF7CAF832460023CDE902013C
:1039E000FDF7C4F868601F48D0F800C0A868C11788
:1039F000090441EA10410704624600233846FDF7F6
:103A0000B5F832460023CDE90201FDF7AFF8A86012
:103A10001448D0F804C02168C817000440EA1148CF
:103A20000F046246002338464146FDF79FF83246B0
:103A30000023CDE90201FDF799F820600948D0F88C
:103A400004C06068C117090441EA104107046246D6
:103A500000233846FDF78AF83246002304E00000D0
:103A60002800002038790008CDE90201FDF77EF832
:103A700060601148D0F804C0A068C117090441EA89
:103A800010410704624600233846FDF76FF83246BE
:103A90000023CDE90201FDF769F8A060A0680028C5
:103AA00004DDA068A0F58030A06003E0A06800F508
:103AB0008030A0600020E2E5387900082DE9FC5F45
:103AC0000746884600263F494968087801AB03222B
:103AD0000D21FDF764FF10B10720BDE8FC9F9DF8A4
:103AE000040000F01F008DF804009DF8050000F0B0
:103AF0001F008DF805009DF8060000F01F008DF8EE
:103B00000600002459E057F8240058F82410A0EBD0
:103B1000010BBBF1000F01DB594601E0CBF10001C5
:103B2000084603F0EFFB4FF08F41009003F0B8FA26
:103B3000824601A8005D78B32349086803F0FAFBC8
:103B400083465946214803F0ABFA814604E02049F8
:103B5000484603F037FC814601A8005D401EC0B214
:103B600001A908550028F2D14946504603F098FAB9
:103B700083464FF07E5103F0B5FD054600BF25F0AA
:103B80000040834610488169584603F0E7FC13D291
:103B90000120A04006430FE0FFE70B4801695046B3
:103BA00003F0DCFB05D308484169504603F0D6FC1E
:103BB00002D20120A0400643641C032CA3DB304644
:103BC0008BE70000280000203879000800B04C4541
:103BD00054E3853F10B50446204600F00FF8034635
:103BE000E01C00F00BF843EAC00083B2A01D00F017
:103BF00005F843EA801083B2184610BD014691F9DA
:103C00000020002A01DD00201EE091F90020002A9A
:103C100001DA042018E091F90120002A01DD0120D9
:103C200012E091F90120002A01DA05200CE091F957
:103C30000220002A01DD022006E091F90220002A7C
:103C400001DA062000E00720704700000020174935
:103C500008601749C1F894010920FEF705F84820CB
:103C6000FEF7F6FC1348416848208847FDF766FCDC
:103C7000FDF71EFE00BF00F06FF90028FBD1FDF735
:103C800023FB11E00C4800F055FC0C48006840286C
:103C90000AD10648006808B9012000E00020034965
:103CA0000860002005490860ECE70000948121428B
:103CB00000002342C0000020040E0020100000205D
:103CC0007047000070B50446002624F0010418482F
:103CD00090F8240008B1002070BD1548807A10B912
:103CE0004FF0FF30F8E71248057C807A20401049F9
:103CF00008740846007CA04202D04FF0FF3600E076
:103D0000002614B90A48007D18B1012001F024FAF8
:103D100002E0002001F020FA3CB100F0FDFC20B1EF
:103D2000034805744FF0FF30D6E73046D4E7000073
:103D3000280000202DE9F04F99B004460D461646A4
:103D40004FF07E574FF000084FF000094FF0000A87
:103D500012A813A918AB0EAACDE9001014A916A831
:103D6000FEF726FF18B1012019B0BDE8F08FBDF8AD
:103D70004C0000F4807000287ED00E9803F0C2FA48
:103D800083464FF09D4103F08BF907460F9803F0EF
:103D9000B9FA83464FF09D4103F082F980461098AE
:103DA00003F0B0FA83464FF09D4103F079F9814664
:103DB000119803F0A7FA83464FF09D4103F070F984
:103DC000824639464FF0804003F0FCFA49460590A0
:103DD00003F0F8FA414607904FF0404003F0F2FA42
:103DE0005146059003F0EEFA0690079903F0EAF8C1
:103DF000834603F0BBF8CDE90801FEF7EFF84FF07A
:103E00006632544BCDE90A0102F0A0FDCDE90C0168
:103E100002F002FB206049464FF0804003F0D2FAE6
:103E20004946029003F0CEFA414604904FF04040DC
:103E300003F0C8FA4146029003F0C4FA03900499D3
:103E400003F050FC83464FF07E5103F0BBF8059021
:103E500003F08CF8CDE9080139464FF0804003F0BB
:103E6000B1FA4146039003F0ADFA494604904FF091
:103E7000804003F0A7FA00E068E05146039003F0A9
:103E8000A1FA8346049903F09DF8059003F06EF8BB
:103E9000CDE90601DDE90823FEF7E8FA4FF06632C6
:103EA0002C4BCDE90A0102F051FDCDE90C0102F0E5
:103EB000B3FA28605146504603F084FA494604900C
:103EC000484603F07FFA41460390404603F07AFAF1
:103ED00039460190384603F075FA0090019903F0D5
:103EE00071F80290039903F0FDFB8346049903F0F7
:103EF000F9FB059003F03AF8CDE908015146384640
:103F000003F060FA49460490404603F05BFA0390E0
:103F1000049903F057F84FF08041059003F052FAEE
:103F2000834603F023F8CDE90601DDE90823FEF717
:103F30009DFA4FF06632074BCDE90A0102F006FD0B
:103F4000CDE90C0102F068FA306001E002200BE7D5
:103F5000002009E766A64C4070B50024FDF786FBFB
:103F600000F024F9002840D1782000F081FFC4B28D
:103F70000CB1012070BD7820FFF7A4FEC4B20CB1D3
:103F80000220F7E7642000F025FFC4B20CB1032043
:103F9000F0E7FEF701FEC4B20CB10420EAE71548D1
:103FA000FFF718FE0546FFF751F8C4B20CB1052023
:103FB000E0E740F27310FEF797FCC4B20CB10620A4
:103FC000D8E76420FEF772FFC4B20CB10720D1E736
:103FD00001F078F804460CB10820CBE7012000F08E
:103FE000F5FDC4B21CB10920C4E70A20C2E70020D5
:103FF000C0E700005400002001461148407A30B16B
:10400000012807D0022808D003280CD108E002209C
:1040100008700BE00420087008E00820087005E034
:104020001020087002E04FF0FF30704700BF0448D6
:10403000C07C18B108784006000E08700020F4E734
:104040002800002001461348407A30B1012808D0EA
:1040500002280AD0032810D10BE04FF480400880DA
:104060000EE041F69C7008800AE04FF48050088012
:1040700006E04FF40060088002E04FF0FF30704728
:1040800000BF0448C07C10B10888401008800020A0
:10409000F5E700002800002001460248007C087077
:1040A000002070472800002001460F48007A30B1F8
:1040B000012807D0022809D003280FD10AE0FA20EE
:1040C00008800EE04FF4FA7008800AE04FF47A702E
:1040D000088006E04FF4FA60088002E000200880C3
:1040E00000BF00BF002070472800002001460E4896
:1040F000007A30B1012807D0022808D003280CD15B
:1041000008E00A4808600BE00948086008E0094830
:10411000086005E00848086002E04FF0FF30704793
:1041200000BF0020FBE70000280000200000034340
:104130000000834233330342333383410146124844
:10414000C07A082817D2DFE800F01704070A0D101C
:104150001318BC20088013E06220088010E02A2099
:1041600008800DE0142008800AE00A20088007E09B
:104170000520088004E000BF00BF0020088000BFC9
:1041800000BF0020704700002800002001460648BC
:1041900090F8240010B14FF0FF3070470248C089FA
:1041A00008800020F9E70000280000201CB58020CE
:1041B0008DF80000654A1268917C644A5268107854
:1041C0006B460122FDF791FC10B14FF0FF301CBD92
:1041D0006420FEF75DFA00208DF800005B4A12684B
:1041E000917C5A4A526810786B460122FDF77DFC9B
:1041F00010B14FF0FF30EAE7544A1268917D534AFC
:10420000526810786B460622FDF7C9FB10B14FF0DB
:10421000FF30DCE79DF80500C007400F9DF8031054
:1042200001F0010140EA41009DF8011001F0010197
:1042300040EA010494B1012C03D101214348C17427
:1042400031E0022C03D100214048C1742BE021460B
:104250003FA0FCF7AFFC4FF0FF30B8E73B4A1268D5
:10426000D1783A4A526810786B460122FDF797FBE5
:1042700010B14FF0FF30AAE79DF8000000F00F04E6
:104280002CB93D48FCF796FC4FF0FF309FE7042C1B
:1042900006D13AA0FCF78EFC01212C48C17402E043
:1042A00000212A48C174FF2128488172FF20274934
:1042B0000872FF2125484172C1724FF6FF71C1811A
:1042C000FF21017481740121017380F82210002103
:1042D00080F82310417501751630016041608160DE
:1042E000163880F8241080F82510C1844FF4FA6045
:1042F00000F0B4FC10B14FF0FF3068E7022000F08E
:104300007DFB10B14FF0FF3061E72A2000F020FD67
:1043100010B14FF0FF305AE7322000F05BFD10B1D2
:104320004FF0FF3053E70020FFF7CCFC10B14FF007
:10433000FF304CE7002000F0A3FB10B14FF0FF303E
:1043400045E7002000F094FD002040E72800002011
:10435000556E737570706F7274656420736F6674D8
:10436000776172652070726F647563742072657610
:104370002025642E0A0000008086000848616C66D3
:104380002073656E736974697669747920706172DF
:104390007420666F756E642E0A0000002DE9F043EC
:1043A00085B005460E4690469946294890F8250066
:1043B00020B14FF0FF3005B0BDE8F08316B94FF0E3
:1043C000FF30F8E7002423E0281B102801DD10202F
:1043D00000E0281B87B232193946204600F0B0FDB4
:1043E00010B14FF0FF30E6E701AA3946204600F051
:1043F00053F910B14FF0FF30DDE730193A4601A90B
:10440000FCF760FD10B16FF00100D4E7E01984B251
:10441000AC42D9DB4FEA28208DF8000008F0FF00FD
:104420008DF801000A4A1268917E094A5268107894
:104430006B460222FDF759FB10B14FF0FF30BAE78F
:104440000121034880F82510A0F826900020B2E74B
:104450002800002038B50446282C02DD4FF0FF303C
:1044600038BDDCB9002000F03DFC00208DF80000D4
:1044700007208DF801002E4A1268917C2C4A526860
:1044800010786B460222FDF730FB10B14FF0FF3081
:10449000E6E70021264801750020E1E7012000F051
:1044A00021FC20208DF80000012C06D100208DF881
:1044B0000100052000F04CFC17E0052C06DC012073
:1044C0008DF80100052000F043FC0EE0142C06DC02
:1044D00002208DF801000A2000F03AFC05E00320DC
:1044E0008DF80100142000F033FC9DF80100072135
:1044F00001EB8010C0B28DF801000D4A1268917C6A
:104500000B4A526810786B460222FDF7EEFA10B1A2
:104510004FF0FF30A4E708210548817200210173A4
:10452000012101750020FFF7CDFB002098E7000076
:104530002800002070B50446214A22492248FFF78E
:10454000F9FB00283AD121480078401C1F49087027
:104550000846007819282FD10020087000250EE0A9
:10456000012609E004EB852050F8261004EB852293
:10457000701E42F82010761CFF2EF3DD6D1C032DFB
:10458000EEDB11480068C4F8FC030D480168C4F86C
:10459000FC170C480168C4F8FC1B0D480068401C5F
:1045A0000B4908600B48006808B9012000E00020B2
:1045B00008490860012070BD0220FCE70020FAE7EE
:1045C0000800002004000020000000200C00002053
:1045D0001000002094012342F8B504460F46164609
:1045E0002C4890F8240010B94FF0FF30F8BD29484E
:1045F000807A10B94FF0FF30F8E7264A1268917AB6
:10460000244A526810786B460222FDF7C8F910B1AF
:104610004FF0FF30EAE79DF801009DF8001040EAF6
:104620000125A54203DA00203070401EDEE719485C
:1046300040684088B5EB600F17DD164A1268517C60
:10464000144A526810786B460122FDF7A8F910B1A0
:104650004FF0FF30CAE79DF8000000F0100020B1D5
:1046600000F05AF86FF00100C0E7E2B2094B1B6896
:10467000D97A084B5B6818783B46FDF790F910B182
:104680004FF0FF30B2E795FBF4F0401E3070002091
:10469000ACE7000028000020F8B504460D46164699
:1046A00016B94FF0FF30F8BD1A48807A10B94FF0B4
:1046B000FF30F8E720128DF80000E0B28DF801001D
:1046C0009DF801002844134949684989884202DD60
:1046D0004FF0FF30E7E70F4A1268117E0D4A52682B
:1046E00010786B460222FDF700FA10B14FF0FF3050
:1046F000D9E7EAB2074B1B68597D064B5B6818780F
:104700003346FDF74CF910B14FF0FF30CBE70020F6
:10471000C9E700002800002008B57048807A10B969
:104720004FF0FF3008BD002000906C4A1268D17B2A
:104730006A4A526810786B460122FDF7D6F910B12B
:104740004FF0FF30EEE7654A12685179634A5268CC
:1047500010786B460122FDF7C8F910B14FF0FF3019
:10476000E0E75E4A126811795C4A526810786B463D
:104770000122FDF7BAF910B14FF0FF30D2E75748E8
:1047800090F82400002853D00C200090534A12685F
:104790001179524A526810786B460122FDF7A5F94B
:1047A00010B14FF0FF30BDE73220FDF771FFC020A0
:1047B00000904A48807A00F0010020B19DF8000086
:1047C00040F020000090454A12681179434A52682F
:1047D00010786B460122FDF788F910B14FF0FF30D9
:1047E000A0E73E48407C10B10220009001E000208C
:1047F00000903A4A1268D17B384A526810786B466A
:104800000122FDF772F910B14FF0FF308AE7002066
:104810000090324A12685179304A526810786B46DB
:104820000122FDF762F9002855D04FF0FF3079E7FB
:1048300004200090294A12681179284A5268107899
:104840006B460122FDF751F910B14FF0FF3069E7D7
:104850002248807C20B92148807A00F0010010B9FC
:104860004020009001E0602000901C4A12681179FD
:104870001A4A526810786B460122FDF736F910B1DA
:104880004FF0FF304EE73220FDF702FF1348407C27
:1048900010B10120009001E0002000900F4A126842
:1048A000D17B0E4A526810786B460122FDF71DF944
:1048B00010B14FF0FF3035E7084A12685179074AC6
:1048C00052681078054B10330122FDF70EF910B134
:1048D0004FF0FF3026E7002024E7000028000020EA
:1048E0002DE9F04F8DB083460F4602200C904248D0
:1048F00090F8240020B1002000F068F9012600E0C3
:10490000002603A8FFF7D0FB05A8FFF775FB01A859
:10491000FFF714FC02A8FFF739FC374890F80AA00B
:1049200004A8FFF7B9FB002407E0002239465846E7
:10493000FEF78CFE00B902E0641C022CF5DB00BF20
:10494000022C01D1002528E0002407E0012206A95D
:1049500009A8FEF77BFE00B902E0641C022CF5DB1F
:1049600000BF022C01D1002517E006A93846FDF74B
:10497000D1FA00F0FF0809A95846FFF79FF800F0A8
:10498000FF090025B9F1000F01D145F00105B8F18B
:10499000000F01D145F0020500BFFF201649087243
:1049A000FF2115484172C1724FF6FF71C181FF218D
:1049B0008172017401210173BDF80C0000F04EF901
:1049C0009DF8140000F01AF8BDF8040000F0C0F9DA
:1049D000BDF8080000F0FEF9504600F049FA9DF8D5
:1049E0001000FFF76FF916B1012000F0EFF828462C
:1049F0000DB0BDE8F08F00002800002038B5044657
:104A00001E48807A10B94FF0FF3038BD022C06D016
:104A1000042C07D0082C08D0102C0CD108E0002062
:104A200000900BE00820009008E01020009005E0C6
:104A30001820009002E04FF0FF30E6E700BF0F487B
:104A4000407A9DF80010B0EBE10F01D10020DCE7C7
:104A50000A4A1268D179094A526810786B460122D5
:104A6000FDF743F810B14FF0FF30CEE79DF800009E
:104A7000C110024841720020C7E700002800002052
:104A800038B504465048807CA04201D1002038BD92
:104A9000002C46D04C4A126811794B4A5268107863
:104AA0006B460122FCF77BFF10B14FF0FF30EEE7C1
:104AB0009DF8000020F020000090434A1268117910
:104AC000414A526810786B460122FDF70EF810B18A
:104AD0004FF0FF30DBE70320FDF7DAFD0220009006
:104AE000394890F8220020B19DF8000040F0800085
:104AF0000090354890F8230020B19DF8000040F068
:104B000030000090304A1268117D2F4A52681078A8
:104B10006B460122FCF7E9FF002851D04FF0FF302F
:104B2000B5E7294A12681179274A526810786B460E
:104B30000122FCF734FF10B14FF0FF30A7E7224805
:104B4000807A00F0010028B19DF8000040F02000BC
:104B5000009004E09DF8000020F0200000901A4A28
:104B600012681179184A526810786B460122FCF7D6
:104B7000BCFF10B14FF0FF3089E70320FDF788FD3F
:104B8000114890F8220010B18020009001E0002030
:104B900000900D4890F8230020B19DF8000040F0EF
:104BA00030000090084A1268117D074A5268107858
:104BB0006B460122FCF799FF10B14FF0FF3066E71A
:104BC00001488474002062E72800002038B50446BC
:104BD000214890F82400A04201D1002038BD24B320
:104BE0001D4890F8250010B94FF0FF30F6E700207F
:104BF00000F0B2FA0020FFF743FF1749C88C00F01D
:104C0000E9F8002000901449496808786B460122B1
:104C10002321FCF76AFF01210F4880F824100120AE
:104C200000F09AFAFFF778FD13E0002000F094FA04
:104C30000948007C00900849496808786B460122C1
:104C40002321FCF752FF0021034880F82410FFF7CE
:104C500063FD0020C2E700002800002038B50446AC
:104C60001F48807A10B94FF0FF3038BDFA2C09D0B8
:104C7000B4F5FA7F09D0B4F57A7F09D0B4F5FA6FAC
:104C80000CD108E0002000900BE00820009008E024
:104C90001020009005E01820009002E04FF0FF3057
:104CA000E3E700BF0E48007A9DF80010B0EBE10F7B
:104CB00001D10020D9E70A4A12689179084A52685E
:104CC00010786B460122FCF710FF10B14FF0FF3057
:104CD000CBE79DF80000C010014908720020C4E72E
:104CE0002800002038B50446184890F82300A04258
:104CF00001D1002038BD14B13020009001E0002027
:104D000000901248807C20B19DF8000040F0020025
:104D100000900E4890F8220020B19DF8000040F06D
:104D200080000090094A1268117D084A5268107884
:104D30006B460122FCF7D9FE10B14FF0FF30D9E7E6
:104D4000024880F823400020D4E70000280000201B
:104D500038B504461E48807A10B94FF0FF3038BD90
:104D6000BC2C02DB0120009015E0622C02DB02204B
:104D7000009010E02A2C02DB032000900BE0142CA2
:104D800002DB0420009006E00A2C02DB05200090E4
:104D900001E0062000900E48C07A9DF8001088427D
:104DA00001D10020DBE70A4A12689178084A52686C
:104DB00010786B460122FCF798FE10B14FF0FF30DF
:104DC000CDE79DF800100248C1720020C7E700003F
:104DD0002800002038B504462448807A10B94FF0E6
:104DE000FF3038BD214890F8240010B14FF0FF305B
:104DF000F7E71E48007D50B134B1282C04DCE0B246
:104E0000FFF728FB0020ECE70020FFF723FB042C32
:104E100001DA042404E0B4F57A7F01DD4FF47A74FA
:104E20004FF47A7090FBF4F0401EC0B200900F4A2D
:104E3000126851780D4A526810786B460122FCF7CF
:104E400054FE10B14FF0FF30CBE79DF80000401C3E
:104E50004FF47A7191FBF0F081B20448C1810146B0
:104E6000C9894810FFF774FF0020BAE72800002026
:104E700038B5044604F0700010B10120009005E040
:104E800014B10020009001E0402000902B4A1268ED
:104E9000917C2A4A526810786B460122FCF725FE65
:104EA00020B1002125488172481E38BD9DF80000C0
:104EB00020F04001214801730020009004F04000E0
:104EC00020B99DF8000040F00400009004F020009C
:104ED00020B99DF8000040F00200009004F010009E
:104EE00020B99DF8000040F00100009004F0080097
:104EF00020B99DF8000040F0380000900F4A126879
:104F0000D17C0E4A526810786B460122FCF7EDFD09
:104F100020B1002109488172481EC6E724B1082C3F
:104F200002D00020FFF7DEFE0448847200210175E4
:104F30003220FDF7ADFB0020B7E70000280000207D
:104F4000F8B504460D46164616B94FF0FF30F8BDC9
:104F50001A48807A10B94FF0FF30F8E720128DF828
:104F60000000E0B28DF801009DF8010028441349CB
:104F700049684989884202DD4FF0FF30E7E70F4A70
:104F80001268117E0D4A526810786B460222FCF7B7
:104F9000ACFD10B14FF0FF30D9E7EAB2074B1B6808
:104FA000597D064B5B6818783346FCF79EFD10B1BF
:104FB0004FF0FF30CBE70020C9E7000028000020B9
:104FC00001460868704700002DE9F04FD1B0064651
:104FD0003548509018214AA8FBF7A8FF00240AE0A2
:104FE00006EB84204FF48071FCF72AFA4AAA02EB00
:104FF000C40203C2641C032CF2DB0020499003218D
:105000004AA8FCF735F94990499806EB802048906A
:105010002648479047994898FEF76CFADFF88C804D
:105020004FF480714046FDF76FFB0027204D0024B0
:1050300009E058F8270045F824000021601C45F8D5
:1050400020107F1CA41CFF2CF3DDDFF86090494684
:105050002846FCF7B5FFDFF858A01648164B4FF46A
:105060008072514600904846FEF76EFA4FF48A71FE
:1050700002A8FBF75BFF452202A9504600F0B4F8F6
:10508000CB460C480C4B45225946009002A8FEF72F
:10509000F5F90A4B0A4A45215846FCF773F9509036
:1050A000509851B0BDE8F08F6666A640040A002013
:1050B000040200200000A03FCDCC4C3E0000204266
:1050C0000000484170B588B002A905A8FFF708FCA8
:1050D0000446032C3ED101A8FFF708F8059802F01A
:1050E00011F90646019902F06DF9054602F0CEF875
:1050F0000590069802F006F90646019902F062F959
:10510000054602F0C3F80690079802F0FBF8064641
:10511000019902F057F9054602F0B8F8079005A882
:10512000FDF7FCFE6846FEF78DFFBDF80010029803
:1051300048430290BDF80010039848430390BDF81F
:10514000001004984843049002A8FDF717FE0020C1
:1051500008B070BD0120FBE738B50446214890F83F
:105160002400C0B114B10220009001E000200090A2
:105170001C4A1268D17B1B4A526810786B46012288
:10518000FCF7B3FC10B14FF0FF3038BD9DF80010B4
:105190001448417423E01348807A10B94FF0FF306F
:1051A000F3E724B10F48407C08B10020EDE714B1CB
:1051B0000120009001E0002000900A4A1268D17B93
:1051C000084A526810786B460122FCF78EFC10B139
:1051D0004FF0FF30D9E79DF80010024841740020DD
:1051E000D3E70000280000202DE9F04705460F46D0
:1051F0009046002602E047F82660761C4645FADB1A
:10520000002622E000241AE0621C55F8221055F80E
:10521000240002F0A3F811D2601C55F820A055F824
:10522000241045F8201045F824A057F8249057F88A
:10523000200047F82400601C47F82090641CA8EB6D
:105240000600401EA042DFDC761C4645DADB01206A
:10525000BDE8F0872DE9F04106460F4601F0B6FCA7
:10526000041E0D4618BF0120284320F00040C0F165
:105270007F6000F1E040C00F0ED0301C18BF01204D
:10528000384320F00040C0F17F6000F1E040C00FE3
:1052900004BF0120FBF7F1FE20462946BDE8F0815E
:1052A00070B5054602F096F9044620F00040C0F1C2
:1052B000FF40C00F08D025F00040C0F1FF40C00FF4
:1052C00004BF0120FBF7D9FE204670BD30B595B074
:1052D000054613AB12AA09A9284600F03FFA044676
:1052E00014B1204615B030BD0020149026E02249AC
:1052F00009689DF8502001EBC20113AB11AA486860
:1053000001A900F02BFA04460CB12046EAE709A9EE
:1053100001A800F0DDFC60B99DF844009DF848103C
:10532000884201DD0220DDE79DF8500012498875B2
:105330000AE09DF85000401CC0B214900E48007D59
:105340009DF850108842D2DC00BF0B48007D9DF8CC
:105350005010884201D10420C4E714A9284600F067
:10536000DDFA04460CB12046BCE79DF85000024926
:1053700048750020B6E70000C00000202DE9F0418C
:105380009AB09C48847D007DA04202DC1AB0BDE842
:10539000F0819849096801EBC40106AB07AA486887
:1053A00008A900F0DBF908A993A0FBF703FC00268D
:1053B00044E09048008B0121B1400840D8B122213F
:1053C0008FA0FBF7F7FB304600F02EFB8949243114
:1053D000471839468BA0FBF7EDFB222188A0FBF78D
:1053E000E9FB304600F020FB82492431084410A933
:1053F00041F8260018E0304600F016FB7D492431C4
:10540000085810A941F826007A48C07D30B910A884
:1054100050F826107CA0FBF7CDFB05E010A850F853
:1054200026107AA0FBF7C6FB9DF81C00401EB04278
:1054300002D078A0FBF7BEFB701CC6B29DF81C0022
:105440008642B6DB74A0FBF7B5FB00F03DFB694874
:10545000407D0B280DD2DFE800F0060D151E273227
:105460003F4E5F7287006349096851F834008047F6
:10547000054690E05F4A126852F834101098884749
:10548000054688E05B4B1B6853F83420DDE91001CA
:10549000904705467FE0574F3F6857F8343010A8D3
:1054A00007C89847054676E0DFF848C1DCF800C039
:1054B0005CF8347010A80FC8B84705466BE0149824
:1054C000DFF830C10090DCF800C05CF8347010A840
:1054D0000FC8B84705465EE0DDE91401DFF814C1E6
:1054E000CDE90001DCF800C05CF8347010A80FC8EA
:1054F000B84705464FE0DDE914121698DFF8F4C00E
:10550000CDE900120290DCF800C05CF8347010A8FD
:105510000FC8B84705463EE0DDE91423DDE9161063
:10552000DFF8D0C0CDE90023CDE90210DCF800C0DF
:105530005CF8347010A80FC8B84705462BE0DDE9C9
:105540001523DDE91710CDE90123CDE903101498E7
:10555000DFF8A0C00090DCF800C05CF8347010A840
:105560000FC8B847054616E0DDE91623DDE9181037
:10557000CDE90223CDE90410DDE91401DFF874C0A0
:10558000CDE90001DCF800C05CF8347010A80FC849
:10559000B847054600BF00BF00F056FA9DF8180056
:1055A00001280CD11348C07D20B929461BA0FBF768
:1055B00001FB07E029461BA0FBF7FCFA02E018A05C
:1055C000FBF7F8FA0B4890F8EC0088B10948D0F8DE
:1055D000F0000A21B0FBF1F201FB12070548D0F8F8
:1055E000F000B0FBF1F83A46414611A0FBF7E2FAB1
:1055F00000BFCBE6C00000200D0A25732800000084
:105600002563000025730000256C64003058255880
:10561000000000002C000000290000003D256C75F2
:105620003B0D0A003D305825583B0D0A0000000094
:1056300046756E6374696F6E2052756E2054696D85
:10564000653A25642E2531646D730D0A0000000053
:10565000F0B50346154600200022002600245BE03A
:105660001F782C2F01D104B901221F78292F01D0D6
:105670001F780FB904B950E0002E3AD11F78302FAF
:1056800002DB1F78392F17DD1F782D2F14D01F78DC
:105690002B2F11D01F78612F02DB1F78662F0BDDB7
:1056A0001F78412F02DB1F78462F05DD1F78582F0A
:1056B00002D01F78782F0CD102B12EE01F78612F15
:1056C00003DB1F78203F0F7001E01F780F70491C2B
:1056D0001FE01F78222F04D102B11EE00126012411
:1056E00017E01F78202F14D01F782C2F11D0FF2601
:1056F00013E01F78222F00D1002402B10DE044B145
:105700001F785C2F02D15B1C471CF8B21F780F700A
:10571000491C471CF8B25B1CA2E700BF00270F70B2
:105720002E70F0BD10B50446002010700BE02078FC
:105730000870641C491C1078401C10701078984246
:1057400001DB012010BD2078202802D0207800281D
:10575000EDD10020087000BFF4E700002DE9FF4FF5
:1057600085B08046894600270020049003900120E0
:1057700002904FF0000B002544461DE020782028C1
:1057800016D005F07F00052812DA0DB945F0800526
:1057900005F07F00042803D120782A2800D00EE0ED
:1057A000207805F07F010DF80100681CC5B202E009
:1057B000852D00D103E0641C20780028DED100BFD5
:1057C0008DB1002005F07F010DF8010051A1684660
:1057D00000F07EFA18B900210898017002E001215A
:1057E0000898017000254FF0000A444614E0641C3C
:1057F0000AF1010000F0FF0A2078202802D020786A
:105800002A2809D1204600F0D5F90646282E03D0D3
:105810002A2E01D0CDF810A02078282802D0207898
:105820000028E4D14446049810B10498401C044474
:105830004FF0000A002654E0207810B94FF0010A1A
:1058400050E02078282803D116B9781CC7B213E09D
:105850002078292808D13EB917B1781EC7B201E0D7
:105860004FF0010A47B93DE02078222804D10EB953
:10587000012000E00020064647B9207820282FD0DC
:10588000207889F8000009F1010929E020782C2806
:1058900004D101200290681CC5B214E020782028B1
:1058A00011D0207828280ED04DB9BBF1050F06DAAB
:1058B00020780DF80B000BF1010000F0FF0B0298AF
:1058C000401CC0B20290012F0AD10298022807D1D1
:1058D0000298401CC0B202900398401CC0B20390D2
:1058E000641CA9E700BF0398012809D100200DF826
:1058F0000B0008A1684600F0EBF908B900200390FE
:10590000079903980870002089F80000504609B0F4
:10591000BDE8F08F766F6964000000002DE9F04368
:10592000B5B005460F460024002604E000213D489E
:105930008155701CC6B20A2EF8DB06E06D1C287873
:1059400018B9012035B0BDE8F08328782828F5D1B2
:105950006D1C61E034AA69462846FFF779FE0646C9
:1059600035449DF8D00020B1012827D0FF284CD124
:1059700049E09DF8000000B333A9684600F025F91E
:1059800006460EB10220DDE7204600F04DF825491D
:105990000A31339A0A50A1F12400008B0121A14061
:1059A000884320491A39088304211E480155601C88
:1059B000C4B20A2C01DD0320C4E726E0684600F0EB
:1059C000A3F9401C00F0FF08204600F02DF815490F
:1059D0000A3100EB01094946684600F08AF911488E
:1059E0001A38018B0120A040014388B20D491A39B1
:1059F00008830C4800F80480601CC4B20A2C01DD46
:105A000003209FE701E002209CE700BF28782928B7
:105A100001D0287800B900E09CE700BF3C7000206E
:105A200090E70000DA00002002460020002105E097
:105A3000044B5B5C0344D8B24B1CD9B29142F7DBF8
:105A400070470000DA0000200D48008800F00100D7
:105A500040B10C48D0F8F0004FF6FF7108440949F6
:105A6000C1F8F0000748D0F8F00005491431098862
:105A700008440449C1F8F0000846D0F8F000704727
:105A800010080040C000002010B5044604EBC4001C
:105A900000EB04100122C2EB800081B24FF47A7057
:105AA000FCF748F901200149C87510BDC00000206D
:105AB00010B50246012000E050430B1EA1F1010485
:105AC000E1B2F9D110BD00000948008820F00100C2
:105AD000074908804FF6FF7005491C3108800020F7
