:020000040800F2
:1000000080760020A9020008AD020008AF020008B7
:10001000B1020008B3020008B502000800000000A9
:10002000000000000000000000000000B70200080F
:10003000B902000800000000BB020008BD02000871
:10004000BF020008BF020008BF020008BF0200088C
:10005000BF020008BF02000829260008BF020008EE
:10006000BF020008BF020008BF020008BF0200086C
:10007000BF020008BF020008BF020008BF0200085C
:10008000BF020008BF020008BF020008BF0200084C
:10009000BF020008BF020008BF020008BF0200083C
:1000A000BF020008BF020008BF020008BF0200082C
:1000B000BF020008BF020008A5300008BF02000808
:1000C000BF020008BF020008BF020008BF0200080C
:1000D000BF02000831310008BF020008BF0200085B
:1000E000BF020008BF020008BF02000800F002F8CB
:1000F00000F0CBF80AA090E8000C82448344AAF1F7
:100100000107DA4501D100F0C0F8AFF2090EBAE8F4
:100110000F0013F0010F18BFFB1A43F0010318473B
:10012000FCC800001CC900000A444FF0000C10F885
:10013000013B13F0070408BF10F8014B1D1108BF65
:1001400010F8015B641E05D010F8016B641E01F805
:10015000016BF9D113F0080F1EBF10F8014BAD1C55
:100160000C1B09D16D1E58BF01F801CBFAD505E073
:1001700014F8016B01F8016B6D1EF9D59142D6D3CD
:10018000704700000023002400250026103A28BFF5
:1001900078C1FBD8520728BF30C148BF0B607047F9
:1001A0004B1C012B98BF70472DE9F003911C9B0855
:1001B000B1F80480B1F802900A8831F802CC80448A
:1001C000814402448444D9F80070D8F8006015686E
:1001D000DCF80040C9F80060C8F80070CCF80050A6
:1001E0001460D9F80470D8F804605568DCF804404D
:1001F000C9F80460C8F80470CCF8045054600831A1
:100200005B1ED5D1BDE8F00370474B1C012B98BF96
:1002100070472DE9F003911C9B08B1F80480B1F8F8
:1002200002900A8831F802CC00EB580800EB59091B
:1002300000EB520200EB5C0CD9F80070D8F80060BB
:100240001568DCF80040C9F80060C8F80070CCF808
:100250000050146008315B1EDFD1BDE8F003704729
:10026000642901F0BB86752901F0B886782901F070
:10027000F186632902F02281732902F02781002090
:1002800070471FB51FBD10B510BD02F07BF91146B8
:10029000FFF7F7FF04F0BEFE02F099F903B4FFF791
:1002A000F2FF03BC03F009F808480047FEE7FEE749
:1002B000FEE7FEE7FEE7FEE7FEE7FEE7FEE7FEE716
:1002C00003480449024A044B70470000ED0000084F
:1002D000807400208076002080740020002A08BFEF
:1002E00070472DE9F04715460E4604464FF00008CA
:1002F00054F8047B54F8040B014608F05DFA81467B
:100300003946084608F058FA494608F055F8374685
:10031000361D10F1FF4F28BFC7F8008002D206F04B
:10032000B9F938606D1EE3D1BDE8F0872DE9FF4FC4
:10033000A3B06FF003022398239940680290896864
:10034000209123990988189102EB810108440390B8
:100350002698C0081F9000F084831898C008219048
:1003600024980168039801602498039950F8042F99
:1003700041F8042F50F8042F41F8042F50F8042FAF
:1003800041F8042F00220C920192139212921092C3
:100390000F920E920D92209D029C50F8042F41F86E
:1003A000042F50F8042F41F8042F50F8042F41F87F
:1003B000042F42684A60083108300391249054F8B1
:1003C000040B0B9054F804AB54F8040B089054F849
:1003D000049BDDF884B054F8048BBBF1000F54F893
:1003E000047B54F8046B00F0B28200BF55F8040B94
:1003F000009054F8040B0A9000990B9808F0DCF96F
:1004000011905046009908F0D7F91B900099089870
:1004100008F0D2F917904846009908F0CDF91A90E3
:100420004046009908F0C8F919903846009908F03C
:10043000C3F916903046009908F0BEF9159000995E
:100440000A9808F0B9F9149055F8040B009054F884
:10045000040B0B901199019807F0AEFF01901B99C6
:10046000139807F0A9FF13901799129807F0A4FFAB
:1004700012901A99109807F09FFF109019990F98F1
:1004800007F09AFF0F9016990E9807F095FF0E90BF
:1004900015990D9807F090FF0D9014990C9807F09E
:1004A0008BFF0C905046009908F086F91190009946
:1004B000089808F081F91B904846009908F07CF9EB
:1004C00017904046009908F077F91A90384600993D
:1004D00008F072F919903046009908F06DF91690FD
:1004E00000990A9808F068F9159000990B9808F09F
:1004F00063F9149055F8040B009054F804AB11996B
:10050000019807F059FF01901B99139807F054FFC9
:1005100013901799129807F04FFF12901A9910989C
:1005200007F04AFF109019990F9807F045FF0F90B8
:1005300016990E9807F040FF0E9015990D9807F048
:100540003BFF0D9014990C9807F036FF0C90009922
:10055000089808F031F911904846009908F02CF9F4
:100560001B904046009908F027F9179038460099EB
:1005700008F022F91A903046009908F01DF91990F8
:1005800000990A9808F018F9169000990B9808F04D
:1005900013F915905046009908F00EF9149055F88B
:1005A000040B009054F8040B08901199019807F07F
:1005B00003FF01901B99139807F0FEFE1390179903
:1005C000129807F0F9FE12901A99109807F0F4FEAD
:1005D000109019990F9807F0EFFE0F9016990E984A
:1005E00007F0EAFE0E9015990D9807F0E5FE0D90C4
:1005F00014990C9807F0E0FE0C904846009908F01A
:10060000DBF811904046009908F0D6F81B90384668
:10061000009908F0D1F817903046009908F0CCF80E
:100620001A9000990A9808F0C7F8199000990B9849
:1006300008F0C2F816905046009908F0BDF81590E1
:100640000099089808F0B8F8149055F8040B009039
:1006500054F8049B1199019807F0AEFE01901B9984
:10066000139807F0A9FE13901799129807F0A4FEAB
:1006700012901A99109807F09FFE109019990F98F0
:1006800007F09AFE0F9016990E9807F095FE0E90BF
:1006900015990D9807F090FE0D9014990C9807F09D
:1006A0008BFE0C904046009908F086F81190384671
:1006B000009908F081F81B903046009908F07CF80A
:1006C000179000990A9808F077F81A9000990B98FB
:1006D00008F072F819905046009908F06DF81690DD
:1006E0000099089808F068F815904846009908F0B5
:1006F00063F8149055F8040B009054F8048B11998A
:10070000019807F059FE01901B99139807F054FEC9
:1007100013901799129807F04FFE12901A9910989B
:1007200007F04AFE109019990F9807F045FE0F90B8
:1007300016990E9807F040FE0E9015990D9807F047
:100740003BFE0D9014990C9807F036FE0C9038463D
:10075000009908F031F811903046009908F02CF813
:100760001B9000990A9808F027F8179000990B98A9
:1007700008F022F81A905046009908F01DF81990D8
:100780000099089808F018F816904846009908F063
:1007900013F815904046009908F00EF8149055F89B
:1007A000040B009054F8047B1199019807F004FEA3
:1007B00001901B99139807F0FFFD13901799129859
:1007C00007F0FAFD12901A99109807F0F5FD1090B5
:1007D00019990F9807F0F0FD0F9016990E9807F0F1
:1007E000EBFD0E9015990D9807F0E6FD0D9014990C
:1007F0000C9807F0E1FD0C903046009907F0DCFF03
:10080000119000990A9807F0D7FF1B9000990B9858
:1008100007F0D2FF17905046009907F0CDFF1A90CD
:100820000099089807F0C8FF19904846009907F00A
:10083000C3FF16904046009907F0BEFF159038465A
:10084000009907F0B9FF149055F8040B009054F884
:10085000046B1199019807F0AFFD01901B99139853
:1008600007F0AAFD13901799129807F0A5FD1290B2
:100870001A99109807F0A0FD109019990F9807F099
:100880009BFD0F9016990E9807F096FD0E90159906
:100890000D9807F091FD0D9014990C9807F08CFDC0
:1008A0000C9000990A9807F087FF119000990B9817
:1008B00007F082FF1B905046009907F07DFF1790CC
:1008C0000099089807F078FF1A904846009907F0B9
:1008D00073FF19904046009907F06EFF1690384656
:1008E000009907F069FF15903046009907F064FF02
:1008F0001490ABF1010B1199019807F05DFD019087
:100900001B99139807F058FD13901799129807F048
:1009100053FD12901A99109807F04EFD10901999F6
:100920000F9807F049FD0F9016990E9807F044FDB7
:100930000E9015990D9807F03FFD0D9014990C98A5
:1009400007F03AFD0C90BBF1000F7FF44FAD189803
:1009500010F0070B63D000BF55F8040B009054F85B
:10096000040B0A9000990B9807F026FF119050464F
:10097000009907F021FF1B900099089807F01CFFD1
:1009800017904846009907F017FF1A9040460099C3
:1009900007F012FF19903846009907F00DFF1690E6
:1009A0003046009907F008FF159000990A9807F063
:1009B00003FFCDF82CA0DDF820A0CDF82090C14693
:1009C0001490B84637460A9E1199019807F0F4FC36
:1009D00001901B99139807F0EFFC13901799129848
:1009E00007F0EAFC12901A99109807F0E5FC1090B5
:1009F00019990F9807F0E0FC0F9016990E9807F0E0
:100A0000DBFC0E9015990D9807F0D6FC0D9014990B
:100A10000C9807F0D1FC0C90BBF1010B9CD1029813
:100A2000203002902599019808602598139940F884
:100A3000041F129940F8041F109940F8041F0F99E1
:100A400040F8041F0E9940F8041F0D9940F8041F48
:100A50000C994160083025901F98401E1F907FF42C
:100A60007FAC269810F0070850D024980025016824
:100A7000039801602498209E001D24900398029CF6
:100A8000001D0390DDF860903168206807F094FE47
:100A9000294607F091FC371D261D0546B9F10104D2
:100AA00029D0B4F1004F7DD2002C24DD361F3F1F2A
:100AB00014F0010F09D057F8041F56F8040F07F07F
:100AC0007BFE294607F078FC0546641013D0796850
:100AD000706807F071FE294607F06EFC054657F86E
:100AE000081F56F8080F07F067FE294607F064FC58
:100AF0000546641EEBD1259805602598001D2590BC
:100B00000298001D0290B8F10108AED123981899FF
:100B100040684C1EA30820D0B3F1004F56D2002BE2
:100B20001BDD029A01469C4652F8045B41F8045BC7
:100B300052F8045B41F8045B52F8085B41F8085B2B
:100B400052F8045C41F8045CBCF1010CECD1029950
:100B500000EB031001EB0311029114F0030104BF39
:100B600027B0BDE8F08FB1F1004F44D20029DCBFBF
:100B700027B0BDE8F08F031F029A121F11F0010F7A
:100B800003D052F8040F43F8040F480804BF27B0FD
:100B9000BDE8F08F5168596052F8081F43F8081FEC
:100BA000401E00E003E0F5D127B0BDE8F08F3968C2
:100BB000306807F001FE294607F0FEFB0546641E7B
:100BC00006F1040607F10407F1D194E702990968D8
:100BD00040F8041B029951F8042F40F8042B51F8F7
:100BE000042F40F8042B4A68083140F8042B029186
:100BF0005B1EEBD1B1E7029A126840F8042B029A0F
:100C0000121D0292491EF6D127B0BDE8F08F70B5D3
:100C100004460498218008448000011F1D461846A0
:100C2000A26001F03BFB656070BD00002DE9F34F51
:100C30009BB00C461B98008801EB80051B9940086F
:100C400004EB8006D1F804800590CDE90B5405EB48
:100C500080075FEA900900F00481236802936268CC
:100C60001792A2681A92E268159229680E91686834
:100C70000690A8681290E868119030681890726821
:100C80000792B2681692F2680392D7E900A0139017
:100C9000B86810901846D7F80CB007F08DFB44F8F0
:100CA000040B0699179807F087FB44F8040B129978
:100CB0001A9807F081FB44F8040B1199159807F076
:100CC0007BFB44F8040B0E99029807F005FF0E9089
:100CD0000699179807F000FF069012991A9807F0E6
:100CE000FBFE12901199159807F0F6FE11905146EF
:100CF000189807F061FB46F8040B1399079807F062
:100D00005BFB46F8040B1099169807F055FB46F864
:100D1000040B5946039807F04FFB46F8040B504666
:100D2000189907F0D9FE14900799139807F0D4FE8C
:100D300013901699109807F0CFFE1090584603991B
:100D400007F0CAFE824658F8040B019058F804BB1D
:100D500001990E9807F030FD03905946069807F068
:100D60002BFD02900199069807F026FD0690594642
:100D70000E9807F021FD0790DDE9021007F01CFB3B
:100D800045F8040BDDE9060107F0A6FE45F8040B63
:100D90005946149807F010FD03900199139807F035
:100DA0000BFD02905946139807F006FD0690019935
:100DB000149807F001FD8346DDE9021007F08CFE70
:100DC00047F8040B5946069807F0F6FA47F8040B63
:100DD00058F8040B019058F804BB0199129807F0D9
:100DE000EBFC03905946119807F0E6FC029001993C
:100DF000119807F0E1FC06905946129807F0DCFCC8
:100E00000790DDE9021007F0D7FA45F8040BDDE999
:100E1000060107F061FE45F8040B5946109807F0EB
:100E2000CBFC03905046019907F0C6FC0290504657
:100E3000594607F0C1FC83460199109807F0BCFCA5
:100E40008246DDE9021007F047FE47F8040B5146E1
:100E5000584607F0B1FA47F8040BB9F101097FF4DD
:100E6000FCAE1B980223059942680C9800F0F8FB31
:100E70001B980599022342680B981DB0BDE8F04FFE
:100E800000F0EEBB2DE9F34FA7B00F46279800887E
:100E9000400801EB800404EB800606EB8005189601
:100EA0001A95CDE91D412799A5F1040A0AEB80099D
:100EB0004968400806900A910420199006200E9176
:100EC0000D911590306801903868A4F1040BA6F1DB
:100ED00004080090019907F06FFA0290DDE9000123
:100EE00007F0FAFD03907068059078680190059905
:100EF00007F062FA00900599019807F0EDFD019066
:100F0000606810900146039807F056FA69680C91E2
:100F100007F0E2FD169020680F900146019807F057
:100F2000DBFD2968059107F047FA11900F990298A7
:100F300007F0D2FD059907F0CFFD149010990098A5
:100F400007F0CAFD0C9907F0C7FD0B9010990398A4
:100F500007F0C2FD0C9907F02FFA0C900F99019839
:100F600007F02AFA059907F0B7FD12900F99029839
:100F700007F022FA059907F01FFA47F8040B616899
:100F8000009807F019FA696807F016FA47F8040B99
:100F9000169844F8040B119844F8040B149846F87A
:100FA000040B0B9846F8040B0C9845F8040B1298A8
:100FB00045F8040B0A9901F108000D990A9001F116
:100FC00010000E990D9001F118000E900698801EE9
:100FD0004008209000F0C681306801903868009089
:100FE000019907F0E9F90290DDE9000107F074FDCD
:100FF00003907068059078680190059907F0DCF916
:1010000000900599019807F067FD019060680C90C9
:101010000146039807F0D0F96968109107F05CFD6C
:10102000169020680F900146019807F055FD296839
:10103000059107F0C1F911900F99029807F04CFD46
:10104000059907F049FD14900C99009807F044FDAC
:10105000109907F041FD0B900C99039807F03CFDA7
:10106000109907F0A9F90C900F99019807F0A4F9CD
:10107000059907F031FD12900F99029807F09CF93D
:10108000059907F099F947F8040B6168009807F093
:1010900093F9696807F090F947F8040B5AF8040CC3
:1010A00002905BF8040C0190029907F085F900901A
:1010B000DDE9010107F010FD0190DAF8000005906C
:1010C000DBF800000390059907F076F90290059986
:1010D000039807F001FD10900390D9F800000590E7
:1010E000D8F800001390059907F0F6FC22900199BA
:1010F00007F062F9269058F8041C1098109107F038
:10110000EBFC59F8041C0F9107F056F92390109945
:10111000009807F0E1FC0F9907F0DEFC249013998A
:10112000029807F0D9FC059907F0D6FC21900199A7
:10113000229807F0D1FC2290DDE90F0107F0CCFCEA
:10114000039907F0C9FC17901399029807F034F936
:10115000059907F031F9CBF80000ABF104011F91BC
:1011600058F8041C009807F027F959F8041C07F0F8
:1011700023F91F99ABF1080B08600A9800680190E9
:101180000A984168009108300A900199169807F072
:1011900013FB10900099119807F00EFB0F90019926
:1011A000119807F009FB03900099169807F004FBCB
:1011B0000290DDE90F1007F0FFF844F8040BDDE9B9
:1011C000021007F089FC44F8040B0099239807F0FB
:1011D000F3FA10900199269807F0EEFA0F90009913
:1011E000269807F0E9FA03900199239807F0E4FAAA
:1011F0000290DDE90F1007F06FFCA8F10401C8F8B8
:1012000000001C91DDE9021007F0D6F81C99A8F146
:10121000080808600D980D99006801900D984068C5
:101220000090199801EB80000D900199149807F037
:10123000C3FA109000990B9807F0BEFA0F9001992D
:101240000B9807F0B9FA03900099149807F0B4FAD4
:101250000290DDE90F1007F0AFF846F8040BDDE966
:10126000021007F039FC46F8040B2198019980F030
:10127000004007F0A1FA10900099249807F09CFA1A
:101280000F900199249807F097FA039000992198FC
:1012900007F092FA0290DDE90F1007F01DFCAAF1A9
:1012A0000401CAF800000991DDE9020107F014FC0D
:1012B0000999AAF1080A08600E98006801900E9832
:1012C0001599406800900E9800EB81000E900199EE
:1012D0000C9807F071FA10900099129807F06CFAC8
:1012E0000F900199129807F067FA039000990C98F3
:1012F00007F062FA0290DDE90F1007F05DF845F89B
:10130000040BDDE9021007F0E7FB45F8040B009938
:10131000179807F051FA10900199229807F04CFAAB
:101320000F900099229807F047FA039001991798B7
:1013300007F042FA0290DDE90F1007F0CDFBA9F1AA
:101340000401C9F800001B91DDE9021007F034F830
:101350001B99A9F1080908602098401E20907FF48D
:101360003BAE00BFD6F80080D7F800904146484613
:1013700007F022F802904146484607F0ADFB039083
:10138000D6F80490D7F804804946404607F014F890
:1013900000904946404607F09FFB019060680F901F
:1013A0000146039807F008F8D5F80490494607F07D
:1013B00093FB8346206809900146019807F08CFB57
:1013C0002968059106F0F8FF82460999029807F00E
:1013D00083FB059907F080FB80460F99009807F082
:1013E0007BFB494607F078FB0B900F99039807F0B9
:1013F00073FB494606F0E0FF0C900999019806F04E
:10140000DBFF059907F068FB81460999029806F011
:10141000D3FF059906F0D0FF38606168009806F0A8
:10142000CBFF696806F0C8FF78600A98D0E90070C1
:1014300000905846394607F0BFF910905046009981
:1014400007F0BAF90F905046394607F0B5F907464C
:101450005846009907F0B0F98246DDE90F1006F012
:10146000ABFF20605146384607F036FB60600D98B0
:10147000D0E900474046214607F09EF983463946A9
:101480000B9807F099F9824621460B9807F094F9DA
:1014900004464046394607F08FF9074651465846FC
:1014A00006F08AFF30603946204607F015FB706071
:1014B0000E98D0E9004621460C9807F07DF9804649
:1014C0004846314607F078F907464846214607F076
:1014D00073F9044631460C9807F06EF90646394612
:1014E000404606F069FF28603146204607F0F4FACE
:1014F000686027980423069942681E9800F0B0F8A7
:1015000027980423069942681D9800F0A9F82798A7
:10151000042306994268189800F0A2F827980699C3
:10152000042342681A9829B0BDE8F04F00F098B83B
:101530002DE9F0410588984617460C460646012AD3
:1015400018D1201DB5B1083815F0010F04D050F89E
:10155000081F81F00041016069080BD050F8082F86
:10156000491E82F0004240F8082B026882F00042D7
:101570000260F3D1B5F5807F1BD008DC102D13D0AD
:10158000202D16D0402D19D0802D0DD01CE0B5F5A2
:10159000007F13D0B5F5806F06D0B5F5006F08D089
:1015A000B5F5805F0AD00FE021463046FFF73EFBDD
:1015B0000AE021463046FFF765FC05E02946012395
:1015C0002046726800F04CF8B8F1000F04D0B189E1
:1015D0002046B268FEF7E4FD012F18BFBDE8F08198
:1015E000284607F0A1F801464FF07E5006F052FF62
:1015F0000646002D08BFBDE8F081083C15F0010F3C
:101600000CD03146A06807F0D7F8A060E0683146FA
:1016100080F0004007F0D0F8E06008346D0808BFA3
:10162000BDE8F0813146A06807F0C6F8A060E06828
:10163000314680F0004007F0BFF8E0603146206995
:1016400007F0BAF820616069314680F0004007F089
:10165000B3F8606110346D1EE4D1BDE8F081000084
:101660002DE9FF4FB3B00446349D2895ED080026C0
:1016700006EB050A0AEB050909EB050808EB050B63
:101680000BEB05004719229078192A9054F83B007B
:10169000039054F836000290039906F08DFE0090F6
:1016A000DDE9020107F018FA0990229854F8300099
:1016B000039054F83A000290039906F07DFE0590DD
:1016C000DDE9020107F008FA089054F837000390AA
:1016D00054F839000290039906F06EFE1590DDE98A
:1016E000020107F0F9F914902A9854F83000049098
:1016F00054F838000390049906F05EFE0290DDE98C
:10170000030107F0E9F913901599009807F0E4F93F
:1017100004901599009806F04FFE009002990598E4
:1017200007F0DAF915900299059806F045FE014692
:101730000590009806F040FE44F8360005990098A0
:1017400007F0CAF944F83B0004EBCB000D90406869
:1017500004EBC60B0390DBF804000290039906F03B
:101760002BFE0090DDE9020107F0B6F90690229801
:1017700004EBC00016904068039004EBCA000E9082
:1017800040680290039906F017FE0590DDE902011A
:1017900007F0A2F9079004EBC7001A904068039085
:1017A00004EBC900199040680290039906F004FE0A
:1017B0001090DDE9020107F08FF90F902A9804EBF1
:1017C000C00018904068039004EBC8001790406870
:1017D0000B90039906F0F0FD029003990B9807F027
:1017E0007BF912901099009807F076F90390109900
:1017F000009806F0E1FD00900299059807F06CF959
:1018000010900299059806F0D7FD014605900098C2
:1018100006F0D2FDCBF804000599009807F05CF9BA
:1018200001460D9841601099049806F0C5FD44F8F2
:1018300039001099049807F04FF944F837001599CA
:10184000039807F049F901461998416015990398E2
:1018500006F0B2FD01461A9841601399089807F006
:101860003BF9FE4F394606F0A7FF814613990898C9
:1018700006F0A2FD394606F09FFF089012990798DE
:1018800007F02AF9394606F097FF83461299079820
:1018900006F092FD394606F08FFF079049460998F9
:1018A00007F01AF904904946099806F085FD099059
:1018B0000899149807F010F913900899149806F0F5
:1018C0007BFD14905946069807F006F90390594697
:1018D000069806F071FD069007990F9807F0FCF83E
:1018E000814607990F9806F067FD834601460998DF
:1018F00006F062FD44F83A005946099807F0ECF802
:1019000001462A9844F830104946049806F054FDE0
:101910000146229844F830104946049807F0DCF854
:1019200044F838001499069807F0D6F801460E9846
:1019300041601499069806F03FFD014618984160F1
:101940001399039807F0C8F8014616984160139957
:10195000039806F031FD0146179841602898064427
:1019600034988642FFF484AE082D3CBF37B0BDE802
:10197000F08F00201D9001201B9036991D98359FF7
:1019800008441D90DDF874804200161857F838702E
:101990000E97359F810001EB000C57F832700C97C1
:1019A000359F0CEB0003184457F836702097359F8D
:1019B00057F831701997359F57F83C700B97359F42
:1019C00057F833702597359F57F830702997359F12
:1019D00007EBC8077F681797359F07EBC20207EB35
:1019E000C10152681A9207EBC60207EBC0005268A9
:1019F0001E924968189107EBCC011B9E49682791FC
:101A000007EBC3014968239140681C90771907EBE5
:101A1000050808EB050909EB050A0AEB050B0BEBBA
:101A20000500219028442A9054F83A00039054F875
:101A300036000290039906F0BFFC0090DDE9020138
:101A400007F04AF8099054F83B00039054F8370027
:101A50000290039906F0B0FC0590DDE9020107F061
:101A60003BF80890219854F83000039054F838005F
:101A70000290039906F0A0FC1590DDE9020107F041
:101A80002BF814902A9854F83000049054F8390038
:101A90000390049906F090FC0290DDE9030107F041
:101AA0001BF813901599009807F016F804901599F3
:101AB000009806F081FC00900299059807F00CF858
:101AC00015900299059806F077FC0146059000985C
:101AD00006F072FC44F836000599009806F0FCFF09
:101AE000059004EBCA002B904068039004EBC600FD
:101AF000169040680090039906F05EFC02900399EE
:101B0000009806F0E9FF069004EBCB002D904068AA
:101B1000039004EBC7002C9040680090039906F0F6
:101B20004BFC0D900399009806F0D6FF0790219882
:101B300004EBC0002F904068039004EBC8002E9087
:101B400040680090039906F037FC109003990098C4
:101B500006F0C2FF0F902A9804EBC0003090406856
:101B6000129004EBC900319040680390129906F07E
:101B700023FC00901299039806F0AEFF1290109982
:101B8000029806F0A9FF03901099029806F014FC41
:101B9000029000990D9806F09FFF109000990D9803
:101BA00006F00AFC0D901099049806F005FC0090D0
:101BB0001099049806F090FF04900D99029806F091
:101BC000FBFB0146169841600D99029806F084FFD0
:101BD0000D901599039806F07FFF029015990398D0
:101BE00006F0EAFB03900599199806F0E5FD1690BA
:101BF0000D99189806F0E0FD15900D99199806F0CA
:101C0000DBFD0D900599189806F0D6FD0590DDE9ED
:101C1000151006F0D1FB44F83A0005990D9806F02E
:101C20005BFF01462B98416000990C9806F0C4FDBB
:101C3000169002991A9806F0BFFD824602990C98F8
:101C400006F0BAFD0D9000991A9806F0B5FD0590C2
:101C50005146169806F0B0FB02E00000F304353F51
:101C600044F8380005990D9806F036FF01462E9885
:101C700041600499259806F09FFD824603992398B8
:101C800006F09AFD80460399259806F095FD0D9083
:101C90000499239806F090FD05904146504606F0C1
:101CA0008BFB0146219844F8301005990D9806F0F9
:101CB00013FF01462F9841601399089806F00CFF16
:101CC000844906F079FD80461399089806F074FB64
:101CD000804906F071FD82461299079806F0FCFED5
:101CE0007C4906F069FD02901299079806F064FBA2
:101CF000784906F061FD07904146099806F0ECFE30
:101D000004904146099806F057FB099051461498F3
:101D100006F0E2FE13905146149806F04DFB149025
:101D20000299069806F0D8FE03900299069806F0EC
:101D300043FB069007990F9806F0CEFE824607995E
:101D40000F9806F039FB80460146099806F034FBEF
:101D500000904146099806F0BFFE0990514604984C
:101D600006F02AFB08905146049806F0B5FE049050
:101D70001499069806F0B0FE80461499069806F06D
:101D80001BFB06901399039806F0A6FE0790139983
:101D9000039806F011FB039000990E9806F00CFDD5
:101DA00016904146179806F007FD824641460E9868
:101DB00006F002FD0D900099179806F0FDFC804694
:101DC0005146169806F0F8FA44F8370041460D9847
:101DD00006F082FE01462C9841600999299806F088
:101DE000EBFC824606991C9806F0E6FC80460699B4
:101DF000299806F0E1FC0D9009991C9806F0DCFC8E
:101E000007464146504606F0D7FA01462A9844F85C
:101E1000301039460D9806F05FFE0146309841605B
:101E200008990B9806F0C8FC80460799279806F099
:101E3000C3FC824607990B9806F0BEFC0D900899EA
:101E4000279806F0B9FC07465146404606F0B4FA1A
:101E500044F83B0039460D9806F03EFE01462D98A9
:101E600041600499209806F0A7FC834603991E98C8
:101E700006F0A2FC82460399209806F09DFC80465D
:101E800004991E9806F098FC07465146584606F0FD
:101E900093FA44F839003946404606F01DFE0146E3
:101EA000319841602898064434988642FFF4AEADDC
:101EB0001B98401C1B9085423FF65FAD36984FF64D
:101EC000FF7101EAC0003690072D3FF6CEAB37B068
:101ED000BDE8F08FF304353F704710B54C1084EA2D
:101EE000530404D54042C1F1000138BF491E1B42D2
:101EF00004D55242C3F1000338BF5B1E00F0F9F96C
:101F000014F0804F04D04042C1F1000138BF491E97
:101F100014F0004F04D05242C3F1000338BF5B1EDF
:101F200010BD00000FB4044910B503AA029800F0D8
:101F3000D1FA10BC5DF814FB6800002070B50446AF
:101F400085690068C10601D5302600E02026C0075B
:101F500007D070BDD4E9012130469047206A401C6B
:101F600020626D1EF6D570BD70B504468569007897
:101F7000C00707D170BDD4E9012120209047206A15
:101F8000401C20626D1EF6D570BD70B50C4605462E
:101F9000012A05D02878800600D5EA69002302E0EE
:101FA000012305E05B1C934202D2E05C0028F9D1DA
:101FB000A869E618C01AA861286A18442862284649
:101FC000FFF7BCFF04E0D5E9012114F8010B9047AD
:101FD000B442F8D32846FFF7C7FF70BD2DE9F041A2
:101FE0000646002410687529314616A510D0AFF3B7
:101FF0000080002802DA404213A507E031688A0712
:1020000001D512A502E0490704D511A5012401E07C
:10201000AFF3008000210A2206F1240709E0B0FB9B
:10202000F2FCB0FBF2F302FB1C003030785418468F
:10203000491C0028F3D123462A463046BDE8F0412A
:1020400000F0D9B9000000002D0000002B000000B6
:102050002000000070B504460D4621461068AFF31D
:1020600000802188090502D50F4A7A4402E00E4A11
:102070007A440E32002104F1240305E000F00F063B
:102080000009965D5E54491C0028F7D12078002392
:10209000000704D5702D02D009B102231132204669
:1020A000BDE8704000F0A7B93AA700002DE9F05F45
:1020B000894604464FF0000ADFF874B1FB44C0F8CB
:1020C00020A02046E1688847002874D0252806D043
:1020D000D4E901219047206A401C2062F1E70026E4
:1020E0005F462046E16888472028054607DB312DFA
:1020F00005D2781910F8200C08B10643F1E7B007B3
:1021000001D526F00406C4F81CA00027C4F818A0C6
:102110002A2D09D0284601F0C9F838B304EB870806
:10212000303DC8F8185019E059F8041B204604EB5C
:1021300087029161E1688847012F054618D1E0695F
:10214000002820DA26F020061DE0D8F8180000EB61
:10215000800005EB40003038C8F818002046E168E0
:102160008847054601F0A2F80028EED1012F0AD0D9
:102170002E2D08D12046E16888477F1C0546022F96
:1021800046F02006C4DBA069002803DA404246F08E
:102190000106A061F00701D026F010066C2D0BD0CF
:1021A000682D09D04C2D39D06A2D35D0742D35D0FD
:1021B0007A2D33D016E038E0E1682F462046884774
:1021C000B842054609D16C2F26D04FF48060E168F3
:1021D000064320468847054604E06C2F1AD04FF48A
:1021E000807006430DB3A5F14100192802D82035AF
:1021F00046F400664A462946204626604E46FEF7CB
:102200002FF880B101280BD0F61D26F0070000F151
:10221000080956E74020E4E78020D8E70020D6E709
:1022200006F104094DE7284652E7206ABDE8F09F11
:1022300010A7000040EA010310B59B070FD1042A44
:102240000DD310C808C9121F9C42F8D020BA19BA81
:10225000884201D9012010BD4FF0FF3010BD1AB1E6
:10226000D30703D0521C07E0002010BD10F8013B3B
:1022700011F8014B1B1B07D110F8013B11F8014B62
:102280001B1B01D1921EF1D1184610BD02F0FF03B5
:1022900043EA032242EA024200F030B94FF0000262
:1022A00000B5134694469646203922BFA0E80C504C
:1022B000A0E80C50B1F12001BFF4F7AF090728BF27
:1022C000A0E80C5048BF0CC05DF804EB890028BFA3
:1022D00040F8042B08BF704748BF20F8022B11F0CC
:1022E000804F18BF00F8012B704770477047704748
:1022F000704753EA020C00F069802DE9F04B4FF073
:102300000006002B1FBFB3FA83F503FA05F424FA85
:1023100005F65E4012BF1643B2FA82F502FA05F4E2
:10232000C5F120051EBF22FA05FC44EA0C04203545
:1023300056EA044C4FEA144418BF641C4FF00008DE
:102340004FF00009904271EB030C39D3002919BFFB
:10235000B1FA81F701FA07F6B0FA80F700FA07F64A
:10236000C7F120071EBF20FA07FC46EA0C062037FB
:10237000B6FBF4FCA7EB0507103F07F01F0BCBF1F2
:1023800020060CFA0BFB2CFA06F644BFB3460026D7
:10239000202FA4BF5E464FF0000B5BEA060C08BF7F
:1023A0004FF0010B19EB0B09ABFB027C48EB060865
:1023B000C01B06FB02CC0BFB03CC71EB0C01C1E78D
:1023C0000B46024641464846BDE8F08B13B54FF038
:1023D00000004FF00001AFF30080BDE81C407047E3
:1023E00010B500F0ABF8006810BD10B5044600F061
:1023F000A5F8046010BD2DE9F0470D4699469246B8
:10240000044600F124080168880604D5E06921F03B
:102410001001216000E00120A84201DD471B00E01F
:102420000027A1697A1902EB0900081AA061207837
:10243000C00602D42046FFF781FD002608E0D4E95B
:1024400001211AF806009047206A401C761C206281
:102450004E45F4DB2078C0060AD52046FFF76EFD16
:1024600006E0D4E9012130209047206A401C206218
:10247000381EA7F10107F4DC07E0D4E9012118F8C0
:1024800005009047206A401C2062281EA5F1010526
:10249000F3DC2046FFF768FD2078000602D5022015
:1024A000BDE8F0870120FBE710B5436913B1AFF336
:1024B000008001E0FFF769FD012010BD127800F1F6
:1024C00024010A7000224A700122EDE711684FF0E2
:1024D000FF32E9E7074B70B50D467B4400F037F853
:1024E0000446284600F046F810B14FF0FF3070BDAA
:1024F000204670BD4B2300004FF000020429C0F0BD
:10250000128010F0030C3FF4CBAECCF1040CBCF104
:10251000020F18BF00F8012BA8BF20F8022BA1EB77
:102520000C01FFF7BDBE5FEAC17C24BF00F8012BA0
:1025300000F8012B48BF00F8012B70470048704796
:102540002074002001694A1C02610878704700B5B8
:102550008FB0CDE901310021059105497944CDE9DC
:10256000031011466846FFF7A1FD0FB000BD000043
:10257000E5FFFFFF007B00F08000704700487047D8
:10258000207400207546FFF7F9FFAE460500694646
:10259000534620F00700854618B020B5FDF790FEA1
:1025A000BDE820404FF000064FF000074FF0000854
:1025B0004FF0000B21F00701AC46ACE8C009ACE8D5
:1025C000C009ACE8C009ACE8C0098D46704710B539
:1025D0000446AFF300802046BDE81040FDF75EBE24
:1025E0002DE9F05F81468B46D9E9005601240EE0C3
:1025F00009EBC4002A463346D0E90071384605F09D
:102600009DFC03D209EBC40060C8A246641C5C4573
:10261000EEDB022C01DD022402E0002C00DA0024B3
:102620005046BDE8F09F000010B50D4803F0B6FE1F
:102630000C49086009680C4A1068C21700EB9252F6
:102640009212A0EB8222094B43F822100648006840
:10265000401C0549086001200549086010BD0000C4
:10266000B80100200000002004000020B831002044
:102670001404014010B501220021084600F008F8BA
:10268000022306220321184600F06AFC10BD000058
:1026900070B504460B46CE1701EB9676C6F387005D
:1026A000CE1701EB9676B610A1EB8606B606350E70
:1026B0001C4B9B6943F001031A4EB3614FEAB633DA
:1026C00053F820300F26AE40B343174E46F8203063
:1026D000334653F8203004FA05F61E43124B43F8F4
:1026E0002060124B1B6801268E4033430F4E33602F
:1026F00002F0010343B10D4B0C331B6801268E40E1
:1027000033430A4E0C36336002F0020343B1074BE9
:1027100008331E6801238B401E43044B08331E60A0
:1027200070BD00000010024008000140000401409C
:102730002DE9F04F89B005460E4691469A46002491
:1027400000E0641C55F82400494606F001F8F8D36F
:1027500055F82400514606F0FBF8F2D3B44202DCEF
:1027600055F8247000E01E4F641C00E0641C55F80E
:102770002400494605F0ECFFF8D355F824005146F3
:1027800006F0E6F8F2D3B44202DC55F8248001E00A
:10279000DFF84C80404605F0E3FD4FF03332114B3B
:1027A000CDE9000105F0CCFACDE90401384605F089
:1027B000D7FD4FF066320C4BCDE9000105F0C0FAB1
:1027C000CDE90201DDE9042305F052F8CDE9060167
:1027D00005F01CF88346584609B0BDE8F08F0000AC
:1027E000000080BF3333D33F6666E63F2DE9F047F4
:1027F00088B08246894600200546064600210F46DD
:10280000884600240CE05AF8240005F0A9FD2A4669
:102810003346CDE9060105F02BF805460E46641C4B
:102820004C45F0DBA9F1010005F036FA02460B46F3
:10283000CDE906012846314605F0D6F805460E4694
:10284000002424E05AF8240005F08AFD2A46334685
:10285000CDE9000105F09AFCCDE904015AF8240005
:1028600005F07EFD2A463346CDE9000105F08EFCD9
:10287000CDE90201DDE9042305F062FA3A46434658
:10288000CDE9060104F0F4FF07468846641C4C4578
:10289000D8DB09F1010005F0FFF902460B46CDE94E
:1028A00006013846414605F09FF8074688463846F7
:1028B000414608B0BDE8F08701464906084A9269DA
:1028C00042F00102064B9A61064A526822F0E06229
:1028D000044B5A601A4652680A435A607047000017
:1028E00000100240000001401848806940F00800D4
:1028F000164988610846806940F0400088611448A4
:10290000006820F47000124908600846006840F42E
:10291000401008600E480C30006840F020000C4960
:102920000C3108600B48006820F470000949086009
:102930000846006840F44010086006480C30006803
:1029400040F0200003490C3108607047001002403D
:10295000000C0140001801402DE9F84F6B4602229F
:102960004121682000F0F1F99DF801009DF8001068
:1029700040EA01200FFA80FA504605F08DF98046B2
:1029800000220B4B05F030F806460A4A0A4B04F0C9
:102990006FFF044604F03AFF83460849584605F0A5
:1029A0000BFF044605F06CFE00B2BDE8F88F000096
:1029B00000407540A4703D0AD74342400000C84221
:1029C00010B500200E4908600E48006820F47040E1
:1029D0000C4908600846006840F440500860002038
:1029E0000949C1F8AC0100F011F801200449086060
:1029F00000F00CF800200449C1F8A80110BD000047
:102A0000A8812142040C01400080214210B502201F
:102A100001F040F810BD00000C48806940F008004B
:102A20000A4988610A48006820F47F400849086024
:102A30000846006840F44C500860054808300068BB
:102A400040F44060024908310860704700100240BD
:102A5000040C014010B500200E4908600E480068C3
:102A600020F470400C4908600846006840F440506B
:102A7000086001200949C1F8AC01FFF7C7FF012038
:102A800004490860FFF7C2FF00200449C1F8A8010B
:102A900010BD0000A8812142040C014000802142A9
:102AA00070B5054600241648006820F470401449AB
:102AB00008600846006840F400400860002614E002
:102AC000002010490860FFF7A1FF01200E49C1F85E
:102AD000A8016006040E0B487C38006808B1601C31
:102AE000C4B2FFF793FF701CC6B2082EE8DB15B91D
:102AF000FFF7B0FF01E0FFF763FF204670BD000065
:102B0000040C0140A88121420080214270B5044696
:102B10001248006820F470401049086008460068B8
:102B200040F44050086000200D490860002512E084
:102B3000E0090B49091D08606006040E01200949DF
:102B4000C1F8A801FFF762FF002005490860FFF700
:102B50005DFF681CC5B2082DEADB70BD040C0140A6
:102B6000A88121420080214210B50E48006820F45F
:102B700070400C4908600846006840F44050086006
:102B80000120094908600949C1F8A801FFF73EFF83
:102B9000002005490860FFF739FF00200349C1F80C
:102BA000A80110BD040C0140AC81214200802142EB
:102BB00010B50E48006820F470400C4908600846C3
:102BC000006840F440500860002009490860094945
:102BD000C1F8AC01FFF71AFF01200549086005495B
:102BE000C1F8AC01FFF712FF10BD0000040C01405A
:102BF000A88121420080214210B5002414480068B9
:102C000020F47040124908600846006840F4004013
:102C1000086001200F490860FFF7F8FE01200E4907
:102C2000C1F8A801FFF7F2FE07E0601CC4B2FA2C5D
:102C300003DDFFF7BDFF012010BD064880380068A6
:102C40000028F2D10349091F086000BFF4E7000023
:102C5000040C0140AC8121420080214210B529487A
:102C6000806940F00400274988612748006820F007
:102C70007040254908600846006840F040500860F0
:102C80000120FFF719FE002020490860FFF7C4FE6D
:102C900080216B2000F0DDF8642000F0DDFE0021D3
:102CA0006B2000F0D6F8032000F091F8002000F02F
:102CB00086F8322000F0B0F80021382000F0C9F882
:102CC00000216A2000F0C5F80021232000F0C1F89F
:102CD0008021372000F0BDF8752000F019F8044677
:102CE000682C0BD101216B2000F0B3F800216C207F
:102CF00000F0AFF8322000F08FF801E0012010BDA5
:102D00000020FCE70010024004080140BC01214201
:102D100070B50446FFF728FFD020FFF7F7FEFFF756
:102D20006BFF2046FFF7F2FEFFF766FFFFF71CFF81
:102D3000D120FFF7EBFEFFF75FFF0020FFF7B0FEAB
:102D40000546FFF735FF284670BD2DE9F0410646E0
:102D50000F4614461D46FFF707FF002141EA4601D2
:102D6000C8B2FFF7D3FEFFF747FF20B1FFF720FF00
:102D70000120BDE8F0813846FFF7C8FEFFF73CFFB1
:102D8000FFF7F2FE012101EB4601C8B2FFF7BEFEDC
:102D9000FFF732FF0DE0012C04D10020FFF780FE89
:102DA000287003E00120FFF77BFE2870601EC4B28C
:102DB0006D1C002CEFD1FFF7FBFE0020D9E710B50A
:102DC0000446E006010E1C2000F043F810BD10B5CB
:102DD0000446E006010E1B2000F03BF810BD70B564
:102DE00004460025BC2C01DB012510E0622C01DB30
:102DF00002250CE02A2C01DB032508E0142C01DB62
:102E0000042504E00A2C01DB052500E006252946FF
:102E10001A2000F01EF870BD70B50446B4F57A7F34
:102E200001DD4FF47A74042C00DA04244FF47A7034
:102E300090FBF4F0401EC5B22946192000F009F8B5
:102E40000546264604EBD671C1F34F00FFF7C7FFD6
:102E500070BD70B505460C46FFF786FED020FFF723
:102E600055FEFFF7C9FE18B1FFF7A2FE012070BDA5
:102E70002846FFF74BFEFFF7BFFE2046FFF746FE52
:102E8000FFF7BAFE18B1FFF793FE0120EFE7FFF757
:102E90008FFE0020EBE72DE9F04105460E46174670
:102EA0009846FFF761FE002141EA4501C8B2FFF7ED
:102EB0002DFEFFF7A1FE20B1FFF77AFE0120BDE84D
:102EC000F0813046FFF722FEFFF796FE00240CE06B
:102ED00018F80400FFF71AFEFFF78EFE18B1FFF78F
:102EE00067FE0120EBE7601CC4B2BC42F0DBFFF7D9
:102EF0005FFE0020E3E7000000B5002015490861EF
:102F0000C8601420486100208861C86108460068D4
:102F100040F001000860084640680F4908400D492C
:102F20004860084600680D4908400A49086008469C
:102F3000006820F4802008600846406820F4FE0005
:102F400048600020886000214FF0006000F058F8D1
:102F500000BD0000001002400000FFF8FFFFF6FE79
:102F60002DE9F0410746884614461D46284600F0E4
:102F700033F8C5F1040007FA00F60F20284100EAF3
:102F80000800064306F00F06E21704EBD262521166
:102F9000920002F1E022D2F800212146E31704EB6F
:102FA000D3635B11A4EB431C012303FA0CF31A4314
:102FB0002046E31704EBD3635B119B0003F1E0238E
:102FC000C3F800210348005D40EA06100149085596
:102FD000BDE8F08100E400E00146072323EA010296
:102FE0001202054B18684FF6FF031840034B1843B5
:102FF0001043014B186070470CED00E00000FA052B
:10300000024A0A400243024B1A60704780FFFF1FCA
:1030100008ED00E030B504460025FFF76DFF1F48BE
:10302000006840F480301D49086000BF1B480068FC
:10303000400C0028FAD04FF4806018494860A01E68
:10304000C4B20846406840EA844048600846406888
:1030500040F4803048601248006840F03200104967
:1030600008600E48006840F080700C49086000BF9E
:103070000A480068400E0028FAD00848406840F02E
:1030800002000649486005E004484068C0F387052F
:1030900005F00305022DF7D130BD000000100240FD
:1030A0000020024010B50C48008800F0010058B123
:1030B0000A490869804700200749143108804FF405
:1030C0007A7005491C3108800348008820F001000F
:1030D0000149088010BD000010080040C400002015
:1030E00070B505460C461048C06940F004000E4912
:1030F000C8610E480580001F04800C4820380088F5
:1031000040F0010009492039088008482C3800881F
:1031100040F0010005492C39088002231E220321BA
:103120000846FFF71DFF70BD001002402C0800404C
:103130001D49098801F0200111B31B49091D0988A7
:10314000C8B21A49098801F40041C9B91749098868
:1031500001F4804161B10A2803D00021134A118093
:1031600020E01249098841F40041104A118019E019
:103170000D2806D10D49098841F480410B4A118080
:1031800010E00A490988C1F30D01094A5054074962
:103190000988491C054A118011460988C72901DDA3
:1031A0000021118070470000003801406C000020B1
:1031B00058730020490050EAC12018BF04204A0D6E
:1031C00018BF40F0010040F2FF72B2EB515F08BF40
:1031D00040F00200012808BF052070472DE9F041AA
:1031E0004F1E00EBC7010446D1E9000115461E46FB
:1031F00037F006020DD02A46334604F0A1FD7F1EAB
:1032000004EBC703D3E9002304F032FB37F00602D6
:10321000F1D1022F25D0042F13D0062F18BFBDE8FF
:10322000F0812A46334604F08BFDD4E90A2304F0EA
:103230001FFB2A46334604F083FDD4E9082304F03B
:1032400017FB2A46334604F07BFDD4E9062304F03D
:103250000FFB2A46334604F073FDD4E9042304F03F
:1032600007FB2A46334604F06BFDD4E9022304F041
:10327000FFFA2A46334604F063FDD4E90023BDE893
:10328000F04104F0F5BA012205F0CDBC04F0F0BA2B
:10329000002213461046114604F0A6BB024A002045
:1032A000110705F0C0BC000001FDFFFF30380A28FF
:1032B00001D20120704700207047014600BF7047CF
:1032C0002DE9FE4F074688460026684601F048FB78
:1032D000002444E057F8240058F82410A0EB010A19
:1032E000BAF1000F01DB514601E0CAF100010846C6
:1032F00005F002FA83464FF08F4105F0CBF8814686
:103300005DF82400002105F087F918D05DF824103D
:10331000484605F0BFF882464FF07E5105F0DCFBD1
:10332000054600BF25F0004082460F48416A5046DE
:1033300005F00EFB12D20120A04006430EE00A4821
:10334000C169484605F004FA05D30748016A4846B2
:1033500005F0FEFA02D20120A0400643641C032CB3
:10336000B8DB3046BDE8FE8FDC8C000870B5044643
:103370000D46084803780848027821460748FEF7BA
:10338000D7F80748294602682046FCF7A7FF012026
:1033900070BD00004C000020480000208899000803
:1033A000440000202DE9F04D8D4F21F0004A86B0F9
:1033B00005460C46BA452ADBAAEB070028430AD08B
:1033C0008848824501DC1AD1CDB106B02846BDE857
:1033D000F04DFFF758BF844A844B284604F0B0FCF8
:1033E00007460E46824A834B2846214604F0A8FC35
:1033F00006B03A463346BDE8F04D04F039BA012034
:10340000FEF7F3FF06B0BDE8F04DFFF741BF7A4885
:10341000824542DABAF1795F0BDA2846FFF7CAFE35
:10342000042808BFFFF73AFF284606B02146BDE84A
:10343000F08D2A460B46104604F082FC8346024675
:103440006E480E460B4606217844FFF7C7FE5A46E3
:10345000334604F075FC804669488A465A4633462E
:1034600004217844FFF7BAFE5A46334604F068FC5C
:1034700000223B4604F0FCF902460B46404651460A
:1034800004F0B2FA2A46234604F05AFC06B02A4653
:103490002346BDE8F04D04F0EBB9284624F0004186
:1034A00000223D463B4604F07FFD4FF0FF3205F021
:1034B000BAFB0646024653480F460B46062178449F
:1034C000FFF78CFE32463B4604F03AFCCDE90001A2
:1034D0004D4832463B4604217844FFF77FFE324692
:1034E0003B4604F02DFC00222B4604F0C1F9834634
:1034F00002913046394603F0A7F8804643480D460E
:10350000504517DCDDE900015A46029B04F06CFAD5
:1035100042462B4604F014FC42462B4604F0A8F920
:10352000012205F080FB304A304B04F02FFE304A78
:10353000304B4CE04FF0000A52460B46404604F038
:1035400097F9CDE9031052462B461046194604F070
:10355000F7FB32463B4604F027FDDDE9033204F079
:1035600043FA06460F46DDE900015A46029B04F085
:103570003BFA8346009101223046394605F053FB61
:10358000194A1A4B04F010FD06460F460122404628
:10359000294605F048FB5A46009B04F0D1FB324611
:1035A0003B4604F0F3FD06460F46012250462946ED
:1035B00005F039FB0E4DDFF858802A46434604F0EB
:1035C000F3FC32463B4604F0EFFC2A46434604F047
:1035D000EBFC002CD8BF81F0004106B0BDE8F08DB7
:1035E0000000F03F0000F07F075C143326A6913CFA
:1035F000182D4454FB21F93F0000E03F9C9300004C
:10360000B2930000269300003C9300003333EF3F59
:10361000FB21E93F2DE9F84F04460D4621F000401B
:1036200000917349814211DC7249884201DC06D164
:103630002CB120462946BDE8F84FFFF724BE6E485E
:10364000002DCCBF6D496E49BDE8F88F6D498142B0
:1036500011DD6D498142D8BF4FF0FF366DDD204648
:103660002946FFF7A7FD042808BFFFF717FE2046ED
:103670002946BDE8F88F6549654F25F00045814230
:1036800033DD6449814219DD002632464FF0804324
:103690002046294604F0ECF880468A46012220465E
:1036A000294605F0C0FA00223B4604F06FFD424671
:1036B000534604F099F904460D463EE001260022E7
:1036C000BA463B462046294604F0D2F880460F46CB
:1036D000002253462046294604F058FD42463B4608
:1036E00004F082F904460D4627E04B4981421BDD78
:1036F000DFF828A10226002253462046294604F07E
:103700001FFB00223B4604F0B3F880460F46002220
:1037100053462046294604F039FD42463B4604F014
:1037200063F904460D4608E0032622462B46002096
:103730003B4904F059F904460D4622462B461046F3
:10374000194604F0FDFA8B46824602460B4604F009
:10375000F7FA07460246334888460B460621784466
:10376000FFF73CFD52465B4604F0EAFA82462E48DB
:103770008B463A46434605217844FFF72FFD3A46EB
:10378000434604F0DDFA02460B46002E50465946E9
:103790000CDA04F06DF822462B4604F0D1FA01B0A1
:1037A00022462B46BDE8F04F04F0FEBB04F060F863
:1037B00022462B4604F0C4FA1C4A7A4402EBC603A4
:1037C000D3E9002304F0E2FC22462B4604F0DEFCA1
:1037D000174A7A4402EBC603D3E9002304F0E4FB62
:1037E000009A002AB8BF81F00041BDE8F88F0000C0
:1037F000000010440000F07F182D4454FB21F93FD5
:10380000FB21F9BF0000DC3F0000203E0000F33F39
:103810000000F03F0000E63F008003400000F83F5A
:103820000000F0BF3E910000FC9000009A90000064
:10383000629000002DE9F04D9446CCF1000423F095
:1038400000464CEA0404524F46EAD4749A4688462D
:1038500021F00042BC4206D8454240EA050442EA53
:10386000D474BC4204D9BDE8F04D6246FFF70EBDEA
:10387000AAF14055A5F17F6555EA0C040BD002244E
:1038800004EAAA74434DDFF810E144EAD87452EA1E
:10389000000B04D00CE0BDE8F04DFFF7BBBE002CE0
:1038A00014BF012CBDE8F08D022C30D0032C32D097
:1038B00056EA0C0B0AD0BE4220D1BA4209D126F0FA
:1038C000804622F080423346114617E000291ADB79
:1038D00025E0DFF8C8B0FB44002C04BFDBE90001A1
:1038E000BDE8F08D012C02BFDBE9000181F0004151
:1038F000BDE8F08D022C0AD0032C0CD0BA4212D1B4
:10390000B8F1000F0BDA23482549BDE8F08D2846B1
:103910002449BDE8F08D28467146BDE8F08D1D486C
:103920002149BDE8F08D921B12153C2AC4BF1948ED
:103930001D490EDCBAF1000FBEBF12F13C0F002092
:10394000014606DB624604F04FF821F00041FFF724
:1039500061FE002C08BFBDE8F08D012C04BF81F092
:103960000041BDE8F08D114A114B022C07D004F044
:103970000DFC2A46BDE8F04D0A4B04F007BC04F0EC
:1039800005FC2A46BDE8F04D064B04F00DBB0000D7
:103990000000F07F182D4454FB2109C0F68F000071
:1039A000FB21F9BFFB210940FB21F93F075C1433E0
:1039B00026A6A13C2DE9F0410446E07800F0C006BF
:1039C000E07800F03F05607800F0010098B1EF105A
:1039D0002846E91705EB5171C910A5EBC101491C37
:1039E00001F0FF080B48006820B10A484146026810
:1039F0003846904700BF607800F0080030B10548B5
:103A0000406818B1B011034A516888470020BDE8EA
:103A1000F0810000B84100204FF0E021096921F059
:103A200004014FF0E0221161C21700EB5272C2F3A1
:103A3000C702074B1A701946097801EB4102C2EB25
:103A4000C1114FF6FF7202EAC101024A11807047AC
:103A5000640000206600002001460D4A12884A4397
:103A60004FF0E0235A6100229A6101221A6100BFDF
:103A70004FF0E022106900F001021AB100F4803228
:103A8000002AF5D000224FF0E0231A619A617047B6
:103A90006600002001460D4A12784A434FF0E023A9
:103AA0005A6100229A6101221A6100BF4FF0E022A0
:103AB000106900F001021AB100F48032002AF5D03A
:103AC00000224FF0E0231A619A61704764000020E1
:103AD0002DE9F04F97B081468A4600240020054624
:103AE000064600210F4688461491159112911391B4
:103AF00000BF00BF00BF00BF00BF36E0204604F09B
:103B0000CBF82A463346CDE9080103F0B1FE05465D
:103B10000E4659F8240004F023FC3A464346CDE90A
:103B2000080103F0A5FE07468846204604F0E4FDA0
:103B3000079059F8241004F03FFE834604F010FC6F
:103B4000CDE90801DDE9142303F092FECDE914016B
:103B500004FB04F004F0A0F8CDE90801DDE912232C
:103B600003F086FECDE91201641C5445C6DB2A46EB
:103B700033462846314604F0E3F8CDE904015046C7
:103B800004F08AF8CDE90001DDE9122304F0D8F849
:103B9000CDE90201DDE9042304F0F8FA3A46434690
:103BA000CDE908012846314604F0CAF8CDE9040100
:103BB000504604F071F8CDE90001DDE9142304F06A
:103BC000BFF8CDE90201DDE9042304F0DFFACDE915
:103BD0000601DDE9082303F007FFCDE90C0150469B
:103BE00004F05AF802460B46CDE908012846314652
:103BF00003F0FAFECDE91001504604F04DF80246FC
:103C00000B46CDE908013846414603F0EDFECDE90B
:103C10000E01DDE91023DDE90C0104F091F8CDE996
:103C20000801DDE90E2304F0BFF9CDE90A01002403
:103C30001AE0204604F030F8CDE90401DDE90C2358
:103C400004F07EF8CDE90601DDE90A2303F010FE59
:103C5000CDE9080103F0DAFD834659F8241004F099
:103C6000A8FE49F82400641C5445E2DB17B0BDE807
:103C7000F08F38B5044664B120208DF8000028206C
:103C80008DF8010030208DF8020038208DF80300F7
:103C900004E0A32204216846FEF7F8FA6A460421EC
:103CA00040F69E2002F036FB01F020FF38BD0000F8
:103CB0003EB5044602208DF80000CA208DF80100B0
:103CC000E3208DF8020009208DF803006A460421E4
:103CD000682002F01FFBA3208DF8000004F04000D4
:103CE00048B1C0208DF80100C8208DF80200C22024
:103CF0008DF8030006E0A3208DF801008DF8020086
:103D00008DF8030004F4C07048B1C4208DF804009D
:103D1000CC208DF80500C6208DF8060006E0A32013
:103D20008DF804008DF805008DF80600A3208DF8AD
:103D300007008DF808008DF809006A460A2140F650
:103D4000A72002F0E7FA04F0030018B120208DF854
:103D5000000002E0D8208DF800006A46012140F6FC
:103D6000B62002F0D7FA04F0200018B1012000F0CC
:103D7000ADF802E0002000F0A9F804F4C07008B328
:103D800004F4807060B1B2208DF800008B208DF8B3
:103D90000100B6208DF802009B208DF803000BE097
:103DA000B0208DF8000080208DF80100B4208DF83F
:103DB000020090208DF803006A46042140F6A220FC
:103DC00002F0A8FA04F0010020B3F8208DF80000FA
:103DD0006A4601214FF40B6002F09CFAFA21072099
:103DE00000F02CFC072000F0F3FB012000F013FC96
:103DF000642000F0F3FC4FF4FA7000F002FDC821DB
:103E0000304800F0A3FB282000F0BCFB0A2000F0A3
:103E1000CCFB08E0D8208DF800006A4601214FF461
:103E20000B6002F077FA04F0020018B1D9208DF887
:103E3000000002E0D8208DF800006A46012140F21F
:103E40003D7002F067FA04F0040018B1012000F0A0
:103E500069F802E0002000F065F804F0100018B1E5
:103E60000120FFF706FF02E00020FFF702FF44F009
:103E700008001549488101F039FE00201249887375
:103E800004F0400018B10846807B801D887304F45C
:103E9000C07020B10C48807B801D0B49887304F0F2
:103EA000140020B10848807B10300749887304F063
:103EB000030020B10448807B001D03498873002063
:103EC0003EBD000009E3CA02B84100203EB50446E9
:103ED0006CB10EA1D1E900208968CDE900200291E2
:103EE0006A4609214FF4976002F014FA3EBD0AA217
:103EF000D2E900109268CDE9010200916A460921D9
:103F00004FF4976002F006FAF0E70000B8AAB38D0C
:103F1000B4980D355D000000B8AAAAAAB088C3C540
:103F2000C700000038B5044664B1C0208DF8000019
:103F3000C2208DF80100C4208DF80200C6208DF843
:103F4000030004E08B2204216846FEF79FF96A46CD
:103F5000042140F6982002F0DDF901F0C7FD38BDDC
:103F600010B5C8234FF48062024940F6F63001F0E4
:103F7000FBFB10BD048D00082DE9F04F8DB0074606
:103F8000884615469946DDE9166B002400203080EE
:103F90006B49887B5A4605A901F008FD18B1601EDF
:103FA0000DB0BDE8F08F6648807A00F0140000285C
:103FB00067D09DF8140000069DF8151040EA0140F6
:103FC0009DF8161040EA01209DF81710084328605C
:103FD0009DF8180000069DF8191040EA01409DF870
:103FE0001A1040EA01209DF81B10084368609DF8F4
:103FF0001C0000069DF81D1040EA01409DF81E10AF
:1040000040EA01209DF81F100843A8609DF8200099
:1040100000069DF8211040EA01409DF8221040EA78
:1040200001209DF823100843E86004F11000C4B299
:10403000286800140190686800140290A8680014B1
:104040000390E8680014049001984043029901FB32
:104050000100039901FB0100049901FB010ABAF177
:10406000706F02DBBAF1885F05DD01F03FFD0020D3
:104070003080401E94E7B6F9000040F48070308034
:1040800000BF2F48807A00F0400020B305A9601CD3
:10409000085C095D40EA012000B2A8F8000005A90B
:1040A000E01C095C05AAA01C105C41EA002000B2DB
:1040B000A8F8020005A9601D095C201D105C41EAFA
:1040C000002000B2A8F80400A01DC4B2B6F9000098
:1040D00040F0080030801A48408900F4C07008B3EE
:1040E00005A9601C085C095D40EA012000B2388027
:1040F00005A9E01C095C05AAA01C105C41EA00208F
:1041000000B2788005A9601D095C201D105C41EAA1
:10411000002000B2B880A01DC4B2B6F9000040F083
:10412000700030800648807A00F0030018B105A9BD
:104130000819FFF73FFC484600F0A8FF00202FE7D2
:10414000B841002070B588B0064601A801F060F9BA
:10415000BDF804000021C90341EA5045C4034448A6
:10416000007A00F0030056F8200005904048007ADD
:1041700000F0040010B10598404205903C48007AD8
:10418000C0F3C10056F8200006903948007A00F0CC
:10419000200010B10698404206903548007AC0F3DE
:1041A000811056F8200007903148008900F4807093
:1041B00010B10798404207900598C117A0FB04234F
:1041C00001FB043100FB0510810041EA927005906B
:1041D0000698C117A0FB042301FB043100FB051066
:1041E000810041EA927006900798C117A0FB042352
:1041F00001FB043100FB0510810041EA9270079039
:104200000598000E8DF808000598000C8DF809003F
:104210000598000A8DF80A000598C0B28DF80B00C9
:104220000698000E8DF80C000698000C8DF80D0015
:104230000698000A8DF80E000698C0B28DF80F009F
:104240000798000E8DF810000798000C8DF81100EB
:104250000798000A8DF812000798C0B28DF8130075
:1042600002AA0C214FF4257002F054F808B070BD7A
:10427000B841002030B585B0044616A207CA02AB8B
:1042800007C3C82C03DD4FF0FF3005B030BDC82098
:1042900090FBF4F0401E85B2280A8DF80000E8B2C9
:1042A0008DF801006A46022140F2162002F032F831
:1042B00010B14FF0FF30E8E702AA0C2140F6C12010
:1042C00002F028F810B14FF0FF30DEE70448848197
:1042D0000020DAE7FEF2ABC4AAF1DFDFBBAFDFDF1D
:1042E000B84100201FB504464848007A00F003009A
:1042F00054F8200001904548007A00F0040010B105
:104300000198404201904148007AC0F3C10054F83E
:10431000200002903D48007A00F0200010B1029881
:10432000404202903948007AC0F3811054F82000CE
:1043300003903648008900F4807010B10398404221
:1043400003903349019880FB0101800F40EA81000E
:1043500001902F49029880FB0110820042EA91707F
:1043600002902B49039880FB0110820042EA917071
:1043700003900198000E8DF800000198000C8DF854
:1043800001000198000A8DF802000198C0B28DF872
:1043900003006A4604214FF4747001F0BBFF18B1AA
:1043A0004FF0FF3004B010BD0298000E8DF80000F1
:1043B0000298000C8DF801000298000A8DF80200A6
:1043C0000298C0B28DF803006A4604214FF475705C
:1043D00001F0A0FF10B14FF0FF30E3E70398000EAB
:1043E0008DF800000398000C8DF801000398000A76
:1043F0008DF802000398C0B28DF803006A460421CC
:104400004FF4767001F086FFCCE70000B841002041
:1044100009E3CA0210B586B0044647A000680390BD
:1044200046A00068029046A00068019045A0006880
:10443000009004F0030003A9085C8DF8140003A8A1
:10444000C4F3C101405C8DF8150003A8C4F38111C9
:10445000405C8DF8160004F0030002A9085C8DF89A
:10446000100002A8C4F3C101405C8DF8110002A83D
:10447000C4F38111405C8DF8120005AA032140F2BB
:10448000264001F047FF18B14FF0FF3006B010BDD5
:1044900004AA032140F22A4001F03CFF10B14FF082
:1044A000FF30F3E7019805900098049004F00400B1
:1044B00058B19DF8140040F001008DF814009DF8EB
:1044C000100040F001008DF8100004F0200058B1F9
:1044D0009DF8150040F001008DF815009DF81100C1
:1044E00040F001008DF8110004F4807058B19DF87F
:1044F000160040F001008DF816009DF8120040F003
:1045000001008DF8120005AA03214FF4886001F024
:1045100001FF10B14FF0FF30B8E704AA032140F2C9
:10452000314001F0F7FE10B14FF0FF30AEE7064822
:1045300004810020AAE700004CCD6C000CC92C00BF
:104540003656760026466600B8410020F8B5054686
:104550000E464FF47A7095FBF0F000FB06F4200E47
:104560008DF80000200C8DF80100200A8DF8020063
:10457000E0B28DF803006A4604214FF4AE7001F0FA
:10458000C9FEF8BD38B50446052094FBF0F084B2AE
:1045900020128DF80000E0B28DF801006A46022179
:1045A0004FF4AD7001F0B6FE38BD38B504460520B5
:1045B00094FBF0F084B220128DF80000E0B28DF888
:1045C00001006A4602214FF4AC7001F0A3FE38BD31
:1045D00038B504460020009004F0010020B19DF899
:1045E000000040F03000009004F0020020B19DF87F
:1045F000000040F00C00009004F0040020B19DF891
:10460000000040F0030000906A4601214FF4A470BE
:1046100001F080FE38BD38B50446012C01DA0124D2
:1046200002E0042C00DD0424601EC0B200906A4643
:10463000012140F24F1001F06DFE38BD2DE9FC471D
:1046400006460F4606F0070010B1B7F5C86F03DD48
:104650004FF0FF30BDE8FC87384604F065F881462E
:10466000594903F017FF8046684600F0ABFE9DF8FD
:104670000000022806D0042816D0082826D01028CA
:1046800048D135E04FF08D41404604F095F8814621
:1046900004F012F884B24D49404604F08DF881468A
:1046A00004F00AF885B238E04FF08C41404604F03F
:1046B00083F8814604F000F884B24549404604F08E
:1046C0007BF8814603F0F8FF85B226E04FF08B417E
:1046D000404604F071F8814603F0EEFF84B23D4994
:1046E000404604F069F8814603F0E6FF85B214E025
:1046F0004FF08A41404604F05FF8814603F0DCFF4A
:1047000084B23549404604F057F8814603F0D4FF9F
:1047100085B202E04FF0FF309CE700BF20128DF819
:104720000400E0B28DF8050028128DF80600E8B20A
:104730008DF8070006F00100A0B101AA02214FF494
:10474000EA7001F0E7FD10B14FF0FF3082E70DF1A4
:10475000060202214FF4927001F0DCFD10B14FF01F
:10476000FF3077E706F00200A0B101AA02214FF462
:10477000EC7001F0CFFD10B14FF0FF306AE70DF1A2
:10478000060202214FF4947001F0C4FD10B14FF005
:10479000FF305FE706F00400A0B101AA02214FF448
:1047A000EE7001F0B7FD10B14FF0FF3052E70DF1A0
:1047B000060202214FF4967001F0ACFD10B14FF0EB
:1047C000FF3047E7002045E700004843000040462F
:1047D0000000C045000040450000C04438B5044614
:1047E000052094FBF0F085B228128DF80000E8B2A5
:1047F0008DF801006A4602214FF4EF7001F08AFD46
:1048000038BD38B50446052094FBF0F085B2281277
:104810008DF80000E8B28DF801006A4602214FF4DD
:10482000ED7001F077FD38BD00BF054A128802F037
:104830004002002AF9D0C2B2014B1B1D1A807047FA
:10484000003801402DE9FE4F81460D4616469A4636
:10485000DDF830B0701E03F04FFF07465146584652
:1048600004F03AF98046394603F014FE0290002421
:104870001DE059F8240003F03FFF8046029903F041
:104880009BFF0746514603F097FD45F8240055F875
:10489000240003F065FD0022074BCDE9000103F081
:1048A0004FFA074602F0B2FF45F82400641CB442F8
:1048B000DFDB0120BDE8FE8F00004E402DE9FF4701
:1048C00006460F4601254FF4806AB046B9460E4BA6
:1048D0000E4A232101A80095FCF799F900240CE069
:1048E00004FB05F009EB800204FB05F008EB8001F6
:1048F0002B4601A8FBF71AFD641C5445F0D3012098
:1049000004B0BDE8F0870000CC720020FC980008DD
:104910002DE9F84F05460E4617469846DDF828B0B3
:10492000781E03F0E9FE0D49009003F0B3FD8146C7
:104930004146484603F040FF009003F0A1FE824646
:10494000002406E00AEB040055F8200046F8240095
:10495000641C412CF6DB0120BDE8F88F0000884183
:104960007CB5054628494968087801AB04220D2129
:10497000FEF7EBF908B107207CBD9DF80700C0F3F6
:1049800001109DF8041001F0E00140EAE1008DF80B
:1049900000009DF80700C0F381009DF8051001F0AC
:1049A000E00140EAE1008DF801009DF8070000F009
:1049B00003009DF8061001F0E00140EAE1008DF8E7
:1049C000020000241CE01DF8040018B9002045F87E
:1049D000240013E00D4845F8240006E055F82400B3
:1049E0000B4903F0E9FE45F824001DF80400401EC1
:1049F000C0B20DF804000028F0D100BF601CC4B2A2
:104A0000032CE0DB0020B7E7080000207B14AE3E5B
:104A10001D5A843F2DE9F04F87B005460C4691465C
:104A200001208DF8100000208DF81100FE4A126858
:104A3000917CFD4A5268107804AB0222FEF72BFAF3
:104A400020B14FF0FF3007B0BDE8F08FC820FFF76E
:104A500003F800208DF81000F34A1268D17BF24A67
:104A60005268107804AB0122FEF715FA10B14FF02E
:104A7000FF30E8E7EC4A12685179EB4A5268107847
:104A800004AB0122FEF707FA10B14FF0FF30DAE76E
:104A9000E54A1268917CE44A5268107804AB01221E
:104AA000FEF7F9F910B14FF0FF30CCE7DE4A12689B
:104AB000D17DDD4A5268107804AB0122FEF7EBF994
:104AC00010B14FF0FF30BEE7D74A12681179D64ACD
:104AD0005268107804AB0122FEF7DDF910B14FF0F7
:104AE000FF30B0E70C208DF81000CF4A1268117922
:104AF000CD4A5268107804AB0122FEF7CCF910B110
:104B00004FF0FF309FE70F20FEF7A6FFC648806AF0
:104B1000407A8DF81000C44A12689178C24A5268EF
:104B2000107804AB0122FEF7B6F910B14FF0FF3058
:104B300089E7BD48806A007A8DF81000BA4A126889
:104B40005178B94A5268107804AB0122FEF7A3F9F4
:104B500010B14FF0FF3076E7B9F1000F07D0B2483F
:104B6000806A807A40F0E0008DF8100004E0AE48E2
:104B7000806A807A8DF81000AB4A12689179AA4A4F
:104B80005268107804AB0122FEF785F910B14FF09E
:104B9000FF3058E7B9F1000F07D0A348806AC07A08
:104BA00040F0E0008DF8100003E0A048C07A8DF8D6
:104BB00010009D4A1268D1799B4A5268107804AB64
:104BC0000122FEF768F910B14FF0FF303BE7B9F171
:104BD000000F02D0C820FEF73FFF40208DF81000E4
:104BE000914A12681179904A5268107804AB0122F8
:104BF000FEF751F910B14FF0FF3024E778208DF81F
:104C00001000894A12685179874A5268107804ABBB
:104C10000122FEF740F910B14FF0FF3013E783494E
:104C20008889FEF719FF00208DF810007E4A12686F
:104C300051797D4A5268107804AB0122FEF72BF9B6
:104C400010B14FF0FF30FEE6774A1268917A764A4B
:104C50005268107804AB0222FEF777F810B14FF0DB
:104C6000FF30F0E69DF811009DF8101040EA012B8E
:104C70000C209BFBF0F0C6B20020A86068602860A2
:104C8000A06060602060824665E0674A1268D17A61
:104C9000654A5268107804AB0C22FEF756F810B142
:104CA0004FF0FF30CFE69DF811009DF8101040EA5C
:104CB000012000B2ADF808009DF813009DF8121015
:104CC00040EA012000B2ADF80A009DF815009DF8F9
:104CD000141040EA012000B2ADF80C00BDF9081034
:104CE000206808442060BDF90A10606808446060CC
:104CF000BDF90C10A0680844A0609DF817009DF84D
:104D0000161040EA012000B2ADF800009DF819002D
:104D10009DF8181040EA012000B2ADF802009DF89D
:104D20001B009DF81A1040EA012000B2ADF8040003
:104D3000BDF90010286808442860BDF902106868B1
:104D400008446860BDF90410A8680844A8600AF126
:104D5000010000F0FF0AB24597DB3448D0F800C0EC
:104D60002868C117090441EA10410704624600237C
:104D70003846FDF7B2F832460023CDE90201FDF7CF
:104D8000ACF828602948D0F800C06868C117090449
:104D900041EA10410704624600233846FDF79DF8BA
:104DA00032460023CDE90201FDF797F868601F48FD
:104DB000D0F800C0A868C117090441EA10410704EF
:104DC000624600233846FDF788F832460023CDE9D5
:104DD0000201FDF782F8A8601448D0F804C02168E9
:104DE000C817000440EA11480F0462460023384601
:104DF0004146FDF772F832460023CDE90201FDF786
:104E00006CF820600948D0F804C06068C117090434
:104E100041EA10410704624600233846FDF75DF879
:104E20003246002304E0000008000020DC8C00086B
:104E3000CDE90201FDF751F860601148D0F804C0D7
:104E4000A068C117090441EA104107046246002323
:104E50003846FDF742F832460023CDE90201FDF75E
:104E60003CF8A060A068002804DDA068A0F58030B0
:104E7000A06003E0A06800F58030A0600020E2E5BB
:104E8000DC8C00082DE9FC5F0746884600263F4978
:104E90004968087801AB03220D21FDF756FF10B1D8
:104EA0000720BDE8FC9F9DF8040000F01F008DF86E
:104EB00004009DF8050000F01F008DF805009DF826
:104EC000060000F01F008DF80600002459E057F896
:104ED000240058F82410A0EB010BBBF1000F01DBFC
:104EE000594601E0CBF10001084603F005FC4FF004
:104EF0008F41009003F0CEFA824601A8005D78B39E
:104F00002349086803F010FC83465946214803F002
:104F1000C1FA814604E02049484603F04DFC814631
:104F200001A8005D401EC0B201A908550028F2D1B9
:104F30004946504603F0AEFA83464FF07E5103F0E7
:104F4000CBFD054600BF25F000408346104881692F
:104F5000584603F0FDFC13D20120A04006430FE0A9
:104F6000FFE70B480169504603F0F2FB05D3084800
:104F70004169504603F0ECFC02D20120A0400643F8
:104F8000641C032CA3DB30468BE7000008000020E4
:104F9000DC8C000800B04C4554E3853F10B5044656
:104FA000204600F00FF80346E01C00F00BF843EA3F
:104FB000C00083B2A01D00F005F843EA801083B260
:104FC000184610BD014691F90020002A01DD00209D
:104FD0001EE091F90020002A01DA042018E091F97E
:104FE0000120002A01DD012012E091F90120002AB0
:104FF00001DA05200CE091F90220002A01DD0220EF
:1050000006E091F90220002A01DA062000E00720DC
:10501000704700000020184908601849C1F8940141
:105020000920FDF7F7FF4820FEF7F6FC1448416819
:1050300048208847FDF758FCFDF710FE00BF00F040
:1050400071F90028FBD1FDF715FB14E00D4800F0C5
:1050500057FC0D48006840280DD10748006808B982
:10506000012000E00020044908600A20FEF7F4FC5B
:10507000002005490860E9E79481214200002342AD
:10508000C4000020B801002060000020704700002C
:1050900070B50446002624F00104184890F8240056
:1050A00008B1002070BD1548807A10B94FF0FF306C
:1050B000F8E71248057C807A2040104908740846B9
:1050C000007CA04202D04FF0FF3600E0002614B969
:1050D0000A48007D18B1012001F038FA02E00020F2
:1050E00001F034FA3CB100F001FD20B10348057431
:1050F0004FF0FF30D6E73046D4E70000080000202C
:105100002DE9F04F99B004460D4616464FF07E57F4
:105110004FF000084FF000094FF0000A12A813A941
:1051200018AB0EAACDE9001014A916A8FEF724FFAB
:1051300018B1012019B0BDE8F08FBDF84C0000F4A3
:10514000807000287ED00E9803F0D6FA83464FF088
:105150009D4103F09FF907460F9803F0CDFA83466F
:105160004FF09D4103F096F98046109803F0C4FA81
:1051700083464FF09D4103F08DF98146119803F06D
:10518000BBFA83464FF09D4103F084F982463946CD
:105190004FF0804003F010FB4946059003F00CFBF4
:1051A000414607904FF0404003F006FB5146059002
:1051B00003F002FB0690079903F0FEF8834603F024
:1051C000CFF8CDE90801FEF7EDF84FF06632544B09
:1051D000CDE90A0102F0B4FDCDE90C0102F016FBA5
:1051E000206049464FF0804003F0E6FA49460290BD
:1051F00003F0E2FA414604904FF0404003F0DCFA3D
:105200004146029003F0D8FA0390049903F064FC3D
:1052100083464FF07E5103F0CFF8059003F0A0F8DD
:10522000CDE9080139464FF0804003F0C5FA414608
:10523000039003F0C1FA494604904FF0804003F018
:10524000BBFA00E068E05146039003F0B5FA8346EC
:10525000049903F0B1F8059003F082F8CDE9060156
:10526000DDE90823FEF7E6FA4FF066322C4BCDE974
:105270000A0102F065FDCDE90C0102F0C7FA2860D1
:105280005146504603F098FA49460490484603F0C8
:1052900093FA41460390404603F08EFA3946019056
:1052A000384603F089FA0090019903F085F80290DE
:1052B000039903F011FC8346049903F00DFC05905B
:1052C00003F04EF8CDE908015146384603F074FA70
:1052D00049460490404603F06FFA0390049903F0A6
:1052E0006BF84FF08041059003F066FA834603F0B7
:1052F00037F8CDE90601DDE90823FEF79BFA4FF008
:105300006632074BCDE90A0102F01AFDCDE90C0126
:1053100002F07CFA306001E002200BE7002009E790
:1053200066A64C4070B50024FDF776FB00F024F92A
:10533000002840D1782000F085FFC4B20CB10120D4
:1053400070BD7820FFF7A4FEC4B20CB10220F7E7CD
:10535000642000F029FFC4B20CB10320F0E7FEF78F
:10536000FFFDC4B20CB10420EAE71548FFF716FEB2
:105370000546FFF74FF8C4B20CB10520E0E740F254
:105380007310FEF795FCC4B20CB10620D8E7642078
:10539000FEF770FFC4B20CB10720D1E701F08CF822
:1053A00004460CB10820CBE7012000F0F9FDC4B29F
:1053B0001CB10920C4E70A20C2E70020C0E70000B2
:1053C0003400002001461148407A30B1012807D04E
:1053D000022808D003280CD108E0022008700BE056
:1053E0000420087008E00820087005E0102008700C
:1053F00002E04FF0FF30704700BF0448C07C18B196
:1054000008784006000E08700020F4E7080000202D
:1054100001461348407A30B1012808D002280AD04A
:10542000032810D10BE04FF4804008800EE041F6D5
:105430009C7008800AE04FF48050088006E04FF42A
:105440000060088002E04FF0FF30704700BF044862
:10545000C07C10B10888401008800020F5E70000EB
:105460000800002001460248007C087000207047B8
:105470000800002001460F48007A30B1012807D00B
:10548000022809D003280FD10AE0FA2008800EE094
:105490004FF4FA7008800AE04FF47A70088006E052
:1054A0004FF4FA60088002E00020088000BF00BFCF
:1054B000002070470800002001460E48007A30B1F5
:1054C000012807D0022808D003280CD108E00A4898
:1054D00008600BE00948086008E00948086005E03A
:1054E0000848086002E04FF0FF30704700BF00201E
:1054F000FBE7000008000020000003430000834297
:10550000333303423333834101461248C07A0828BB
:1055100017D2DFE800F01704070A0D101318BC209B
:10552000088013E06220088010E02A2008800DE047
:10553000142008800AE00A20088007E0052008807F
:1055400004E000BF00BF0020088000BF00BF0020B3
:1055500070470000080000200146064890F824002B
:1055600010B14FF0FF3070470248C089088000201A
:10557000F9E70000080000201CB580208DF800002D
:10558000654A1268917C644A526810786B46012221
:10559000FDF781FC10B14FF0FF301CBD6420FEF719
:1055A0005BFA00208DF800005B4A1268917C5A4A31
:1055B000526810786B460122FDF76DFC10B14FF078
:1055C000FF30EAE7544A1268917D534A52681078D6
:1055D0006B460622FDF7B9FB10B14FF0FF30DCE758
:1055E0009DF80500C007400F9DF8031001F0010170
:1055F00040EA41009DF8011001F0010140EA010478
:1056000094B1012C03D101214348C17431E0022C33
:1056100003D100214048C1742BE021463FA0FCF794
:1056200081FC4FF0FF30B8E73B4A1268D1783A4A24
:10563000526810786B460122FDF787FB10B14FF0DE
:10564000FF30AAE79DF8000000F00F042CB93D4898
:10565000FCF768FC4FF0FF309FE7042C06D13AA01E
:10566000FCF760FC01212C48C17402E000212A48AB
:10567000C174FF2128488172FF2027490872FF2149
:1056800025484172C1724FF6FF71C181FF2101743B
:1056900081740121017380F82210002180F8231009
:1056A000417501751630016041608160163880F8DF
:1056B000241080F82510C1844FF4FA6000F0B8FC83
:1056C00010B14FF0FF3068E7022000F081FB10B10D
:1056D0004FF0FF3061E72A2000F024FD10B14FF0B9
:1056E000FF305AE7322000F05FFD10B14FF0FF307D
:1056F00053E70020FFF7CCFC10B14FF0FF304CE730
:10570000002000F0A7FB10B14FF0FF3045E700206C
:1057100000F098FD002040E708000020556E7375EA
:1057200070706F7274656420736F667477617265F0
:105730002070726F64756374207265762025642E04
:105740000A000000D8C8000848616C662073656EC6
:105750007369746976697479207061727420666FF8
:10576000756E642E0A0000002DE9F04385B00546F1
:105770000E4690469946294890F8250020B14FF0F2
:10578000FF3005B0BDE8F08316B94FF0FF30F8E701
:10579000002423E0281B102801DD102000E0281B36
:1057A00087B232193946204600F0B4FD10B14FF0EF
:1057B000FF30E6E701AA3946204600F057F910B15C
:1057C0004FF0FF30DDE730193A4601A9FCF732FD12
:1057D00010B16FF00100D4E7E01984B2AC42D9DB1C
:1057E0004FEA28208DF8000008F0FF008DF8010036
:1057F0000A4A1268917E094A526810786B46022262
:10580000FDF749FB10B14FF0FF30BAE70121034823
:1058100080F82510A0F826900020B2E708000020AC
:1058200038B50446282C02DD4FF0FF3038BDDCB916
:10583000002000F041FC00208DF8000007208DF8CA
:1058400001002E4A1268917C2C4A526810786B46EF
:105850000222FDF720FB10B14FF0FF30E6E70021F8
:10586000264801750020E1E7012000F025FC2020FA
:105870008DF80000012C06D100208DF801000520D4
:1058800000F050FC17E0052C06DC01208DF801002B
:10589000052000F047FC0EE0142C06DC02208DF8F9
:1058A00001000A2000F03EFC05E003208DF8010015
:1058B000142000F037FC9DF80100072101EB801057
:1058C000C0B28DF801000D4A1268917C0B4A5268F3
:1058D00010786B460222FDF7DEFA10B14FF0FF3070
:1058E000A4E7082105488172002101730121017597
:1058F0000020FFF7CDFB002098E700000800002003
:1059000070B50446234A24492448FFF7F9FB0028D0
:105910003DD123480078401C214908700846007892
:10592000052832D10020087000250FE0012609E08B
:1059300004EB053050F8261004EB0532701E42F8D7
:105940002010761CB6F5806FF2DB6D1C032DEDDBAD
:1059500012480068C4F8FC0F0E48016841F6FC705C
:1059600001510D48016842F6FC7001510D48006874
:10597000401C0C4908600C48006808B9012000E090
:10598000002009490860012070BD0220FCE70020CA
:10599000FAE70000580000205400002050000020CA
:1059A0005C0000206000002094012342F8B504460A
:1059B0000F4616462C4890F8240010B94FF0FF30DF
:1059C000F8BD2948807A10B94FF0FF30F8E7264A31
:1059D0001268917A244A526810786B460222FDF7C9
:1059E000B4F910B14FF0FF30EAE79DF801009DF8DF
:1059F000001040EA0125A54203DA00203070401E65
:105A0000DEE7194840684088B5EB600F17DD164A9D
:105A10001268517C144A526810786B460122FDF7D7
:105A200094F910B14FF0FF30CAE79DF8000000F084
:105A3000100020B100F05AF86FF00100C0E7E2B2A8
:105A4000094B1B68D97A084B5B6818783B46FDF711
:105A50007CF910B14FF0FF30B2E795FBF4F0401E37
:105A600030700020ACE7000008000020F8B50446C4
:105A70000D46164616B94FF0FF30F8BD1A48807A29
:105A800010B94FF0FF30F8E720128DF80000E0B2B7
:105A90008DF801009DF8010028441349496849899F
:105AA000884202DD4FF0FF30E7E70F4A1268117EAF
:105AB0000D4A526810786B460222FDF7ECF910B1DE
:105AC0004FF0FF30D9E7EAB2074B1B68597D064B10
:105AD0005B6818783346FDF738F910B14FF0FF30A6
