:020000040800F2
:1000000028350020A9020008AD020008AF02000850
:10001000B1020008B3020008B502000800000000A9
:10002000000000000000000000000000B70200080F
:10003000B902000800000000BB020008BD02000871
:10004000BF020008BF020008BF020008BF0200088C
:10005000BF020008BF020008E11C0008BF02000840
:10006000BF020008BF020008BF020008BF0200086C
:10007000BF020008BF020008BF020008BF0200085C
:10008000BF020008BF020008BF020008BF0200084C
:10009000BF020008BF020008BF020008BF0200083C
:1000A000BF020008BF020008BF020008BF0200082C
:1000B000BF020008BF020008D1250008BF020008E7
:1000C000BF020008BF020008BF020008BF0200080C
:1000D000BF0200085D260008BF020008BF0200083A
:1000E000BF020008BF020008BF02000800F002F8CB
:1000F00000F0CBF80AA090E8000C82448344AAF1F7
:100100000107DA4501D100F0C0F8AFF2090EBAE8F4
:100110000F0013F0010F18BFFB1A43F0010318473B
:1001200034B8000054B800000A444FF0000C10F836
:10013000013B13F0070408BF10F8014B1D1108BF65
:1001400010F8015B641E05D010F8016B641E01F805
:10015000016BF9D113F0080F1EBF10F8014BAD1C55
:100160000C1B09D16D1E58BF01F801CBFAD505E073
:1001700014F8016B01F8016B6D1EF9D59142D6D3CD
:10018000704700000023002400250026103A28BFF5
:1001900078C1FBD8520728BF30C148BF0B607047F9
:1001A0004B1C012B98BF70472DE9F003911C9B0855
:1001B000B1F80480B1F802900A8831F802CC80448A
:1001C000814402448444D9F80070D8F8006015686E
:1001D000DCF80040C9F80060C8F80070CCF80050A6
:1001E0001460D9F80470D8F804605568DCF804404D
:1001F000C9F80460C8F80470CCF8045054600831A1
:100200005B1ED5D1BDE8F00370474B1C012B98BF96
:1002100070472DE9F003911C9B08B1F80480B1F8F8
:1002200002900A8831F802CC00EB580800EB59091B
:1002300000EB520200EB5C0CD9F80070D8F80060BB
:100240001568DCF80040C9F80060C8F80070CCF808
:100250000050146008315B1EDFD1BDE8F003704729
:10026000642901F03B82752901F03882782901F078
:100270007182632901F0A284732901F0A784002010
:1002800070471FB51FBD10B510BD01F0FBFC114636
:10029000FFF7F7FF03F0F4FF01F019FD03B4FFF7D8
:1002A000F2FF03BC02F09FFA08480047FEE7FEE7B2
:1002B000FEE7FEE7FEE7FEE7FEE7FEE7FEE7FEE716
:1002C00003480449024A044B70470000ED0000084F
:1002D000283300202835002028330020002A08BFBA
:1002E00070472DE9F04715460E4604464FF00008CA
:1002F00054F8047B54F8040B014607F04BFA81468E
:100300003946084607F046FA494607F043F83746AB
:10031000361D10F1FF4F28BFC7F8008002D205F04C
:1003200025FA38606D1EE3D1BDE8F0872DE9F34F63
:100330009BB00C461B98008801EB80051B99400878
:1003400004EB8006D1F804800590CDE90B5405EB51
:1003500080075FEA900900F00481236802936268D5
:100360001792A2681A92E268159229680E9168683D
:100370000690A8681290E86811903068189072682A
:100380000792B2681692F2680392D7E900A0139020
:10039000B86810901846D7F80CB006F0FBFF44F888
:1003A000040B0699179806F0F5FF44F8040B129910
:1003B0001A9806F0EFFF44F8040B1199159806F00F
:1003C000E9FF44F8040B0E99029807F069FB0E90C0
:1003D0000699179807F064FB069012991A9807F08F
:1003E0005FFB12901199159807F05AFB1190514636
:1003F000189806F0CFFF46F8040B1399079806F0FB
:10040000C9FF46F8040B1099169806F0C3FF46F88A
:10041000040B5946039806F0BDFF46F8040B5046FE
:10042000189907F03DFB14900799139807F038FBD3
:1004300013901699109807F033FB109058460399C3
:1004400007F02EFB824658F8040B019058F804BBC5
:1004500001990E9807F09EF903905946069807F007
:1004600099F902900199069807F094F90690594677
:100470000E9807F08FF90790DDE9021006F08AFF69
:1004800045F8040BDDE9060107F00AFB45F8040B0B
:100490005946149807F07EF903900199139807F0D4
:1004A00079F902905946139807F074F9069001996A
:1004B000149807F06FF98346DDE9021007F0F0FAAF
:1004C00047F8040B5946069806F064FF47F8040BFA
:1004D00058F8040B019058F804BB0199129807F0E2
:1004E00059F903905946119807F054F9029001996F
:1004F000119807F04FF906905946129807F04AF9FB
:100500000790DDE9021006F045FF45F8040BDDE930
:10051000060107F0C5FA45F8040B5946109807F094
:1005200039F903905046019907F034F9029050468A
:10053000594607F02FF983460199109807F02AF9D8
:100540008246DDE9021007F0ABFA47F8040B51468A
:10055000584606F01FFF47F8040BB9F101097FF474
:10056000FCAE1B980223059942680C9800F0F8FB3A
:100570001B980599022342680B981DB0BDE8F04F07
:1005800000F0EEBB2DE9F34FA7B00F462798008887
:10059000400801EB800404EB800606EB800518960A
:1005A0001A95CDE91D412799A5F1040A0AEB8009A6
:1005B0004968400806900A910420199006200E917F
:1005C0000D911590306801903868A4F1040BA6F1E4
:1005D00004080090019906F0DDFE0290DDE90001BB
:1005E00007F05EFA039070680590786801900599AD
:1005F00006F0D0FE00900599019807F051FA01909D
:10060000606810900146039806F0C4FE69680C917A
:1006100007F046FA169020680F900146019807F0FF
:100620003FFA2968059106F0B5FE11900F990298DE
:1006300007F036FA059907F033FA149010990098EC
:1006400007F02EFA0C9907F02BFA0B9010990398EB
:1006500007F026FA0C9906F09DFE0C900F99019870
:1006600006F098FE059907F01BFA12900F99029870
:1006700006F090FE059906F08DFE47F8040B6168C0
:10068000009806F087FE696806F084FE47F8040BC0
:10069000169844F8040B119844F8040B149846F883
:1006A000040B0B9846F8040B0C9845F8040B1298B1
:1006B00045F8040B0A9901F108000D990A9001F11F
:1006C00010000E990D9001F118000E900698801EF2
:1006D0004008209000F0C681306801903868009092
:1006E000019906F057FE0290DDE9000107F0D8F904
:1006F00003907068059078680190059906F04AFEAD
:1007000000900599019807F0CBF9019060680C9072
:100710000146039806F03EFE6968109107F0C0F9A3
:10072000169020680F900146019807F0B9F92968E2
:10073000059106F02FFE11900F99029807F0B0F97D
:10074000059907F0ADF914900C99009807F0A8F9F5
:10075000109907F0A5F90B900C99039807F0A0F9F0
:10076000109906F017FE0C900F99019806F012FEF2
:10077000059907F095F912900F99029806F00AFE74
:10078000059906F007FE47F8040B6168009806F02B
:1007900001FE696806F0FEFD47F8040B5AF8040CE8
:1007A00002905BF8040C0190029906F0F3FD0090B2
:1007B000DDE9010107F074F90190DAF80000059015
:1007C000DBF800000390059906F0E4FD029005991E
:1007D000039807F065F910900390D9F80000059090
:1007E000D8F800001390059907F05AF92290019962
:1007F00006F0D0FD269058F8041C1098109107F0D0
:100800004FF959F8041C0F9106F0C4FD239010997C
:10081000009807F045F90F9907F042F924901399D1
:10082000029807F03DF9059907F03AF921900199EE
:10083000229807F035F92290DDE90F0107F030F931
:10084000039907F02DF917901399029806F0A2FD6D
:10085000059906F09FFDCBF80000ABF104011F9154
:1008600058F8041C009806F095FD59F8041C06F091
:1008700091FD1F99ABF1080B08600A980068019080
:100880000A984168009108300A900199169806F07C
:1008900081FF10900099119806F07CFF0F9001994C
:1008A000119806F077FF03900099169806F072FFF2
:1008B0000290DDE90F1006F06DFD44F8040BDDE950
:1008C000021007F0EDF844F8040B0099239806F0A5
:1008D00061FF10900199269806F05CFF0F90009937
:1008E000269806F057FF03900199239806F052FFCF
:1008F0000290DDE90F1007F0D3F8A8F10401C8F861
:1009000000001C91DDE9021006F044FD1C99A8F1DD
:10091000080808600D980D99006801900D984068CE
:100920000090199801EB80000D900199149806F041
:1009300031FF109000990B9806F02CFF0F90019951
:100940000B9806F027FF03900099149806F022FFF9
:100950000290DDE90F1006F01DFD46F8040BDDE9FD
:10096000021007F09DF846F8040B2198019980F0D9
:10097000004006F00FFF10900099249806F00AFF3F
:100980000F900199249806F005FF03900099219893
:1009900006F000FF0290DDE90F1007F081F8AAF1E0
:1009A0000401CAF800000991DDE9020107F078F8B6
:1009B0000999AAF1080A08600E98006801900E983B
:1009C0001599406800900E9800EB81000E900199F7
:1009D0000C9806F0DFFE10900099129806F0DAFEEF
:1009E0000F900199129806F0D5FE039000990C988B
:1009F00006F0D0FE0290DDE90F1006F0CBFC45F8C2
:100A0000040BDDE9021007F04BF845F8040B0099E0
:100A1000179806F0BFFE10900199229806F0BAFED2
:100A20000F900099229806F0B5FE0390019917984F
:100A300006F0B0FE0290DDE90F1007F031F8A9F1E1
:100A40000401C9F800001B91DDE9021006F0A2FCC8
:100A50001B99A9F1080908602098401E20907FF496
:100A60003BAE00BFD6F80080D7F80090414648461C
:100A700006F090FC02904146484607F011F80390BA
:100A8000D6F80490D7F804804946404606F082FC28
:100A900000904946404607F003F8019060680F90C7
:100AA0000146039806F076FCD5F80490494606F016
:100AB000F7FF8346206809900146019806F0F0FF91
:100AC0002968059106F066FC82460999029806F0AD
:100AD000E7FF059906F0E4FF80460F99009806F0BD
:100AE000DFFF494606F0DCFF0B900F99039806F0F4
:100AF000D7FF494606F04EFC0C900999019806F084
:100B000049FC059906F0CCFF81460999029806F048
:100B100041FC059906F03EFC38606168009806F0DB
:100B200039FC696806F036FC78600A98D0E90070F4
:100B300000905846394606F02DFE10905046009918
:100B400006F028FE0F905046394606F023FE074671
:100B50005846009906F01EFE8246DDE90F1006F0A9
:100B600019FC20605146384606F09AFF60600D98E7
:100B7000D0E900474046214606F00CFE8346394640
:100B80000B9806F007FE824621460B9806F002FEFF
:100B900004464046394606F0FDFD07465146584694
:100BA00006F0F8FB30603946204606F079FF7060A9
:100BB0000E98D0E9004621460C9806F0EBFD8046E1
:100BC0004846314606F0E6FD07464846214606F00F
:100BD000E1FD044631460C9806F0DCFD0646394638
:100BE000404606F0D7FB28603146204606F058FF05
:100BF000686027980423069942681E9800F0B0F8B0
:100C000027980423069942681D9800F0A9F82798B0
:100C1000042306994268189800F0A2F827980699CC
:100C2000042342681A9829B0BDE8F04F00F098B844
:100C30002DE9F0410588984617460C460646012ADC
:100C400018D1201DB5B1083815F0010F04D050F8A7
:100C5000081F81F00041016069080BD050F8082F8F
:100C6000491E82F0004240F8082B026882F00042E0
:100C70000260F3D1B5F5807F1BD008DC102D13D0B6
:100C8000202D16D0402D19D0802D0DD01CE0B5F5AB
:100C9000007F13D0B5F5806F06D0B5F5006F08D092
:100CA000B5F5805F0AD00FE021463046FFF73EFBE6
:100CB0000AE021463046FFF765FC05E0294601239E
:100CC0002046726800F04CF8B8F1000F04D0B189EA
:100CD0002046B268FFF764FA012F18BFBDE8F08123
:100CE000284606F00FFD01464FF07E5006F0C0FB8F
:100CF0000646002D08BFBDE8F081083C15F0010F45
:100D00000CD03146A06806F045FDA060E068314691
:100D100080F0004006F03EFDE06008346D0808BF3A
:100D2000BDE8F0813146A06806F034FDA060E068BF
:100D3000314680F0004006F02DFDE060314620692C
:100D400006F028FD20616069314680F0004006F021
:100D500021FD606110346D1EE4D1BDE8F08100001A
:100D60002DE9FF4FB3B00446349D2895ED080026C9
:100D700006EB050A0AEB050909EB050808EB050B6C
:100D80000BEB05004719229078192A9054F83B0084
:100D9000039054F836000290039906F0FBFA009095
:100DA000DDE9020106F07CFE0990229854F830003B
:100DB000039054F83A000290039906F0EBFA05907C
:100DC000DDE9020106F06CFE089054F8370003904C
:100DD00054F839000290039906F0DCFA1590DDE929
:100DE000020106F05DFE14902A9854F83000049039
:100DF00054F838000390049906F0CCFA0290DDE92B
:100E0000030106F04DFE13901599009806F048FE78
:100E100004901599009806F0BDFA00900299059883
:100E200006F03EFE15900299059806F0B3FA0146C9
:100E30000590009806F0AEFA44F83600059900983F
:100E400006F02EFE44F83B0004EBCB000D9040680A
:100E500004EBC60B0390DBF804000290039906F044
:100E600099FA0090DDE9020106F01AFE0690229838
:100E700004EBC00016904068039004EBCA000E908B
:100E800040680290039906F085FA0590DDE90201B9
:100E900006F006FE079004EBC7001A904068039026
:100EA00004EBC900199040680290039906F072FAA9
:100EB0001090DDE9020106F0F3FD0F902A9804EB93
:100EC000C00018904068039004EBC8001790406879
:100ED0000B90039906F05EFA029003990B9806F0C6
:100EE000DFFD12901099009806F0DAFD039010993A
:100EF000009806F04FFA00900299059806F0D0FD90
:100F000010900299059806F045FA01460590009860
:100F100006F040FACBF804000599009806F0C0FDF1
:100F200001460D9841601099049806F033FA44F890
:100F300039001099049806F0B3FD44F8370015996C
:100F4000039806F0ADFD0146199841601599039884
:100F500006F020FA01461A9841601399089806F0A5
:100F60009FFDFE4F394606F015FC814613990898FF
:100F700006F010FA394606F00DFC08901299079811
:100F800006F08EFD394606F005FC83461299079857
:100F900006F000FA394606F0FDFB0790494609982D
:100FA00006F07EFD04904946099806F0F3F9099091
:100FB0000899149806F074FD13900899149806F097
:100FC000E9F914905946069806F06AFD03905946CF
:100FD000069806F0DFF9069007990F9806F060FD75
:100FE000814607990F9806F0D5F98346014609987E
:100FF00006F0D0F944F83A005946099806F050FD39
:1010000001462A9844F830104946049806F0C2F97F
:101010000146229844F830104946049806F040FDF5
:1010200044F838001499069806F03AFD01460E98E7
:1010300041601499069806F0ADF901461898416090
:101040001399039806F02CFD0146169841601399F8
:10105000039806F09FF901461798416028980644C6
:1010600034988642FFF484AE082D3CBF37B0BDE80B
:10107000F08F00201D9001201B9036991D98359F00
:1010800008441D90DDF874804200161857F8387037
:101090000E97359F810001EB000C57F832700C97CA
:1010A000359F0CEB0003184457F836702097359F96
:1010B00057F831701997359F57F83C700B97359F4B
:1010C00057F833702597359F57F830702997359F1B
:1010D00007EBC8077F681797359F07EBC20207EB3E
:1010E000C10152681A9207EBC60207EBC0005268B2
:1010F0001E924968189107EBCC011B9E4968279105
:1011000007EBC3014968239140681C90771907EBEE
:10111000050808EB050909EB050A0AEB050B0BEBC3
:101120000500219028442A9054F83A00039054F87E
:1011300036000290039906F02DF90090DDE90201D6
:1011400006F0AEFC099054F83B00039054F83700C9
:101150000290039906F01EF90590DDE9020106F000
:101160009FFC0890219854F83000039054F8380000
:101170000290039906F00EF91590DDE9020106F0E0
:101180008FFC14902A9854F83000049054F83900D9
:101190000390049906F0FEF80290DDE9030106F0E1
:1011A0007FFC13901599009806F07AFC049015992D
:1011B000009806F0EFF800900299059806F070FC90
:1011C00015900299059806F0E5F8014605900098FB
:1011D00006F0E0F844F836000599009806F060FC47
:1011E000059004EBCA002B904068039004EBC60006
:1011F000169040680090039906F0CCF8029003998D
:10120000009806F04DFC069004EBCB002D90406852
:10121000039004EBC7002C9040680090039906F0FF
:10122000B9F80D900399009806F03AFC07902198C0
:1012300004EBC0002F904068039004EBC8002E9090
:1012400040680090039906F0A5F810900399009863
:1012500006F026FC0F902A9804EBC00030904068FE
:10126000129004EBC900319040680390129906F087
:1012700091F800901299039806F012FC12901099C0
:10128000029806F00DFC03901099029806F082F87F
:10129000029000990D9806F003FC109000990D98AB
:1012A00006F078F80D901099049806F073F8009005
:1012B0001099049806F0F4FB04900D99029806F03A
:1012C00069F80146169841600D99029806F0E8FB0E
:1012D0000D901599039806F0E3FB02901599039879
:1012E00006F058F803900599199806F053FA1690ED
:1012F0000D99189806F04EFA15900D99199806F068
:1013000049FA0D900599189806F044FA0590DDE920
:10131000151006F03FF844F83A0005990D9806F0CC
:10132000BFFB01462B98416000990C9806F032FAF9
:10133000169002991A9806F02DFA824602990C9896
:1013400006F028FA0D9000991A9806F023FA0590F5
:101350005146169806F01EF802E00000F304353FEF
:1013600044F8380005990D9806F09AFB01462E982E
:1013700041600499259806F00DFA82460399239856
:1013800006F008FA80460399259806F003FA0D90B6
:101390000499239806F0FEF905904146504605F061
:1013A000F9FF0146219844F8301005990D9806F090
:1013B00077FB01462F9841601399089806F070FB5F
:1013C000844906F0E7F980461399089805F0E2FF92
:1013D000804906F0DFF982461299079806F060FB13
:1013E0007C4906F0D7F902901299079805F0D2FFD0
:1013F000784906F0CFF907904146099806F050FB6E
:1014000004904146099805F0C5FF0990514614988B
:1014100006F046FB13905146149805F0BBFF14905C
:101420000299069806F03CFB03900299069805F095
:10143000B1FF069007990F9806F032FB8246079994
:101440000F9805F0A7FF80460146099805F0A2FF16
:1014500000904146099806F023FB099051460498F4
:1014600005F098FF08905146049806F019FB049087
:101470001499069806F014FB80461499069805F016
:1014800089FF06901399039806F00AFB07901399B9
:10149000039805F07FFF039000990E9806F07AF903
:1014A00016904146179806F075F9824641460E9807
:1014B00006F070F90D900099179806F06BF98046C8
:1014C0005146169805F066FF44F8370041460D98DE
:1014D00006F0E6FA01462C9841600999299806F031
:1014E00059F9824606991C9806F054F980460699E7
:1014F000299806F04FF90D9009991C9806F04AF9C1
:1015000007464146504605F045FF01462A9844F8F3
:10151000301039460D9806F0C3FA01463098416004
:1015200008990B9806F036F980460799279806F037
:1015300031F9824607990B9806F02CF90D9008991D
:10154000279806F027F907465146404605F022FF46
:1015500044F83B0039460D9806F0A2FA01462D9852
:1015600041600499209806F015F9834603991E9866
:1015700006F010F982460399209806F00BF9804690
:1015800004991E9806F006F907465146584605F09C
:1015900001FF44F839003946404606F081FA014619
:1015A000319841602898064434988642FFF4AEADE5
:1015B0001B98401C1B9085423FF65FAD36984FF656
:1015C000FF7101EAC0003690072D3FF6CEAB37B071
:1015D000BDE8F08FF304353F704710B54C1084EA36
:1015E000530404D54042C1F1000138BF491E1B42DB
:1015F00004D55242C3F1000338BF5B1E00F0F9F975
:1016000014F0804F04D04042C1F1000138BF491EA0
:1016100014F0004F04D05242C3F1000338BF5B1EE8
:1016200010BD00000FB4044910B503AA029800F0E1
:10163000D1FA10BC5DF814FB5000002070B50446D0
:1016400085690068C10601D5302600E02026C00764
:1016500007D070BDD4E9012130469047206A401C74
:1016600020626D1EF6D570BD70B5044685690078A0
:10167000C00707D170BDD4E9012120209047206A1E
:10168000401C20626D1EF6D570BD70B50C46054637
:10169000012A05D02878800600D5EA69002302E0F7
:1016A000012305E05B1C934202D2E05C0028F9D1E3
:1016B000A869E618C01AA861286A18442862284652
:1016C000FFF7BCFF04E0D5E9012114F8010B9047B6
:1016D000B442F8D32846FFF7C7FF70BD2DE9F041AB
:1016E0000646002410687529314616A510D0AFF3C0
:1016F0000080002802DA404213A507E031688A071B
:1017000001D512A502E0490704D511A5012401E085
:10171000AFF3008000210A2206F1240709E0B0FBA4
:10172000F2FCB0FBF2F302FB1C0030307854184698
:10173000491C0028F3D123462A463046BDE8F04133
:1017400000F0D9B9000000002D0000002B000000BF
:101750002000000070B504460D4621461068AFF326
:1017600000802188090502D50F4A7A4402E00E4A1A
:101770007A440E32002104F1240305E000F00F0644
:101780000009965D5E54491C0028F7D1207800239B
:10179000000704D5702D02D009B102231132204672
:1017A000BDE8704000F0A7B9769F00002DE9F05F1A
:1017B000894604464FF0000ADFF874B1FB44C0F8D4
:1017C00020A02046E1688847002874D0252806D04C
:1017D000D4E901219047206A401C2062F1E70026ED
:1017E0005F462046E16888472028054607DB312D03
:1017F00005D2781910F8200C08B10643F1E7B007BC
:1018000001D526F00406C4F81CA00027C4F818A0CF
:101810002A2D09D0284600F0DFFF38B304EB8708F3
:10182000303DC8F8185019E059F8041B204604EB65
:1018300087029161E1688847012F054618D1E06968
:10184000002820DA26F020061DE0D8F8180000EB6A
:10185000800005EB40003038C8F818002046E168E9
:101860008847054600F0B8FF0028EED1012F0AD0C6
:101870002E2D08D12046E16888477F1C0546022F9F
:1018800046F02006C4DBA069002803DA404246F097
:101890000106A061F00701D026F010066C2D0BD0D8
:1018A000682D09D04C2D39D06A2D35D0742D35D006
:1018B0007A2D33D016E038E0E1682F46204688477D
:1018C000B842054609D16C2F26D04FF48060E168FC
:1018D000064320468847054604E06C2F1AD04FF493
:1018E000807006430DB3A5F14100192802D82035B8
:1018F00046F400664A462946204626604E46FEF7D4
:10190000AFFC80B101280BD0F61D26F0070000F1D6
:10191000080956E74020E4E78020D8E70020D6E712
:1019200006F104094DE7284652E7206ABDE8F09F1A
:101930004C9F000040EA010310B59B070FD1042A19
:101940000DD310C808C9121F9C42F8D020BA19BA8A
:10195000884201D9012010BD4FF0FF3010BD1AB1EF
:10196000D30703D0521C07E0002010BD10F8013B44
:1019700011F8014B1B1B07D110F8013B11F8014B6B
:101980001B1B01D1921EF1D1184610BD02F0FF03BE
:1019900043EA032242EA024200F030B94FF000026B
:1019A00000B5134694469646203922BFA0E80C5055
:1019B000A0E80C50B1F12001BFF4F7AF090728BF30
:1019C000A0E80C5048BF0CC05DF804EB890028BFAC
:1019D00040F8042B08BF704748BF20F8022B11F0D5
:1019E000804F18BF00F8012B704770477047704751
:1019F000704753EA020C00F069802DE9F04B4FF07C
:101A00000006002B1FBFB3FA83F503FA05F424FA8E
:101A100005F65E4012BF1643B2FA82F502FA05F4EB
:101A2000C5F120051EBF22FA05FC44EA0C0420354E
:101A300056EA044C4FEA144418BF641C4FF00008E7
:101A40004FF00009904271EB030C39D3002919BF04
:101A5000B1FA81F701FA07F6B0FA80F700FA07F653
:101A6000C7F120071EBF20FA07FC46EA0C06203704
:101A7000B6FBF4FCA7EB0507103F07F01F0BCBF1FB
:101A800020060CFA0BFB2CFA06F644BFB3460026E0
:101A9000202FA4BF5E464FF0000B5BEA060C08BF88
:101AA0004FF0010B19EB0B09ABFB027C48EB06086E
:101AB000C01B06FB02CC0BFB03CC71EB0C01C1E796
:101AC0000B46024641464846BDE8F08B13B54FF041
:101AD00000004FF00001AFF30080BDE81C407047EC
:101AE00010B500F0ABF8006810BD10B5044600F06A
:101AF000A5F8046010BD2DE9F0470D4699469246C1
:101B0000044600F124080168880604D5E06921F044
:101B10001001216000E00120A84201DD471B00E028
:101B20000027A1697A1902EB0900081AA061207840
:101B3000C00602D42046FFF781FD002608E0D4E964
:101B400001211AF806009047206A401C761C20628A
:101B50004E45F4DB2078C0060AD52046FFF76EFD1F
:101B600006E0D4E9012130209047206A401C206221
:101B7000381EA7F10107F4DC07E0D4E9012118F8C9
:101B800005009047206A401C2062281EA5F101052F
:101B9000F3DC2046FFF768FD2078000602D502201E
:101BA000BDE8F0870120FBE710B5436913B1AFF33F
:101BB000008001E0FFF769FD012010BD127800F1FF
:101BC00024010A7000224A700122EDE711684FF0EB
:101BD000FF32E9E7074B70B50D467B4400F037F85C
:101BE0000446284600F046F810B14FF0FF3070BDB3
:101BF000204670BDD31F00004FF000020429C0F042
:101C0000128010F0030C3FF4CBAECCF1040CBCF10D
:101C1000020F18BF00F8012BA8BF20F8022BA1EB80
:101C20000C01FFF7BDBE5FEAC17C24BF00F8012BA9
:101C300000F8012B48BF00F8012B7047004870479F
:101C4000C832002001694A1C02610878704700B55B
:101C50008FB0CDE901310021059105497944CDE9E5
:101C6000031011466846FFF7A1FD0FB000BD00004C
:101C7000E5FFFFFF007B00F08000704700487047E1
:101C8000C83200207546FFF7F9FFAE4605006946E9
:101C9000534620F00700854618B020B5FEF710FB2C
:101CA000BDE820404FF000064FF000074FF000085D
:101CB0004FF0000B21F00701AC46ACE8C009ACE8DE
:101CC000C009ACE8C009ACE8C0098D46704710B542
:101CD0000446AFF300802046BDE81040FEF7DEBAB0
:101CE00010B50A2001F04EF90A48006801280CD10D
:101CF000094803F05DFC094908600948006808B913
:101D0000012000E000200649086001200549086024
:101D100010BD000094012342F019002010000020A3
:101D2000948121421404014010B50222002108468A
:101D300000F008F8022306220321184600F0A6FB53
:101D400010BD000070B504460B46CE1701EB967629
:101D5000C6F38700CE1701EB9676B610A1EB860688
:101D6000B606350E1C4B9B6943F001031A4EB36156
:101D70004FEAB63353F820300F26AE40B343174E28
:101D800046F82030334653F8203004FA05F61E4357
:101D9000124B43F82060124B1B6801268E403343E0
:101DA0000F4E336002F0010343B10D4B0C331B683F
:101DB00001268E4033430A4E0C36336002F0020394
:101DC00043B1074B08331E6801238B401E43044B6D
:101DD00008331E6070BD0000001002400800014082
:101DE0000004014001464906084A926942F0010296
:101DF000064B9A61064A526822F0E062044B5A6030
:101E00001A4652680A435A607047000000100240A8
:101E1000000001401848806940F0080016498861B8
:101E20000846806940F0400088611448006820F44A
:101E30007000124908600846006840F440100860CD
:101E40000E480C30006840F020000C490C3108604E
:101E50000B48006820F470000949086008460068D3
:101E600040F44010086006480C30006840F0200044
:101E700003490C310860704700100240000C01401B
:101E8000001801402DE9F84F6B46022241216820DD
:101E900000F0F1F99DF801009DF8001040EA0120E2
:101EA0000FFA80FA504604F057FF804600220B4B91
:101EB00004F0FAFD06460A4A0A4B04F045FD0446C2
:101EC00004F010FD83460849584605F063FC0446BB
:101ED00005F0C4FB00B2BDE8F88F0000004075407B
:101EE000A4703D0AD74342400000C84210B500200C
:101EF0000E4908600E48006820F470400C490860E4
:101F00000846006840F44050086000200949C1F8C4
:101F1000AC0100F011F801200449086000F00CF851
:101F200000200449C1F8A80110BD0000A881214289
:101F3000040C01400080214210B5022001F040F85D
:101F400010BD00000C48806940F008000A49886113
:101F50000A48006820F47F40084908600846006885
:101F600040F44C50086005480830006840F4406078
:101F7000024908310860704700100240040C01401B
:101F800010B500200E4908600E48006820F470402B
:101F90000C4908600846006840F440500860012081
:101FA0000949C1F8AC01FFF7C7FF012004490860E7
:101FB000FFF7C2FF00200449C1F8A80110BD0000CE
:101FC000A8812142040C01400080214270B50546E1
:101FD00000241648006820F4704014490860084640
:101FE000006840F400400860002614E0002010491A
:101FF0000860FFF7A1FF01200E49C1F8A8016006A3
:10200000040E0B487C38006808B1601CC4B2FFF7AE
:1020100093FF701CC6B2082EE8DB15B9FFF7B0FFBE
:1020200001E0FFF763FF204670BD0000040C014093
:10203000A88121420080214270B504461248006800
:1020400020F47040104908600846006840F4405091
:10205000086000200D490860002512E0E0090B49E6
:10206000091D08606006040E01200949C1F8A80195
:10207000FFF762FF002005490860FFF75DFF681C5D
:10208000C5B2082DEADB70BD040C0140A8812142D5
:102090000080214210B50E48006820F470400C49C1
:1020A00008600846006840F4405008600120094973
:1020B00008600949C1F8A801FFF73EFF0020054963
:1020C0000860FFF739FF00200349C1F8A80110BDDF
:1020D000040C0140AC8121420080214210B50E4821
:1020E000006820F470400C4908600846006840F41D
:1020F000405008600020094908600949C1F8AC0156
:10210000FFF71AFF0120054908600549C1F8AC0135
:10211000FFF712FF10BD0000040C0140A88121420E
:102120000080214210B500241448006820F470405B
:10213000124908600846006840F400400860012029
:102140000F490860FFF7F8FE01200E49C1F8A80109
:10215000FFF7F2FE07E0601CC4B2FA2C03DDFFF7C4
:10216000BDFF012010BD0648803800680028F2D16C
:102170000349091F086000BFF4E70000040C014098
:10218000AC8121420080214210B52948806940F08D
:102190000400274988612748006820F070402549DD
:1021A00008600846006840F0405008600120FFF7D2
:1021B00019FE002020490860FFF7C4FE80216B2033
:1021C00000F0DDF8642000F0DDFE00216B2000F05F
:1021D000D6F8032000F091F8002000F086F83220B5
:1021E00000F0B0F80021382000F0C9F800216A2082
:1021F00000F0C5F80021232000F0C1F8802137202D
:1022000000F0BDF8752000F019F80446682C0BD1D9
:1022100001216B2000F0B3F800216C2000F0AFF832
:10222000322000F08FF801E0012010BD0020FCE713
:102230000010024004080140BC01214270B5044670
:10224000FFF728FFD020FFF7F7FEFFF76BFF2046D0
:10225000FFF7F2FEFFF766FFFFF71CFFD120FFF745
:10226000EBFEFFF75FFF0020FFF7B0FE0546FFF72C
:1022700035FF284670BD2DE9F04106460F4614464D
:102280001D46FFF707FF002141EA4601C8B2FFF7EC
:10229000D3FEFFF747FF20B1FFF720FF0120BDE885
:1022A000F0813846FFF7C8FEFFF73CFFFFF7F2FE6C
:1022B000012101EB4601C8B2FFF7BEFEFFF732FF76
:1022C0000DE0012C04D10020FFF780FE287003E010
:1022D0000120FFF77BFE2870601EC4B26D1C002C2D
:1022E000EFD1FFF7FBFE0020D9E710B50446E0066A
:1022F000010E1C2000F043F810BD10B50446E006A6
:10230000010E1B2000F03BF810BD70B504460025FF
:10231000BC2C01DB012510E0622C01DB02250CE066
:102320002A2C01DB032508E0142C01DB042504E042
:102330000A2C01DB052500E0062529461A2000F0BD
:102340001EF870BD70B50446B4F57A7F01DD4FF418
:102350007A74042C00DA04244FF47A7090FBF4F0C1
:10236000401EC5B22946192000F009F80546264648
:1023700004EBD671C1F34F00FFF7C7FF70BD70B516
:1023800005460C46FFF786FED020FFF755FEFFF707
:10239000C9FE18B1FFF7A2FE012070BD2846FFF765
:1023A0004BFEFFF7BFFE2046FFF746FEFFF7BAFEE3
:1023B00018B1FFF793FE0120EFE7FFF78FFE002033
:1023C000EBE72DE9F04105460E4617469846FFF724
:1023D00061FE002141EA4501C8B2FFF72DFEFFF77B
:1023E000A1FE20B1FFF77AFE0120BDE8F081304662
:1023F000FFF722FEFFF796FE00240CE018F8040019
:10240000FFF71AFEFFF78EFE18B1FFF767FE0120F7
:10241000EBE7601CC4B2BC42F0DBFFF75FFE0020BC
:10242000E3E7000000B5002015490861C8601420EA
:10243000486100208861C8610846006840F00100DA
:102440000860084640680F4908400D494860084642
:1024500000680D4908400A4908600846006820F4F1
:10246000802008600846406820F4FE004860002094
:10247000886000214FF0006000F058F800BD0000B7
:10248000001002400000FFF8FFFFF6FE2DE9F041CA
:102490000746884614461D46284600F033F8C5F125
:1024A000040007FA00F60F20284100EA080006435E
:1024B00006F00F06E21704EBD2625211920002F10D
:1024C000E022D2F800212146E31704EBD3635B112D
:1024D000A4EB431C012303FA0CF31A432046E31731
:1024E00004EBD3635B119B0003F1E023C3F80021ED
:1024F0000348005D40EA061001490855BDE8F08137
:1025000000E400E00146072323EA01021202054B22
:1025100018684FF6FF031840034B18431043014B54
:10252000186070470CED00E00000FA05024A0A400E
:102530000243024B1A60704780FFFF1F08ED00E066
:1025400030B504460025FFF76DFF1F48006840F4D2
:1025500080301D49086000BF1B480068400C0028FF
:10256000FAD04FF4806018494860A01EC4B20846F3
:10257000406840EA844048600846406840F4803043
:1025800048601248006840F03200104908600E4868
:10259000006840F080700C49086000BF0A4800687D
:1025A000400E0028FAD00848406840F00200064972
:1025B000486005E004484068C0F3870505F003055E
:1025C000022DF7D130BD0000001002400020024073
:1025D00010B50C48008800F0010058B10A4908699C
:1025E000804700200749143108804FF47A7005496C
:1025F0001C3108800348008820F001000149088050
:1026000010BD000010080040AC00002070B5054669
:102610000C461048C06940F004000E49C8610E48DD
:102620000580001F04800C482038008840F001001D
:1026300009492039088008482C38008840F00100FA
:1026400005492C39088002231E2203210846FFF782
:102650001DFF70BD001002402C0800401D49098874
:1026600001F0200111B31B49091D0988C8B21A499C
:10267000098801F40041C9B91749098801F480416A
:1026800061B10A2803D00021134A118020E01249C9
:10269000098841F40041104A118019E00D2806D143
:1026A0000D49098841F480410B4A118010E00A4924
:1026B0000988C1F30D01094A505407490988491C8A
:1026C000054A118011460988C72901DD00211180C2
:1026D0007047000000380140540000200032002004
:1026E000490050EAC12018BF04204A0D18BF40F02D
:1026F000010040F2FF72B2EB515F08BF40F00200F0
:10270000012808BF052070472DE9F0414F1E00EB5E
:10271000C7010446D1E9000115461E4637F00602FE
:102720000DD02A46334604F02FFB7F1E04EBC7036F
:10273000D3E9002304F008F937F00602F1D1022FA3
:1027400025D0042F13D0062F18BFBDE8F0812A46EC
:10275000334604F019FBD4E90A2304F0F5F82A46BD
:10276000334604F011FBD4E9082304F0EDF82A46BF
:10277000334604F009FBD4E9062304F0E5F82A46C1
:10278000334604F001FBD4E9042304F0DDF82A46C3
:10279000334604F0F9FAD4E9022304F0D5F82A46C6
:1027A000334604F0F1FAD4E90023BDE8F04104F027
:1027B000CBB8012205F01BBA04F0C6B800221346BC
:1027C0001046114604F070B9024A0020110705F0C6
:1027D0000EBA000001FDFFFF30380A2801D20120A7
:1027E000704700207047014600BF70472DE9FE4F3B
:1027F000074688460026684601F0E8F9002444E0D0
:1028000057F8240058F82410A0EB010ABAF1000F81
:1028100001DB514601E0CAF10001084604F05AFF0D
:1028200083464FF08F4104F023FE81465DF824007B
:10283000002104F0DFFE18D05DF82410484604F0B3
:1028400017FE82464FF07E5105F02AF9054600BF7B
:1028500025F0004082460F48416A504605F066F870
:1028600012D20120A04006430EE00A48C169484642
:1028700004F05CFF05D30748016A484605F056F8A6
:1028800002D20120A0400643641C032CB8DB304672
:10289000BDE8FE8FA47C000870B504460D460026F6
:1028A000074803780748027821460748FEF7C0F931
:1028B0000648294602682046FDF710FD012070BD3C
:1028C0000800002004000020C48800080000002048
:1028D0002DE9F04D8D4F21F0004A86B005460C469B
:1028E000BA452ADBAAEB070028430AD0884882456C
:1028F00001DC1AD1CDB106B02846BDE8F04DFFF796
:1029000058BF844A844B284604F03EFA07460E46D8
:10291000824A834B2846214604F036FA06B03A46EE
:102920003346BDE8F04D04F00FB80120FFF7DDF8A5
:1029300006B0BDE8F04DFFF741BF7A48824542DA64
:10294000BAF1795F0BDA2846FFF7CAFE042808BF00
:10295000FFF73AFF284606B02146BDE8F08D2A462B
:102960000B46104604F010FA834602466E480E46A7
:102970000B4606217844FFF7C7FE5A46334604F05B
:1029800003FA804669488A465A4633460421784409
:10299000FFF7BAFE5A46334604F0F6F900223B46EA
:1029A00003F0D2FF02460B464046514604F07CF845
:1029B0002A46234604F0E8F906B02A462346BDE835
:1029C000F04D03F0C1BF284624F0004100223D46EF
:1029D0003B4604F0D7FA4FF0FF3205F008F90646FF
:1029E000024653480F460B4606217844FFF78CFEFB
:1029F00032463B4604F0C8F9CDE900014D48324665
:102A00003B4604217844FFF77FFE32463B4604F004
:102A1000BBF900222B4603F097FF83460291304614
:102A2000394602F07DFE804643480D46504517DC8E
:102A3000DDE900015A46029B04F036F842462B4677
:102A400004F0A2F942462B4603F07EFF012205F076
:102A5000CEF8304A304B04F087FB304A304B4CE024
:102A60004FF0000A52460B46404603F06DFFCDE999
:102A7000031052462B461046194604F085F932469B
:102A80003B4604F07FFADDE9033204F00DF8064618
:102A90000F46DDE900015A46029B04F005F8834623
:102AA000009101223046394605F0A1F8194A1A4B27
:102AB00004F068FA06460F4601224046294605F012
:102AC00096F85A46009B04F05FF932463B4604F004
:102AD0004BFB06460F4601225046294605F087F873
:102AE0000E4DDFF858802A46434604F04BFA324632
:102AF0003B4604F047FA2A46434604F043FA002CCA
:102B0000D8BF81F0004106B0BDE8F08D0000F03F75
:102B10000000F07F075C143326A6913C182D445426
:102B2000FB21F93F0000E03FA88D0000BE8D0000B2
:102B3000328D0000488D00003333EF3FFB21E93F29
:102B40002DE9F84F04460D4621F0004000917349ED
:102B5000814211DC7249884201DC06D12CB1204649
:102B60002946BDE8F84FFFF724BE6E48002DCCBFC4
:102B70006D496E49BDE8F88F6D49814211DD6D499F
:102B80008142D8BF4FF0FF366DDD20462946FFF762
:102B9000A7FD042808BFFFF717FE20462946BDE819
:102BA000F88F6549654F25F00045814233DD644962
:102BB000814219DD002632464FF0804320462946E7
:102BC00003F0C2FE80468A4601222046294605F0CF
:102BD0000EF800223B4604F0C7FA4246534603F083
:102BE00063FF04460D463EE001260022BA463B46FE
:102BF0002046294603F0A8FE80460F460022534691
:102C00002046294604F0B0FA42463B4603F04CFF0A
:102C100004460D4627E04B4981421BDDDFF828A121
:102C20000226002253462046294604F0ADF8002231
:102C30003B4603F089FE80460F460022534620465D
:102C4000294604F091FA42463B4603F02DFF044624
:102C50000D4608E0032622462B4600203B4903F0A0
:102C600023FF04460D4622462B461046194604F023
:102C70008BF88B46824602460B4604F085F80746E1
:102C80000246334888460B4606217844FFF73CFD50
:102C900052465B4604F078F882462E488B463A4608
:102CA000434605217844FFF72FFD3A46434604F09A
:102CB0006BF802460B46002E504659460CDA03F0DC
:102CC00043FE22462B4604F05FF801B022462B4615
:102CD000BDE8F04F04F056B903F036FE22462B460D
:102CE00004F052F81C4A7A4402EBC603D3E90023ED
:102CF00004F03AFA22462B4604F036FA174A7A4490
:102D000002EBC603D3E9002304F03CF9009A002A41
:102D1000B8BF81F00041BDE8F88F0000000010440A
:102D20000000F07F182D4454FB21F93FFB21F9BF2F
:102D30000000DC3F0000203E0000F33F0000F03FB9
:102D40000000E63F008003400000F83F0000F0BFB5
:102D50004A8B0000088B0000A68A00006E8A0000E3
:102D60002DE9F04D9446CCF1000423F000464CEAE6
:102D70000404524F46EAD4749A46884621F0004231
:102D8000BC4206D8454240EA050442EAD474BC423B
:102D900004D9BDE8F04D6246FFF70EBDAAF14055DB
:102DA000A5F17F6555EA0C040BD0022404EAAA744D
:102DB000434DDFF810E144EAD87452EA000B04D026
:102DC0000CE0BDE8F04DFFF7BBBE002C14BF012C9A
:102DD000BDE8F08D022C30D0032C32D056EA0C0B1B
:102DE0000AD0BE4220D1BA4209D126F0804622F054
:102DF00080423346114617E000291ADB25E0DFF850
:102E0000C8B0FB44002C04BFDBE90001BDE8F08D35
:102E1000012C02BFDBE9000181F00041BDE8F08D2B
:102E2000022C0AD0032C0CD0BA4212D1B8F1000FF8
:102E30000BDA23482549BDE8F08D28462449BDE832
:102E4000F08D28467146BDE8F08D1D482149BDE84A
:102E5000F08D921B12153C2AC4BF19481D490EDC87
:102E6000BAF1000FBEBF12F13C0F0020014606DB95
:102E7000624603F019FE21F00041FFF761FE002CCD
:102E800008BFBDE8F08D012C04BF81F00041BDE812
:102E9000F08D114A114B022C07D004F065F92A4637
:102EA000BDE8F04D0A4B04F05FB904F05DF92A4625
:102EB000BDE8F04D064B04F065B800000000F07F5F
:102EC000182D4454FB2109C0028A0000FB21F9BFE0
:102ED000FB210940FB21F93F075C143326A6A13CE6
:102EE0002DE9F0410446E07800F0C006E07800F0FB
:102EF0003F05607800F0010098B1EF102846E9170F
:102F000005EB5171C910A5EBC101491C01F0FF0887
:102F10000B48006820B10A4841460268384690478D
:102F200000BF607800F0080030B10548406818B173
:102F3000B011034A516888470020BDE8F0810000C5
:102F4000F03100204FF0E021096921F004014FF039
:102F5000E0221161C21700EB5272C2F3C702074BA5
:102F60001A701946097801EB4102C2EBC1114FF604
:102F7000FF7202EAC101024A118070474A00002034
:102F80004C00002001460D4A12884A434FF0E023CE
:102F90005A6100229A6101221A6100BF4FF0E022BB
:102FA000106900F001021AB100F48032002AF5D055
:102FB00000224FF0E0231A619A6170474C00002014
:102FC00001460D4A12784A434FF0E0235A6100222D
:102FD0009A6101221A6100BF4FF0E022106900F0EF
:102FE00001021AB100F48032002AF5D000224FF01D
:102FF000E0231A619A6170474A00002038B5044600
:1030000064B120208DF8000028208DF801003020C8
:103010008DF8020038208DF8030004E0A32204217B
:103020006846FEF7B3FC6A46042140F69E2002F093
:103030007BFA01F065FE38BD3EB5044602208DF8EE
:103040000000CA208DF80100E3208DF8020009205D
:103050008DF803006A460421682002F065FAA32077
:103060008DF8000004F0400048B1C0208DF8010048
:10307000C8208DF80200C2208DF8030006E0A320CE
:103080008DF801008DF802008DF8030004F4C07083
:1030900048B1C4208DF80400CC208DF80500C6206E
:1030A0008DF8060006E0A3208DF804008DF80500D9
:1030B0008DF80600A3208DF807008DF808008DF824
:1030C00009006A460A2140F6A72002F02DFA04F012
:1030D000030018B120208DF8000002E0D8208DF800
:1030E00000006A46012140F6B62002F01DFA04F005
:1030F000200018B1012000F0ADF802E0002000F03F
:10310000A9F804F4C07008B304F4807060B1B22070
:103110008DF800008B208DF80100B6208DF802009C
:103120009B208DF803000BE0B0208DF8000080207C
:103130008DF80100B4208DF8020090208DF8030076
:103140006A46042140F6A22002F0EEF904F00100E4
:1031500020B3F8208DF800006A4601214FF40B607F
:1031600002F0E2F9FA21072000F02CFC072000F021
:10317000F3FB012000F013FC642000F0F3FC4FF49B
:10318000FA7000F002FDC821304800F0A3FB2820AF
:1031900000F0BCFB0A2000F0CCFB08E0D8208DF842
:1031A00000006A4601214FF40B6002F0BDF904F003
:1031B000020018B1D9208DF8000002E0D8208DF867
:1031C00000006A46012140F23D7002F0ADF904F0C2
:1031D000040018B1012000F069F802E0002000F0BE
:1031E00065F804F0100018B10120FFF707FF02E0B6
:1031F0000020FFF703FF44F008001549488101F063
:103200007FFD00201249887304F0400018B1084681
:10321000807B801D887304F4C07020B10C48807BD3
:10322000801D0B49887304F0140020B10848807B8E
:1032300010300749887304F0030020B10448807BF4
:10324000001D0349887300203EBD000009E3CA0247
:10325000F03100203EB504466CB10EA1D1E900204A
:103260008968CDE9002002916A4609214FF49760F0
:1032700002F05AF93EBD0AA2D2E900109268CDE9E7
:10328000010200916A4609214FF4976002F04CF95F
:10329000F0E70000B8AAB38DB4980D355D000000CA
:1032A000B8AAAAAAB088C3C5C700000038B50446AA
:1032B00064B1C0208DF80000C2208DF80100C42048
:1032C0008DF80200C6208DF8030004E08B22042153
:1032D0006846FEF75BFB6A46042140F6982002F040
:1032E00023F901F00DFD38BD10B5C8234FF48062FD
:1032F000024940F6F63001F097FB10BDCC7C000887
:103300002DE9F04F8DB00746884615469946DDE910
:10331000166B0024002030806B49887B5A4605A933
:1033200001F04EFC18B1601E0DB0BDE8F08F66488C
:10333000807A00F01400002867D09DF81400000681
:103340009DF8151040EA01409DF8161040EA012052
:103350009DF81710084328609DF8180000069DF896
:10336000191040EA01409DF81A1040EA01209DF82A
:103370001B10084368609DF81C0000069DF81D1096
:1033800040EA01409DF81E1040EA01209DF81F1000
:103390000843A8609DF8200000069DF8211040EA2F
:1033A00001409DF8221040EA01209DF823100843B7
:1033B000E86004F11000C4B2286800140190686845
:1033C00000140290A86800140390E86800140490A8
:1033D00001984043029901FB0100039901FB0100A0
:1033E000049901FB010ABAF1706F02DBBAF1885F40
:1033F00005DD01F085FC00203080401E94E7B6F921
:10340000000040F48070308000BF2F48807A00F0C8
:10341000400020B305A9601C085C095D40EA01205A
:1034200000B2A8F8000005A9E01C095C05AAA01CD0
:10343000105C41EA002000B2A8F8020005A9601D56
:10344000095C201D105C41EA002000B2A8F80400CD
:10345000A01DC4B2B6F9000040F0080030801A4840
:10346000408900F4C07008B305A9601C085C095DC0
:1034700040EA012000B2388005A9E01C095C05AAD9
:10348000A01C105C41EA002000B2788005A9601DF4
:10349000095C201D105C41EA002000B2B880A01D2C
:1034A000C4B2B6F9000040F0700030800648807A5F
:1034B00000F0030018B105A90819FFF711FD4846EF
:1034C00000F044FF00202FE7F031002070B588B0F5
:1034D000064601A801F0FCF8BDF804000021C9036C
:1034E00041EA5045C4034448007A00F0030056F80E
:1034F000200005904048007A00F0040010B10598C3
:10350000404205903C48007AC0F3C10056F82000C4
:1035100006903948007A00F0200010B10698404229
:1035200006903548007AC0F3811056F820000790C5
:103530003148008900F4807010B10798404207902C
:103540000598C117A0FB042301FB043100FB051003
:10355000810041EA927005900698C117A0FB0423F0
:1035600001FB043100FB0510810041EA92700690D6
:103570000798C117A0FB042301FB043100FB0510D1
:10358000810041EA927007900598000E8DF80800BE
:103590000598000C8DF809000598000A8DF80A00BE
:1035A0000598C0B28DF80B000698000E8DF80C003F
:1035B0000698000C8DF80D000698000A8DF80E0094
:1035C0000698C0B28DF80F000798000E8DF8100015
:1035D0000798000C8DF811000798000A8DF812006A
:1035E0000798C0B28DF8130002AA0C214FF4257081
:1035F00001F09AFF08B070BDF031002030B585B001
:10360000044616A207CA02AB07C3C82C03DD4FF05D
:10361000FF3005B030BDC82090FBF4F0401E85B2ED
:10362000280A8DF80000E8B28DF801006A460221F0
:1036300040F2162001F078FF10B14FF0FF30E8E7BC
:1036400002AA0C2140F6C12001F06EFF10B14FF02C
:10365000FF30DEE7044884810020DAE7FEF2ABC4E5
:10366000AAF1DFDFBBAFDFDFF03100201FB504467A
:103670004848007A00F0030054F8200001904548C3
:10368000007A00F0040010B10198404201904148D6
:10369000007AC0F3C10054F8200002903D48007A3F
:1036A00000F0200010B10298404202903948007AA0
:1036B000C0F3811054F8200003903648008900F4CC
:1036C000807010B10398404203903349019880FB09
:1036D0000101800F40EA810001902F49029880FB90
:1036E0000110820042EA917002902B49039880FBFE
:1036F0000110820042EA917003900198000E8DF84B
:1037000000000198000C8DF801000198000A8DF866
:1037100002000198C0B28DF803006A4604214FF4FC
:10372000747001F001FF18B14FF0FF3004B010BD0C
:103730000298000E8DF800000298000C8DF8010030
:103740000298000A8DF802000298C0B28DF80300BA
:103750006A4604214FF4757001F0E6FE10B14FF097
:10376000FF30E3E70398000E8DF800000398000C8B
:103770008DF801000398000A8DF802000398C0B28A
:103780008DF803006A4604214FF4767001F0CCFEF8
:10379000CCE70000F031002009E3CA0210B586B082
:1037A000044647A00068039046A00068029046A027
:1037B0000068019045A00068009004F0030003A990
:1037C000085C8DF8140003A8C4F3C101405C8DF8B7
:1037D000150003A8C4F38111405C8DF8160004F0B5
:1037E000030002A9085C8DF8100002A8C4F3C1010F
:1037F000405C8DF8110002A8C4F38111405C8DF883
:10380000120005AA032140F2264001F08DFE18B1F6
:103810004FF0FF3006B010BD04AA032140F22A4049
:1038200001F082FE10B14FF0FF30F3E701980590F0
:103830000098049004F0040058B19DF8140040F082
:1038400001008DF814009DF8100040F001008DF883
:10385000100004F0200058B19DF8150040F0010060
:103860008DF815009DF8110040F001008DF8110051
:1038700004F4807058B19DF8160040F001008DF8F6
:1038800016009DF8120040F001008DF8120005AA04
:1038900003214FF4886001F047FE10B14FF0FF3074
:1038A000B8E704AA032140F2314001F03DFE10B117
:1038B0004FF0FF30AEE7064804810020AAE7000081
:1038C0004CCD6C000CC92C0036567600264666009E
:1038D000F0310020F8B505460E464FF47A7095FB9E
:1038E000F0F000FB06F4200E8DF80000200C8DF89F
:1038F0000100200A8DF80200E0B28DF803006A464C
:1039000004214FF4AE7001F00FFEF8BD38B5044647
:10391000052094FBF0F084B220128DF80000E0B294
:103920008DF801006A4602214FF4AD7001F0FCFDF4
:1039300038BD38B50446052094FBF0F084B220125F
:103940008DF80000E0B28DF801006A4602214FF4C4
:10395000AC7001F0E9FD38BD38B504460020009098
:1039600004F0010020B19DF8000040F0300000900C
:1039700004F0020020B19DF8000040F00C0000901F
:1039800004F0040020B19DF8000040F00300009016
:103990006A4601214FF4A47001F0C6FD38BD38B568
:1039A0000446012C01DA012402E0042C00DD042489
:1039B000601EC0B200906A46012140F24F1001F033
:1039C000B3FD38BD2DE9FC4706460F4606F007005B
:1039D00010B1B7F5C86F03DD4FF0FF30BDE8FC87CD
:1039E000384603F08FFE8146594903F041FD804679
:1039F000684600F047FE9DF80000022806D0042823
:103A000016D0082826D0102848D135E04FF08D4137
:103A1000404603F0BFFE814603F03CFE84B24D49B0
:103A2000404603F0B7FE814603F034FE85B238E02D
:103A30004FF08C41404603F0ADFE814603F02AFE74
:103A400084B24549404603F0A5FE814603F022FEBC
:103A500085B226E04FF08B41404603F09BFE814645
:103A600003F018FE84B23D49404603F093FE8146C0
:103A700003F010FE85B214E04FF08A41404603F097
:103A800089FE814603F006FE84B23549404603F0C4
:103A900081FE814603F0FEFD85B202E04FF0FF306B
:103AA0009CE700BF20128DF80400E0B28DF80500FD
:103AB00028128DF80600E8B28DF8070006F0010024
:103AC000A0B101AA02214FF4EA7001F02DFD10B15E
:103AD0004FF0FF3082E70DF1060202214FF49270A1
:103AE00001F022FD10B14FF0FF3077E706F0020041
:103AF000A0B101AA02214FF4EC7001F015FD10B144
:103B00004FF0FF306AE70DF1060202214FF4947086
:103B100001F00AFD10B14FF0FF305FE706F004003E
:103B2000A0B101AA02214FF4EE7001F0FDFC10B12A
:103B30004FF0FF3052E70DF1060202214FF496706C
:103B400001F0F2FC10B14FF0FF3047E7002045E7ED
:103B500000004843000040460000C04500004045CA
:103B60000000C04438B50446052094FBF0F085B24F
:103B700028128DF80000E8B28DF801006A46022193
:103B80004FF4EF7001F0D0FC38BD38B50446052085
:103B900094FBF0F085B228128DF80000E8B28DF8A1
:103BA00001006A4602214FF4ED7001F0BDFC38BD02
:103BB00000BF054A128802F04002002AF9D0C2B2C2
:103BC000014B1B1D1A807047003801407CB505462B
:103BD00028494968087801AB04220D21FEF74BFB08
:103BE00008B107207CBD9DF80700C0F301109DF8C7
:103BF000041001F0E00140EAE1008DF800009DF8BA
:103C00000700C0F381009DF8051001F0E00140EAD3
:103C1000E1008DF801009DF8070000F003009DF819
:103C2000061001F0E00140EAE1008DF802000024F6
:103C30001CE01DF8040018B9002045F8240013E02A
:103C40000D4845F8240006E055F824000B4903F020
:103C5000A1FD45F824001DF80400401EC0B20DF877
:103C600004000028F0D100BF601CC4B2032CE0DBCC
:103C70000020B7E7140000207B14AE3E1D5A843F9D
:103C80002DE9F04F87B005460C46914601208DF88E
:103C9000100000208DF81100FE4A1268917CFD4A48
:103CA0005268107804AB0222FEF78BFB20B14FF074
:103CB000FF3007B0BDE8F08FC820FFF763F90020A0
:103CC0008DF81000F34A1268D17BF24A52681078DE
:103CD00004AB0122FEF775FB10B14FF0FF30E8E7AF
:103CE000EC4A12685179EB4A5268107804AB012211
:103CF000FEF767FB10B14FF0FF30DAE7E54A1268D4
:103D0000917CE44A5268107804AB0122FEF759FB1B
:103D100010B14FF0FF30CCE7DE4A1268D17DDD4AAA
:103D20005268107804AB0122FEF74BFB10B14FF044
:103D3000FF30BEE7D74A12681179D64A5268107828
:103D400004AB0122FEF73DFB10B14FF0FF30B0E7AE
:103D50000C208DF81000CF4A12681179CD4A5268B4
:103D6000107804AB0122FEF72CFB10B14FF0FF30AE
:103D70009FE70F20FFF706F9C648806A407A8DF862
:103D80001000C44A12689178C24A5268107804AB95
:103D90000122FEF716FB10B14FF0FF3089E7BD4856
:103DA000806A007A8DF81000BA4A12685178B94AD0
:103DB0005268107804AB0122FEF703FB10B14FF0FC
:103DC000FF3076E7B9F1000F07D0B248806A807AF9
:103DD00040F0E0008DF8100004E0AE48806A807A80
:103DE0008DF81000AB4A12689179AA4A526810788F
:103DF00004AB0122FEF7E5FA10B14FF0FF3058E7AF
:103E0000B9F1000F07D0A348806AC07A40F0E00003
:103E10008DF8100003E0A048C07A8DF810009D4A8C
:103E20001268D1799B4A5268107804AB0122FEF7E0
:103E3000C8FA10B14FF0FF303BE7B9F1000F02D0E4
:103E4000C820FFF79FF840208DF81000914A1268B3
:103E50001179904A5268107804AB0122FEF7B1FA4A
:103E600010B14FF0FF3024E778208DF81000894A18
:103E700012685179874A5268107804AB0122FEF724
:103E8000A0FA10B14FF0FF3013E783498889FFF79C
:103E900079F800208DF810007E4A126851797D4A29
:103EA0005268107804AB0122FEF78BFA10B14FF084
:103EB000FF30FEE6774A1268917A764A52681078A7
:103EC00004AB0222FEF7D7F910B14FF0FF30F0E655
:103ED0009DF811009DF8101040EA012B0C209BFB6F
:103EE000F0F0C6B20020A86068602860A060606042
:103EF0002060824665E0674A1268D17A654A526856
:103F0000107804AB0C22FEF7B6F910B14FF0FF3079
:103F1000CFE69DF811009DF8101040EA012000B294
:103F2000ADF808009DF813009DF8121040EA01203A
:103F300000B2ADF80A009DF815009DF8141040EA93
:103F4000012000B2ADF80C00BDF90810206808444B
:103F50002060BDF90A10606808446060BDF90C106B
:103F6000A0680844A0609DF817009DF8161040EA6C
:103F7000012000B2ADF800009DF819009DF818105E
:103F800040EA012000B2ADF802009DF81B009DF848
:103F90001A1040EA012000B2ADF80400BDF900108B
:103FA000286808442860BDF9021068680844686001
:103FB000BDF90410A8680844A8600AF1010000F0E7
:103FC000FF0AB24597DB3448D0F800C02868C11713
:103FD000090441EA10410704624600233846FDF710
:103FE000FCFA32460023CDE90201FDF7F6FA28601B
:103FF0002948D0F800C06868C117090441EA104197
:104000000704624600233846FDF7E7FA32460023EC
:10401000CDE90201FDF7E1FA68601F48D0F800C061
:10402000A868C117090441EA104107046246002349
:104030003846FDF7D2FA32460023CDE90201FDF7FA
:10404000CCFAA8601448D0F804C02168C81700044E
:1040500040EA11480F046246002338464146FDF706
:10406000BCFA32460023CDE90201FDF7B6FA206022
:104070000948D0F804C06068C117090441EA10413A
:104080000704624600233846FDF7A7FA32460023AC
:1040900004E0000014000020A47C0008CDE9020127
:1040A000FDF79BFA60601148D0F804C0A068C11702
:1040B000090441EA10410704624600233846FDF72F
:1040C0008CFA32460023CDE90201FDF786FAA060A2
:1040D000A068002804DDA068A0F58030A06003E09F
:1040E000A06800F58030A0600020E2E5A47C000814
:1040F0002DE9FC5F0746884600263F494968087855
:1041000001AB03220D21FEF7B6F810B10720BDE880
:10411000FC9F9DF8040000F01F008DF804009DF83E
:10412000050000F01F008DF805009DF8060000F066
:104130001F008DF80600002459E057F8240058F8B5
:104140002410A0EB010BBBF1000F01DB594601E08D
:10415000CBF10001084603F0BDFA4FF08F4100900B
:1041600003F086F9824601A8005D78B32349086808
:1041700003F0C8FA83465946214803F079F981468D
:1041800004E02049484603F005FB814601A8005D94
:10419000401EC0B201A908550028F2D14946504638
:1041A00003F066F983464FF07E5103F079FC054633
:1041B00000BF25F00040834610488169584603F04F
:1041C000B5FB13D20120A04006430FE0FFE70B48E8
:1041D0000169504603F0AAFA05D3084841695046E0
:1041E00003F0A4FB02D20120A0400643641C032C70
:1041F000A3DB30468BE7000014000020A47C0008FD
:1042000000B04C4554E3853F10B50446204600F00D
:104210000FF80346E01C00F00BF843EAC00083B23D
:10422000A01D00F005F843EA801083B2184610BDC7
:10423000014691F90020002A01DD00201EE091F9DD
:104240000020002A01DA042018E091F90120002A58
:1042500001DD012012E091F90120002A01DA052098
:104260000CE091F90220002A01DD022006E091F91C
:104270000220002A01DA062000E007207047000033
:104280000EB5002600270024002500202A490860DA
:104290002A49C1F894010920FEF752F94820FEF797
:1042A00051FE2748416848208847FDF7B3FDFDF7D8
:1042B0006BFF00BF00F096F90028FBD1FDF734FD3D
:1042C00039E06A4601A902A800F07AF840BB781CE0
:1042D000C7B20C2F24D10027002411E001250BE0E8
:1042E000184800EBC42050F82510164800EBC422F3
:1042F000681E42F820106D1CB5F5007FF0DB641CD1
:10430000032CEBDB0F490298C1F8FC070D4800991C
:10431000C0F8FC1F00F580500199C0F8FC17761C0E
:10432000402E08D10848006808B9012000E00020AC
:10433000054908600026C4E7948121420000234219
:10434000AC000020F01900209401234270470000C7
:1043500070B50446002624F00104184890F82400A3
:1043600008B1002070BD1548807A10B94FF0FF30B9
:10437000F8E71248057C807A204010490874084606
:10438000007CA04202D04FF0FF3600E0002614B9B6
:104390000A48007D18B1012001F07AF902E00020FE
:1043A00001F076F93CB100F0ABFC20B10348057494
:1043B0004FF0FF30D6E73046D4E70000140000206D
:1043C0002DE9F04F99B004460D4616464FF07E5742
:1043D0004FF000084FF000094FF0000A12A813A98F
:1043E00018AB0EAACDE9001014A916A8FEF788FF95
:1043F00018B1012019B0BDE8F08FBDF84C0000F4F1
:10440000807000287ED00E9803F064F983464FF048
:104410009D4103F02DF807460F9803F05BF98346A2
:104420004FF09D4103F024F88046109803F052F9B4
:1044300083464FF09D4103F01BF88146119803F02D
:1044400049F983464FF09D4103F012F88246394600
:104450004FF0804003F09EF94946059003F09AF929
:10446000414607904FF0404003F094F951460590C3
:1044700003F090F90690079902F08CFF834602F052
:104480005DFFCDE90801FEF723FA4FF06632544B89
:10449000CDE90A0102F078FCCDE90C0102F022FA24
:1044A000206049464FF0804003F074F9494602907D
:1044B00003F070F9414604904FF0404003F06AF970
:1044C0004146029003F066F90390049903F0E8FA7C
:1044D00083464FF07E5102F05DFF059002F02EFF03
:1044E000CDE9080139464FF0804003F053F94146C9
:1044F000039003F04FF9494604904FF0804003F0D9
:1045000049F900E068E05146039003F043F983461F
:10451000049902F03FFF059002F010FFCDE906017B
:10452000DDE90823FEF71CFC4FF066322C4BCDE989
:104530000A0102F029FCCDE90C0102F0D3F9286050
:104540005146504603F026F949460490484603F088
:1045500021F941460390404603F01CF93946019089
:10456000384603F017F90090019902F013FF02900A
:10457000039903F095FA8346049903F091FA0590A4
:1045800002F0DCFECDE908015146384603F002F99D
:1045900049460490404603F0FDF80390049902F068
:1045A000F9FE4FF08041059003F0F4F8834602F0E5
:1045B000C5FECDE90601DDE90823FEF7D1FB4FF08A
:1045C0006632074BCDE90A0102F0DEFBCDE90C01B2
:1045D00002F088F9306001E002200BE7002009E7D3
:1045E00066A64C4070B50024FDF7ACFC00F024F941
:1045F000002840D1782000F02FFFC4B20CB1012078
:1046000070BD7820FFF7A4FEC4B20CB10220F7E71A
:10461000642000F0D3FEC4B20CB10320F0E7FEF733
:1046200063FEC4B20CB10420EAE71548FFF7ECFDC5
:104630000546FFF7B3F8C4B20CB10520E0E740F23D
:104640007310FEF7F9FCC4B20CB10620D8E7642061
:10465000FEF7D4FFC4B20CB10720D1E700F0CEFFC3
:1046600004460CB10820CBE7012000F0A3FDC4B242
:104670001CB10920C4E70A20C2E70020C0E70000FF
:104680004000002001461148407A30B1012807D08F
:10469000022808D003280CD108E0022008700BE0A3
:1046A0000420087008E00820087005E01020087059
:1046B00002E04FF0FF30704700BF0448C07C18B1E3
:1046C00008784006000E08700020F4E7140000206F
:1046D00001461348407A30B1012808D002280AD098
:1046E000032810D10BE04FF4804008800EE041F623
:1046F0009C7008800AE04FF48050088006E04FF478
:104700000060088002E04FF0FF30704700BF0448AF
:10471000C07C10B10888401008800020F5E7000038
:104720001400002001460248007C087000207047F9
:104730001400002001460F48007A30B1012807D04C
:10474000022809D003280FD10AE0FA2008800EE0E1
:104750004FF4FA7008800AE04FF47A70088006E09F
:104760004FF4FA60088002E00020088000BF00BF1C
:10477000002070471400002001460E48007A30B136
:10478000012807D0022808D003280CD108E00A48E5
:1047900008600BE00948086008E00948086005E087
:1047A0000848086002E04FF0FF30704700BF00206B
:1047B000FBE70000140000200000034300008342D8
:1047C000333303423333834101461248C07A082809
:1047D00017D2DFE800F01704070A0D101318BC20E9
:1047E000088013E06220088010E02A2008800DE095
:1047F000142008800AE00A20088007E005200880CD
:1048000004E000BF00BF0020088000BF00BF002000
:1048100070470000140000200146064890F824006C
:1048200010B14FF0FF3070470248C0890880002067
:10483000F9E70000140000201CB580208DF800006E
:10484000654A1268917C644A526810786B4601226E
:10485000FDF7B7FD10B14FF0FF301CBD6420FEF72F
:1048600091FB00208DF800005B4A1268917C5A4A47
:10487000526810786B460122FDF7A3FD10B14FF08E
:10488000FF30EAE7544A1268917D534A5268107823
:104890006B460622FDF7EFFC10B14FF0FF30DCE76E
:1048A0009DF80500C007400F9DF8031001F00101BD
:1048B00040EA41009DF8011001F0010140EA0104C5
:1048C00094B1012C03D101214348C17431E0022C81
:1048D00003D100214048C1742BE021463FA0FCF7E2
:1048E000A1FE4FF0FF30B8E73B4A1268D1783A4A50
:1048F000526810786B460122FDF7BDFC10B14FF0F5
:10490000FF30AAE79DF8000000F00F042CB93D48E5
:10491000FCF788FE4FF0FF309FE7042C06D13AA049
:10492000FCF780FE01212C48C17402E000212A48D6
:10493000C174FF2128488172FF2027490872FF2196
:1049400025484172C1724FF6FF71C181FF21017488
:1049500081740121017380F82210002180F8231056
:10496000417501751630016041608160163880F82C
:10497000241080F82510C1844FF4FA6000F062FC26
:1049800010B14FF0FF3068E7022000F02BFB10B1B0
:104990004FF0FF3061E72A2000F0CEFC10B14FF05D
:1049A000FF305AE7322000F009FD10B14FF0FF3020
:1049B00053E70020FFF7CCFC10B14FF0FF304CE77D
:1049C000002000F051FB10B14FF0FF3045E7002010
:1049D00000F042FD002040E714000020556E737582
:1049E00070706F7274656420736F6674776172653E
:1049F0002070726F64756374207265762025642E52
:104A00000A00000010B8000848616C662073656EEB
:104A10007369746976697479207061727420666F45
:104A2000756E642E0A0000002DE9F04385B005463E
:104A30000E4690469946294890F8250020B14FF03F
:104A4000FF3005B0BDE8F08316B94FF0FF30F8E74E
:104A5000002423E0281B102801DD102000E0281B83
:104A600087B232193946204600F05EFD10B14FF092
:104A7000FF30E6E701AA3946204600F001F910B1FF
:104A80004FF0FF30DDE730193A4601A9FCF752FF3D
:104A900010B16FF00100D4E7E01984B2AC42D9DB69
:104AA0004FEA28208DF8000008F0FF008DF8010083
:104AB0000A4A1268917E094A526810786B460222AF
:104AC000FDF77FFC10B14FF0FF30BAE7012103483A
:104AD00080F82510A0F826900020B2E714000020EE
:104AE00038B50446282C02DD4FF0FF3038BDDCB964
:104AF000002000F0EBFB00208DF8000007208DF86F
:104B000001002E4A1268917C2C4A526810786B463C
:104B10000222FDF756FC10B14FF0FF30E6E700210E
:104B2000264801750020E1E7012000F0CFFB20209E
:104B30008DF80000012C06D100208DF80100052021
:104B400000F0FAFB17E0052C06DC01208DF80100CF
:104B5000052000F0F1FB0EE0142C06DC02208DF89D
:104B600001000A2000F0E8FB05E003208DF80100B9
:104B7000142000F0E1FB9DF80100072101EB8010FB
:104B8000C0B28DF801000D4A1268917C0B4A526840
:104B900010786B460222FDF714FC10B14FF0FF3085
:104BA000A4E70821054881720021017301210175E4
:104BB0000020FFF7CDFB002098E700001400002044
:104BC000F8B504460F4616462C4890F8240010B954
:104BD0004FF0FF30F8BD2948807A10B94FF0FF3010
:104BE000F8E7264A1268917A244A526810786B4690
:104BF0000222FDF740FB10B14FF0FF30EAE79DF8CD
:104C000001009DF8001040EA0125A54203DA0020CA
:104C10003070401EDEE7194840684088B5EB600FF1
:104C200017DD164A1268517C144A526810786B4698
:104C30000122FDF720FB10B14FF0FF30CAE79DF8CD
:104C4000000000F0100020B100F05AF86FF00100F1
:104C5000C0E7E2B2094B1B68D97A084B5B68187849
:104C60003B46FDF708FB10B14FF0FF30B2E795FB74
:104C7000F4F0401E30700020ACE70000140000206B
:104C8000F8B504460D46164616B94FF0FF30F8BD8C
:104C90001A48807A10B94FF0FF30F8E720128DF8EB
:104CA0000000E0B28DF801009DF80100284413498E
:104CB00049684989884202DD4FF0FF30E7E70F4A33
:104CC0001268117E0D4A526810786B460222FDF779
:104CD00078FB10B14FF0FF30D9E7EAB2074B1B6801
:104CE000597D064B5B6818783346FDF7C4FA10B15E
:104CF0004FF0FF30CBE70020C9E700001400002090
:104D000008B57048807A10B94FF0FF3008BD002018
:104D100000906C4A1268D17B6A4A526810786B46E0
:104D20000122FDF74EFB10B14FF0FF30EEE7654A70
:104D300012685179634A526810786B460122FDF778
:104D400040FB10B14FF0FF30E0E75E4A1268117986
:104D50005C4A526810786B460122FDF732FB10B1B5
:104D60004FF0FF30D2E7574890F82400002853D086
:104D70000C200090534A12681179524A52681078F8
:104D80006B460122FDF71DFB10B14FF0FF30BDE770
:104D90003220FEF7F7F8C02000904A48807A00F0F1
:104DA000010020B19DF8000040F020000090454A2D
:104DB00012681179434A526810786B460122FDF758
:104DC00000FB10B14FF0FF30A0E73E48407C10B12F
:104DD0000220009001E0002000903A4A1268D17B46
:104DE000384A526810786B460122FDF7EAFA10B192
:104DF0004FF0FF308AE700200090324A1268517964
:104E0000304A526810786B460122FDF7DAFA002822
:104E100055D04FF0FF3079E704200090294A1268FE
:104E20001179284A526810786B460122FDF7C9FAB9
:104E300010B14FF0FF3069E72248807C20B921484B
:104E4000807A00F0010010B94020009001E060205D
:104E500000901C4A126811791A4A526810786B4601
:104E60000122FDF7AEFA10B14FF0FF304EE73220CD
:104E7000FEF788F81348407C10B10120009001E053
:104E8000002000900F4A1268D17B0E4A52681078B9
:104E90006B460122FDF795FA10B14FF0FF3035E770
:104EA000084A12685179074A52681078054B103346
:104EB0000122FDF786FA10B14FF0FF3026E70020FF
:104EC00024E70000140000202DE9F04F8DB0834648
:104ED0000F4602200C90424890F8240020B1002098
:104EE00000F068F9012600E0002603A8FFF722FC85
:104EF00005A8FFF7C7FB01A8FFF766FC02A8FFF7AC
:104F00008BFC374890F80AA004A8FFF70BFC00249C
:104F100007E0002239465846FEF7B2FE00B902E02B
:104F2000641C022CF5DB00BF022C01D1002528E017
:104F3000002407E0012206A909A8FEF7A1FE00B996
:104F400002E0641C022CF5DB00BF022C01D100251D
:104F500017E006A93846FDF749FC00F0FF0809A94B
:104F60005846FFF7C5F800F0FF090025B9F1000F1A
:104F700001D145F00105B8F1000F01D145F002055E
:104F800000BFFF2016490872FF2115484172C17207
:104F90004FF6FF71C181FF218172017401210173FC
:104FA000BDF80C0000F04EF99DF8140000F01AF85E
:104FB000BDF8040000F0C0F9BDF8080000F0FEF9EB
:104FC000504600F049FA9DF81000FFF7C1F916B1FC
:104FD000012000F0EFF828460DB0BDE8F08F00008A
:104FE0001400002038B504461E48807A10B94FF0EE
:104FF000FF3038BD022C06D0042C07D0082C08D076
:10500000102C0CD108E0002000900BE0082000904C
:1050100008E01020009005E01820009002E04FF01A
:10502000FF30E6E700BF0F48407A9DF80010B0EB74
:10503000E10F01D10020DCE70A4A1268D179094A60
:10504000526810786B460122FDF7BBF910B14FF0A2
:10505000FF30CEE79DF80000C110024841720020E9
:10506000C7E700001400002038B504465048807C93
:10507000A04201D1002038BD002C46D04C4A126815
:1050800011794B4A526810786B460122FDF7F3F80C
:1050900010B14FF0FF30EEE79DF8000020F0200047
:1050A0000090434A12681179414A526810786B4661
:1050B0000122FDF786F910B14FF0FF30DBE7032046
:1050C000FDF760FF02200090394890F8220020B1DF
:1050D0009DF8000040F080000090354890F82300D3
:1050E00020B19DF8000040F030000090304A126876
:1050F000117D2F4A526810786B460122FDF761F945
:10510000002851D04FF0FF30B5E7294A12681179D5
:10511000274A526810786B460122FDF7ACF810B1AF
:105120004FF0FF30A7E72248807A00F0010028B155
:105130009DF8000040F02000009004E09DF8000081
:1051400020F0200000901A4A12681179184A52681B
:1051500010786B460122FDF734F910B14FF0FF30A3
:1051600089E70320FDF70EFF114890F8220010B1E7
:105170008020009001E0002000900D4890F823006E
:1051800020B19DF8000040F030000090084A1268FD
:10519000117D074A526810786B460122FDF711F91C
:1051A00010B14FF0FF3066E701488474002062E7D9
:1051B0001400002038B50446214890F82400A0428D
:1051C00001D1002038BD24B31D4890F8250010B946
:1051D0004FF0FF30F6E7002000F05AFA0020FFF70A
:1051E00043FF1749C88C00F0E9F8002000901449EB
:1051F000496808786B4601222321FDF7E2F8012176
:105200000F4880F82410012000F042FAFFF778FDE3
:1052100013E0002000F03CFA0948007C00900849A7
:10522000496808786B4601222321FDF7CAF800215E
:10523000034880F82410FFF763FD0020C2E7000058
:105240001400002038B504461F48807A10B94FF08A
:10525000FF3038BDFA2C09D0B4F5FA7F09D0B4F587
:105260007A7F09D0B4F5FA6F0CD108E000200090E5
:105270000BE00820009008E01020009005E01820C6
:10528000009002E04FF0FF30E3E700BF0E48007AE5
:105290009DF80010B0EBE10F01D10020D9E70A4AD8
:1052A00012689179084A526810786B460122FDF71E
:1052B00088F810B14FF0FF30CBE79DF80000C01028
:1052C000014908720020C4E71400002038B50446E4
:1052D000184890F82300A04201D1002038BD14B135
:1052E0003020009001E0002000901248807C20B126
:1052F0009DF8000040F0020000900E4890F8220057
:1053000020B19DF8000040F080000090094A12682A
:10531000117D084A526810786B460122FDF751F85A
:1053200010B14FF0FF30D9E7024880F82340002049
:10533000D4E700001400002038B504461E48807AE7
:1053400010B94FF0FF3038BDBC2C02DB01200090BB
:1053500015E0622C02DB0220009010E02A2C02DB18
:10536000032000900BE0142C02DB0420009006E0E8
:105370000A2C02DB0520009001E0062000900E4878
:10538000C07A9DF80010884201D10020DBE70A4A6C
:1053900012689178084A526810786B460122FDF72E
:1053A00010F810B14FF0FF30CDE79DF80010024823
:1053B000C1720020C7E700001400002038B5044681
:1053C0002448807A10B94FF0FF3038BD214890F85A
:1053D000240010B14FF0FF30F7E71E48007D50B1B8
:1053E00034B1282C04DCE0B2FFF77AFB0020ECE7B4
:1053F0000020FFF775FB042C01DA042404E0B4F567
:105400007A7F01DD4FF47A744FF47A7090FBF4F0F8
:10541000401EC0B200900F4A126851780D4A52687F
:1054200010786B460122FCF7CCFF10B14FF0FF3033
:10543000CBE79DF80000401C4FF47A7191FBF0F02F
:1054400081B20448C1810146C9894810FFF774FF41
:105450000020BAE71400002038B5044604F07000BC
:1054600010B10120009005E014B10020009001E08F
:10547000402000902B4A1268917C2A4A526810788A
:105480006B460122FCF79DFF20B100212548817267
:10549000481E38BD9DF8000020F0400121480173EE
:1054A0000020009004F0400020B99DF8000040F07A
:1054B0000400009004F0200020B99DF8000040F0A6
:1054C0000200009004F0100020B99DF8000040F0A8
:1054D0000100009004F0080020B99DF8000040F0A1
:1054E000380000900F4A1268D17C0E4A526810783A
:1054F0006B460122FCF765FF20B10021094881724B
:10550000481EC6E724B1082C02D00020FFF7DEFEBB
:1055100004488472002101753220FDF733FD00201C
:10552000B7E7000014000020F8B504460D46164603
:1055300016B94FF0FF30F8BD1A48807A10B94FF015
:10554000FF30F8E720128DF80000E0B28DF801007E
:105550009DF801002844134949684989884202DDC1
:105560004FF0FF30E7E70F4A1268117E0D4A52688C
:1055700010786B460222FCF724FF10B14FF0FF3089
:10558000D9E7EAB2074B1B68597D064B5B68187870
:105590003346FCF716FF10B14FF0FF30CBE7002089
:1055A000C9E70000140000200146086870470000A9
:1055B0002DE9F0478246DFF83880DFF83890002682
:1055C0000D4D002409E059F8260045F8240000217B
:1055D000601C45F82010761CA41CB4F5007FF2DB9B
:1055E000044F39462846FDF757F94046BDE8F08795
:1055F0006666A640F0110020F001002070B588B06A
:1056000002A905A8FFF760FC0446032C3ED101A8BF
:10561000FFF7B2F8059802F05DF80646019902F02E
:10562000B9F8054602F01AF80590069802F052F80B
:105630000646019902F0AEF8054602F00FF8069012
:10564000079802F047F80646019902F0A3F80546CC
:1056500002F004F8079005A8FEF708F86846FFF77F
:1056600037F8BDF80010029848430290BDF80010CA
:10567000039848430390BDF80010049848430490F1
:1056800002A8FDF723FF002008B070BD0120FBE752
:1056900038B50446214890F82400C0B114B1022066
:1056A000009001E0002000901C4A1268D17B1B4A48
:1056B000526810786B460122FCF783FE10B14FF060
:1056C000FF3038BD9DF800101448417423E01348A2
:1056D000807A10B94FF0FF30F3E724B10F48407CD7
:1056E00008B10020EDE714B10120009001E0002096
:1056F00000900A4A1268D17B084A526810786B46BB
:105700000122FCF75EFE10B14FF0FF30D9E79DF8A3
:105710000010024841740020D3E70000140000206C
:105720002DE9F04106460F4601F038FC041E0D46F7
:1057300018BF0120284320F00040C0F17F6000F135
:10574000E040C00F0ED0301C18BF0120384320F0BD
:105750000040C0F17F6000F1E040C00F04BF0120B5
:10576000FCF7C3F920462946BDE8F08170B505462F
:1057700002F00EF9044620F00040C0F1FF40C00FD7
:1057800008D025F00040C0F1FF40C00F04BF012049
:10579000FCF7ABF9204670BD30B595B0054613ABAC
:1057A00012AA09A9284600F03FFA044614B120467F
:1057B00015B030BD0020149026E0224909689DF8FC
:1057C000502001EBC20113AB11AA486801A900F0F7
:1057D0002BFA04460CB12046EAE709A901A800F01B
:1057E000DDFC60B99DF844009DF84810884201DD59
:1057F0000220DDE79DF85000124988750AE09DF807
:105800005000401CC0B214900E48007D9DF850100E
:105810008842D2DC00BF0B48007D9DF850108842C2
:1058200001D10420C4E714A9284600F0DDFA04469B
:105830000CB12046BCE79DF8500002494875002095
:10584000B6E70000AC0000202DE9F0419AB09C487A
:10585000847D007DA04202DC1AB0BDE8F081984949
:10586000096801EBC40106AB07AA486808A900F063
:10587000DBF908A993A0FBF7D5FE002644E0904889
:10588000008B0121B1400840D8B122218FA0FBF745
:10589000C9FE304600F02EFB8949243147183946AD
:1058A0008BA0FBF7BFFE222188A0FBF7BBFE304692
:1058B00000F020FB82492431084410A941F8260059
:1058C00018E0304600F016FB7D492431085810A935
:1058D00041F826007A48C07D30B910A850F826104B
:1058E0007CA0FBF79FFE05E010A850F826107AA0D8
:1058F000FBF798FE9DF81C00401EB04202D078A035
:10590000FBF790FE701CC6B29DF81C008642B6DB09
:1059100074A0FBF787FE00F03DFB6948407D0B2833
:105920000DD2DFE800F0060D151E27323F4E5F72E4
:1059300087006349096851F834008047054690E0C4
:105940005F4A126852F8341010988847054688E07C
:105950005B4B1B6853F83420DDE910019047054686
:105960007FE0574F3F6857F8343010A807C8984772
:10597000054676E0DFF848C1DCF800C05CF834701A
:1059800010A80FC8B84705466BE01498DFF830C17F
:105990000090DCF800C05CF8347010A80FC8B8475D
:1059A00005465EE0DDE91401DFF814C1CDE9000130
:1059B000DCF800C05CF8347010A80FC8B847054682
:1059C0004FE0DDE914121698DFF8F4C0CDE90012BB
:1059D0000290DCF800C05CF8347010A80FC8B8471B
:1059E00005463EE0DDE91423DDE91610DFF8D0C0FE
:1059F000CDE90023CDE90210DCF800C05CF834707A
:105A000010A80FC8B84705462BE0DDE91523DDE9EE
:105A10001710CDE90123CDE903101498DFF8A0C0D9
:105A20000090DCF800C05CF8347010A80FC8B847CC
:105A3000054616E0DDE91623DDE91810CDE902235D
:105A4000CDE90410DDE91401DFF874C0CDE90001EF
:105A5000DCF800C05CF8347010A80FC8B8470546E1
:105A600000BF00BF00F056FA9DF8180001280CD1C5
:105A70001348C07D20B929461BA0FBF7D3FD07E0E2
:105A800029461BA0FBF7CEFD02E018A0FBF7CAFDDC
:105A90000B4890F8EC0088B10948D0F8F0000A21D2
:105AA000B0FBF1F201FB12070548D0F8F000B0FBA3
:105AB000F1F83A46414611A0FBF7B4FD00BFCBE632
:105AC000AC0000200D0A25732800000025630000AB
:105AD00025730000256C6400305825580000000034
