:020000040800F2
:1000000030350020A9020008AD020008AF02000848
:10001000B1020008B3020008B502000800000000A9
:10002000000000000000000000000000B70200080F
:10003000B902000800000000BB020008BD02000871
:10004000BF020008BF020008BF020008BF0200088C
:10005000BF020008BF02000849260008BF020008CE
:10006000BF020008BF020008BF020008BF0200086C
:10007000BF020008BF020008BF020008BF0200085C
:10008000BF020008BF020008BF020008BF0200084C
:10009000BF020008BF020008BF020008BF0200083C
:1000A000BF020008BF020008BF020008BF0200082C
:1000B000BF020008BF020008C1300008BF020008EC
:1000C000BF020008BF020008BF020008BF0200080C
:1000D000BF0200084D310008BF020008BF0200083F
:1000E000BF020008BF020008BF02000800F002F8CB
:1000F00000F0CBF80AA090E8000C82448344AAF1F7
:100100000107DA4501D100F0C0F8AFF2090EBAE8F4
:100110000F0013F0010F18BFFB1A43F0010318473B
:100120006CC800008CC800000A444FF0000C10F8A6
:10013000013B13F0070408BF10F8014B1D1108BF65
:1001400010F8015B641E05D010F8016B641E01F805
:10015000016BF9D113F0080F1EBF10F8014BAD1C55
:100160000C1B09D16D1E58BF01F801CBFAD505E073
:1001700014F8016B01F8016B6D1EF9D59142D6D3CD
:10018000704700000023002400250026103A28BFF5
:1001900078C1FBD8520728BF30C148BF0B607047F9
:1001A0004B1C012B98BF70472DE9F003911C9B0855
:1001B000B1F80480B1F802900A8831F802CC80448A
:1001C000814402448444D9F80070D8F8006015686E
:1001D000DCF80040C9F80060C8F80070CCF80050A6
:1001E0001460D9F80470D8F804605568DCF804404D
:1001F000C9F80460C8F80470CCF8045054600831A1
:100200005B1ED5D1BDE8F00370474B1C012B98BF96
:1002100070472DE9F003911C9B08B1F80480B1F8F8
:1002200002900A8831F802CC00EB580800EB59091B
:1002300000EB520200EB5C0CD9F80070D8F80060BB
:100240001568DCF80040C9F80060C8F80070CCF808
:100250000050146008315B1EDFD1BDE8F003704729
:10026000642901F0BB86752901F0B886782901F070
:10027000F186632902F02281732902F02781002090
:1002800070471FB51FBD10B510BD02F07BF91146B8
:10029000FFF7F7FF04F0D2FE02F099F903B4FFF77D
:1002A000F2FF03BC03F017F808480047FEE7FEE73B
:1002B000FEE7FEE7FEE7FEE7FEE7FEE7FEE7FEE716
:1002C00003480449024A044B70470000ED0000084F
:1002D000303300203035002030330020002A08BFA2
:1002E00070472DE9F04715460E4604464FF00008CA
:1002F00054F8047B54F8040B014608F033FA8146A5
:100300003946084608F02EFA494608F02BF83746D9
:10031000361D10F1FF4F28BFC7F8008002D206F04B
:100320008FF938606D1EE3D1BDE8F0872DE9FF4FEE
:10033000A3B06FF003022398239940680290896864
:10034000209123990988189102EB810108440390B8
:100350002698C0081F9000F084831898C008219048
:1003600024980168039801602498039950F8042F99
:1003700041F8042F50F8042F41F8042F50F8042FAF
:1003800041F8042F00220C920192139212921092C3
:100390000F920E920D92209D029C50F8042F41F86E
:1003A000042F50F8042F41F8042F50F8042F41F87F
:1003B000042F42684A60083108300391249054F8B1
:1003C000040B0B9054F804AB54F8040B089054F849
:1003D000049BDDF884B054F8048BBBF1000F54F893
:1003E000047B54F8046B00F0B28200BF55F8040B94
:1003F000009054F8040B0A9000990B9808F0B2F999
:1004000011905046009908F0ADF91B90009908989A
:1004100008F0A8F917904846009908F0A3F91A9037
:100420004046009908F09EF919903846009908F066
:1004300099F916903046009908F094F915900099B2
:100440000A9808F08FF9149055F8040B009054F8AE
:10045000040B0B901199019807F084FF01901B99F0
:10046000139807F07FFF13901799129807F07AFFFF
:1004700012901A99109807F075FF109019990F981B
:1004800007F070FF0F9016990E9807F06BFF0E9013
:1004900015990D9807F066FF0D9014990C9807F0C8
:1004A00061FF0C905046009908F05CF9119000999A
:1004B000089808F057F91B904846009908F052F93F
:1004C00017904046009908F04DF91A903846009967
:1004D00008F048F919903046009908F043F9169051
:1004E00000990A9808F03EF9159000990B9808F0C9
:1004F00039F9149055F8040B009054F804AB119995
:10050000019807F02FFF01901B99139807F02AFF1D
:1005100013901799129807F025FF12901A991098C6
:1005200007F020FF109019990F9807F01BFF0F900C
:1005300016990E9807F016FF0E9015990D9807F072
:1005400011FF0D9014990C9807F00CFF0C90009976
:10055000089808F007F911904846009908F002F948
:100560001B904046009908F0FDF817903846009916
:1005700008F0F8F81A903046009908F0F3F819904E
:1005800000990A9808F0EEF8169000990B9808F078
:10059000E9F815905046009908F0E4F8149055F8E1
:1005A000040B009054F8040B08901199019807F07F
:1005B000D9FE01901B99139807F0D4FE1390179958
:1005C000129807F0CFFE12901A99109807F0CAFE01
:1005D000109019990F9807F0C5FE0F9016990E9874
:1005E00007F0C0FE0E9015990D9807F0BBFE0D9018
:1005F00014990C9807F0B6FE0C904846009908F044
:10060000B1F811904046009908F0ACF81B903846BC
:10061000009908F0A7F817903046009908F0A2F862
:100620001A9000990A9808F09DF8199000990B9873
:1006300008F098F816905046009908F093F8159035
:100640000099089808F08EF8149055F8040B009063
:1006500054F8049B1199019807F084FE01901B99AE
:10066000139807F07FFE13901799129807F07AFEFF
:1006700012901A99109807F075FE109019990F981A
:1006800007F070FE0F9016990E9807F06BFE0E9013
:1006900015990D9807F066FE0D9014990C9807F0C7
:1006A00061FE0C904046009908F05CF811903846C5
:1006B000009908F057F81B903046009908F052F85E
:1006C000179000990A9808F04DF81A9000990B9825
:1006D00008F048F819905046009908F043F8169031
:1006E0000099089808F03EF815904846009908F0DF
:1006F00039F8149055F8040B009054F8048B1199B4
:10070000019807F02FFE01901B99139807F02AFE1D
:1007100013901799129807F025FE12901A991098C5
:1007200007F020FE109019990F9807F01BFE0F900C
:1007300016990E9807F016FE0E9015990D9807F071
:1007400011FE0D9014990C9807F00CFE0C90384691
:10075000009908F007F811903046009908F002F867
:100760001B9000990A9807F0FDFF179000990B98CD
:1007700007F0F8FF1A905046009907F0F3FF199020
:100780000099089807F0EEFF16904846009907F088
:10079000E9FF15904046009907F0E4FF149055F8E2
:1007A000040B009054F8047B1199019807F0DAFDCE
:1007B00001901B99139807F0D5FD13901799129883
:1007C00007F0D0FD12901A99109807F0CBFD109009
:1007D00019990F9807F0C6FD0F9016990E9807F01B
:1007E000C1FD0E9015990D9807F0BCFD0D90149960
:1007F0000C9807F0B7FD0C903046009907F0B2FF57
:10080000119000990A9807F0ADFF1B9000990B9882
:1008100007F0A8FF17905046009907F0A3FF1A9021
:100820000099089807F09EFF19904846009907F034
:1008300099FF16904046009907F094FF15903846AE
:10084000009907F08FFF149055F8040B009054F8AE
:10085000046B1199019807F085FD01901B9913987D
:1008600007F080FD13901799129807F07BFD129006
:100870001A99109807F076FD109019990F9807F0C3
:1008800071FD0F9016990E9807F06CFD0E9015995A
:100890000D9807F067FD0D9014990C9807F062FD14
:1008A0000C9000990A9807F05DFF119000990B9841
:1008B00007F058FF1B905046009907F053FF179020
:1008C0000099089807F04EFF1A904846009907F0E3
:1008D00049FF19904046009907F044FF16903846AA
:1008E000009907F03FFF15903046009907F03AFF56
:1008F0001490ABF1010B1199019807F033FD0190B1
:100900001B99139807F02EFD13901799129807F072
:1009100029FD12901A99109807F024FD109019994A
:100920000F9807F01FFD0F9016990E9807F01AFD0B
:100930000E9015990D9807F015FD0D9014990C98CF
:1009400007F010FD0C90BBF1000F7FF44FAD18982D
:1009500010F0070B63D000BF55F8040B009054F85B
:10096000040B0A9000990B9807F0FCFE119050467A
:10097000009907F0F7FE1B900099089807F0F2FE27
:1009800017904846009907F0EDFE1A9040460099EE
:1009900007F0E8FE19903846009907F0E3FE16903C
:1009A0003046009907F0DEFE159000990A9807F08E
:1009B000D9FECDF82CA0DDF820A0CDF82090C146BE
:1009C0001490B84637460A9E1199019807F0CAFC60
:1009D00001901B99139807F0C5FC13901799129872
:1009E00007F0C0FC12901A99109807F0BBFC109009
:1009F00019990F9807F0B6FC0F9016990E9807F00A
:100A0000B1FC0E9015990D9807F0ACFC0D9014995F
:100A10000C9807F0A7FC0C90BBF1010B9CD102983D
:100A2000203002902599019808602598139940F884
:100A3000041F129940F8041F109940F8041F0F99E1
:100A400040F8041F0E9940F8041F0D9940F8041F48
:100A50000C994160083025901F98401E1F907FF42C
:100A60007FAC269810F0070850D024980025016824
:100A7000039801602498209E001D24900398029CF6
:100A8000001D0390DDF860903168206807F06AFE71
:100A9000294607F067FC371D261D0546B9F10104FC
:100AA00029D0B4F1004F7DD2002C24DD361F3F1F2A
:100AB00014F0010F09D057F8041F56F8040F07F07F
:100AC00051FE294607F04EFC0546641013D07968A4
:100AD000706807F047FE294607F044FC054657F8C2
:100AE000081F56F8080F07F03DFE294607F03AFCAC
:100AF0000546641EEBD1259805602598001D2590BC
:100B00000298001D0290B8F10108AED123981899FF
:100B100040684C1EA30820D0B3F1004F56D2002BE2
:100B20001BDD029A01469C4652F8045B41F8045BC7
:100B300052F8045B41F8045B52F8085B41F8085B2B
:100B400052F8045C41F8045CBCF1010CECD1029950
:100B500000EB031001EB0311029114F0030104BF39
:100B600027B0BDE8F08FB1F1004F44D20029DCBFBF
:100B700027B0BDE8F08F031F029A121F11F0010F7A
:100B800003D052F8040F43F8040F480804BF27B0FD
:100B9000BDE8F08F5168596052F8081F43F8081FEC
:100BA000401E00E003E0F5D127B0BDE8F08F3968C2
:100BB000306807F0D7FD294607F0D4FB0546641ED0
:100BC00006F1040607F10407F1D194E702990968D8
:100BD00040F8041B029951F8042F40F8042B51F8F7
:100BE000042F40F8042B4A68083140F8042B029186
:100BF0005B1EEBD1B1E7029A126840F8042B029A0F
:100C0000121D0292491EF6D127B0BDE8F08F70B5D3
:100C100004460498218008448000011F1D461846A0
:100C2000A26001F03BFB656070BD00002DE9F34F51
:100C30009BB00C461B98008801EB80051B9940086F
:100C400004EB8006D1F804800590CDE90B5405EB48
:100C500080075FEA900900F00481236802936268CC
:100C60001792A2681A92E268159229680E91686834
:100C70000690A8681290E868119030681890726821
:100C80000792B2681692F2680392D7E900A0139017
:100C9000B86810901846D7F80CB007F063FB44F81A
:100CA000040B0699179807F05DFB44F8040B1299A2
:100CB0001A9807F057FB44F8040B1199159807F0A0
:100CC00051FB44F8040B0E99029807F0DBFE0E90DE
:100CD0000699179807F0D6FE069012991A9807F011
:100CE000D1FE12901199159807F0CCFE1190514643
:100CF000189807F037FB46F8040B1399079807F08C
:100D000031FB46F8040B1099169807F02BFB46F8B8
:100D1000040B5946039807F025FB46F8040B504690
:100D2000189907F0AFFE14900799139807F0AAFEE0
:100D300013901699109807F0A5FE10905846039945
:100D400007F0A0FE824658F8040B019058F804BB47
:100D500001990E9807F006FD03905946069807F092
:100D600001FD02900199069807F0FCFC0690594697
:100D70000E9807F0F7FC0790DDE9021007F0F2FA91
:100D800045F8040BDDE9060107F07CFE45F8040B8D
:100D90005946149807F0E6FC03900199139807F060
:100DA000E1FC02905946139807F0DCFC069001998B
:100DB000149807F0D7FC8346DDE9021007F062FEC5
:100DC00047F8040B5946069807F0CCFA47F8040B8D
:100DD00058F8040B019058F804BB0199129807F0D9
:100DE000C1FC03905946119807F0BCFC0290019990
:100DF000119807F0B7FC06905946129807F0B2FC1C
:100E00000790DDE9021007F0ADFA45F8040BDDE9C3
:100E1000060107F037FE45F8040B5946109807F015
:100E2000A1FC03905046019907F09CFC02905046AB
:100E3000594607F097FC83460199109807F092FCF9
:100E40008246DDE9021007F01DFE47F8040B51460B
:100E5000584607F087FA47F8040BB9F101097FF407
:100E6000FCAE1B980223059942680C9800F0F8FB31
:100E70001B980599022342680B981DB0BDE8F04FFE
:100E800000F0EEBB2DE9F34FA7B00F46279800887E
:100E9000400801EB800404EB800606EB8005189601
:100EA0001A95CDE91D412799A5F1040A0AEB80099D
:100EB0004968400806900A910420199006200E9176
:100EC0000D911590306801903868A4F1040BA6F1DB
:100ED00004080090019907F045FA0290DDE900014D
:100EE00007F0D0FD0390706805907868019005992F
:100EF00007F038FA00900599019807F0C3FD0190BA
:100F0000606810900146039807F02CFA69680C910C
:100F100007F0B8FD169020680F900146019807F081
:100F2000B1FD2968059107F01DFA11900F990298FB
:100F300007F0A8FD059907F0A5FD149010990098F9
:100F400007F0A0FD0C9907F09DFD0B9010990398F8
:100F500007F098FD0C9907F005FA0C900F9901988D
:100F600007F000FA059907F08DFD12900F9902988D
:100F700007F0F8F9059907F0F5F947F8040B6168EF
:100F8000009807F0EFF9696807F0ECF947F8040BEF
:100F9000169844F8040B119844F8040B149846F87A
:100FA000040B0B9846F8040B0C9845F8040B1298A8
:100FB00045F8040B0A9901F108000D990A9001F116
:100FC00010000E990D9001F118000E900698801EE9
:100FD0004008209000F0C681306801903868009089
:100FE000019907F0BFF90290DDE9000107F04AFD21
:100FF00003907068059078680190059907F0B2F940
:1010000000900599019807F03DFD019060680C90F3
:101010000146039807F0A6F96968109107F032FDC0
:10102000169020680F900146019807F02BFD296863
:10103000059107F097F911900F99029807F022FD9A
:10104000059907F01FFD14900C99009807F01AFD00
:10105000109907F017FD0B900C99039807F012FDFB
:10106000109907F07FF90C900F99019807F07AF921
:10107000059907F007FD12900F99029807F072F991
:10108000059907F06FF947F8040B6168009807F0BD
:1010900069F9696807F066F947F8040B5AF8040C17
:1010A00002905BF8040C0190029907F05BF9009044
:1010B000DDE9010107F0E6FC0190DAF80000059097
:1010C000DBF800000390059907F04CF902900599B0
:1010D000039807F0D7FC10900390D9F80000059012
:1010E000D8F800001390059907F0CCFC22900199E4
:1010F00007F038F9269058F8041C1098109107F062
:10110000C1FC59F8041C0F9107F02CF92390109999
:10111000009807F0B7FC0F9907F0B4FC24901399DE
:10112000029807F0AFFC059907F0ACFC21900199FB
:10113000229807F0A7FC2290DDE90F0107F0A2FC3E
:10114000039907F09FFC17901399029807F00AF98A
:10115000059907F007F9CBF80000ABF104011F91E6
:1011600058F8041C009807F0FDF859F8041C07F023
:10117000F9F81F99ABF1080B08600A980068019014
:101180000A984168009108300A900199169807F072
:10119000E9FA10900099119807F0E4FA0F9001997C
:1011A000119807F0DFFA03900099169807F0DAFA21
:1011B0000290DDE90F1007F0D5F844F8040BDDE9E3
:1011C000021007F05FFC44F8040B0099239807F025
:1011D000C9FA10900199269807F0C4FA0F90009967
:1011E000269807F0BFFA03900199239807F0BAFAFE
:1011F0000290DDE90F1007F045FCA8F10401C8F8E2
:1012000000001C91DDE9021007F0ACF81C99A8F170
:10121000080808600D980D99006801900D984068C5
:101220000090199801EB80000D900199149807F037
:1012300099FA109000990B9807F094FA0F90019981
:101240000B9807F08FFA03900099149807F08AFA28
:101250000290DDE90F1007F085F846F8040BDDE990
:10126000021007F00FFC46F8040B2198019980F05A
:10127000004007F077FA10900099249807F072FA6E
:101280000F900199249807F06DFA03900099219826
:1012900007F068FA0290DDE90F1007F0F3FBAAF1FE
:1012A0000401CAF800000991DDE9020107F0EAFB38
:1012B0000999AAF1080A08600E98006801900E9832
:1012C0001599406800900E9800EB81000E900199EE
:1012D0000C9807F047FA10900099129807F042FA1C
:1012E0000F900199129807F03DFA039000990C981D
:1012F00007F038FA0290DDE90F1007F033F845F8EF
:10130000040BDDE9021007F0BDFB45F8040B009962
:10131000179807F027FA10900199229807F022FAFF
:101320000F900099229807F01DFA039001991798E1
:1013300007F018FA0290DDE90F1007F0A3FBA9F1FE
:101340000401C9F800001B91DDE9021007F00AF85A
:101350001B99A9F1080908602098401E20907FF48D
:101360003BAE00BFD6F80080D7F800904146484613
:1013700006F0F8FF02904146484607F083FB0390D1
:10138000D6F80490D7F804804946404606F0EAFFB4
:1013900000904946404607F075FB019060680F9049
:1013A0000146039806F0DEFFD5F80490494607F0A1
:1013B00069FB8346206809900146019807F062FBAB
:1013C0002968059106F0CEFF82460999029807F038
:1013D00059FB059907F056FB80460F99009807F0D6
:1013E00051FB494607F04EFB0B900F99039807F00D
:1013F00049FB494606F0B6FF0C900999019806F0A2
:10140000B1FF059907F03EFB81460999029806F065
:10141000A9FF059906F0A6FF38606168009806F0FC
:10142000A1FF696806F09EFF78600A98D0E9007015
:1014300000905846394607F095F9109050460099AB
:1014400007F090F90F905046394607F08BF90746A0
:101450005846009907F086F98246DDE90F1006F03C
:1014600081FF20605146384607F00CFB60600D9804
:10147000D0E900474046214607F074F983463946D3
:101480000B9807F06FF9824621460B9807F06AF92E
:1014900004464046394607F065F907465146584626
:1014A00006F060FF30603946204607F0EBFA7060C6
:1014B0000E98D0E9004621460C9807F053F9804673
:1014C0004846314607F04EF907464846214607F0A0
:1014D00049F9044631460C9807F044F90646394666
:1014E000404606F03FFF28603146204607F0CAFA22
:1014F000686027980423069942681E9800F0B0F8A7
:1015000027980423069942681D9800F0A9F82798A7
:10151000042306994268189800F0A2F827980699C3
:10152000042342681A9829B0BDE8F04F00F098B83B
:101530002DE9F0410588984617460C460646012AD3
:1015400018D1201DB5B1083815F0010F04D050F89E
:10155000081F81F00041016069080BD050F8082F86
:10156000491E82F0004240F8082B026882F00042D7
:101570000260F3D1B5F5807F1BD008DC102D13D0AD
:10158000202D16D0402D19D0802D0DD01CE0B5F5A2
:10159000007F13D0B5F5806F06D0B5F5006F08D089
:1015A000B5F5805F0AD00FE021463046FFF73EFBDD
:1015B0000AE021463046FFF765FC05E02946012395
:1015C0002046726800F04CF8B8F1000F04D0B189E1
:1015D0002046B268FEF7E4FD012F18BFBDE8F08198
:1015E000284607F077F801464FF07E5006F028FFB6
:1015F0000646002D08BFBDE8F081083C15F0010F3C
:101600000CD03146A06807F0ADF8A060E068314624
:1016100080F0004007F0A6F8E06008346D0808BFCD
:10162000BDE8F0813146A06807F09CF8A060E06852
:10163000314680F0004007F095F8E06031462069BF
:1016400007F090F820616069314680F0004007F0B3
:1016500089F8606110346D1EE4D1BDE8F0810000AE
:101660002DE9FF4FB3B00446349D2895ED080026C0
:1016700006EB050A0AEB050909EB050808EB050B63
:101680000BEB05004719229078192A9054F83B007B
:10169000039054F836000290039906F063FE009020
:1016A000DDE9020107F0EEF90990229854F83000C4
:1016B000039054F83A000290039906F053FE059007
:1016C000DDE9020107F0DEF9089054F837000390D5
:1016D00054F839000290039906F044FE1590DDE9B4
:1016E000020107F0CFF914902A9854F830000490C2
:1016F00054F838000390049906F034FE0290DDE9B6
:10170000030107F0BFF913901599009807F0BAF993
:1017100004901599009806F025FE0090029905980E
:1017200007F0B0F915900299059806F01BFE0146E6
:101730000590009806F016FE44F8360005990098CA
:1017400007F0A0F944F83B0004EBCB000D90406893
:1017500004EBC60B0390DBF804000290039906F03B
:1017600001FE0090DDE9020107F08CF90690229855
:1017700004EBC00016904068039004EBCA000E9082
:1017800040680290039906F0EDFD0590DDE9020145
:1017900007F078F9079004EBC7001A9040680390AF
:1017A00004EBC900199040680290039906F0DAFD35
:1017B0001090DDE9020107F065F90F902A9804EB1B
:1017C000C00018904068039004EBC8001790406870
:1017D0000B90039906F0C6FD029003990B9807F051
:1017E00051F912901099009807F04CF90390109954
:1017F000009806F0B7FD00900299059807F042F9AD
:1018000010900299059806F0ADFD014605900098EC
:1018100006F0A8FDCBF804000599009807F032F90E
:1018200001460D9841601099049806F09BFD44F81C
:1018300039001099049807F025F944F837001599F4
:10184000039807F01FF9014619984160159903980C
:1018500006F088FD01461A9841601399089807F030
:1018600011F9FE4F394606F07DFF8146139908981D
:1018700006F078FD394606F075FF08901299079832
:1018800007F000F9394606F06DFF83461299079874
:1018900006F068FD394606F065FF0790494609984D
:1018A00007F0F0F804904946099806F05BFD0990AE
:1018B0000899149807F0E6F813900899149806F020
:1018C00051FD14905946069807F0DCF803905946EC
:1018D000069806F047FD069007990F9807F0D2F892
:1018E000814607990F9806F03DFD83460146099809
:1018F00006F038FD44F83A005946099807F0C2F856
:1019000001462A9844F830104946049806F02AFD0A
:101910000146229844F830104946049807F0B2F87E
:1019200044F838001499069807F0ACF801460E9870
:1019300041601499069806F015FD0146189841601B
:101940001399039807F09EF8014616984160139981
:10195000039806F007FD0146179841602898064451
:1019600034988642FFF484AE082D3CBF37B0BDE802
:10197000F08F00201D9001201B9036991D98359FF7
:1019800008441D90DDF874804200161857F838702E
:101990000E97359F810001EB000C57F832700C97C1
:1019A000359F0CEB0003184457F836702097359F8D
:1019B00057F831701997359F57F83C700B97359F42
:1019C00057F833702597359F57F830702997359F12
:1019D00007EBC8077F681797359F07EBC20207EB35
:1019E000C10152681A9207EBC60207EBC0005268A9
:1019F0001E924968189107EBCC011B9E49682791FC
:101A000007EBC3014968239140681C90771907EBE5
:101A1000050808EB050909EB050A0AEB050B0BEBBA
:101A20000500219028442A9054F83A00039054F875
:101A300036000290039906F095FC0090DDE9020162
:101A400007F020F8099054F83B00039054F8370051
:101A50000290039906F086FC0590DDE9020107F08B
:101A600011F80890219854F83000039054F8380089
:101A70000290039906F076FC1590DDE9020107F06B
:101A800001F814902A9854F83000049054F8390062
:101A90000390049906F066FC0290DDE9030106F06C
:101AA000F1FF13901599009806F0ECFF049015993A
:101AB000009806F057FC00900299059806F0E2FFA6
:101AC00015900299059806F04DFC01460590009886
:101AD00006F048FC44F836000599009806F0D2FF5D
:101AE000059004EBCA002B904068039004EBC600FD
:101AF000169040680090039906F034FC0290039918
:101B0000009806F0BFFF069004EBCB002D904068D4
:101B1000039004EBC7002C9040680090039906F0F6
:101B200021FC0D900399009806F0ACFF07902198D6
:101B300004EBC0002F904068039004EBC8002E9087
:101B400040680090039906F00DFC109003990098EE
:101B500006F098FF0F902A9804EBC0003090406880
:101B6000129004EBC900319040680390129906F07E
:101B7000F9FB00901299039806F084FF12901099D7
:101B8000029806F07FFF03901099029806F0EAFB96
:101B9000029000990D9806F075FF109000990D982D
:101BA00006F0E0FB0D901099049806F0DBFB009026
:101BB0001099049806F066FF04900D99029806F0BB
:101BC000D1FB0146169841600D99029806F05AFF24
:101BD0000D901599039806F055FF029015990398FA
:101BE00006F0C0FB03900599199806F0BBFD16900E
:101BF0000D99189806F0B6FD15900D99199806F0F4
:101C0000B1FD0D900599189806F0ACFD0590DDE941
:101C1000151006F0A7FB44F83A0005990D9806F058
:101C200031FF01462B98416000990C9806F09AFD0F
:101C3000169002991A9806F095FD824602990C9822
:101C400006F090FD0D9000991A9806F08BFD059016
:101C50005146169806F086FB02E00000F304353F7B
:101C600044F8380005990D9806F00CFF01462E98AF
:101C700041600499259806F075FD824603992398E2
:101C800006F070FD80460399259806F06BFD0D90D7
:101C90000499239806F066FD05904146504606F0EB
:101CA00061FB0146219844F8301005990D9806F023
:101CB000E9FE01462F9841601399089806F0E2FE6C
:101CC000844906F04FFD80461399089806F04AFBB8
:101CD000804906F047FD82461299079806F0D2FE29
:101CE0007C4906F03FFD02901299079806F03AFBF6
:101CF000784906F037FD07904146099806F0C2FE84
:101D000004904146099806F02DFB0990514614981D
:101D100006F0B8FE13905146149806F023FB149079
:101D20000299069806F0AEFE03900299069806F016
:101D300019FB069007990F9806F0A4FE82460799B2
:101D40000F9806F00FFB80460146099806F00AFB43
:101D500000904146099806F095FE09905146049876
:101D600006F000FB08905146049806F08BFE0490A4
:101D70001499069806F086FE80461499069806F097
:101D8000F1FA06901399039806F07CFE07901399D8
:101D9000039806F0E7FA039000990E9806F0E2FC2B
:101DA00016904146179806F0DDFC824641460E9893
:101DB00006F0D8FC0D900099179806F0D3FC8046E9
:101DC0005146169806F0CEFA44F8370041460D9871
:101DD00006F058FE01462C9841600999299806F0B2
:101DE000C1FC824606991C9806F0BCFC8046069908
:101DF000299806F0B7FC0D9009991C9806F0B2FCE2
:101E000007464146504606F0ADFA01462A9844F886
:101E1000301039460D9806F035FE01463098416085
:101E200008990B9806F09EFC80460799279806F0C3
:101E300099FC824607990B9806F094FC0D9008993E
:101E4000279806F08FFC07465146404606F08AFA6E
:101E500044F83B0039460D9806F014FE01462D98D3
:101E600041600499209806F07DFC834603991E98F2
:101E700006F078FC82460399209806F073FC8046B1
:101E800004991E9806F06EFC07465146584606F027
:101E900069FA44F839003946404606F0F3FD014638
:101EA000319841602898064434988642FFF4AEADDC
:101EB0001B98401C1B9085423FF65FAD36984FF64D
:101EC000FF7101EAC0003690072D3FF6CEAB37B068
:101ED000BDE8F08FF304353F704710B54C1084EA2D
:101EE000530404D54042C1F1000138BF491E1B42D2
:101EF00004D55242C3F1000338BF5B1E00F0F9F96C
:101F000014F0804F04D04042C1F1000138BF491E97
:101F100014F0004F04D05242C3F1000338BF5B1EDF
:101F200010BD00000FB4044910B503AA029800F0D8
:101F3000D1FA10BC5DF814FB5800002070B50446BF
:101F400085690068C10601D5302600E02026C0075B
:101F500007D070BDD4E9012130469047206A401C6B
:101F600020626D1EF6D570BD70B504468569007897
:101F7000C00707D170BDD4E9012120209047206A15
:101F8000401C20626D1EF6D570BD70B50C4605462E
:101F9000012A05D02878800600D5EA69002302E0EE
:101FA000012305E05B1C934202D2E05C0028F9D1DA
:101FB000A869E618C01AA861286A18442862284649
:101FC000FFF7BCFF04E0D5E9012114F8010B9047AD
:101FD000B442F8D32846FFF7C7FF70BD2DE9F041A2
:101FE0000646002410687529314616A510D0AFF3B7
:101FF0000080002802DA404213A507E031688A0712
:1020000001D512A502E0490704D511A5012401E07C
:10201000AFF3008000210A2206F1240709E0B0FB9B
:10202000F2FCB0FBF2F302FB1C003030785418468F
:10203000491C0028F3D123462A463046BDE8F0412A
:1020400000F0D9B9000000002D0000002B000000B6
:102050002000000070B504460D4621461068AFF31D
:1020600000802188090502D50F4A7A4402E00E4A11
:102070007A440E32002104F1240305E000F00F063B
:102080000009965D5E54491C0028F7D12078002392
:10209000000704D5702D02D009B102231132204669
:1020A000BDE8704000F0A7B9AAA600002DE9F05FD6
:1020B000894604464FF0000ADFF874B1FB44C0F8CB
:1020C00020A02046E1688847002874D0252806D043
:1020D000D4E901219047206A401C2062F1E70026E4
:1020E0005F462046E16888472028054607DB312DFA
:1020F00005D2781910F8200C08B10643F1E7B007B3
:1021000001D526F00406C4F81CA00027C4F818A0C6
:102110002A2D09D0284601F0D7F838B304EB8708F8
:10212000303DC8F8185019E059F8041B204604EB5C
:1021300087029161E1688847012F054618D1E0695F
:10214000002820DA26F020061DE0D8F8180000EB61
:10215000800005EB40003038C8F818002046E168E0
:102160008847054601F0B0F80028EED1012F0AD0CB
:102170002E2D08D12046E16888477F1C0546022F96
:1021800046F02006C4DBA069002803DA404246F08E
:102190000106A061F00701D026F010066C2D0BD0CF
:1021A000682D09D04C2D39D06A2D35D0742D35D0FD
:1021B0007A2D33D016E038E0E1682F462046884774
:1021C000B842054609D16C2F26D04FF48060E168F3
:1021D000064320468847054604E06C2F1AD04FF48A
:1021E000807006430DB3A5F14100192802D82035AF
:1021F00046F400664A462946204626604E46FEF7CB
:102200002FF880B101280BD0F61D26F0070000F151
:10221000080956E74020E4E78020D8E70020D6E709
:1022200006F104094DE7284652E7206ABDE8F09F11
:1022300080A6000040EA010310B59B070FD1042AD5
:102240000DD310C808C9121F9C42F8D020BA19BA81
:10225000884201D9012010BD4FF0FF3010BD1AB1E6
:10226000D30703D0521C07E0002010BD10F8013B3B
:1022700011F8014B1B1B07D110F8013B11F8014B62
:102280001B1B01D1921EF1D1184610BD02F0FF03B5
:1022900043EA032242EA024200F030B94FF0000262
:1022A00000B5134694469646203922BFA0E80C504C
:1022B000A0E80C50B1F12001BFF4F7AF090728BF27
:1022C000A0E80C5048BF0CC05DF804EB890028BFA3
:1022D00040F8042B08BF704748BF20F8022B11F0CC
:1022E000804F18BF00F8012B704770477047704748
:1022F000704753EA020C00F069802DE9F04B4FF073
:102300000006002B1FBFB3FA83F503FA05F424FA85
:1023100005F65E4012BF1643B2FA82F502FA05F4E2
:10232000C5F120051EBF22FA05FC44EA0C04203545
:1023300056EA044C4FEA144418BF641C4FF00008DE
:102340004FF00009904271EB030C39D3002919BFFB
:10235000B1FA81F701FA07F6B0FA80F700FA07F64A
:10236000C7F120071EBF20FA07FC46EA0C062037FB
:10237000B6FBF4FCA7EB0507103F07F01F0BCBF1F2
:1023800020060CFA0BFB2CFA06F644BFB3460026D7
:10239000202FA4BF5E464FF0000B5BEA060C08BF7F
:1023A0004FF0010B19EB0B09ABFB027C48EB060865
:1023B000C01B06FB02CC0BFB03CC71EB0C01C1E78D
:1023C0000B46024641464846BDE8F08B13B54FF038
:1023D00000004FF00001AFF30080BDE81C407047E3
:1023E00010B500F0ABF8006810BD10B5044600F061
:1023F000A5F8046010BD2DE9F0470D4699469246B8
:10240000044600F124080168880604D5E06921F03B
:102410001001216000E00120A84201DD471B00E01F
:102420000027A1697A1902EB0900081AA061207837
:10243000C00602D42046FFF781FD002608E0D4E95B
:1024400001211AF806009047206A401C761C206281
:102450004E45F4DB2078C0060AD52046FFF76EFD16
:1024600006E0D4E9012130209047206A401C206218
:10247000381EA7F10107F4DC07E0D4E9012118F8C0
:1024800005009047206A401C2062281EA5F1010526
:10249000F3DC2046FFF768FD2078000602D5022015
:1024A000BDE8F0870120FBE710B5436913B1AFF336
:1024B000008001E0FFF769FD012010BD127800F1F6
:1024C00024010A7000224A700122EDE711684FF0E2
:1024D000FF32E9E7074B70B50D467B4400F037F853
:1024E0000446284600F046F810B14FF0FF3070BDAA
:1024F000204670BD732300004FF000020429C0F095
:10250000128010F0030C3FF4CBAECCF1040CBCF104
:10251000020F18BF00F8012BA8BF20F8022BA1EB77
:102520000C01FFF7BDBE5FEAC17C24BF00F8012BA0
:1025300000F8012B48BF00F8012B70470048704796
:10254000D032002001694A1C02610878704700B54A
:102550008FB0CDE901310021059105497944CDE9DC
:10256000031011466846FFF7A1FD0FB000BD000043
:10257000E5FFFFFF007B00F08000704700487047D8
:10258000D03200207546FFF7F9FFAE4605006946D8
:10259000534620F00700854618B020B5FDF790FEA1
:1025A000BDE820404FF000064FF000074FF0000854
:1025B0004FF0000B21F00701AC46ACE8C009ACE8D5
:1025C000C009ACE8C009ACE8C0098D46704710B539
:1025D0000446AFF300802046BDE81040FDF75EBE24
:1025E0002DE9F34F83B08146D9E90056D9E9007847
:1025F00001241DE009EBC40103C92A463346CDE995
:10260000000105F071FC03D809EBC40060C8A246C4
:1026100009EBC40003C83A464346CDE9000105F082
:1026200029FB04D809EBC400D0E90078A346641C58
:1026300004988442DEDBCBF10300A0EB0A00029099
:10264000504605B0BDE8F08F10B50A2001F018FA29
:102650000A48006801280CD1094803F087FE09499F
:1026600008600948006808B9012000E00020064918
:10267000086001200549086010BD00009401234254
:10268000F819002018000020948121421404014010
:1026900010B502220021084600F008F802230622A5
:1026A0000321184600F06AFC10BD000070B5044616
:1026B0000B46CE1701EB9676C6F38700CE1701EBDB
:1026C0009676B610A1EB8606B606350E1C4B9B69B6
:1026D00043F001031A4EB3614FEAB63353F820308A
:1026E0000F26AE40B343174E46F82030334653F81A
:1026F000203004FA05F61E43124B43F82060124BBB
:102700001B6801268E4033430F4E336002F00103F5
:1027100043B10D4B0C331B6801268E4033430A4EE8
:102720000C36336002F0020343B1074B08331E68D6
:1027300001238B401E43044B08331E6070BD000014
:102740000010024008000140000401402DE9F04F54
:1027500089B005460E4691469A46002400E0641C66
:1027600055F82400494605F0C9FFF8D355F8240070
:10277000514606F0C3F8F2D3B44202DC55F8247097
:1027800000E01E4F641C00E0641C55F8240049461C
:1027900005F0B4FFF8D355F82400514606F0AEF822
:1027A000F2D3B44202DC55F8248001E0DFF84C801B
:1027B000404605F0ABFD4FF03332114BCDE900013F
:1027C00005F094FACDE90401384605F09FFD4FF07D
:1027D00066320C4BCDE9000105F088FACDE9020123
:1027E000DDE9042305F01AF8CDE9060104F0E4FF61
:1027F0008346584609B0BDE8F08F0000000080BF56
:102800003333D33F6666E63F2DE9F04788B0824612
:10281000894600200546064600210F4688460024CA
:102820000CE05AF8240005F071FD2A463346CDE944
:10283000060104F0F3FF05460E46641C4C45F0DB30
:10284000A9F1010005F0FEF902460B46CDE90601AB
:102850002846314605F09EF805460E46002424E041
:102860005AF8240005F052FD2A463346CDE900010E
:1028700005F062FCCDE904015AF8240005F046FD9C
:102880002A463346CDE9000105F056FCCDE90201A8
:10289000DDE9042305F02AFA3A464346CDE906016C
:1028A00004F0BCFF07468846641C4C45D8DB09F1A0
:1028B000010005F0C7F902460B46CDE9060138468E
:1028C000414605F067F8074688463846414608B055
:1028D000BDE8F08701464906084A926942F00102C4
:1028E000064B9A61064A526822F0E062044B5A6035
:1028F0001A4652680A435A607047000000100240AE
:10290000000001401848806940F0080016498861BD
:102910000846806940F0400088611448006820F44F
:102920007000124908600846006840F440100860D2
:102930000E480C30006840F020000C490C31086053
:102940000B48006820F470000949086008460068D8
:1029500040F44010086006480C30006840F0200049
:1029600003490C310860704700100240000C014020
:10297000001801402DE9F84F6B46022241216820E2
:1029800000F0F1F99DF801009DF8001040EA0120E7
:102990000FFA80FA504605F055F9804600220B4B9D
:1029A00004F0F8FF06460A4A0A4B04F037FF0446D3
:1029B00004F002FF83460849584605F0D3FE04465A
:1029C00005F034FE00B2BDE8F88F0000004075400D
:1029D000A4703D0AD74342400000C84210B5002011
:1029E0000E4908600E48006820F470400C490860E9
:1029F0000846006840F44050086000200949C1F8CA
:102A0000AC0100F011F801200449086000F00CF856
:102A100000200449C1F8A80110BD0000A88121428E
:102A2000040C01400080214210B5022001F046F85C
:102A300010BD00000C48806940F008000A49886118
:102A40000A48006820F47F4008490860084600688A
:102A500040F44C50086005480830006840F440607D
:102A6000024908310860704700100240040C014020
:102A700010B500200E4908600E48006820F4704030
:102A80000C4908600846006840F440500860012086
:102A90000949C1F8AC01FFF7C7FF012004490860EC
:102AA000FFF7C2FF00200449C1F8A80110BD0000D3
:102AB000A8812142040C01400080214270B50546E6
:102AC00000241648006820F4704014490860084645
:102AD000006840F400400860002614E0002010491F
:102AE0000860FFF7A1FF01200E49C1F8A8016006A8
:102AF000040E0B487C38006808B1601CC4B2FFF7B4
:102B000093FF701CC6B2082EE8DB15B9FFF7B0FFC3
:102B100001E0FFF763FF204670BD0000040C014098
:102B2000A88121420080214270B504461248006805
:102B300020F47040104908600846006840F4405096
:102B4000086000200D490860002512E0E0090B49EB
:102B5000091D08606006040E01200949C1F8A8019A
:102B6000FFF762FF002005490860FFF75DFF681C62
:102B7000C5B2082DEADB70BD040C0140A8812142DA
:102B80000080214210B50E48006820F470400C49C6
:102B900008600846006840F4405008600120094978
:102BA00008600949C1F8A801FFF73EFF0020054968
:102BB0000860FFF739FF00200349C1F8A80110BDE4
:102BC000040C0140AC8121420080214210B50E4826
:102BD000006820F470400C4908600846006840F422
:102BE000405008600020094908600949C1F8AC015B
:102BF000FFF71AFF0120054908600549C1F8AC013B
:102C0000FFF712FF10BD0000040C0140A881214213
:102C10000080214210B500241448006820F4704060
:102C2000124908600846006840F40040086001202E
:102C30000F490860FFF7F8FE01200E49C1F8A8010E
:102C4000FFF7F2FE07E0601CC4B2FA2C03DDFFF7C9
:102C5000BDFF012010BD0648803800680028F2D171
:102C60000349091F086000BFF4E70000040C01409D
:102C7000AC8121420080214210B52948806940F092
:102C80000400274988612748006820F070402549E2
:102C900008600846006840F0405008600120FFF7D7
:102CA00019FE002020490860FFF7C4FE80216B2038
:102CB00000F0DDF8642000F0E3FE00216B2000F05E
:102CC000D6F8032000F091F8002000F086F83220BA
:102CD00000F0B0F80021382000F0C9F800216A2087
:102CE00000F0C5F80021232000F0C1F88021372032
:102CF00000F0BDF8752000F019F80446682C0BD1DF
:102D000001216B2000F0B3F800216C2000F0AFF837
:102D1000322000F08FF801E0012010BD0020FCE718
:102D20000010024004080140BC01214270B5044675
:102D3000FFF728FFD020FFF7F7FEFFF76BFF2046D5
:102D4000FFF7F2FEFFF766FFFFF71CFFD120FFF74A
:102D5000EBFEFFF75FFF0020FFF7B0FE0546FFF731
:102D600035FF284670BD2DE9F04106460F46144652
:102D70001D46FFF707FF002141EA4601C8B2FFF7F1
:102D8000D3FEFFF747FF20B1FFF720FF0120BDE88A
:102D9000F0813846FFF7C8FEFFF73CFFFFF7F2FE71
:102DA000012101EB4601C8B2FFF7BEFEFFF732FF7B
:102DB0000DE0012C04D10020FFF780FE287003E015
:102DC0000120FFF77BFE2870601EC4B26D1C002C32
:102DD000EFD1FFF7FBFE0020D9E710B50446E0066F
:102DE000010E1C2000F043F810BD10B50446E006AB
:102DF000010E1B2000F03BF810BD70B50446002505
:102E0000BC2C01DB012510E0622C01DB02250CE06B
:102E10002A2C01DB032508E0142C01DB042504E047
:102E20000A2C01DB052500E0062529461A2000F0C2
:102E30001EF870BD70B50446B4F57A7F01DD4FF41D
:102E40007A74042C00DA04244FF47A7090FBF4F0C6
:102E5000401EC5B22946192000F009F8054626464D
:102E600004EBD671C1F34F00FFF7C7FF70BD70B51B
:102E700005460C46FFF786FED020FFF755FEFFF70C
:102E8000C9FE18B1FFF7A2FE012070BD2846FFF76A
:102E90004BFEFFF7BFFE2046FFF746FEFFF7BAFEE8
:102EA00018B1FFF793FE0120EFE7FFF78FFE002038
:102EB000EBE72DE9F04105460E4617469846FFF729
:102EC00061FE002141EA4501C8B2FFF72DFEFFF780
:102ED000A1FE20B1FFF77AFE0120BDE8F081304667
:102EE000FFF722FEFFF796FE00240CE018F804001E
:102EF000FFF71AFEFFF78EFE18B1FFF767FE0120FD
:102F0000EBE7601CC4B2BC42F0DBFFF75FFE0020C1
:102F1000E3E7000000B5002015490861C8601420EF
:102F2000486100208861C8610846006840F00100DF
:102F30000860084640680F4908400D494860084647
:102F400000680D4908400A4908600846006820F4F6
:102F5000802008600846406820F4FE004860002099
:102F6000886000214FF0006000F058F800BD0000BC
:102F7000001002400000FFF8FFFFF6FE2DE9F041CF
:102F80000746884614461D46284600F033F8C5F12A
:102F9000040007FA00F60F20284100EA0800064363
:102FA00006F00F06E21704EBD2625211920002F112
:102FB000E022D2F800212146E31704EBD3635B1132
:102FC000A4EB431C012303FA0CF31A432046E31736
:102FD00004EBD3635B119B0003F1E023C3F80021F2
:102FE0000348005D40EA061001490855BDE8F0813C
:102FF00000E400E00146072323EA01021202054B28
:1030000018684FF6FF031840034B18431043014B59
:10301000186070470CED00E00000FA05024A0A4013
:103020000243024B1A60704780FFFF1F08ED00E06B
:1030300030B504460025FFF76DFF1F48006840F4D7
:1030400080301D49086000BF1B480068400C002804
:10305000FAD04FF4806018494860A01EC4B20846F8
:10306000406840EA844048600846406840F4803048
:1030700048601248006840F03200104908600E486D
:10308000006840F080700C49086000BF0A48006882
:10309000400E0028FAD00848406840F00200064977
:1030A000486005E004484068C0F3870505F0030563
:1030B000022DF7D130BD0000001002400020024078
:1030C00010B50C48008800F0010058B10A490869A1
:1030D000804700200749143108804FF47A70054971
:1030E0001C3108800348008820F001000149088055
:1030F00010BD000010080040B400002070B5054667
:103100000C461048C06940F004000E49C8610E48E2
:103110000580001F04800C482038008840F0010022
:1031200009492039088008482C38008840F00100FF
:1031300005492C39088002231E2203210846FFF787
:103140001DFF70BD001002402C0800401D49098879
:1031500001F0200111B31B49091D0988C8B21A49A1
:10316000098801F40041C9B91749098801F480416F
:1031700061B10A2803D00021134A118020E01249CE
:10318000098841F40041104A118019E00D2806D148
:103190000D49098841F480410B4A118010E00A4929
:1031A0000988C1F30D01094A505407490988491C8F
:1031B000054A118011460988C72901DD00211180C7
:1031C00070470000003801405C00002008320020F9
:1031D000490050EAC12018BF04204A0D18BF40F032
:1031E000010040F2FF72B2EB515F08BF40F00200F5
:1031F000012808BF052070472DE9F0414F1E00EB64
:10320000C7010446D1E9000115461E4637F0060203
:103210000DD02A46334604F069FD7F1E04EBC70338
:10322000D3E9002304F0FAFA37F00602F1D1022FB5
:1032300025D0042F13D0062F18BFBDE8F0812A46F1
:10324000334604F053FDD4E90A2304F0E7FA2A4692
:10325000334604F04BFDD4E9082304F0DFFA2A4694
:10326000334604F043FDD4E9062304F0D7FA2A4696
:10327000334604F03BFDD4E9042304F0CFFA2A4698
:10328000334604F033FDD4E9022304F0C7FA2A469A
:10329000334604F02BFDD4E90023BDE8F04104F0EF
:1032A000BDBA012205F095BC04F0B8BA002213465D
:1032B0001046114604F06EBB024A0020110705F0CB
:1032C00088BC000001FDFFFF30380A2801D2012030
:1032D000704700207047014600BF70472DE9FE4F40
:1032E000074688460026684601F04EFB002444E06D
:1032F00057F8240058F82410A0EB010ABAF1000F87
:1033000001DB514601E0CAF10001084605F0CAF9A7
:1033100083464FF08F4105F093F881465DF8240015
:10332000002105F04FF918D05DF82410484605F04B
:1033300087F882464FF07E5105F0A4FB054600BF9A
:1033400025F0004082460F48416A504605F0D6FA03
:1033500012D20120A04006430EE00A48C169484647
:1033600005F0CCF905D30748016A484605F0C6FACE
:1033700002D20120A0400643641C032CB8DB304677
:10338000BDE8FE8FD88C000810B5002409480378EA
:1033900009480278094801680948FEF7C9F8094850
:1033A00002680948016805480068FCF797FF01209A
:1033B00010BD0000100000200C00002000000020C4
:1033C000F898000808000020040000202DE9F04DC6
:1033D0008D4F21F0004A86B005460C46BA452ADBDF
:1033E000AAEB070028430AD08848824501DC1AD19D
:1033F000CDB106B02846BDE8F04DFFF752BF844A74
:10340000844B284604F072FC07460E46824A834BE2
:103410002846214604F06AFC06B03A463346BDE829
:10342000F04D04F0FBB90120FEF7DFFF06B0BDE868
:10343000F04DFFF73BBF7A48824542DABAF1795F37
:103440000BDA2846FFF7C4FE042808BFFFF734FF55
:10345000284606B02146BDE8F08D2A460B461046A8
:1034600004F044FC834602466E480E460B46062195
:103470007844FFF7C1FE5A46334604F037FC8046D5
:1034800069488A465A46334604217844FFF7B4FE19
:103490005A46334604F02AFC00223B4604F0BEF9AB
:1034A00002460B464046514604F074FA2A4623462B
:1034B00004F01CFC06B02A462346BDE8F04D04F09B
:1034C000ADB9284624F0004100223D463B4604F0B9
:1034D00041FD4FF0FF3205F07CFB064602465348A3
:1034E0000F460B4606217844FFF786FE32463B46E0
:1034F00004F0FCFBCDE900014D4832463B46042177
:103500007844FFF779FE32463B4604F0EFFB002299
:103510002B4604F083F9834602913046394603F086
:1035200069F8804643480D46504517DCDDE9000147
:103530005A46029B04F02EFA42462B4604F0D6FB74
:1035400042462B4604F06AF9012205F042FB304A5C
:10355000304B04F0F1FD304A304B4CE04FF0000AA4
:1035600052460B46404604F059F9CDE90310524645
:103570002B461046194604F0B9FB32463B4604F090
:10358000E9FCDDE9033204F005FA06460F46DDE901
:1035900000015A46029B04F0FDF983460091012286
:1035A0003046394605F015FB194A1A4B04F0D2FC97
:1035B00006460F4601224046294605F00AFB5A46B8
:1035C000009B04F093FB32463B4604F0B5FD0646F3
:1035D0000F4601225046294605F0FBFA0E4DDFF852
:1035E00058802A46434604F0B5FC32463B4604F078
:1035F000B1FC2A46434604F0ADFC002CD8BF81F054
:10360000004106B0BDE8F08D0000F03F0000F07F03
:10361000075C143326A6913C182D4454FB21F93F36
:103620000000E03FE4920000FA9200006E92000079
:10363000849200003333EF3FFB21E93F2DE9F84F3F
:1036400004460D4621F0004000917349814211DC8F
:103650007249884201DC06D12CB120462946BDE8DA
:10366000F84FFFF71EBE6E48002DCCBF6D496E4966
:10367000BDE8F88F6D49814211DD6D498142D8BFA7
:103680004FF0FF366DDD20462946FFF7A1FD0428E7
:1036900008BFFFF711FE20462946BDE8F88F6549AF
:1036A000654F25F00045814233DD6449814219DDD3
:1036B000002632464FF080432046294604F0AEF8FB
:1036C00080468A4601222046294605F082FA0022D9
:1036D0003B4604F031FD4246534604F05BF9044694
:1036E0000D463EE001260022BA463B4620462946CA
:1036F00004F094F880460F4600225346204629469F
:1037000004F01AFD42463B4604F044F904460D46D7
:1037100027E04B4981421BDDDFF828A10226002269
:1037200053462046294604F0E1FA00223B4604F0C5
:1037300075F880460F46002253462046294604F07D
:10374000FBFC42463B4604F025F904460D4608E0E2
:10375000032622462B4600203B4904F01BF9044671
:103760000D4622462B461046194604F0BFFA8B46FA
:10377000824602460B4604F0B9FA07460246334831
:1037800088460B4606217844FFF736FD52465B46D5
:1037900004F0ACFA82462E488B463A464346052151
:1037A0007844FFF729FD3A46434604F09FFA024663
:1037B0000B46002E504659460CDA04F02FF82246EC
:1037C0002B4604F093FA01B022462B46BDE8F04F99
:1037D00004F0C0BB04F022F822462B4604F086FA1F
:1037E0001C4A7A4402EBC603D3E9002304F0A4FC8C
:1037F00022462B4604F0A0FC174A7A4402EBC6038B
:10380000D3E9002304F0A6FB009A002AB8BF81F098
:103810000041BDE8F88F0000000010440000F07F78
:10382000182D4454FB21F93FFB21F9BF0000DC3F78
:103830000000203E0000F33F0000F03F0000E63FA4
:10384000008003400000F83F0000F0BF86900000B9
:1038500044900000E28F0000AA8F00002DE9F04D97
:103860009446CCF1000423F000464CEA0404524F85
:1038700046EAD4749A46884621F00042BC4206D8F3
:10388000454240EA050442EAD474BC4204D9BDE88A
:10389000F04D6246FFF708BDAAF14055A5F17F65DE
:1038A00055EA0C040BD0022404EAAA74434DDFF855
:1038B00010E144EAD87452EA000B04D00CE0BDE8F1
:1038C000F04DFFF7BBBE002C14BF012CBDE8F08DFE
:1038D000022C30D0032C32D056EA0C0B0AD0BE4258
:1038E00020D1BA4209D126F0804622F080423346E8
:1038F000114617E000291ADB25E0DFF8C8B0FB44C9
:10390000002C04BFDBE90001BDE8F08D012C02BFF3
:10391000DBE9000181F00041BDE8F08D022C0AD006
:10392000032C0CD0BA4212D1B8F1000F0BDA2348A5
:103930002549BDE8F08D28462449BDE8F08D28468C
:103940007146BDE8F08D1D482149BDE8F08D921B00
:1039500012153C2AC4BF19481D490EDCBAF1000FEC
:10396000BEBF12F13C0F0020014606DB624604F0A8
:1039700011F821F00041FFF761FE002C08BFBDE8FF
:10398000F08D012C04BF81F00041BDE8F08D114A9B
:10399000114B022C07D004F0CFFB2A46BDE8F04DB6
:1039A0000A4B04F0C9BB04F0C7FB2A46BDE8F04D42
:1039B000064B04F0CFBA00000000F07F182D4454ED
:1039C000FB2109C03E8F0000FB21F9BFFB2109400C
:1039D000FB21F93F075C143326A6A13C2DE9F041F9
:1039E0000446E07800F0C006E07800F03F0560781B
:1039F00000F0010098B1EF102846E91705EB51716E
:103A0000C910A5EBC101491C01F0FF080B48006873
:103A100020B10A48414602683846904700BF6078A6
:103A200000F0080030B10548406818B1B011034AF1
:103A3000516888470020BDE8F0810000F83100207F
:103A40004FF0E021096921F004014FF0E0221161FB
:103A5000C21700EB5272C2F3C702074B1A70194625
:103A6000097801EB4102C2EBC1114FF6FF7202EA85
:103A7000C101024A1180704752000020540000200A
:103A800001460D4A12884A434FF0E0235A61002252
:103A90009A6101221A6100BF4FF0E022106900F024
:103AA00001021AB100F48032002AF5D000224FF052
:103AB000E0231A619A6170475400002001460D4AC4
:103AC00012784A434FF0E0235A6100229A610122A2
:103AD0001A6100BF4FF0E022106900F001021AB134
:103AE00000F48032002AF5D000224FF0E0231A6162
:103AF0009A617047520000202DE9F04F97B081463F
:103B00008A46002400200546064600210F468846C6
:103B1000149115911291139100BF00BF00BF00BF17
:103B200000BF36E0204604F08DF82A463346CDE942
:103B3000080103F073FE05460E4659F8240004F010
:103B4000E5FB3A464346CDE9080103F067FE074628
:103B50008846204604F0A6FD079059F8241004F08A
:103B600001FE834604F0D2FBCDE90801DDE9142310
:103B700003F054FECDE9140104FB04F004F062F8F4
:103B8000CDE90801DDE9122303F048FECDE9120179
:103B9000641C5445C6DB2A4633462846314604F0A9
:103BA000A5F8CDE90401504604F04CF8CDE9000138
:103BB000DDE9122304F09AF8CDE90201DDE90423DE
:103BC00004F0BAFA3A464346CDE9080128463146A0
:103BD00004F08CF8CDE90401504604F033F8CDE947
:103BE0000001DDE9142304F081F8CDE90201DDE9EB
:103BF000042304F0A1FACDE90601DDE9082303F06E
:103C0000C9FECDE90C01504604F01CF802460B46F3
:103C1000CDE908012846314603F0BCFECDE910018C
:103C2000504604F00FF802460B46CDE9080138462D
:103C3000414603F0AFFECDE90E01DDE91023DDE9D9
:103C40000C0104F053F8CDE90801DDE90E2304F07E
:103C500081F9CDE90A0100241AE0204603F0F2FFC1
:103C6000CDE90401DDE90C2304F040F8CDE90601BB
:103C7000DDE90A2303F0D2FDCDE9080103F09CFD44
:103C8000834659F8241004F06AFE49F82400641CA5
:103C90005445E2DB17B0BDE8F08F38B5044664B197
:103CA00020208DF8000028208DF8010030208DF8AC
:103CB000020038208DF8030004E0A32204216846A6
:103CC000FEF7E4FA6A46042140F69E2002F00AFB61
:103CD00001F0F4FE38BD00003EB5044602208DF828
:103CE0000000CA208DF80100E3208DF802000920B1
:103CF0008DF803006A460421682002F0F3FAA3203D
:103D00008DF8000004F0400048B1C0208DF801009B
:103D1000C8208DF80200C2208DF8030006E0A32021
:103D20008DF801008DF802008DF8030004F4C070D6
:103D300048B1C4208DF80400CC208DF80500C620C1
:103D40008DF8060006E0A3208DF804008DF805002C
:103D50008DF80600A3208DF807008DF808008DF877
:103D600009006A460A2140F6A72002F0BBFA04F0D7
:103D7000030018B120208DF8000002E0D8208DF853
:103D800000006A46012140F6B62002F0ABFA04F0CA
:103D9000200018B1012000F0ADF802E0002000F092
:103DA000A9F804F4C07008B304F4807060B1B220C4
:103DB0008DF800008B208DF80100B6208DF80200F0
:103DC0009B208DF803000BE0B0208DF800008020D0
:103DD0008DF80100B4208DF8020090208DF80300CA
:103DE0006A46042140F6A22002F07CFA04F00100A9
:103DF00020B3F8208DF800006A4601214FF40B60D3
:103E000002F070FAFA21072000F02CFC072000F0E5
:103E1000F3FB012000F013FC642000F0F3FC4FF4EE
:103E2000FA7000F002FDC821304800F0A3FB282002
:103E300000F0BCFB0A2000F0CCFB08E0D8208DF895
:103E400000006A4601214FF40B6002F04BFA04F0C7
:103E5000020018B1D9208DF8000002E0D8208DF8BA
:103E600000006A46012140F23D7002F03BFA04F086
:103E7000040018B1012000F069F802E0002000F011
:103E800065F804F0100018B10120FFF706FF02E00A
:103E90000020FFF702FF44F008001549488101F0B7
:103EA0000DFE00201249887304F0400018B1084646
:103EB000807B801D887304F4C07020B10C48807B27
:103EC000801D0B49887304F0140020B10848807BE2
:103ED00010300749887304F0030020B10448807B48
:103EE000001D0349887300203EBD000009E3CA029B
:103EF000F83100203EB504466CB10EA1D1E9002096
:103F00008968CDE9002002916A4609214FF4976043
:103F100002F0E8F93EBD0AA2D2E900109268CDE9AC
:103F2000010200916A4609214FF4976002F0DAF924
:103F3000F0E70000B8AAB38DB4980D355D0000001D
:103F4000B8AAAAAAB088C3C5C700000038B50446FD
:103F500064B1C0208DF80000C2208DF80100C4209B
:103F60008DF80200C6208DF8030004E08B220421A6
:103F70006846FEF78BF96A46042140F6982002F065
:103F8000B1F901F09BFD38BD10B5C8234FF4806234
:103F9000024940F6F63001F025FC10BD008D000806
:103FA0002DE9F04F8DB00746884615469946DDE964
:103FB000166B0024002030806B49887B5A4605A987
:103FC00001F0DCFC18B1601E0DB0BDE8F08F664852
:103FD000807A00F01400002867D09DF814000006D5
:103FE0009DF8151040EA01409DF8161040EA0120A6
:103FF0009DF81710084328609DF8180000069DF8EA
:10400000191040EA01409DF81A1040EA01209DF87D
:104010001B10084368609DF81C0000069DF81D10E9
:1040200040EA01409DF81E1040EA01209DF81F1053
:104030000843A8609DF8200000069DF8211040EA82
:1040400001409DF8221040EA01209DF8231008430A
:10405000E86004F11000C4B2286800140190686898
:1040600000140290A86800140390E86800140490FB
:1040700001984043029901FB0100039901FB0100F3
:10408000049901FB010ABAF1706F02DBBAF1885F93
:1040900005DD01F013FD00203080401E94E7B6F9E5
:1040A000000040F48070308000BF2F48807A00F01C
:1040B000400020B305A9601C085C095D40EA0120AE
:1040C00000B2A8F8000005A9E01C095C05AAA01C24
:1040D000105C41EA002000B2A8F8020005A9601DAA
:1040E000095C201D105C41EA002000B2A8F8040021
:1040F000A01DC4B2B6F9000040F0080030801A4894
:10410000408900F4C07008B305A9601C085C095D13
:1041100040EA012000B2388005A9E01C095C05AA2C
:10412000A01C105C41EA002000B2788005A9601D47
:10413000095C201D105C41EA002000B2B880A01D7F
:10414000C4B2B6F9000040F0700030800648807AB2
:1041500000F0030018B105A90819FFF73FFC484615
:1041600000F0D2FF00202FE7F831002070B588B0B2
:10417000064601A801F08AF9BDF804000021C90330
:1041800041EA5045C4034448007A00F0030056F861
:10419000200005904048007A00F0040010B1059816
:1041A000404205903C48007AC0F3C10056F8200018
:1041B00006903948007A00F0200010B1069840427D
:1041C00006903548007AC0F3811056F82000079019
:1041D0003148008900F4807010B107984042079080
:1041E0000598C117A0FB042301FB043100FB051057
:1041F000810041EA927005900698C117A0FB042344
:1042000001FB043100FB0510810041EA9270069029
:104210000798C117A0FB042301FB043100FB051024
:10422000810041EA927007900598000E8DF8080011
:104230000598000C8DF809000598000A8DF80A0011
:104240000598C0B28DF80B000698000E8DF80C0092
:104250000698000C8DF80D000698000A8DF80E00E7
:104260000698C0B28DF80F000798000E8DF8100068
:104270000798000C8DF811000798000A8DF81200BD
:104280000798C0B28DF8130002AA0C214FF42570D4
:1042900002F028F808B070BDF831002030B585B0C4
:1042A000044616A207CA02AB07C3C82C03DD4FF0B1
:1042B000FF3005B030BDC82090FBF4F0401E85B241
:1042C000280A8DF80000E8B28DF801006A46022144
:1042D00040F2162002F006F810B14FF0FF30E8E788
:1042E00002AA0C2140F6C12001F0FCFF10B14FF0F2
:1042F000FF30DEE7044884810020DAE7FEF2ABC439
:10430000AAF1DFDFBBAFDFDFF83100201FB50446C5
:104310004848007A00F0030054F820000190454816
:10432000007A00F0040010B1019840420190414829
:10433000007AC0F3C10054F8200002903D48007A92
:1043400000F0200010B10298404202903948007AF3
:10435000C0F3811054F8200003903648008900F41F
:10436000807010B10398404203903349019880FB5C
:104370000101800F40EA810001902F49029880FBE3
:104380000110820042EA917002902B49039880FB51
:104390000110820042EA917003900198000E8DF89E
:1043A00000000198000C8DF801000198000A8DF8BA
:1043B00002000198C0B28DF803006A4604214FF450
:1043C000747001F08FFF18B14FF0FF3004B010BDD2
:1043D0000298000E8DF800000298000C8DF8010084
:1043E0000298000A8DF802000298C0B28DF803000E
:1043F0006A4604214FF4757001F074FF10B14FF05C
:10440000FF30E3E70398000E8DF800000398000CDE
:104410008DF801000398000A8DF802000398C0B2DD
:104420008DF803006A4604214FF4767001F05AFFBC
:10443000CCE70000F831002009E3CA0210B586B0CD
:10444000044647A00068039046A00068029046A07A
:104450000068019045A00068009004F0030003A9E3
:10446000085C8DF8140003A8C4F3C101405C8DF80A
:10447000150003A8C4F38111405C8DF8160004F008
:10448000030002A9085C8DF8100002A8C4F3C10162
:10449000405C8DF8110002A8C4F38111405C8DF8D6
:1044A000120005AA032140F2264001F01BFF18B1BB
:1044B0004FF0FF3006B010BD04AA032140F22A409D
:1044C00001F010FF10B14FF0FF30F3E701980590B5
:1044D0000098049004F0040058B19DF8140040F0D6
:1044E00001008DF814009DF8100040F001008DF8D7
:1044F000100004F0200058B19DF8150040F00100B4
:104500008DF815009DF8110040F001008DF81100A4
:1045100004F4807058B19DF8160040F001008DF849
:1045200016009DF8120040F001008DF8120005AA57
:1045300003214FF4886001F0D5FE10B14FF0FF3039
:10454000B8E704AA032140F2314001F0CBFE10B1DC
:104550004FF0FF30AEE7064804810020AAE70000D4
:104560004CCD6C000CC92C003656760026466600F1
:10457000F8310020F8B505460E464FF47A7095FBE9
:10458000F0F000FB06F4200E8DF80000200C8DF8F2
:104590000100200A8DF80200E0B28DF803006A469F
:1045A00004214FF4AE7001F09DFEF8BD38B504460D
:1045B000052094FBF0F084B220128DF80000E0B2E8
:1045C0008DF801006A4602214FF4AD7001F08AFEB9
:1045D00038BD38B50446052094FBF0F084B22012B3
:1045E0008DF80000E0B28DF801006A4602214FF418
:1045F000AC7001F077FE38BD38B50446002000905D
:1046000004F0010020B19DF8000040F0300000905F
:1046100004F0020020B19DF8000040F00C00009072
:1046200004F0040020B19DF8000040F00300009069
:104630006A4601214FF4A47001F054FE38BD38B52C
:104640000446012C01DA012402E0042C00DD0424DC
:10465000601EC0B200906A46012140F24F1001F086
:1046600041FE38BD2DE9FC4706460F4606F007001F
:1046700010B1B7F5C86F03DD4FF0FF30BDE8FC8720
:10468000384604F027F88146594903F0D9FE8046A0
:10469000684600F0D5FE9DF80000022806D00428E8
:1046A00016D0082826D0102848D135E04FF08D418B
:1046B000404604F057F8814603F0D4FF84B24D49D8
:1046C000404604F04FF8814603F0CCFF85B238E055
:1046D0004FF08C41404604F045F8814603F0C2FF9C
:1046E00084B24549404604F03DF8814603F0BAFFE4
:1046F00085B226E04FF08B41404604F033F8814606
:1047000003F0B0FF84B23D49404604F02BF88146E7
:1047100003F0A8FF85B214E04FF08A41404604F050
:1047200021F8814603F09EFF84B23549404604F0EB
:1047300019F8814603F096FF85B202E04FF0FF3092
:104740009CE700BF20128DF80400E0B28DF8050050
:1047500028128DF80600E8B28DF8070006F0010077
:10476000A0B101AA02214FF4EA7001F0BBFD10B123
:104770004FF0FF3082E70DF1060202214FF49270F4
:1047800001F0B0FD10B14FF0FF3077E706F0020006
:10479000A0B101AA02214FF4EC7001F0A3FD10B109
:1047A0004FF0FF306AE70DF1060202214FF49470DA
:1047B00001F098FD10B14FF0FF305FE706F0040004
:1047C000A0B101AA02214FF4EE7001F08BFD10B1EF
:1047D0004FF0FF3052E70DF1060202214FF49670C0
:1047E00001F080FD10B14FF0FF3047E7002045E7B2
:1047F00000004843000040460000C045000040451E
:104800000000C04438B50446052094FBF0F085B2A2
:1048100028128DF80000E8B28DF801006A460221E6
:104820004FF4EF7001F05EFD38BD38B50446052049
:1048300094FBF0F085B228128DF80000E8B28DF8F4
:1048400001006A4602214FF4ED7001F04BFD38BDC6
:1048500000BF054A128802F04002002AF9D0C2B215
:10486000014B1B1D1A807047003801402DE9FE4F97
:1048700081460D4616469A46DDF830B0701E03F0AC
:1048800011FF07465146584604F0FCF88046394669
:1048900003F0D6FD029000241DE059F8240003F037
:1048A00001FF8046029903F05DFF0746514603F081
:1048B00059FD45F8240055F8240003F027FD002297
:1048C000074BCDE9000103F011FA074602F074FF2F
:1048D00045F82400641CB442DFDB0120BDE8FE8FF4
:1048E00000004E402DE9FF4706460F4601254FF4D4
:1048F000007AB046B9460E4B0E4A142101A8009525
:10490000FCF785F900240CE004FB05F009EB8002BC
:1049100004FB05F008EB80012B4601A8FBF706FD20
:10492000641C5445F0D3012004B0BDE8F0870000BA
:10493000A8010020608C00082DE9F84F05460E46BE
:1049400017469846DDF828B0781E03F0ABFE4FF00E
:104950008241009003F074FD81464146484603F0D1
:1049600001FF009003F062FE8246002406E00AEB9D
:10497000040055F8200046F82400641C452CF6DBA2
:104980000120BDE8F88F00007CB50546284949683C
:10499000087801AB04220D21FEF7E5F908B10720E4
:1049A0007CBD9DF80700C0F301109DF8041001F0D4
:1049B000E00140EAE1008DF800009DF80700C0F337
:1049C00081009DF8051001F0E00140EAE1008DF85A
:1049D00001009DF8070000F003009DF8061001F0AB
:1049E000E00140EAE1008DF8020000241CE01DF81F
:1049F000040018B9002045F8240013E00D4845F8DC
:104A0000240006E055F824000B4903F0ABFE45F8FE
:104A100024001DF80400401EC0B20DF80400002858
:104A2000F0D100BF601CC4B2032CE0DB0020B7E76C
:104A30001C0000207B14AE3E1D5A843F2DE9F04F30
:104A400087B005460C46914601208DF810000020E5
:104A50008DF81100FE4A1268917CFD4A5268107868
:104A600004AB0222FEF725FA20B14FF0FF3007B069
:104A7000BDE8F08FC820FFF703F800208DF8100084
:104A8000F34A1268D17BF24A5268107804AB0122D3
:104A9000FEF70FFA10B14FF0FF30E8E7EC4A12686A
:104AA0005179EB4A5268107804AB0122FEF701FA03
:104AB00010B14FF0FF30DAE7E54A1268917CE44A22
:104AC0005268107804AB0122FEF7F3F910B14FF0F1
:104AD000FF30CCE7DE4A1268D17DDD4A526810789B
:104AE00004AB0122FEF7E5F910B14FF0FF30BEE74D
:104AF000D74A12681179D64A5268107804AB01225D
:104B0000FEF7D7F910B14FF0FF30B0E70C208DF869
:104B10001000CF4A12681179CD4A5268107804AB60
:104B20000122FEF7C6F910B14FF0FF309FE70F20CA
:104B3000FEF7A6FFC648806A407A8DF81000C44A86
:104B400012689178C24A5268107804AB0122FEF7CD
:104B5000B0F910B14FF0FF3089E7BD48806A007AA4
:104B60008DF81000BA4A12685178B94A5268107824
:104B700004AB0122FEF79DF910B14FF0FF3076E74C
:104B8000B9F1000F07D0B248806A807A40F0E000A7
:104B90008DF8100004E0AE48806A807A8DF810002D
:104BA000AB4A12689179AA4A5268107804AB012284
:104BB000FEF77FF910B14FF0FF3058E7B9F1000F61
:104BC00007D0A348806AC07A40F0E0008DF810005A
:104BD00003E0A048C07A8DF810009D4A1268D17990
:104BE0009B4A5268107804AB0122FEF762F910B1BB
:104BF0004FF0FF303BE7B9F1000F02D0C820FEF7BD
:104C00003FFF40208DF81000914A12681179904AB8
:104C10005268107804AB0122FEF74BF910B14FF047
:104C2000FF3024E778208DF81000894A1268517906
:104C3000874A5268107804AB0122FEF73AF910B1A6
:104C40004FF0FF3013E783498889FEF719FF0020F2
:104C50008DF810007E4A126851797D4A52681078AA
:104C600004AB0122FEF725F910B14FF0FF30FEE64C
:104C7000774A1268917A764A5268107804AB022219
:104C8000FEF771F810B14FF0FF30F0E69DF811001B
:104C90009DF8101040EA012B0C209BFBF0F0C6B2EF
:104CA0000020A86068602860A06060602060824684
:104CB00065E0674A1268D17A654A5268107804AB99
:104CC0000C22FEF750F810B14FF0FF30CFE69DF800
:104CD00011009DF8101040EA012000B2ADF8080064
:104CE0009DF813009DF8121040EA012000B2ADF8C3
:104CF0000A009DF815009DF8141040EA012000B24A
:104D0000ADF80C00BDF90810206808442060BDF91A
:104D10000A10606808446060BDF90C10A06808447F
:104D2000A0609DF817009DF8161040EA012000B21F
:104D3000ADF800009DF819009DF8181040EA012018
:104D400000B2ADF802009DF81B009DF81A1040EA71
:104D5000012000B2ADF80400BDF900102868084435
:104D60002860BDF90210686808446860BDF9041045
:104D7000A8680844A8600AF1010000F0FF0AB245E3
:104D800097DB3448D0F800C02868C117090441EA0D
:104D900010410704624600233846FDF79EF832466C
:104DA0000023CDE90201FDF798F828602948D0F8E2
:104DB00000C06868C117090441EA1041070462464F
:104DC00000233846FDF789F832460023CDE9020179
:104DD000FDF783F868601F48D0F800C0A868C117C5
:104DE000090441EA10410704624600233846FDF7F2
:104DF00074F832460023CDE90201FDF76EF8A86091
:104E00001448D0F804C02168C817000440EA1148CB
:104E10000F046246002338464146FDF75EF83246ED
:104E20000023CDE90201FDF758F820600948D0F8C9
:104E300004C06068C117090441EA104107046246D2
:104E400000233846FDF749F83246002304E000000D
:104E50001C000020D88C0008CDE90201FDF73DF8C8
:104E600060601148D0F804C0A068C117090441EA85
:104E700010410704624600233846FDF72EF83246FB
:104E80000023CDE90201FDF728F8A060A068002802
:104E900004DDA068A0F58030A06003E0A06800F504
:104EA0008030A0600020E2E5D88C00082DE9FC5F8E
:104EB0000746884600263F494968087801AB032227
:104EC0000D21FDF750FF10B10720BDE8FC9F9DF8B4
:104ED000040000F01F008DF804009DF8050000F0AC
:104EE0001F008DF805009DF8060000F01F008DF8EA
:104EF0000600002459E057F8240058F82410A0EBCD
:104F0000010BBBF1000F01DB594601E0CBF10001C1
:104F1000084603F0C7FB4FF08F41009003F090FA72
:104F2000824601A8005D78B32349086803F0D2FBEC
:104F300083465946214803F083FA814604E020491C
:104F4000484603F00FFC814601A8005D401EC0B238
:104F500001A908550028F2D14946504603F070FADD
:104F600083464FF07E5103F08DFD054600BF25F0CE
:104F70000040834610488169584603F0BFFC13D2B5
:104F80000120A04006430FE0FFE70B4801695046AF
:104F900003F0B4FB05D308484169504603F0AEFC6A
:104FA00002D20120A0400643641C032CA3DB304640
:104FB0008BE700001C000020D88C000800B04C4596
:104FC00054E3853F10B50446204600F00FF8034631
:104FD000E01C00F00BF843EAC00083B2A01D00F013
:104FE00005F843EA801083B2184610BD014691F9D6
:104FF0000020002A01DD00201EE091F90020002A97
:1050000001DA042018E091F90120002A01DD0120D5
:1050100012E091F90120002A01DA05200CE091F953
:105020000220002A01DD022006E091F90220002A78
:1050300001DA062000E00720704700000EB50026C8
:1050400000270024002500202A4908602A49C1F8C9
:1050500094010920FDF7ECFF4820FEF7F1FC2748FA
:10506000416848208847FDF74DFCFDF705FE00BF6D
:1050700000F096F90028FBD1FDF70AFB39E06A46FB
:1050800001A902A800F07AF840BB781CC7B20C2F27
:1050900024D10027002411E001250BE0184800EB83
:1050A000C42050F82510164800EBC422681E42F8B0
:1050B00020106D1CB5F5007FF0DB641C032CEBDBCE
:1050C0000F490298C1F8FC070D480099C0F8FC1F71
:1050D00000F580500199C0F8FC17761C402E08D1CD
:1050E0000848006808B9012000E000200549086070
:1050F0000026C4E79481214200002342B40000202E
:10510000F8190020940123427047000070B504464E
:10511000002624F00104184890F8240008B100206B
:1051200070BD1548807A10B94FF0FF30F8E712488B
:10513000057C807A2040104908740846007CA04213
:1051400002D04FF0FF3600E0002614B90A48007D77
:1051500018B1012001F0D0F902E0002001F0CCF9F3
:105160003CB100F0ABFC20B1034805744FF0FF30B8
:10517000D6E73046D4E700001C0000202DE9F04FB0
:1051800099B004460D4616464FF07E574FF0000882
:105190004FF000094FF0000A12A813A918AB0EAA8D
:1051A000CDE9001014A916A8FEF7FAFE18B10120E7
:1051B00019B0BDE8F08FBDF84C0000F480700028F5
:1051C0007ED00E9803F06EFA83464FF09D4103F0B7
:1051D00037F907460F9803F065FA83464FF09D4173
:1051E00003F02EF98046109803F05CFA83464FF0E6
:1051F0009D4103F025F98146119803F053FA834647
:105200004FF09D4103F01CF9824639464FF0804033
:1052100003F0A8FA4946059003F0A4FA4146079026
:105220004FF0404003F09EFA5146059003F09AFA81
:105230000690079903F096F8834603F067F8CDE9E6
:105240000801FEF7C3F84FF06632544BCDE90A016E
:1052500002F04CFDCDE90C0102F0AEFA20604946A7
:105260004FF0804003F07EFA4946029003F07AFA4C
:10527000414604904FF0404003F074FA41460290DA
:1052800003F070FA0390049903F0FCFB83464FF09F
:105290007E5103F067F8059003F038F8CDE9080176
:1052A00039464FF0804003F05DFA4146039003F029
:1052B00059FA494604904FF0804003F053FA00E059
:1052C00068E05146039003F04DFA8346049903F0D9
:1052D00049F8059003F01AF8CDE90601DDE9082345
:1052E000FEF7BCFA4FF066322C4BCDE90A0102F012
:1052F000FDFCCDE90C0102F05FFA286051465046F2
:1053000003F030FA49460490484603F02BFA414630
:105310000390404603F026FA39460190384603F0E0
:1053200021FA0090019903F01DF80290039903F00F
:10533000A9FB8346049903F0A5FB059002F0E6FF64
:10534000CDE908015146384603F00CFA494604906D
:10535000404603F007FA0390049903F003F84FF076
:105360008041059003F0FEF9834602F0CFFFCDE9BE
:105370000601DDE90823FEF771FA4FF06632074BAC
:10538000CDE90A0102F0B2FCCDE90C0102F014FAF9
:10539000306001E002200BE7002009E766A64C40E0
:1053A00070B50024FDF746FB00F024F9002840D139
:1053B000782000F02FFFC4B20CB1012070BD78201E
:1053C000FFF7A4FEC4B20CB10220F7E7642000F09E
:1053D000D3FEC4B20CB10320F0E7FEF7D5FDC4B292
:1053E0000CB10420EAE71548FFF7ECFD0546FFF78E
:1053F00025F8C4B20CB10520E0E740F27310FEF7C7
:105400006BFCC4B20CB10620D8E76420FEF746FF5F
:10541000C4B20CB10720D1E701F024F804460CB166
:105420000820CBE7012000F0A3FDC4B21CB1092085
:10543000C4E70A20C2E70020C0E7000048000020BF
:1054400001461148407A30B1012807D0022808D01F
:1054500003280CD108E0022008700BE0042008703B
:1054600008E00820087005E01020087002E04FF006
:10547000FF30704700BF0448C07C18B10878400670
:10548000000E08700020F4E71C00002001461348BD
:10549000407A30B1012808D002280AD0032810D160
:1054A0000BE04FF4804008800EE041F69C700880CD
:1054B0000AE04FF48050088006E04FF40060088056
:1054C00002E04FF0FF30704700BF0448C07C10B1CD
:1054D0000888401008800020F5E700001C0000202C
:1054E00001460248007C0870002070471C00002024
:1054F00001460F48007A30B1012807D0022809D0B0
:1055000003280FD10AE0FA2008800EE04FF4FA7069
:1055100008800AE04FF47A70088006E04FF4FA60E1
:10552000088002E00020088000BF00BF0020704714
:105530001C00002001460E48007A30B1012807D037
:10554000022808D003280CD108E00A4808600BE0C4
:105550000948086008E00948086005E00848086054
:1055600002E04FF0FF30704700BF0020FBE7000073
:105570001C00002000000343000083423333034239
:105580003333834101461248C07A082817D2DFE836
:1055900000F01704070A0D101318BC20088013E050
:1055A0006220088010E02A2008800DE01420088086
:1055B0000AE00A20088007E00520088004E000BF18
:1055C00000BF0020088000BF00BF0020704700001F
:1055D0001C0000200146064890F8240010B14FF04E
:1055E000FF3070470248C08908800020F9E70000BA
:1055F0001C0000201CB580208DF80000654A126850
:10560000917C644A526810786B460122FDF751FC88
:1056100010B14FF0FF301CBD6420FEF731FA0020BE
:105620008DF800005B4A1268917C5A4A52681078E3
:105630006B460122FDF73DFC10B14FF0FF30EAE769
:10564000544A1268917D534A526810786B4606227C
:10565000FDF789FB10B14FF0FF30DCE79DF8050046
:10566000C007400F9DF8031001F0010140EA41001E
:105670009DF8011001F0010140EA010494B1012CF0
:1056800003D101214348C17431E0022C03D1002130
:105690004048C1742BE021463FA0FCF743FC4FF08B
:1056A000FF30B8E73B4A1268D1783A4A526810781E
:1056B0006B460122FDF757FB10B14FF0FF30AAE710
:1056C0009DF8000000F00F042CB93D48FCF72AFCBF
:1056D0004FF0FF309FE7042C06D13AA0FCF722FCE4
:1056E00001212C48C17402E000212A48C174FF2125
:1056F00028488172FF2027490872FF2125484172FE
:10570000C1724FF6FF71C181FF21017481740121C3
:10571000017380F82210002180F823104175017573
:105720001630016041608160163880F8241080F8DE
:105730002510C1844FF4FA6000F062FC10B14FF004
:10574000FF3068E7022000F02BFB10B14FF0FF3074
:1057500061E72A2000F0CEFC10B14FF0FF305AE78D
:10576000322000F009FD10B14FF0FF3053E7002068
:10577000FFF7CCFC10B14FF0FF304CE7002000F0F9
:1057800051FB10B14FF0FF3045E7002000F042FD23
:10579000002040E71C000020556E737570706F721A
:1057A00074656420736F6674776172652070726FC0
:1057B00064756374207265762025642E0A000000EB
:1057C00048C8000848616C662073656E7369746927
:1057D00076697479207061727420666F756E642EBC
:1057E0000A0000002DE9F04385B005460E469046BC
:1057F0009946294890F8250020B14FF0FF3005B0B8
:10580000BDE8F08316B94FF0FF30F8E7002423E03D
:10581000281B102801DD102000E0281B87B2321958
:105820003946204600F05EFD10B14FF0FF30E6E74C
:1058300001AA3946204600F001F910B14FF0FF30BF
:10584000DDE730193A4601A9FCF7F4FC10B16FF01E
:105850000100D4E7E01984B2AC42D9DB4FEA28203A
:105860008DF8000008F0FF008DF801000A4A126868
:10587000917E094A526810786B460222FDF719FBA7
:1058800010B14FF0FF30BAE70121034880F825102E
:10589000A0F826900020B2E71C00002038B504468E
:1058A000282C02DD4FF0FF3038BDDCB9002000F0BD
:1058B000EBFB00208DF8000007208DF801002E4A38
:1058C0001268917C2C4A526810786B460222FDF7D0
:1058D000F0FA10B14FF0FF30E6E7002126480175DD
:1058E0000020E1E7012000F0CFFB20208DF8000030
:1058F000012C06D100208DF80100052000F0FAFBF4
:1059000017E0052C06DC01208DF80100052000F0D1
:10591000F1FB0EE0142C06DC02208DF801000A20B9
:1059200000F0E8FB05E003208DF80100142000F0F2
:10593000E1FB9DF80100072101EB8010C0B28DF85A
:1059400001000D4A1268917C0B4A526810786B4630
:105950000222FDF7AEFA10B14FF0FF30A4E70821A4
:105960000548817200210173012101750020FFF7B4
:10597000CDFB002098E700001C000020F8B504468D
:105980000F4616462C4890F8240010B94FF0FF300F
:10599000F8BD2948807A10B94FF0FF30F8E7264A61
:1059A0001268917A244A526810786B460222FDF7F9
:1059B000DAF910B14FF0FF30EAE79DF801009DF8E9
:1059C000001040EA0125A54203DA00203070401E95
:1059D000DEE7194840684088B5EB600F17DD164ACE
:1059E0001268517C144A526810786B460122FDF708
:1059F000BAF910B14FF0FF30CAE79DF8000000F08F
:105A0000100020B100F05AF86FF00100C0E7E2B2D8
:105A1000094B1B68D97A084B5B6818783B46FDF741
:105A2000A2F910B14FF0FF30B2E795FBF4F0401E41
:105A300030700020ACE700001C000020F8B50446E0
:105A40000D46164616B94FF0FF30F8BD1A48807A59
:105A500010B94FF0FF30F8E720128DF80000E0B2E7
:105A60008DF801009DF801002844134949684989CF
:105A7000884202DD4FF0FF30E7E70F4A1268117EDF
:105A80000D4A526810786B460222FDF712FA10B1E7
:105A90004FF0FF30D9E7EAB2074B1B68597D064B40
:105AA0005B6818783346FDF75EF910B14FF0FF30B0
:105AB000CBE70020C9E700001C00002008B57048B3
:105AC000807A10B94FF0FF3008BD002000906C4A7A
:105AD0001268D17B6A4A526810786B460122FDF742
