:020000040800F2
:1000000018350020E9010008ED010008EF010008A3
:10001000F1010008F3010008F501000800000000EC
:10002000000000000000000000000000F7010008D0
:10003000F901000800000000FB010008FD010008B4
:10004000FF010008FF010008FF010008FF01000890
:10005000FF010008FF01000825090008FF01000852
:10006000FF010008FF010008FF010008FF01000870
:10007000FF010008FF010008FF010008FF01000860
:10008000FF010008FF010008FF010008FF01000850
:10009000FF010008FF010008FF010008FF01000840
:1000A000FF010008FF010008FF010008FF01000830
:1000B000FF010008FF01000839110008FF010008D6
:1000C000FF010008FF010008FF010008FF01000810
:1000D000FF010008C5110008FF010008FF0100082A
:1000E000FF010008FF010008FF01000800F002F80E
:1000F00000F06BF80AA090E8000C82448344AAF157
:100100000107DA4501D100F060F8AFF2090EBAE854
:100110000F0013F0010F18BFFB1A43F0010318473B
:10012000B4730000D47300000A444FF0000C10F8C0
:10013000013B13F0070408BF10F8014B1D1108BF65
:1001400010F8015B641E05D010F8016B641E01F805
:10015000016BF9D113F0080F1EBF10F8014BAD1C55
:100160000C1B09D16D1E58BF01F801CBFAD505E073
:1001700014F8016B01F8016B6D1EF9D59142D6D3CD
:10018000704700000023002400250026103A28BFF5
:1001900078C1FBD8520728BF30C148BF0B607047F9
:1001A000642900F0BD80752900F0BA80782900F03C
:1001B000F380632900F02483732900F02983002051
:1001C00070471FB51FBD10B510BD00F07DFB114677
:1001D000FFF7F7FF02F0ECFD00F09BFB03B4FFF725
:1001E000F2FF03BC01F0B3F808480047FEE7FEE762
:1001F000FEE7FEE7FEE7FEE7FEE7FEE7FEE7FEE7D7
:1002000003480449024A044B70470000ED0000080F
:10021000183300201835002018330020704710B51F
:100220004C1084EA530404D54042C1F1000138BFA8
:10023000491E1B4204D55242C3F1000338BF5B1E66
:1002400000F0F9F914F0804F04D04042C1F10001F0
:1002500038BF491E14F0004F04D05242C3F10003CE
:1002600038BF5B1E10BD00000FB4044910B503AACF
:10027000029800F0D1FA10BC5DF814FB3C0000209D
:1002800070B5044685690068C10601D5302600E0D6
:100290002026C00707D070BDD4E901213046904721
:1002A000206A401C20626D1EF6D570BD70B50446F4
:1002B00085690078C00707D170BDD4E901212020ED
:1002C0009047206A401C20626D1EF6D570BD70B547
:1002D0000C460546012A05D02878800600D5EA6933
:1002E000002302E0012305E05B1C934202D2E05CA4
:1002F0000028F9D1A869E618C01AA861286A18442C
:1003000028622846FFF7BCFF04E0D5E9012114F874
:10031000010B9047B442F8D32846FFF7C7FF70BDE2
:100320002DE9F0410646002410687529314616A5CE
:1003300010D0AFF30080002802DA404213A507E096
:1003400031688A0701D512A502E0490704D511A535
:10035000012401E0AFF3008000210A2206F1240706
:1003600009E0B0FBF2FCB0FBF2F302FB1C00303002
:1003700078541846491C0028F3D123462A463046B3
:10038000BDE8F04100F0D9B9000000002D000000E8
:100390002B0000002000000070B504460D462146E9
:1003A0001068AFF300802188090502D50F4A7A440E
:1003B00002E00E4A7A440E32002104F1240305E0E3
:1003C00000F00F060009965D5E54491C0028F7D125
:1003D00020780023000704D5702D02D009B1022334
:1003E00011322046BDE8704000F0A7B9B46E00009D
:1003F0002DE9F05F894604464FF0000ADFF874B13A
:10040000FB44C0F820A02046E1688847002874D04B
:10041000252806D0D4E901219047206A401C20629B
:10042000F1E700265F462046E16888472028054618
:1004300007DB312D05D2781910F8200C08B10643DE
:10044000F1E7B00701D526F00406C4F81CA0002788
:10045000C4F818A02A2D09D0284600F071FF38B33F
:1004600004EB8708303DC8F8185019E059F8041B10
:10047000204604EB87029161E1688847012F054619
:1004800018D1E069002820DA26F020061DE0D8F80F
:10049000180000EB800005EB40003038C8F8180069
:1004A0002046E1688847054600F04AFF0028EED163
:1004B000012F0AD02E2D08D12046E16888477F1CE5
:1004C0000546022F46F02006C4DBA069002803DAA7
:1004D000404246F00106A061F00701D026F0100668
:1004E0006C2D0BD0682D09D04C2D39D06A2D35D00C
:1004F000742D35D07A2D33D016E038E0E1682F46E0
:1005000020468847B842054609D16C2F26D04FF4C3
:100510008060E168064320468847054604E06C2F6A
:100520001AD04FF4807006430DB3A5F1410019288D
:1005300002D8203546F400664A4629462046266001
:100540004E46FFF72DFE80B101280BD0F61D26F098
:10055000070000F1080956E74020E4E78020D8E7CB
:100560000020D6E706F104094DE7284652E7206A45
:10057000BDE8F09F8A6E000040EA010310B59B07BA
:100580000FD1042A0DD310C808C9121F9C42F8D0FD
:1005900020BA19BA884201D9012010BD4FF0FF30AE
:1005A00010BD1AB1D30703D0521C07E0002010BDC4
:1005B00010F8013B11F8014B1B1B07D110F8013B50
:1005C00011F8014B1B1B01D1921EF1D1184610BD31
:1005D00002F0FF0343EA032242EA024200F030B98C
:1005E0004FF0000200B5134694469646203922BFCC
:1005F000A0E80C50A0E80C50B1F12001BFF4F7AF17
:10060000090728BFA0E80C5048BF0CC05DF804EBF8
:10061000890028BF40F8042B08BF704748BF20F866
:10062000022B11F0804F18BF00F8012B7047704764
:1006300070477047704753EA020C00F069802DE95B
:10064000F04B4FF00006002B1FBFB3FA83F503FAFF
:1006500005F424FA05F65E4012BF1643B2FA82F59D
:1006600002FA05F4C5F120051EBF22FA05FC44EA92
:100670000C04203556EA044C4FEA144418BF641C9D
:100680004FF000084FF00009904271EB030C39D392
:10069000002919BFB1FA81F701FA07F6B0FA80F71D
:1006A00000FA07F6C7F120071EBF20FA07FC46EA4A
:1006B0000C062037B6FBF4FCA7EB0507103F07F04C
:1006C0001F0BCBF120060CFA0BFB2CFA06F644BFED
:1006D000B3460026202FA4BF5E464FF0000B5BEA16
:1006E000060C08BF4FF0010B19EB0B09ABFB027CAA
:1006F00048EB0608C01B06FB02CC0BFB03CC71EBDE
:100700000C01C1E70B46024641464846BDE8F08B66
:1007100013B54FF000004FF00001AFF30080BDE8CB
:100720001C40704710B500F0ABF8006810BD10B564
:10073000044600F0A5F8046010BD2DE9F0470D4611
:1007400099469246044600F124080168880604D5BB
:10075000E06921F01001216000E00120A84201DDE4
:10076000471B00E00027A1697A1902EB0900081A6B
:10077000A0612078C00602D42046FFF781FD002644
:1007800008E0D4E901211AF806009047206A401CCD
:10079000761C20624E45F4DB2078C0060AD5204640
:1007A000FFF76EFD06E0D4E9012130209047206A72
:1007B000401C2062381EA7F10107F4DC07E0D4E9F1
:1007C000012118F805009047206A401C2062281E6D
:1007D000A5F10105F3DC2046FFF768FD207800064F
:1007E00002D50220BDE8F0870120FBE710B5436980
:1007F00013B1AFF3008001E0FFF769FD012010BDE8
:10080000127800F124010A7000224A700122EDE7FB
:1008100011684FF0FF32E9E7074B70B50D467B4496
:1008200000F037F80446284600F046F810B14FF0C3
:10083000FF3070BD204670BDBF1E00004FF00002AB
:100840000429C0F0128010F0030C3FF4CBAECCF1C1
:10085000040CBCF1020F18BF00F8012BA8BF20F850
:10086000022BA1EB0C01FFF7BDBE5FEAC17C24BFE8
:1008700000F8012B00F8012B48BF00F8012B70474E
:1008800000487047B432002001694A1C02610878B0
:10089000704700B58FB0CDE90131002105910549C0
:1008A0007944CDE9031011466846FFF7A1FD0FB06A
:1008B00000BD0000E5FFFFFF007B00F080007047F7
:1008C00000487047B43200207546FFF7F9FFAE4686
:1008D00005006946534620F00700854618B020B54C
:1008E000FFF78EFCBDE820404FF000064FF00007F8
:1008F0004FF000084FF0000B21F00701AC46ACE8C8
:10090000C009ACE8C009ACE8C009ACE8C0098D4634
:10091000704710B50446AFF300802046BDE8104094
:10092000FFF75CBC10B50A2001F0C4F80548006868
:1009300008B9012000E000200249086001200249B6
:10094000086010BD9481214214040140014649060B
:10095000084A926942F00102064B9A61064A5268BF
:1009600022F0E062044B5A601A4652680A435A6009
:1009700070470000001002400000014018488069E4
:1009800040F00800164988610846806940F0400040
:1009900088611448006820F4700012490860084615
:1009A000006840F4401008600E480C30006840F0C9
:1009B00020000C490C3108600B48006820F47000DE
:1009C000094908600846006840F44010086006487D
:1009D0000C30006840F0200003490C31086070477B
:1009E00000100240000C0140001801402DE9F84FB2
:1009F0006B4602224121682000F0F1F99DF80100C8
:100A00009DF8001040EA01200FFA80FA504604F0E9
:100A1000FDFE804600220B4B04F0A0FD06460A4A6C
:100A20000A4B04F0EBFC044604F0B6FC834608498C
:100A3000584605F009FC044605F06AFB00B2BDE823
:100A4000F88F000000407540A4703D0AD743424033
:100A50000000C84210B500200E4908600E4800682A
:100A600020F470400C4908600846006840F440508B
:100A7000086000200949C1F8AC0100F011F801201C
:100A80000449086000F00CF800200449C1F8A801EE
:100A900010BD0000A8812142040C014000802142C9
:100AA00010B5022001F024F810BD00000C48806948
:100AB00040F008000A4988610A48006820F47F4035
:100AC000084908600846006840F44C500860054832
:100AD0000830006840F440600249083108607047FF
:100AE00000100240040C014010B500200E490860BF
:100AF0000E48006820F470400C4908600846006801
:100B000040F44050086001200949C1F8AC01FFF7EA
:100B1000C7FF012004490860FFF7C2FF0020044915
:100B2000C1F8A80110BD0000A8812142040C0140B9
:100B30000080214270B5054600241648006820F464
:100B40007040144908600846006840F4004008609E
:100B5000002614E0002010490860FFF7A1FF0120E3
:100B60000E49C1F8A8016006040E0B487C380068E5
:100B700008B1601CC4B2FFF793FF701CC6B2082E08
:100B8000E8DB15B9FFF7B0FF01E0FFF763FF204690
:100B900070BD0000040C0140A88121420080214268
:100BA00070B504461248006820F47040104908608F
:100BB0000846006840F44050086000200D49086075
:100BC000002512E0E0090B49091D08606006040ECB
:100BD00001200949C1F8A801FFF762FF002005497B
:100BE0000860FFF75DFF681CC5B2082DEADB70BD29
:100BF000040C0140A88121420080214210B50E481A
:100C0000006820F470400C4908600846006840F411
:100C1000405008600120094908600949C1F8A8014D
:100C2000FFF73EFF002005490860FFF739FF00206D
:100C30000349C1F8A80110BD040C0140AC81214258
:100C40000080214210B50E48006820F470400C4925
:100C500008600846006840F44050086000200949D8
:100C600008600949C1F8AC01FFF71AFF01200549E6
:100C700008600549C1F8AC01FFF712FF10BD000084
:100C8000040C0140A88121420080214210B50024BB
:100C90001448006820F47040124908600846006853
:100CA00040F40040086001200F490860FFF7F8FE9B
:100CB00001200E49C1F8A801FFF7F2FE07E0601C11
:100CC000C4B2FA2C03DDFFF7BDFF012010BD0648BA
:100CD000803800680028F2D10349091F086000BF6E
:100CE000F4E70000040C0140AC8121420080214265
:100CF00010B52948806940F00400274988612748D9
:100D0000006820F07040254908600846006840F0FF
:100D1000405008600120FFF719FE002020490860BC
:100D2000FFF7C4FE80216B2000F0DDF8642000F0A6
:100D3000C1FE00216B2000F0D6F8032000F091F8EE
:100D4000002000F086F8082000F0B0F800213820DC
:100D500000F0C9F800216A2000F0C5F80021232026
:100D600000F0C1F88021372000F0BDF8752000F0B8
:100D700019F80446682C0BD101216B2000F0B3F860
:100D800000216C2000F0AFF8082000F08FF801E09F
:100D9000012010BD0020FCE70010024004080140C3
:100DA000BC01214270B50446FFF728FFD020FFF7B1
:100DB000F7FEFFF76BFF2046FFF7F2FEFFF766FF37
:100DC000FFF71CFFD120FFF7EBFEFFF75FFF0020CE
:100DD000FFF7B0FE0546FFF735FF284670BD2DE949
:100DE000F04106460F4614461D46FFF707FF002157
:100DF00041EA4601C8B2FFF7D3FEFFF747FF20B133
:100E0000FFF720FF0120BDE8F0813846FFF7C8FE5C
:100E1000FFF73CFFFFF7F2FE012101EB4601C8B2EC
:100E2000FFF7BEFEFFF732FF0DE0012C04D10020DA
:100E3000FFF780FE287003E00120FFF77BFE28709B
:100E4000601EC4B26D1C002CEFD1FFF7FBFE00202A
:100E5000D9E710B50446E006010E1C2000F043F867
:100E600010BD10B50446E006010E1B2000F03BF853
:100E700010BD70B504460025BC2C01DB012510E037
:100E8000622C01DB02250CE02A2C01DB032508E0A3
:100E9000142C01DB042504E00A2C01DB052500E00D
:100EA000062529461A2000F01EF870BD70B50446CC
:100EB000B4F57A7F01DD4FF47A74042C00DA04244F
:100EC0004FF47A7090FBF4F0401EC5B22946192009
:100ED00000F009F80546264604EBD671C1F34F0031
:100EE000FFF7C7FF70BD70B505460C46FFF786FEDD
:100EF000D020FFF755FEFFF7C9FE18B1FFF7A2FE9D
:100F0000012070BD2846FFF74BFEFFF7BFFE2046CD
:100F1000FFF746FEFFF7BAFE18B1FFF793FE012078
:100F2000EFE7FFF78FFE0020EBE72DE9F0410546E4
:100F30000E4617469846FFF761FE002141EA45013B
:100F4000C8B2FFF72DFEFFF7A1FE20B1FFF77AFE32
:100F50000120BDE8F0813046FFF722FEFFF796FE44
:100F600000240CE018F80400FFF71AFEFFF78EFECD
:100F700018B1FFF767FE0120EBE7601CC4B2BC426A
:100F8000F0DBFFF75FFE0020E3E7000000B5002084
:100F900015490861C8601420486100208861C86153
:100FA0000846006840F001000860084640680F49A4
:100FB00008400D494860084600680D4908400A4944
:100FC00008600846006820F48020086008464068F1
:100FD00020F4FE0048600020886000214FF000608F
:100FE00000F058F800BD0000001002400000FFF8BB
:100FF000FFFFF6FE2DE9F0410746884614461D46E0
:10100000284600F033F8C5F1040007FA00F60F2077
:10101000284100EA0800064306F00F06E21704EB39
:10102000D2625211920002F1E022D2F80021214650
:10103000E31704EBD3635B11A4EB431C012303FA16
:101040000CF31A432046E31704EBD3635B119B00B8
:1010500003F1E023C3F800210348005D40EA0610D5
:1010600001490855BDE8F08100E400E0014607238E
:1010700023EA01021202054B18684FF6FF031840DD
:10108000034B18431043014B186070470CED00E010
:101090000000FA05024A0A400243024B1A607047F8
:1010A00080FFFF1F08ED00E030B504460025FFF784
:1010B0006DFF1F48006840F480301D49086000BF84
:1010C0001B480068400C0028FAD04FF48060184993
:1010D0004860A01EC4B20846406840EA84404860A8
:1010E0000846406840F4803048601248006840F08C
:1010F0003200104908600E48006840F080700C49CA
:10110000086000BF0A480068400E0028FAD008486E
:10111000406840F002000649486005E00448406825
:10112000C0F3870505F00305022DF7D130BD00009F
:10113000001002400020024010B50C48008800F06A
:10114000010058B10A490869804700200749143155
:1011500008804FF47A7005491C31088003480088E4
:1011600020F001000149088010BD00001008004077
:101170009800002070B505460C461048C06940F044
:1011800004000E49C8610E480580001F04800C4809
:101190002038008840F001000949203908800848BB
:1011A0002C38008840F0010005492C3908800223C2
:1011B0001E2203210846FFF71DFF70BD00100240EC
:1011C0002C0800401D49098801F0200111B31B497A
:1011D000091D0988C8B21A49098801F40041C9B932
:1011E0001749098801F4804161B10A2803D0002120
:1011F000134A118020E01249098841F40041104A45
:10120000118019E00D2806D10D49098841F480416B
:101210000B4A118010E00A490988C1F30D01094AFF
:10122000505407490988491C054A1180114609880C
:10123000C72901DD002111807047000000380140FE
:1012400040000020EC310020490050EAC12018BFC6
:1012500004204A0D18BF40F0010040F2FF72B2EBCB
:10126000515F08BF40F00200012808BF0520704709
:101270002DE9F0414F1E00EBC7010446D1E9000102
:1012800015461E4637F006020DD02A46334604F0B6
:10129000D5FA7F1E04EBC703D3E9002304F0AEF8B0
:1012A00037F00602F1D1022F25D0042F13D0062FDC
:1012B00018BFBDE8F0812A46334604F0BFFAD4E9EE
:1012C0000A2304F09BF82A46334604F0B7FAD4E91F
:1012D000082304F093F82A46334604F0AFFAD4E921
:1012E000062304F08BF82A46334604F0A7FAD4E923
:1012F000042304F083F82A46334604F09FFAD4E925
:10130000022304F07BF82A46334604F097FAD4E926
:101310000023BDE8F04104F071B8012205F039B9AD
:1013200004F06CB8002213461046114604F016B9BA
:10133000024A0020110705F02CB9000001FDFFFF53
:1013400030380A2801D2012070470020704701463A
:1013500000BF70472DE9FE4F0746884600266846C5
:1013600001F0CCF9002444E057F8240058F8241088
:10137000A0EB010ABAF1000F01DB514601E0CAF10E
:101380000001084604F000FF83464FF08F4104F04F
:10139000C9FD81465DF82400002104F085FE18D0C7
:1013A0005DF82410484604F0BDFD82464FF07E51A2
:1013B00005F048F8054600BF25F0004082460F487A
:1013C000416A504605F00CF812D20120A0400643B5
:1013D0000EE00A48C169484604F002FF05D30748F9
:1013E000016A484604F0FCFF02D20120A0400643F7
:1013F000641C032CB8DB3046BDE8FE8F486600084D
:101400002DE9F04D8D4F21F0004A86B005460C467F
:10141000BA452ADBAAEB070028430AD08848824550
:1014200001DC1AD1CDB106B02846BDE8F04DFFF77A
:1014300074BF844A844B284604F000FA07460E46DF
:10144000824A834B2846214604F0F8F906B03A4612
:101450003346BDE8F04D03F0D1BF0120FFF767F937
:1014600006B0BDE8F04DFFF75DBF7A48824542DA2D
:10147000BAF1795F0BDA2846FFF7E6FE042808BFC9
:10148000FFF756FF284606B02146BDE8F08D2A46F4
:101490000B46104604F0D2F9834602466E480E46CB
:1014A0000B4606217844FFF7E3FE5A46334604F024
:1014B000C5F9804669488A465A463346042178442D
:1014C000FFF7D6FE5A46334604F0B8F900223B46F1
:1014D00003F094FF02460B464046514604F03EF8A6
:1014E0002A46234604F0AAF906B02A462346BDE858
:1014F000F04D03F083BF284624F0004100223D4612
:101500003B4604F099FA4FF0FF3205F042F80646E8
:10151000024653480F460B4606217844FFF7A8FEC3
:1015200032463B4604F08AF9CDE900014D48324687
:101530003B4604217844FFF79BFE32463B4604F0CD
:101540007DF900222B4603F059FF83460291304675
:10155000394602F055FE804643480D46504517DC9B
:10156000DDE900015A46029B03F0F8FF42462B4694
:1015700004F064F942462B4603F040FF012205F0D7
:1015800008F8304A304B04F049FB304A304B4CE00D
:101590004FF0000A52460B46404603F02FFFCDE9BC
:1015A000031052462B461046194604F047F93246BE
:1015B0003B4604F041FADDE9033203F0CFFF064673
:1015C0000F46DDE900015A46029B03F0C7FF834640
:1015D000009101223046394604F0DBFF194A1A4BCC
:1015E00004F02AFA06460F4601224046294604F036
:1015F000D0FF5A46009B04F021F932463B4604F0E6
:101600000DFB06460F4601225046294604F0C1FF55
:101610000E4DDFF858802A46434604F00DFA324654
:101620003B4604F009FA2A46434604F005FA002C2A
:10163000D8BF81F0004106B0BDE8F08D0000F03F5A
:101640000000F07F075C143326A6913C182D44540B
:10165000FB21F93F0000E03FF85D00000E5E000056
:10166000825D0000985D00003333EF3FFB21E93FCE
:101670002DE9F84F04460D4621F0004000917349D2
:10168000814211DC7249884201DC06D12CB120462E
:101690002946BDE8F84FFFF740BE6E48002DCCBF8D
:1016A0006D496E49BDE8F88F6D49814211DD6D4984
:1016B0008142D8BF4FF0FF366DDD20462946FFF747
:1016C000C3FD042808BFFFF733FE20462946BDE8C6
:1016D000F88F6549654F25F00045814233DD644947
:1016E000814219DD002632464FF0804320462946CC
:1016F00003F084FE80468A4601222046294604F0F3
:1017000048FF00223B4604F089FA4246534603F064
:1017100025FF04460D463EE001260022BA463B4620
:101720002046294603F06AFE80460F4600225346B3
:101730002046294604F072FA42463B4603F00EFF6B
:1017400004460D4627E04B4981421BDDDFF828A106
:101750000226002253462046294604F06FF8002254
:101760003B4603F04BFE80460F4600225346204680
:10177000294604F053FA42463B4603F0EFFE044686
:101780000D4608E0032622462B4600203B4903F085
:10179000E5FE04460D4622462B461046194604F047
:1017A0004DF88B46824602460B4604F047F8074642
:1017B0000246334888460B4606217844FFF758FD19
:1017C00052465B4604F03AF882462E488B463A462B
:1017D000434605217844FFF74BFD3A46434604F063
:1017E0002DF802460B46002E504659460CDA03F0FF
:1017F00005FE22462B4604F021F801B022462B4676
:10180000BDE8F04F04F018B903F0F8FD22462B466E
:1018100004F014F81C4A7A4402EBC603D3E900230F
:1018200004F0FCF922462B4604F0F8F9174A7A44F2
:1018300002EBC603D3E9002304F0FEF8009A002A65
:10184000B8BF81F00041BDE8F88F000000001044EF
:101850000000F07F182D4454FB21F93FFB21F9BF14
:101860000000DC3F0000203E0000F33F0000F03F9E
:101870000000E63F008003400000F83F0000F0BF9A
:101880009A5B0000585B0000F65A0000BE5A000048
:101890002DE9F04D9446CCF1000423F000464CEACB
:1018A0000404524F46EAD4749A46884621F0004216
:1018B000BC4206D8454240EA050442EAD474BC4220
:1018C00004D9BDE8F04D6246FFF72ABDAAF14055A4
:1018D000A5F17F6555EA0C040BD0022404EAAA7432
:1018E000434DDFF810E144EAD87452EA000B04D00B
:1018F0000CE0BDE8F04DFFF7BBBE002C14BF012C7F
:10190000BDE8F08D022C30D0032C32D056EA0C0BFF
:101910000AD0BE4220D1BA4209D126F0804622F038
:1019200080423346114617E000291ADB25E0DFF834
:10193000C8B0FB44002C04BFDBE90001BDE8F08D1A
:10194000012C02BFDBE9000181F00041BDE8F08D10
:10195000022C0AD0032C0CD0BA4212D1B8F1000FDD
:101960000BDA23482549BDE8F08D28462449BDE817
:10197000F08D28467146BDE8F08D1D482149BDE82F
:10198000F08D921B12153C2AC4BF19481D490EDC6C
:10199000BAF1000FBEBF12F13C0F0020014606DB7A
:1019A000624603F0DBFD21F00041FFF761FE002CF1
:1019B00008BFBDE8F08D012C04BF81F00041BDE8F7
:1019C000F08D114A114B022C07D004F027F92A465A
:1019D000BDE8F04D0A4B04F021B904F01FF92A4686
:1019E000BDE8F04D064B04F027B800000000F07F82
:1019F000182D4454FB2109C0525A0000FB21F9BFA5
:101A0000FB210940FB21F93F075C143326A6A13CCA
:101A10002DE9F0410446E07800F0C006E07800F0DF
:101A20003F05607800F0010098B1EF102846E917F3
:101A300005EB5171C910A5EBC101491C01F0FF086C
:101A40000B48006820B10A48414602683846904772
:101A500000BF607800F0080030B10548406818B158
:101A6000B011034A516888470020BDE8F0810000AA
:101A7000DC3100204FF0E021096921F004014FF032
:101A8000E0221161C21700EB5272C2F3C702074B8A
:101A90001A701946097801EB4102C2EBC1114FF6E9
:101AA000FF7202EAC101024A11807047360000202D
:101AB0003800002001460D4A12884A434FF0E023C7
:101AC0005A6100229A6101221A6100BF4FF0E022A0
:101AD000106900F001021AB100F48032002AF5D03A
:101AE00000224FF0E0231A619A617047380000200D
:101AF00001460D4A12784A434FF0E0235A61002212
:101B00009A6101221A6100BF4FF0E022106900F0D3
:101B100001021AB100F48032002AF5D000224FF001
:101B2000E0231A619A6170473600002038B50446F8
:101B300064B120208DF8000028208DF801003020AD
:101B40008DF8020038208DF8030004E0A322042160
:101B50006846FEF73DFD6A46042140F69E2002F0ED
:101B600079FA01F063FE38BD3EB5044602208DF8D7
:101B70000000CA208DF80100E3208DF80200092042
:101B80008DF803006A460421682002F063FAA3205E
:101B90008DF8000004F0400048B1C0208DF801002D
:101BA000C8208DF80200C2208DF8030006E0A320B3
:101BB0008DF801008DF802008DF8030004F4C07068
:101BC00048B1C4208DF80400CC208DF80500C62053
:101BD0008DF8060006E0A3208DF804008DF80500BE
:101BE0008DF80600A3208DF807008DF808008DF809
:101BF00009006A460A2140F6A72002F02BFA04F0F9
:101C0000030018B120208DF8000002E0D8208DF8E4
:101C100000006A46012140F6B62002F01BFA04F0EB
:101C2000200018B1012000F0ADF802E0002000F023
:101C3000A9F804F4C07008B304F4807060B1B22055
:101C40008DF800008B208DF80100B6208DF8020081
:101C50009B208DF803000BE0B0208DF80000802061
:101C60008DF80100B4208DF8020090208DF803005B
:101C70006A46042140F6A22002F0ECF904F00100CB
:101C800020B3F8208DF800006A4601214FF40B6064
:101C900002F0E0F9FA21072000F02CFC072000F008
:101CA000F3FB012000F013FC642000F0F3FC4FF480
:101CB000FA7000F002FDC821304800F0A3FB282094
:101CC00000F0BCFB0A2000F0CCFB08E0D8208DF827
:101CD00000006A4601214FF40B6002F0BBF904F0EA
:101CE000020018B1D9208DF8000002E0D8208DF84C
:101CF00000006A46012140F23D7002F0ABF904F0A9
:101D0000040018B1012000F069F802E0002000F0A2
:101D100065F804F0100018B10120FFF707FF02E09A
:101D20000020FFF703FF44F008001549488101F047
:101D30007DFD00201249887304F0400018B1084668
:101D4000807B801D887304F4C07020B10C48807BB8
:101D5000801D0B49887304F0140020B10848807B73
:101D600010300749887304F0030020B10448807BD9
:101D7000001D0349887300203EBD000009E3CA022C
:101D8000DC3100203EB504466CB10EA1D1E9002043
:101D90008968CDE9002002916A4609214FF49760D5
:101DA00002F058F93EBD0AA2D2E900109268CDE9CE
:101DB000010200916A4609214FF4976002F04AF946
:101DC000F0E70000B8AAB38DB4980D355D000000AF
:101DD000B8AAAAAAB088C3C5C700000038B504468F
:101DE00064B1C0208DF80000C2208DF80100C4202D
:101DF0008DF80200C6208DF8030004E08B22042138
:101E00006846FEF7E5FB6A46042140F6982002F09A
:101E100021F901F00BFD38BD10B5C8234FF48062E5
:101E2000024940F6F63001F095FB10BD70660008DF
:101E30002DE9F04F8DB00746884615469946DDE9F5
:101E4000166B0024002030806B49887B5A4605A918
:101E500001F04CFC18B1601E0DB0BDE8F08F664873
:101E6000807A00F01400002867D09DF81400000666
:101E70009DF8151040EA01409DF8161040EA012037
:101E80009DF81710084328609DF8180000069DF87B
:101E9000191040EA01409DF81A1040EA01209DF80F
:101EA0001B10084368609DF81C0000069DF81D107B
:101EB00040EA01409DF81E1040EA01209DF81F10E5
:101EC0000843A8609DF8200000069DF8211040EA14
:101ED00001409DF8221040EA01209DF8231008439C
:101EE000E86004F11000C4B228680014019068682A
:101EF00000140290A86800140390E868001404908D
:101F000001984043029901FB0100039901FB010084
:101F1000049901FB010ABAF1706F02DBBAF1885F24
:101F200005DD01F083FC00203080401E94E7B6F907
:101F3000000040F48070308000BF2F48807A00F0AD
:101F4000400020B305A9601C085C095D40EA01203F
:101F500000B2A8F8000005A9E01C095C05AAA01CB5
:101F6000105C41EA002000B2A8F8020005A9601D3B
:101F7000095C201D105C41EA002000B2A8F80400B2
:101F8000A01DC4B2B6F9000040F0080030801A4825
:101F9000408900F4C07008B305A9601C085C095DA5
:101FA00040EA012000B2388005A9E01C095C05AABE
:101FB000A01C105C41EA002000B2788005A9601DD9
:101FC000095C201D105C41EA002000B2B880A01D11
:101FD000C4B2B6F9000040F0700030800648807A44
:101FE00000F0030018B105A90819FFF711FD4846D4
:101FF00000F042FF00202FE7DC31002070B588B0F0
:10200000064601A801F0FAF8BDF804000021C90352
:1020100041EA5045C4034448007A00F0030056F8F2
:10202000200005904048007A00F0040010B10598A7
:10203000404205903C48007AC0F3C10056F82000A9
:1020400006903948007A00F0200010B1069840420E
:1020500006903548007AC0F3811056F820000790AA
:102060003148008900F4807010B107984042079011
:102070000598C117A0FB042301FB043100FB0510E8
:10208000810041EA927005900698C117A0FB0423D5
:1020900001FB043100FB0510810041EA92700690BB
:1020A0000798C117A0FB042301FB043100FB0510B6
:1020B000810041EA927007900598000E8DF80800A3
:1020C0000598000C8DF809000598000A8DF80A00A3
:1020D0000598C0B28DF80B000698000E8DF80C0024
:1020E0000698000C8DF80D000698000A8DF80E0079
:1020F0000698C0B28DF80F000798000E8DF81000FA
:102100000798000C8DF811000798000A8DF812004E
:102110000798C0B28DF8130002AA0C214FF4257065
:1021200001F098FF08B070BDDC31002030B585B0FB
:10213000044616A207CA02AB07C3C82C03DD4FF042
:10214000FF3005B030BDC82090FBF4F0401E85B2D2
:10215000280A8DF80000E8B28DF801006A460221D5
:1021600040F2162001F076FF10B14FF0FF30E8E7A3
:1021700002AA0C2140F6C12001F06CFF10B14FF013
:10218000FF30DEE7044884810020DAE7FEF2ABC4CA
:10219000AAF1DFDFBBAFDFDFDC3100201FB5044673
:1021A0004848007A00F0030054F8200001904548A8
:1021B000007A00F0040010B10198404201904148BB
:1021C000007AC0F3C10054F8200002903D48007A24
:1021D00000F0200010B10298404202903948007A85
:1021E000C0F3811054F8200003903648008900F4B1
:1021F000807010B10398404203903349019880FBEE
:102200000101800F40EA810001902F49029880FB74
:102210000110820042EA917002902B49039880FBE2
:102220000110820042EA917003900198000E8DF82F
:1022300000000198000C8DF801000198000A8DF84B
:1022400002000198C0B28DF803006A4604214FF4E1
:10225000747001F0FFFE18B14FF0FF3004B010BDF4
:102260000298000E8DF800000298000C8DF8010015
:102270000298000A8DF802000298C0B28DF803009F
:102280006A4604214FF4757001F0E4FE10B14FF07E
:10229000FF30E3E70398000E8DF800000398000C70
:1022A0008DF801000398000A8DF802000398C0B26F
:1022B0008DF803006A4604214FF4767001F0CAFEDF
:1022C000CCE70000DC31002009E3CA0210B586B07B
:1022D000044647A00068039046A00068029046A00C
:1022E0000068019045A00068009004F0030003A975
:1022F000085C8DF8140003A8C4F3C101405C8DF89C
:10230000150003A8C4F38111405C8DF8160004F099
:10231000030002A9085C8DF8100002A8C4F3C101F3
:10232000405C8DF8110002A8C4F38111405C8DF867
:10233000120005AA032140F2264001F08BFE18B1DD
:102340004FF0FF3006B010BD04AA032140F22A402E
:1023500001F080FE10B14FF0FF30F3E701980590D7
:102360000098049004F0040058B19DF8140040F067
:1023700001008DF814009DF8100040F001008DF868
:10238000100004F0200058B19DF8150040F0010045
:102390008DF815009DF8110040F001008DF8110036
:1023A00004F4807058B19DF8160040F001008DF8DB
:1023B00016009DF8120040F001008DF8120005AAE9
:1023C00003214FF4886001F045FE10B14FF0FF305B
:1023D000B8E704AA032140F2314001F03BFE10B1FE
:1023E0004FF0FF30AEE7064804810020AAE7000066
:1023F0004CCD6C000CC92C00365676002646660083
:10240000DC310020F8B505460E464FF47A7095FB96
:10241000F0F000FB06F4200E8DF80000200C8DF883
:102420000100200A8DF80200E0B28DF803006A4630
:1024300004214FF4AE7001F00DFEF8BD38B504462E
:10244000052094FBF0F084B220128DF80000E0B279
:102450008DF801006A4602214FF4AD7001F0FAFDDB
:1024600038BD38B50446052094FBF0F084B2201244
:102470008DF80000E0B28DF801006A4602214FF4A9
:10248000AC7001F0E7FD38BD38B50446002000907F
:1024900004F0010020B19DF8000040F030000090F1
:1024A00004F0020020B19DF8000040F00C00009004
:1024B00004F0040020B19DF8000040F003000090FB
:1024C0006A4601214FF4A47001F0C4FD38BD38B54F
:1024D0000446012C01DA012402E0042C00DD04246E
:1024E000601EC0B200906A46012140F24F1001F018
:1024F000B1FD38BD2DE9FC4706460F4606F0070042
:1025000010B1B7F5C86F03DD4FF0FF30BDE8FC87B1
:10251000384603F051FE8146594903F003FD8046D9
:10252000684600F045FE9DF80000022806D0042809
:1025300016D0082826D0102848D135E04FF08D411C
:10254000404603F081FE814603F0FEFD84B24D4912
:10255000404603F079FE814603F0F6FD85B238E08F
:102560004FF08C41404603F06FFE814603F0ECFDD6
:1025700084B24549404603F067FE814603F0E4FD1E
:1025800085B226E04FF08B41404603F05DFE814668
:1025900003F0DAFD84B23D49404603F055FE814622
:1025A00003F0D2FD85B214E04FF08A41404603F0BB
:1025B0004BFE814603F0C8FD84B23549404603F026
:1025C00043FE814603F0C0FD85B202E04FF0FF30CC
:1025D0009CE700BF20128DF80400E0B28DF80500E2
:1025E00028128DF80600E8B28DF8070006F0010009
:1025F000A0B101AA02214FF4EA7001F02BFD10B145
:102600004FF0FF3082E70DF1060202214FF4927085
:1026100001F020FD10B14FF0FF3077E706F0020027
:10262000A0B101AA02214FF4EC7001F013FD10B12A
:102630004FF0FF306AE70DF1060202214FF494706B
:1026400001F008FD10B14FF0FF305FE706F0040025
:10265000A0B101AA02214FF4EE7001F0FBFC10B111
:102660004FF0FF3052E70DF1060202214FF4967051
:1026700001F0F0FC10B14FF0FF3047E7002045E7D4
:1026800000004843000040460000C04500004045AF
:102690000000C04438B50446052094FBF0F085B234
:1026A00028128DF80000E8B28DF801006A46022178
:1026B0004FF4EF7001F0CEFC38BD38B5044605206C
:1026C00094FBF0F085B228128DF80000E8B28DF886
:1026D00001006A4602214FF4ED7001F0BBFC38BDE9
:1026E00000BF054A128802F04002002AF9D0C2B2A7
:1026F000014B1B1D1A807047003801407CB5054610
:1027000028494968087801AB04220D21FEF767FBD0
:1027100008B107207CBD9DF80700C0F301109DF8AB
:10272000041001F0E00140EAE1008DF800009DF89E
:102730000700C0F381009DF8051001F0E00140EAB8
:10274000E1008DF801009DF8070000F003009DF8FE
:10275000061001F0E00140EAE1008DF802000024DB
:102760001CE01DF8040018B9002045F8240013E00F
:102770000D4845F8240006E055F824000B4903F005
:1027800063FD45F824001DF80400401EC0B20DF89A
:1027900004000028F0D100BF601CC4B2032CE0DBB1
:1027A0000020B7E7000000207B14AE3E1D5A843F96
:1027B0002DE9F04F87B005460C46914601208DF873
:1027C000100000208DF81100FE4A1268917CFD4A2D
:1027D0005268107804AB0222FEF7A7FB20B14FF03D
:1027E000FF3007B0BDE8F08FC820FFF763F9002085
:1027F0008DF81000F34A1268D17BF24A52681078C3
:1028000004AB0122FEF791FB10B14FF0FF30E8E777
:10281000EC4A12685179EB4A5268107804AB0122F5
:10282000FEF783FB10B14FF0FF30DAE7E54A12689C
:10283000917CE44A5268107804AB0122FEF775FBE4
:1028400010B14FF0FF30CCE7DE4A1268D17DDD4A8F
:102850005268107804AB0122FEF767FB10B14FF00D
:10286000FF30BEE7D74A12681179D64A526810780D
:1028700004AB0122FEF759FB10B14FF0FF30B0E777
:102880000C208DF81000CF4A12681179CD4A526899
:10289000107804AB0122FEF748FB10B14FF0FF3077
:1028A0009FE70F20FFF706F9C648806A407A8DF847
:1028B0001000C44A12689178C24A5268107804AB7A
:1028C0000122FEF732FB10B14FF0FF3089E7BD481F
:1028D000806A007A8DF81000BA4A12685178B94AB5
:1028E0005268107804AB0122FEF71FFB10B14FF0C5
:1028F000FF3076E7B9F1000F07D0B248806A807ADE
:1029000040F0E0008DF8100004E0AE48806A807A64
:102910008DF81000AB4A12689179AA4A5268107873
:1029200004AB0122FEF701FB10B14FF0FF3058E776
:10293000B9F1000F07D0A348806AC07A40F0E000E8
:102940008DF8100003E0A048C07A8DF810009D4A71
:102950001268D1799B4A5268107804AB0122FEF7C5
:10296000E4FA10B14FF0FF303BE7B9F1000F02D0AD
:10297000C820FFF79FF840208DF81000914A126898
:102980001179904A5268107804AB0122FEF7CDFA13
:1029900010B14FF0FF3024E778208DF81000894AFD
:1029A00012685179874A5268107804AB0122FEF709
:1029B000BCFA10B14FF0FF3013E783498889FFF765
:1029C00079F800208DF810007E4A126851797D4A0E
:1029D0005268107804AB0122FEF7A7FA10B14FF04D
:1029E000FF30FEE6774A1268917A764A526810788C
:1029F00004AB0222FEF7F3F910B14FF0FF30F0E61E
:102A00009DF811009DF8101040EA012B0C209BFB53
:102A1000F0F0C6B20020A86068602860A060606026
:102A20002060824665E0674A1268D17A654A52683A
:102A3000107804AB0C22FEF7D2F910B14FF0FF3042
:102A4000CFE69DF811009DF8101040EA012000B279
:102A5000ADF808009DF813009DF8121040EA01201F
:102A600000B2ADF80A009DF815009DF8141040EA78
:102A7000012000B2ADF80C00BDF908102068084430
:102A80002060BDF90A10606808446060BDF90C1050
:102A9000A0680844A0609DF817009DF8161040EA51
:102AA000012000B2ADF800009DF819009DF8181043
:102AB00040EA012000B2ADF802009DF81B009DF82D
:102AC0001A1040EA012000B2ADF80400BDF9001070
:102AD000286808442860BDF90210686808446860E6
:102AE000BDF90410A8680844A8600AF1010000F0CC
:102AF000FF0AB24597DB3448D0F800C02868C117F8
:102B0000090441EA10410704624600233846FDF7F4
:102B100086FB32460023CDE90201FDF780FB2860E9
:102B20002948D0F800C06868C117090441EA10417B
:102B30000704624600233846FDF771FB3246002346
:102B4000CDE90201FDF76BFB68601F48D0F800C0BB
:102B5000A868C117090441EA10410704624600232E
:102B60003846FDF75CFB32460023CDE90201FDF754
:102B700056FBA8601448D0F804C02168C8170004A8
:102B800040EA11480F046246002338464146FDF7EB
:102B900046FB32460023CDE90201FDF740FB2060F1
:102BA0000948D0F804C06068C117090441EA10411F
:102BB0000704624600233846FDF731FB3246002306
:102BC00004E000000000002048660008CDE9020192
:102BD000FDF725FB60601148D0F804C0A068C1175C
:102BE000090441EA10410704624600233846FDF714
:102BF00016FB32460023CDE90201FDF710FBA06071
:102C0000A068002804DDA068A0F58030A06003E083
:102C1000A06800F58030A0600020E2E5486600086A
:102C20002DE9FC5F0746884600263F494968087839
:102C300001AB03220D21FEF7D2F810B10720BDE849
:102C4000FC9F9DF8040000F01F008DF804009DF823
:102C5000050000F01F008DF805009DF8060000F04B
:102C60001F008DF80600002459E057F8240058F89A
:102C70002410A0EB010BBBF1000F01DB594601E072
:102C8000CBF10001084603F07FFA4FF08F4100902E
:102C900003F048F9824601A8005D78B3234908682B
:102CA00003F08AFA83465946214803F03BF98146EE
:102CB00004E02049484603F0C7FA814601A8005DB8
:102CC000401EC0B201A908550028F2D1494650461D
:102CD00003F028F983464FF07E5103F0B3FB05461D
:102CE00000BF25F00040834610488169584603F034
:102CF00077FB13D20120A04006430FE0FFE70B480B
:102D00000169504603F06CFA05D308484169504602
:102D100003F066FB02D20120A0400643641C032C92
:102D2000A3DB30468BE70000000000204866000867
:102D300000B04C4554E3853F10B50446204600F0F2
:102D40000FF80346E01C00F00BF843EAC00083B222
:102D5000A01D00F005F843EA801083B2184610BDAC
:102D6000014691F90020002A01DD00201EE091F9C2
:102D70000020002A01DA042018E091F90120002A3D
:102D800001DD012012E091F90120002A01DA05207D
:102D90000CE091F90220002A01DD022006E091F901
:102DA0000220002A01DA062000E007207047000018
:102DB0000EB500260024002500202A49086000BF27
:102DC0000920FEF771F94820FEF754FE26484168B5
:102DD00048208847FDF7D2FDFDF78AFF00BF00F0CD
:102DE00097F90028FBD13BE06A4601A902A800F050
:102DF0007DF858BB002411E001250BE01B4800EBD7
:102E0000C42050F82510194800EBC422681E42F86F
:102E100020106D1CB5F5007FF0DB641C032CEBDB90
:102E200012490298C1F8FC0710480099C0F8FC1F2D
:102E300000F580500199C0F8FC170D48006808B9EA
:102E4000012000E000200A490860761C802E07D18E
:102E5000002601200349086000200649C1F89401BA
:102E6000C2E700009401234298000020DC190020F2
:102E700094812142000023427047000070B504464F
:102E8000002624F00104184890F8240008B100201E
:102E900070BD1548807A10B94FF0FF30F8E712483E
:102EA000057C807A2040104908740846007CA042C6
:102EB00002D04FF0FF3600E0002614B90A48007D2A
:102EC00018B1012001F054F902E0002001F050F99E
:102ED0003CB100F0ABFC20B1034805744FF0FF306B
:102EE000D6E73046D4E70000000000202DE9F04F7F
:102EF00099B004460D4616464FF07E574FF0000835
:102F00004FF000094FF0000A12A813A918AB0EAA3F
:102F1000CDE9001014A916A8FEF78AFF18B1012008
:102F200019B0BDE8F08FBDF84C0000F480700028A7
:102F30007ED00E9803F028F983464FF09D4102F0B1
:102F4000F1FF07460F9803F01FF983464FF09D41AC
:102F500002F0E8FF8046109803F016F983464FF020
:102F60009D4102F0DFFF8146119803F00DF9834681
:102F70004FF09D4102F0D6FF824639464FF0804027
:102F800003F062F94946059003F05EF94146079067
:102F90004FF0404003F058F95146059003F054F9C2
:102FA0000690079902F050FF834602F021FFCDE919
:102FB0000801FEF725FA4FF06632544BCDE90A01BD
:102FC00002F03CFCCDE90C0102F0E6F92060494634
:102FD0004FF0804003F038F94946029003F034F98D
:102FE000414604904FF0404003F02EF941460290D4
:102FF00003F02AF90390049903F024FA83464FF072
:103000007E5102F021FF059002F0F2FECDE90801A9
:1030100039464FF0804003F017F94146039003F022
:1030200013F9494604904FF0804003F00DF900E099
:1030300068E05146039003F007F98346049902F0D3
:1030400003FF059002F0D4FECDE90601DDE9082377
:10305000FEF71EFC4FF066322C4BCDE90A0102F060
:10306000EDFBCDE90C0102F097F92860514650467E
:1030700003F0EAF849460490484603F0E5F8414673
:103080000390404603F0E0F839460190384603F0DB
:10309000DBF80090019902F0D7FE0290039903F04B
:1030A000D1F98346049903F0CDF9059002F0A0FE12
:1030B000CDE908015146384603F0C6F84946049068
:1030C000404603F0C1F80390049902F0BDFE4FF0B2
:1030D0008041059003F0B8F8834602F089FECDE9FF
:1030E0000601DDE90823FEF7D3FB4FF06632074BFC
:1030F000CDE90A0102F0A2FBCDE90C0102F04CF986
:10310000306001E002200BE7002009E766A64C4092
:1031100070B50024FDF7CAFC00F024F9002840D166
:10312000782000F02FFFC4B20CB1012070BD7820D0
:10313000FFF7A4FEC4B20CB10220F7E7642000F050
:10314000D3FEC4B20CB10320F0E7FEF765FEC4B2B3
:103150000CB10420EAE71548FFF7EEFD0546FFF73E
:10316000B5F8C4B20CB10520E0E740F27310FEF7E9
:10317000FBFCC4B20CB10620D8E76420FEF7D6FFF2
:10318000C4B20CB10720D1E700F0A7FF04460CB190
:103190000820CBE7012000F0A3FDC4B21CB1092038
:1031A000C4E70A20C2E70020C0E700002C0000208E
:1031B00001461148407A30B1012807D0022808D0D2
:1031C00003280CD108E0022008700BE004200870EE
:1031D00008E00820087005E01020087002E04FF0B9
:1031E000FF30704700BF0448C07C18B10878400623
:1031F000000E08700020F4E700000020014613488C
:10320000407A30B1012808D002280AD0032810D112
:103210000BE04FF4804008800EE041F69C7008807F
:103220000AE04FF48050088006E04FF40060088008
:1032300002E04FF0FF30704700BF0448C07C10B17F
:103240000888401008800020F5E7000000000020FA
:1032500001460248007C08700020704700000020F2
:1032600001460F48007A30B1012807D0022809D062
:1032700003280FD10AE0FA2008800EE04FF4FA701C
:1032800008800AE04FF47A70088006E04FF4FA6094
:10329000088002E00020088000BF00BF00207047C7
:1032A0000000002001460E48007A30B1012807D006
:1032B000022808D003280CD108E00A4808600BE077
:1032C0000948086008E00948086005E00848086007
:1032D00002E04FF0FF30704700BF0020FBE7000026
:1032E0000000002000000343000083423333034208
:1032F0003333834101461248C07A082817D2DFE8E9
:1033000000F01704070A0D101318BC20088013E002
:103310006220088010E02A2008800DE01420088038
:103320000AE00A20088007E00520088004E000BFCA
:1033300000BF0020088000BF00BF002070470000D1
:10334000000000200146064890F8240010B14FF01C
:10335000FF3070470248C08908800020F9E700006C
:10336000000000201CB580208DF80000654A12681E
:10337000917C644A526810786B460122FDF7D5FDB6
:1033800010B14FF0FF301CBD6420FEF793FB00200E
:103390008DF800005B4A1268917C5A4A5268107896
:1033A0006B460122FDF7C1FD10B14FF0FF30EAE797
:1033B000544A1268917D534A526810786B4606222F
:1033C000FDF70DFD10B14FF0FF30DCE79DF8050073
:1033D000C007400F9DF8031001F0010140EA4100D1
:1033E0009DF8011001F0010140EA010494B1012CA3
:1033F00003D101214348C17431E0022C03D10021E3
:103400004048C1742BE021463FA0FCF72DFF4FF050
:10341000FF30B8E73B4A1268D1783A4A52681078D0
:103420006B460122FDF7DBFC10B14FF0FF30AAE73D
:103430009DF8000000F00F042CB93D48FCF714FF84
:103440004FF0FF309FE7042C06D13AA0FCF70CFFA9
:1034500001212C48C17402E000212A48C174FF21D7
:1034600028488172FF2027490872FF2125484172B0
:10347000C1724FF6FF71C181FF2101748174012176
:10348000017380F82210002180F823104175017526
:103490001630016041608160163880F8241080F891
:1034A0002510C1844FF4FA6000F062FC10B14FF0B7
:1034B000FF3068E7022000F02BFB10B14FF0FF3027
:1034C00061E72A2000F0CEFC10B14FF0FF305AE740
:1034D000322000F009FD10B14FF0FF3053E700201B
:1034E000FFF7CCFC10B14FF0FF304CE7002000F0AC
:1034F00051FB10B14FF0FF3045E7002000F042FDD6
:10350000002040E700000020556E737570706F72E8
:1035100074656420736F6674776172652070726F72
:1035200064756374207265762025642E0A0000009D
:103530009073000848616C662073656E73697469E6
:1035400076697479207061727420666F756E642E6E
:103550000A0000002DE9F04385B005460E4690466E
:103560009946294890F8250020B14FF0FF3005B06A
:10357000BDE8F08316B94FF0FF30F8E7002423E0F0
:10358000281B102801DD102000E0281B87B232190B
:103590003946204600F05EFD10B14FF0FF30E6E7FF
:1035A00001AA3946204600F001F910B14FF0FF3072
:1035B000DDE730193A4601A9FCF7DEFF10B16FF0E4
:1035C0000100D4E7E01984B2AC42D9DB4FEA2820ED
:1035D0008DF8000008F0FF008DF801000A4A12681B
:1035E000917E094A526810786B460222FDF79DFCD5
:1035F00010B14FF0FF30BAE70121034880F82510E1
:10360000A0F826900020B2E70000002038B504465C
:10361000282C02DD4FF0FF3038BDDCB9002000F06F
:10362000EBFB00208DF8000007208DF801002E4AEA
:103630001268917C2C4A526810786B460222FDF782
:1036400074FC10B14FF0FF30E6E700212648017509
:103650000020E1E7012000F0CFFB20208DF80000E2
:10366000012C06D100208DF80100052000F0FAFBA6
:1036700017E0052C06DC01208DF80100052000F084
:10368000F1FB0EE0142C06DC02208DF801000A206C
:1036900000F0E8FB05E003208DF80100142000F0A5
:1036A000E1FB9DF80100072101EB8010C0B28DF80D
:1036B00001000D4A1268917C0B4A526810786B46E3
:1036C0000222FDF732FC10B14FF0FF30A4E70821D1
:1036D0000548817200210173012101750020FFF767
:1036E000CDFB002098E7000000000020F8B504465C
:1036F0000F4616462C4890F8240010B94FF0FF30C2
:10370000F8BD2948807A10B94FF0FF30F8E7264A13
:103710001268917A244A526810786B460222FDF7AB
:103720005EFB10B14FF0FF30EAE79DF801009DF815
:10373000001040EA0125A54203DA00203070401E47
:10374000DEE7194840684088B5EB600F17DD164A80
:103750001268517C144A526810786B460122FDF7BA
:103760003EFB10B14FF0FF30CAE79DF8000000F0BB
:10377000100020B100F05AF86FF00100C0E7E2B28B
:10378000094B1B68D97A084B5B6818783B46FDF7F4
:1037900026FB10B14FF0FF30B2E795FBF4F0401E6E
:1037A00030700020ACE7000000000020F8B50446AF
:1037B0000D46164616B94FF0FF30F8BD1A48807A0C
:1037C00010B94FF0FF30F8E720128DF80000E0B29A
:1037D0008DF801009DF80100284413494968498982
:1037E000884202DD4FF0FF30E7E70F4A1268117E92
:1037F0000D4A526810786B460222FDF796FB10B115
:103800004FF0FF30D9E7EAB2074B1B68597D064BF2
:103810005B6818783346FDF7E2FA10B14FF0FF30DD
:10382000CBE70020C9E700000000002008B5704881
:10383000807A10B94FF0FF3008BD002000906C4A2C
:103840001268D17B6A4A526810786B460122FDF7F4
:103850006CFB10B14FF0FF30EEE7654A126851790A
:10386000634A526810786B460122FDF75EFB10B187
:103870004FF0FF30E0E75E4A126811795C4A526807
:1038800010786B460122FDF750FB10B14FF0FF306E
:10389000D2E7574890F82400002853D00C2000901D
:1038A000534A12681179524A526810786B460122C5
:1038B000FDF73BFB10B14FF0FF30BDE73220FEF7C4
:1038C000F9F8C02000904A48807A00F0010020B149
:1038D0009DF8000040F020000090454A12681179E0
:1038E000434A526810786B460122FDF71EFB10B167
:1038F0004FF0FF30A0E73E48407C10B1022000901E
:1039000001E0002000903A4A1268D17B384A5268A0
:1039100010786B460122FDF708FB10B14FF0FF3025
:103920008AE700200090324A12685179304A526882
:1039300010786B460122FDF7F8FA002855D04FF0B9
:10394000FF3079E704200090294A12681179284A4B
:10395000526810786B460122FDF7E7FA10B14FF07C
:10396000FF3069E72248807C20B92148807A00F046
:10397000010010B94020009001E0602000901C4A36
:10398000126811791A4A526810786B460122FDF7C5
:10399000CCFA10B14FF0FF304EE73220FEF78AF834
:1039A0001348407C10B10120009001E000200090FD
:1039B0000F4A1268D17B0E4A526810786B4601227A
:1039C000FDF7B3FA10B14FF0FF3035E7084A12683F
:1039D0005179074A52681078054B10330122FDF7E0
:1039E000A4FA10B14FF0FF3026E7002024E70000D2
:1039F000000000202DE9F04F8DB083460F460220D5
:103A00000C90424890F8240020B1002000F068F9A2
:103A1000012600E0002603A8FFF722FC05A8FFF717
:103A2000C7FB01A8FFF766FC02A8FFF78BFC37482D
:103A300090F80AA004A8FFF70BFC002407E000227E
:103A400039465846FEF7B4FE00B902E0641C022C69
:103A5000F5DB00BF022C01D1002528E0002407E09F
:103A6000012206A909A8FEF7A3FE00B902E0641C22
:103A7000022CF5DB00BF022C01D1002517E006A9BE
:103A80003846FDF767FC00F0FF0809A95846FFF724
:103A9000C7F800F0FF090025B9F1000F01D145F08A
:103AA0000105B8F1000F01D145F0020500BFFF206C
:103AB00016490872FF2115484172C1724FF6FF7115
:103AC000C181FF218172017401210173BDF80C00D5
:103AD00000F04EF99DF8140000F01AF8BDF804004B
:103AE00000F0C0F9BDF8080000F0FEF9504600F003
:103AF00049FA9DF81000FFF7C1F916B1012000F056
:103B0000EFF828460DB0BDE8F08F0000000000205F
:103B100038B504461E48807A10B94FF0FF3038BDE2
:103B2000022C06D0042C07D0082C08D0102C0CD165
:103B300008E0002000900BE00820009008E0102032
:103B4000009005E01820009002E04FF0FF30E6E71B
:103B500000BF0F48407A9DF80010B0EBE10F01D193
:103B60000020DCE70A4A1268D179094A52681078C5
:103B70006B460122FDF7D9F910B14FF0FF30CEE7C7
:103B80009DF80000C110024841720020C7E7000004
:103B90000000002038B504465048807CA04201D186
:103BA000002038BD002C46D04C4A126811794B4A8F
:103BB000526810786B460122FDF711F910B14FF0F1
:103BC000FF30EEE79DF8000020F020000090434A0F
:103BD00012681179414A526810786B460122FDF74C
:103BE000A4F910B14FF0FF30DBE70320FDF762FFCF
:103BF00002200090394890F8220020B19DF8000082
:103C000040F080000090354890F8230020B19DF8E6
:103C1000000040F030000090304A1268117D2F4AB9
:103C2000526810786B460122FDF77FF9002851D0C9
:103C30004FF0FF30B5E7294A12681179274A5268D8
:103C400010786B460122FDF7CAF810B14FF0FF3033
:103C5000A7E72248807A00F0010028B19DF8000013
:103C600040F02000009004E09DF8000020F02000CB
:103C700000901A4A12681179184A526810786B46F7
:103C80000122FDF752F910B14FF0FF3089E7032010
:103C9000FDF710FF114890F8220010B1802000902D
:103CA00001E0002000900D4890F8230020B19DF81D
:103CB000000040F030000090084A1268117D074A69
:103CC000526810786B460122FDF72FF910B14FF0C2
:103CD000FF3066E701488474002062E7000000209E
:103CE00038B50446214890F82400A04201D10020B4
:103CF00038BD24B31D4890F8250010B94FF0FF30AF
:103D0000F6E7002000F034FA0020FFF743FF1749E0
:103D1000C88C00F0E9F80020009014494968087840
:103D20006B4601222321FDF700F901210F4880F89D
:103D30002410012000F01CFAFFF778FD13E00020AA
:103D400000F016FA0948007C009008494968087894
:103D50006B4601222321FDF7E8F80021034880F893
:103D60002410FFF763FD0020C2E7000000000020E0
:103D700038B504461F48807A10B94FF0FF3038BD7F
:103D8000FA2C09D0B4F5FA7F09D0B4F57A7F09D0BE
:103D9000B4F5FA6F0CD108E0002000900BE0082089
:103DA000009008E01020009005E01820009002E04C
:103DB0004FF0FF30E3E700BF0E48007A9DF8001097
:103DC000B0EBE10F01D10020D9E70A4A12689179DE
:103DD000084A526810786B460122FDF7A6F810B128
:103DE0004FF0FF30CBE79DF80000C010014908728A
:103DF0000020C4E70000002038B50446184890F8B9
:103E00002300A04201D1002038BD14B13020009021
:103E100001E0002000901248807C20B19DF8000055
:103E200040F0020000900E4890F8220020B19DF86A
:103E3000000040F080000090094A1268117D084A95
:103E4000526810786B460122FDF76FF810B14FF001
:103E5000FF30D9E7024880F823400020D4E7000073
:103E60000000002038B504461E48807A10B94FF093
:103E7000FF3038BDBC2C02DB0120009015E0622C25
:103E800002DB0220009010E02A2C02DB03200090CD
:103E90000BE0142C02DB0420009006E00A2C02DB6D
:103EA0000520009001E0062000900E48C07A9DF8A1
:103EB0000010884201D10020DBE70A4A126891789D
:103EC000084A526810786B460122FDF72EF810B1AF
:103ED0004FF0FF30CDE79DF800100248C17200207E
:103EE000C7E700000000002038B504462448807A67
:103EF00010B94FF0FF3038BD214890F8240010B1C0
:103F00004FF0FF30F7E71E48007D50B134B1282C48
:103F100004DCE0B2FFF77AFB0020ECE70020FFF7BB
:103F200075FB042C01DA042404E0B4F57A7F01DD8A
:103F30004FF47A744FF47A7090FBF4F0401EC0B2E4
:103F400000900F4A126851780D4A526810786B46FB
:103F50000122FCF7EAFF10B14FF0FF30CBE79DF8EC
:103F60000000401C4FF47A7191FBF0F081B20448DC
:103F7000C1810146C9894810FFF774FF0020BAE7E4
:103F80000000002038B5044604F0700010B1012094
:103F9000009005E014B10020009001E04020009066
:103FA0002B4A1268917C2A4A526810786B4601228B
:103FB000FCF7BBFF20B1002125488172481E38BDA7
:103FC0009DF8000020F0400121480173002000907E
:103FD00004F0400020B99DF8000040F0040000907B
:103FE00004F0200020B99DF8000040F0020000908D
:103FF00004F0100020B99DF8000040F0010000908E
:1040000004F0080020B99DF8000040F0380000904E
:104010000F4A1268D17C0E4A526810786B46012212
:10402000FCF783FF20B1002109488172481EC6E7D2
:1040300024B1082C02D00020FFF7DEFE0448847271
:10404000002101753220FDF735FD0020B7E70000A3
:1040500000000020F8B504460D46164616B94FF08C
:10406000FF30F8BD1A48807A10B94FF0FF30F8E7FA
:1040700020128DF80000E0B28DF801009DF80100DB
:104080002844134949684989884202DD4FF0FF30CE
:10409000E7E70F4A1268117E0D4A526810786B46A6
:1040A0000222FCF742FF10B14FF0FF30D9E7EAB22D
:1040B000074B1B68597D064B5B6818783346FCF745
:1040C00034FF10B14FF0FF30CBE70020C9E700000C
:1040D0000000002001460868704770B588B002A94A
:1040E00005A8FFF787FC0446032C3ED101A8FFF783
:1040F000D9F8059802F048F80646019902F0A4F8AC
:10410000054602F005F80590069802F03DF80646CF
:10411000019902F099F8054601F0FAFF0690079818
:1041200002F032F80646019902F08EF8054601F0D9
:10413000EFFF079005A8FEF731F86846FFF75EF835
:10414000BDF80010029848430290BDF80010039893
:1041500048430390BDF8001004984843049002A817
:10416000FDF74CFF002008B070BD0120FBE7000008
:1041700038B50446214890F82400C0B114B102209B
:10418000009001E0002000901C4A1268D17B1B4A7D
:10419000526810786B460122FCF7C7FE10B14FF051
:1041A000FF3038BD9DF800101448417423E01348D7
:1041B000807A10B94FF0FF30F3E724B10F48407C0C
:1041C00008B10020EDE714B10120009001E00020CB
:1041D00000900A4A1268D17B084A526810786B46F0
:1041E0000122FCF7A2FE10B14FF0FF30D9E79DF895
:1041F0000010024841740020D3E7000000000020B6
:104200002DE9F04106460F4601F022FC041E0D4642
:1042100018BF0120284320F00040C0F17F6000F16A
:10422000E040C00F0ED0301C18BF0120384320F0F2
:104230000040C0F17F6000F1E040C00F04BF0120EA
:10424000FCF775FA20462946BDE8F08130B595B0F7
:10425000054613AB12AA09A9284600F03FFA044606
:1042600014B1204615B030BD0020149026E022493C
:1042700009689DF8502001EBC20113AB11AA4868F0
:1042800001A900F02BFA04460CB12046EAE709A97F
:1042900001A800F0DDFC60B99DF844009DF84810CD
:1042A000884201DD0220DDE79DF850001249887543
:1042B0000AE09DF85000401CC0B214900E48007DEA
:1042C0009DF850108842D2DC00BF0B48007D9DF85D
:1042D0005010884201D10420C4E714A9284600F0F8
:1042E000DDFA04460CB12046BCE79DF850000249B7
:1042F00048750020B6E70000980000202DE9F04145
:104300009AB09C48847D007DA04202DC1AB0BDE8D2
:10431000F0819849096801EBC40106AB07AA486817
:1043200008A900F0DBF908A993A0FBF79DFF002680
:1043300044E09048008B0121B1400840D8B12221CF
:104340008FA0FBF791FF304600F02EFB8949243106
:10435000471839468BA0FBF787FF222188A0FBF77F
:1043600083FF304600F020FB82492431084410A925
:1043700041F8260018E0304600F016FB7D49243154
:10438000085810A941F826007A48C07D30B910A815
:1043900050F826107CA0FBF767FF05E010A850F846
:1043A00026107AA0FBF760FF9DF81C00401EB0426B
:1043B00002D078A0FBF758FF701CC6B29DF81C0015
:1043C0008642B6DB74A0FBF74FFF00F03DFB694867
:1043D000407D0B280DD2DFE800F0060D151E2732B8
:1043E0003F4E5F7287006349096851F83400804787
:1043F000054690E05F4A126852F8341010988847DA
:10440000054688E05B4B1B6853F83420DDE910015A
:10441000904705467FE0574F3F6857F8343010A863
:1044200007C89847054676E0DFF848C1DCF800C0C9
:104430005CF8347010A80FC8B84705466BE01498B4
:10444000DFF830C10090DCF800C05CF8347010A8D0
:104450000FC8B84705465EE0DDE91401DFF814C176
:10446000CDE90001DCF800C05CF8347010A80FC87A
:10447000B84705464FE0DDE914121698DFF8F4C09E
:10448000CDE900120290DCF800C05CF8347010A88E
:104490000FC8B84705463EE0DDE91423DDE91610F4
:1044A000DFF8D0C0CDE90023CDE90210DCF800C070
:1044B0005CF8347010A80FC8B84705462BE0DDE95A
:1044C0001523DDE91710CDE90123CDE90310149878
:1044D000DFF8A0C00090DCF800C05CF8347010A8D1
:1044E0000FC8B847054616E0DDE91623DDE91810C8
:1044F000CDE90223CDE90410DDE91401DFF874C031
:10450000CDE90001DCF800C05CF8347010A80FC8D9
:10451000B847054600BF00BF00F056FA9DF81800E6
:1045200001280CD11348C07D20B929461BA0FBF7F8
:104530009BFE07E029461BA0FBF796FE02E018A0B1
:10454000FBF792FE0B4890F8EC0088B10948D0F8D0
:10455000F0000A21B0FBF1F201FB12070548D0F888
:10456000F000B0FBF1F83A46414611A0FBF77CFEA3
:1045700000BFCBE6980000200D0A2573280000003C
:104580002563000025730000256C64003058255811
:10459000000000002C000000290000003D256C7583
:1045A0003B0D0A003D305825583B0D0A0000000025
:1045B00046756E6374696F6E2052756E2054696D16
:1045C000653A25642E2531646D730D0A00000000E4
:1045D000F0B50346154600200022002600245BE0CB
:1045E0001F782C2F01D104B901221F78292F01D067
:1045F0001F780FB904B950E0002E3AD11F78302F40
:1046000002DB1F78392F17DD1F782D2F14D01F786C
:104610002B2F11D01F78612F02DB1F78662F0BDD47
:104620001F78412F02DB1F78462F05DD1F78582F9A
:1046300002D01F78782F0CD102B12EE01F78612FA5
:1046400003DB1F78203F0F7001E01F780F70491CBB
:104650001FE01F78222F04D102B11EE001260124A1
:1046600017E01F78202F14D01F782C2F11D0FF2691
:1046700013E01F78222F00D1002402B10DE044B1D5
:104680001F785C2F02D15B1C471CF8B21F780F709B
:10469000491C471CF8B25B1CA2E700BF00270F7043
:1046A0002E70F0BD10B50446002010700BE020788D
:1046B0000870641C491C1078401C107010789842D7
:1046C00001DB012010BD2078202802D020780028AE
:1046D000EDD10020087000BFF4E700002DE9FF4F86
:1046E00085B0804689460027002004900390012071
:1046F00002904FF0000B002544461DE02078202852
:1047000016D005F07F00052812DA0DB945F08005B6
:1047100005F07F00042803D120782A2800D00EE07D
:10472000207805F07F010DF80100681CC5B202E099
:10473000852D00D103E0641C20780028DED100BF65
:104740008DB1002005F07F010DF8010051A16846F0
:1047500000F07EFA18B900210898017002E00121EA
:104760000898017000254FF0000A444614E0641CCC
:104770000AF1010000F0FF0A2078202802D02078FA
:104780002A2809D1204600F0D5F90646282E03D064
:104790002A2E01D0CDF810A02078282802D0207829
:1047A0000028E4D14446049810B10498401C044405
:1047B0004FF0000A002654E0207810B94FF0010AAB
:1047C00050E02078282803D116B9781CC7B213E02E
:1047D0002078292808D13EB917B1781EC7B201E068
:1047E0004FF0010A47B93DE02078222804D10EB9E4
:1047F000012000E00020064647B9207820282FD06D
:10480000207889F8000009F1010929E020782C2896
:1048100004D101200290681CC5B214E02078202841
:1048200011D0207828280ED04DB9BBF1050F06DA3B
:1048300020780DF80B000BF1010000F0FF0B02983F
:10484000401CC0B20290012F0AD10298022807D161
:104850000298401CC0B202900398401CC0B2039062
:10486000641CA9E700BF0398012809D100200DF8B6
:104870000B0008A1684600F0EBF908B9002003908E
:10488000079903980870002089F80000504609B085
:10489000BDE8F08F766F6964000000002DE9F043F9
:1048A000B5B005460F460024002604E000213D482F
:1048B0008155701CC6B20A2EF8DB06E06D1C287804
:1048C00018B9012035B0BDE8F08328782828F5D143
:1048D0006D1C61E034AA69462846FFF779FE06465A
:1048E00035449DF8D00020B1012827D0FF284CD1B5
:1048F00049E09DF8000000B333A9684600F025F9AF
:1049000006460EB10220DDE7204600F04DF82549AD
:104910000A31339A0A50A1F12400008B0121A140F1
:10492000884320491A39088304211E480155601C18
:10493000C4B20A2C01DD0320C4E726E0684600F07B
:10494000A3F9401C00F0FF08204600F02DF815499F
:104950000A3100EB01094946684600F08AF911481E
:104960001A38018B0120A040014388B20D491A3941
:1049700008830C4800F80480601CC4B20A2C01DDD6
:1049800003209FE701E002209CE700BF2878292848
:1049900001D0287800B900E09CE700BF3C700020FF
:1049A00090E70000B200002002460020002105E050
:1049B000044B5B5C0344D8B24B1CD9B29142F7DB89
:1049C00070470000B20000200D48008800F0010090
:1049D00040B10C48D0F8F0004FF6FF710844094987
:1049E000C1F8F0000748D0F8F000054914310988F3
:1049F00008440449C1F8F0000846D0F8F0007047B8
:104A0000100800409800002010B5044604EBC400D4
:104A100000EB04100122C2EB800081B24FF47A70E7
:104A2000FCF7A8FB01200149C87510BD98000020C3
:104A300010B50246012000E050430B1EA1F1010415
:104A4000E1B2F9D110BD00000948008820F0010052
:104A5000074908804FF6FF7005491C310880002087
:104A60000349143108800349C1F8F0007047000081
:104A7000100800409800002070B51D48008800F420
:104A80000040002833D01A480578002019494855BD
:104A9000194881681748884704461CB91649C868F0
:104AA000804721E0134800F0FBF80546012D00D0B7
:104AB0002C46CCB1012C06D0022C08D0032C0AD0F5
:104AC000042C10D10BE00DA0FBF7CEFB0BE00EA0E9
:104AD000FBF7CAFB07E00FA0FBF7C6FB03E010A043
:104AE000FBF7C2FB00BF00BF00200149088070BD7A
:104AF00040000020EC31002098000020BAAFCAFD31
:104B0000B4EDCEF3210D0A00B2CECAFDB4EDCEF362
:104B1000210D0A00B2CECAFDCCABB6E0210D0A00D1
:104B2000CEB4D5D2B5BDC6A5C5E4B5C4BAAFCAFD2D
:104B3000210D0A000146491C00E0491C0878202884
:104B400001D10029F9D1087870472DE9F04F0546C9
:104B50000F4600264FF00A09B3462C460020386065
:104B600034E02078392802DC2078302811DA2878DF
:104B70002D2802D028782B2800D156B1207846283D
:104B800002DC2078412804DA2078582817D1012E39
:104B900015D12078412801DB4FF0100928782D2805
:104BA00003D14FF0020B6D1C0FE028782B2803D1A6
:104BB0004FF0010B6D1C08E0701CC6B205E02078B8
:104BC00000B904E00120BDE8F08F641CC9E700BF14
:104BD0002C46B9F1100F0FD1032E01DA0220F2E7B3
:104BE0002078302806D16078582803D1A41CB01E44
:104BF000C6B204E00320E6E70EB90420E3E71BE0B9
:104C00000EB1701EC6B22078392806DC2078302814
:104C100003DB2078A0F1300A02E02078A0F1370A07
:104C200031464846FFF704FF39680AFB0010386038
:104C3000641C207800B900E0E2E700BFBBF1020F7E
:104C400004D13868C0F10008C7F800800020BAE736
:104C500002460AE010780B78984201D00120704794
:104C6000107800B902E0521C491CF3E700BF002095
:104C7000F5E706E002780A70027802B902E0401C0B
:104C8000491CF7E700BF70470146002005E00A789D
:104C900002B903E0421CD0B2491CF8E700BF7047DC
:104CA00010B58CB004461E230BAA03A92046FFF7BB
:104CB000F9FC0090009810B101200CB010BD9DF8D7
:104CC0002C00044400200B900EE040489DF82C205E
:104CD00050F8221003A8FFF7BBFF00B908E09DF8C9
:104CE0002C00401CC0B20B909DF82C000728ECD380
:104CF00000BF9DF82C00072863D2DFE800F0040510
:104D00003C5E6564630000BF31A0FBF7ADFA31A0E3
:104D1000FBF7AAFA3FA0FBF7A7FA4EA0FBF7A4FA0D
:104D20005CA0FBF7A1FA6BA0FBF79EFA79A0FBF75A
:104D30009BFA87A0FBF798FA8CA0FBF795FA94A052
:104D4000FBF792FA98A0FBF78FFA9DA0FBF78CFA7D
:104D5000A2A0FBF789FAA8A0FBF786FAB4A0FBF79C
:104D600083FAC1A0FBF780FACCA0FBF77DFAD8A0AC
:104D7000FBF77AFAA2E216A0FBF776FAE4A0FBF7BB
:104D800073FA00200B900EE0F14800689DF82C208B
:104D900000EBC2004168EFA0FBF766FA9DF82C001B
:104DA000401CC0B20B90EA48007D9DF82C10884250
:104DB000EADC07A0FBF758FA80E205A0FBF754FAFB
:104DC000CCE179E24DE221E2F4E100004400002070
:104DD0000D0A00002D2D2D2D2D2D2D2D2D2D2D2DA0
:104DE0002D2D2D2D2D2D2D2D2D2D2D2D55534D4171
:104DF00052542056332E322D2D2D2D2D2D2D2D2D6F
:104E00002D2D2D2D2D2D2D2D2D2D2D2D2D2D2D20DF
:104E10000D0A00002020202055534D415254CAC78E
:104E2000D3C9414C49454E54454BBFAAB7A2B5C45E
:104E3000D2BBB8F6C1E9C7C9B5C4B4AEBFDAB5F7DD
:104E4000CAD4BBA5BDBBD7E9BCFE2CCDA8B9FD20FB
:104E50000D0A0000CBFC2CC4E3BFC9D2D4CDA8B945
:104E6000FDB4AEBFDAD6FACAD6B5F7D3C3B3CCD049
:104E7000F2C0EFC3E6B5C4C8CEBACEBAAFCAFD2CF5
:104E8000B2A2D6B4D0D02ED2F2B4CB2CC4E3BFC9D8
:104E90000D0A0000D2D4CBE6D2E2B8FCB8C4BAAF57
:104EA000CAFDB5C4CAE4C8EBB2CECAFD28D6A7B3C2
:104EB000D6CAFDD7D62831302F3136BDF8D6C62C0C
:104EC000D6A7B3D6B8BACAFD29A1A2D7D6B7FBB424
:104ED000AE0D0A00A1A2BAAFCAFDC8EBBFDAB5D8C1
:104EE000D6B7B5C8D7F7CEAAB2CECAFD292CB5A57C
:104EF000B8F6BAAFCAFDD7EEB6E0D6A7B3D6313012
:104F0000B8F6CAE4C8EBB2CECAFD2CB2A2D6A7B39B
:104F1000D60D0A00BAAFCAFDB7B5BBD8D6B5CFD447
:104F2000CABE2ED6A7B3D6B2CECAFDCFD4CABEBD96
:104F3000F8D6C6C9E8D6C3B9A6C4DC2CD6A7B3D662
:104F4000BDF8D6C6D7AABBBBB9A6C4DC2E0D0A00D5
:104F5000BCBCCAF5D6A7B3D63A7777772E6F706503
:104F60006E6564762E636F6D0D0A000055534D41DA
:104F70005254D3D037B8F6CFB5CDB3C3FCC1EE2869
:104F8000B1D8D0EBD0A1D0B4293A0D0A000000006E
:104F90003F3A202020202020BBF1C8A1B0EFD6FA54
:104FA000D0C5CFA20D0A000068656C703A202020A1
:104FB000BBF1C8A1B0EFD6FAD0C5CFA20D0A000050
:104FC0006C6973743A202020BFC9D3C3B5C4BAAF8B
:104FD000CAFDC1D0B1ED0D0A0A00000069643A2093
:104FE00020202020BFC9D3C3BAAFCAFDB5C44944ED
:104FF000C1D0B1ED0D0A0A006865783A2020202062
:10500000B2CECAFD3136BDF8D6C6CFD4CABE2CBA90
:10501000F3B8FABFD5B8F12BCAFDD7D6BCB4D6B415
:10502000D0D0BDF8D6C6D7AABBBB0D0A0A00000077
:105030006465633A20202020B2CECAFD3130BDF82D
:10504000D6C6CFD4CABE2CBAF3B8FABFD5B8F12BA6
:10505000CAFDD7D6BCB4D6B4D0D0BDF8D6C6D7AA70
:10506000BBBB0D0A0A00000072756E74696D653A6B
:10507000312CBFAAC6F4BAAFCAFDD4CBD0D0BCC6BF
:10508000CAB13B302CB9D8B1D5BAAFCAFDD4CBD058
:10509000D0BCC6CAB13B0D0A0A000000C7EBB0B4D1
:1050A000D5D5B3CCD0F2B1E0D0B4B8F1CABDCAE422
:1050B000C8EBBAAFCAFDC3FBBCB0B2CECAFDB2A248
:1050C000D2D4BBD8B3B5BCFCBDE1CAF82E0D0A00E2
:1050D0002D2D2D2D2D2D2D2D2D2D2D2D2D2D2D2D00
:1050E0002D2D2D2D2D2D2D2D2D2D414C49454E5441
:1050F000454B2D2D2D2D2D2D2D2D2D2D2D2D2D2DAA
:105100002D2D2D2D2D2D2D2D2D2D2D200D0A000079
:105110002D2D2D2D2D2D2D2D2D2D2D2D2D2D2D2DBF
:105120002D2D2D2D2D2D2D2D2DBAAFCAFDC7E5B559
:10513000A52D2D2D2D2D2D2D2D2D2D2D2D2D2D2D27
:105140002D2D2D2D2D2D2D2D2D2D2D2D200D0A000C
:105150009800002025730D0A0000000059A0FBF7FD
:1051600083F800200B901AE0664909689DF82C200E
:1051700001EBC20101AB02AA486803A9FFF7AEFA2E
:10518000604800689DF82C1050F8312003A95EA0FB
:10519000FBF76AF89DF82C00401CC0B20B905948F0
:1051A000007D9DF82C108842DEDCAFF2DC30FBF78E
:1051B0005BF883E0AFF2E830FBF756F80BAA03A9DF
:1051C0002046FFF705FA9DF82C00C8B9694603A8E8
:1051D000FFF7BBFC0B909DF82C0020B94FA0009965
:1051E000FBF742F80EE09DF82C00042801D00220C5
:1051F00063E54DA0FBF738F801204249C87501E08E
:1052000002205AE547A0FBF72FF857E045A0FBF72F
:105210002BF80BAA03A92046FFF7DAF99DF82C001A
:10522000C8B9694603A8FFF790FC0B909DF82C00C5
:1052300020B942A00099FBF717F80EE09DF82C006A
:10524000042801D0022038E53FA0FBF70DF800202C
:105250002C49C87501E002202FE532A0FBF704F8C5
:105260002CE030A0FBF700F80BAA03A92046FFF7BB
:10527000AFF99DF82C00C8B9694603A8FFF765FC93
:105280000B909DF82C0078B91E49009881F8EC002D
:10529000084690F8EC0018B130A0FAF7E5FF07E0F7
:1052A00035A0FAF7E1FF03E0022006E5022004E55D
:1052B0001CA0FAF7D9FF01E00120FEE400BF0020A6
:1052C000FBE400002D2D2D2D2D2D2D2D2D2D2D2DE3
:1052D0002D2D2D2D2D2D2D2D2D2D2D2D2DBAAFCA52
:1052E000FD204944202D2D2D2D2D2D2D2D2D2D2D05
:1052F0002D2D2D2D2D2D2D2D2D2D2D2D2D2D2D2DDE
:10530000200D0A009800002025732069642069732D
:105310003A0D0A3058253038580D0A004845583A99
:10532000305825580D0A00003136BDF8D6C6B2CE29
:10533000CAFDCFD4CABE210D0A0000004445433A3D
:10534000256C750D0A0000003130BDF8D6C6B2CE0E
:10535000CAFDCFD4CABE210D0A00000052756E20CE
:1053600054696D652043616C63756C6174696F6E1F
:10537000204F4E0D0A00000052756E2054696D6575
:105380002043616C63756C6174696F6E204F464693
:105390000D0A00000160704721F00042A2F1605246
:1053A000B2F5801F01F0004328BFD2F17F6C0BD90A
:1053B0005FEA001C43EAC20242EB507018BF70471C
:1053C00028BF20F001007047B2F5801FBCBF18460F
:1053D00070474FEA410C1CF5001F02D2084600F04E
:1053E000FABF70B500F0D4FA00000089FFF7F6BFED
:1053F0004FF00040A0F580007047000010B591EA22
:10540000030F48BF83F0004300F11084841A71EB4E
:10541000030C05D2121943EB0C03001B61EB0C01CA
:10542000DFF824E14FEA1154A4EB135C1EEA430FAA
:1054300018BF9EEA445F73D023EA0E03DCF1200E0E
:1054400021EA045143F4801332D322FA0CFE10EB0C
:105450000E0023FA0CFE41EB0E01CCF1200E03FAF4
:105460000EFE10EB0E0051F10001B1F5801FCCF1E2
:10547000200E32D201EB045112FA0EF2BDE81040B8
:1054800058BF7047401C38BF5FEA420218BF7047E0
:10549000002814BF20F0010041F100014FEA410350
:1054A00013F5001F38BF7047A1F1C04100F0BEBA2C
:1054B000012A43EB0302ACF1200CDCF11F0E32BFDA
:1054C0004FF0000E23FA0CF310EB030041EB0451F4
:1054D000B4EB115FD0D0A1EB045101F58011490864
:1054E0005FEA300001EB04510ED350F1000038BFE9
:1054F00012FA0EFE08D1BDE81040C9E7401C38BFC3
:105500005FEA4202CAD1C3E7BDE810404FEA410357
:1055100013F5001F38BF7047A1F1C04100F086BAF3
:105520009EEA445F08D011EA5E0FBDE8104004BF58
:1055300001F0004100207047BDE8104070B500F058
:1055400027FA00BF64FBBE3E0000E0FF02494FF0B7
:10555000000000F0ECBF00BF0000F87F2DE9C04163
:1055600030B4DFF8A0C23CEA111418BF3CEA1314AF
:1055700000F0EC8081EA03051CEA111444EAD574BA
:1055800018BF1CEA131500F0C780A4EB05044FF008
:10559000004545EAC12145EAC32341EA505143EAA7
:1055A000525304F17F74994204F500344FEAC0204D
:1055B0004FEAC22208BF904200F09C804FEA136578
:1055C0000FF24016765D4FEA134506FB05F7C7F16B
:1055D000807706FB07F74FEAD737A7FB03687642C9
:1055E000C8F58038A7FB06CE38BFA8F1010807FB35
:1055F00008E64FF0000EA6FB028CE6FB03CEDCF1C2
:10560000000CCEF1004E38BFAEF1010EA6FB0C58D7
:105610004FF000074FF00005E6FB0E87A1FB08C620
:10562000A0FB07CE16EB0E0645F10005E1FB076572
:1056300015F1E04E7EBFA4F580345FEA46066D4169
:1056400016F1800745F100054FEA17274FEA066675
:1056500047EA0567A6F1DE46B6F1805F4FEA1525F9
:105660001FD9384624F0010C05EBC471BCF1FE6F64
:1056700001EB0C1102D8F0BCBDE8008124425CBFF4
:1056800001F5801E9EEAC47F02D4F0BCBDE8008113
:10569000244238D4F0BCA1F1C041BDE8004100F083
:1056A000C5B94FEAD22242EA43524FEAD323A7FBBD
:1056B00002864FEAD02040EA415007FB03661EEA0B
:1056C0000E0F4FEAD12105FB026658BFA6EB00562C
:1056D000B6EB00564FEA520E4EEAC37E18EB0E0EA2
:1056E00056EB530EBDD518EB02085E417F1C55F1F9
:1056F0000005B6E74FF480154FF000074FF00006A5
:105700004FF00008ADE7F0BC4FF0000001F1C041E0
:1057100001F00041BDE8008111EA0C1F0CEA1315ED
:1057200000D00CE013EA0C1F00F025804FF00000C1
:10573000F0BC81EA030101F00041BDE80081F0BC4A
:10574000BDE8004181EA030100F070B9F0BCBDE89A
:10575000004170B500F01CF9097EFC3E00F007B86E
:1057600081EA03014FF0000001F00041704781EA37
:10577000030100F05BB9F0BCBDE800414FF0000050
:1057800021497047FFFDFBF9F7F5F4F2F0EEEDEB80
:10579000E9E8E6E4E3E1E0DEDDDBDAD8D7D5D4D32F
:1057A000D1D0CFCDCCCBCAC8C7C6C5C4C2C1C0BF7B
:1057B000BEBDBCBBBAB9B8B7B6B5B4B3B2B1B0AF81
:1057C000AEADACABAAA9A8A8A7A6A5A4A3A3A2A165
:1057D000A09F9F9E9D9C9C9B9A9999989797969520
:1057E00095949393929191908F8F8E8E8D8C8C8BBC
:1057F0008B8A898988888787868585848483838244
:10580000828181800000FF070000F87F10F00042D5
:1058100048BF4042B0FA80F310FA03F10AD0C3F156
:105820001D0303F580634FEA415002EB035202EB84
:10583000D12170474FF0000070470000DFF848C1E9
:1058400070B51CEA111E1EBF1CEA13159EEA0C0F50
:1058500095EA0C0F00F06F8081EA030423EA4C13F1
:105860004EEAD47E21EA4C1141F4801143F48013B6
:10587000AE44A1FB024CA0FB0365AEF17F7E36195E
:1058800055EB0C05A1FB034C4CF10003A0FB021CE3
:1058900016EB0C06654153F10003094218BF46F0B0
:1058A000010613F4007F0BD14FEA03314FEA0530B4
:1058B000340341EA155140EA16506FF003020AE042
:1058C0004FEAC3214FEAC520F40241EA555140EAAC
:1058D00056506FF0020202EB2E4201EB025585EAB0
:1058E000CE710AD05FEA440C18BF24F0004450F196
:1058F000000041F1000120EAD47040F2FE7C6245D4
:1059000000D270BDA84214BF4FF080444FF0404415
:10591000002E08BF0024BEF1806FA8BFA1F1C041D6
:10592000BDE8704080F282804FF0000001F1C0417C
:1059300001F0004170479EEA0C0F0CEA131518BFE6
:1059400095EA0C0F06D04FF0000081EA030E0EF02E
:10595000004170BD00F01CF88900013E00F007B85E
:1059600000F009B84FEA430C5FEA5C5C08D081EABA
:10597000030100F05BB84FEA410C5FEA5C5CF6D1D2
:105980004FF00000014970470000FF070000F87F5A
:105990000EF1020E2EF0030E5EF8046B364205D4B3
:1059A000012A43EB030515F5001F12D8012841EB2E
:1059B000010C1CF5001F0CD80ED14FEAD17C15F557
:1059C000001F0CEB4C0C0CF1020C08BF4CEBD37C11
:1059D00004E04FF0080C01E04FEAD37C0CEB4C05DF
:1059E00026FA05F606F00706B6F1040C06D20EEB11
:1059F000860CBDE870404CF0010C6047DFE80CF00D
:105A0000090B02024FF000414FF00000A1F5002108
:105A100070BD19461046012851EB010418BFD4F59A
:105A2000001484BF002001F0004170BD0808A0F5FB
:105A300000114FEA3101704791EA030F10B581F070
:105A400000413FF5E3AC83F0004300F0EFB8000005
:105A50002DE9F04101F5801CBCF5001FC0F2C380A8
:105A60004FEA115C21EA0C510CF1FD0C41F480115C
:105A70005FEA5C0C0CF5C07C01D3400049413DA4B9
:105A8000890241EA905187028E0E0A0CA45D04FB44
:105A900004F602FB06F6C6F14046A4FB0662F60DCC
:105AA00046EA422606FB06F4A4FB01235242C3F158
:105AB000404338BF5B1EA6FB02420024E6FB0324E2
:105AC000D20B42EA4446A6FB0623A1FB02E2A3FB5B
:105AD00007E4A4184FF0000252F10002E3FB014278
