:020000040800F2
:10000000401D0020A9020008AD020008AF02000850
:10001000B1020008B3020008B502000800000000A9
:10002000000000000000000000000000B70200080F
:10003000B902000800000000BB020008BD02000871
:10004000BF020008BF020008BF020008BF0200088C
:10005000BF020008BF02000829260008BF020008EE
:10006000BF020008BF020008BF020008BF0200086C
:10007000BF020008BF020008BF020008BF0200085C
:10008000BF020008BF020008BF020008BF0200084C
:10009000BF020008BF020008BF020008BF0200083C
:1000A000BF020008BF020008BF020008BF0200082C
:1000B000BF020008BF02000879300008BF02000834
:1000C000BF020008BF020008BF020008BF0200080C
:1000D000BF02000805310008BF020008BF02000887
:1000E000BF020008BF020008BF02000800F002F8CB
:1000F00000F0CBF80AA090E8000C82448344AAF1F7
:100100000107DA4501D100F0C0F8AFF2090EBAE8F4
:100110000F0013F0010F18BFFB1A43F0010318473B
:100120006CA500008CA500000A444FF0000C10F8EC
:10013000013B13F0070408BF10F8014B1D1108BF65
:1001400010F8015B641E05D010F8016B641E01F805
:10015000016BF9D113F0080F1EBF10F8014BAD1C55
:100160000C1B09D16D1E58BF01F801CBFAD505E073
:1001700014F8016B01F8016B6D1EF9D59142D6D3CD
:10018000704700000023002400250026103A28BFF5
:1001900078C1FBD8520728BF30C148BF0B607047F9
:1001A0004B1C012B98BF70472DE9F003911C9B0855
:1001B000B1F80480B1F802900A8831F802CC80448A
:1001C000814402448444D9F80070D8F8006015686E
:1001D000DCF80040C9F80060C8F80070CCF80050A6
:1001E0001460D9F80470D8F804605568DCF804404D
:1001F000C9F80460C8F80470CCF8045054600831A1
:100200005B1ED5D1BDE8F00370474B1C012B98BF96
:1002100070472DE9F003911C9B08B1F80480B1F8F8
:1002200002900A8831F802CC00EB580800EB59091B
:1002300000EB520200EB5C0CD9F80070D8F80060BB
:100240001568DCF80040C9F80060C8F80070CCF808
:100250000050146008315B1EDFD1BDE8F003704729
:10026000642901F0BB86752901F0B886782901F070
:10027000F186632902F02281732902F02781002090
:1002800070471FB51FBD10B510BD02F07BF91146B8
:10029000FFF7F7FF04F0A8FE02F099F903B4FFF7A7
:1002A000F2FF03BC02F0F3FF08480047FEE7FEE759
:1002B000FEE7FEE7FEE7FEE7FEE7FEE7FEE7FEE716
:1002C00003480449024A044B70470000ED0000084F
:1002D000401B0020401D0020401B0020002A08BFBA
:1002E00070472DE9F04715460E4604464FF00008CA
:1002F00054F8047B54F8040B014608F005FA8146D3
:100300003946084608F000FA494607F0FDFF37462F
:10031000361D10F1FF4F28BFC7F8008002D206F04B
:1003200061F938606D1EE3D1BDE8F0872DE9FF4F1C
:10033000A3B06FF003022398239940680290896864
:10034000209123990988189102EB810108440390B8
:100350002698C0081F9000F084831898C008219048
:1003600024980168039801602498039950F8042F99
:1003700041F8042F50F8042F41F8042F50F8042FAF
:1003800041F8042F00220C920192139212921092C3
:100390000F920E920D92209D029C50F8042F41F86E
:1003A000042F50F8042F41F8042F50F8042F41F87F
:1003B000042F42684A60083108300391249054F8B1
:1003C000040B0B9054F804AB54F8040B089054F849
:1003D000049BDDF884B054F8048BBBF1000F54F893
:1003E000047B54F8046B00F0B28200BF55F8040B94
:1003F000009054F8040B0A9000990B9808F084F9C7
:1004000011905046009908F07FF91B9000990898C8
:1004100008F07AF917904846009908F075F91A9093
:100420004046009908F070F919903846009908F094
:100430006BF916903046009908F066F9159000990E
:100440000A9808F061F9149055F8040B009054F8DC
:10045000040B0B901199019807F056FF01901B991E
:10046000139807F051FF13901799129807F04CFF5B
:1004700012901A99109807F047FF109019990F9849
:1004800007F042FF0F9016990E9807F03DFF0E906F
:1004900015990D9807F038FF0D9014990C9807F0F6
:1004A00033FF0C905046009908F02EF911900099F6
:1004B000089808F029F91B904846009908F024F99B
:1004C00017904046009908F01FF91A903846009995
:1004D00008F01AF919903046009908F015F91690AD
:1004E00000990A9808F010F9159000990B9808F0F7
:1004F0000BF9149055F8040B009054F804AB1199C3
:10050000019807F001FF01901B99139807F0FCFE7A
:1005100013901799129807F0F7FE12901A991098F5
:1005200007F0F2FE109019990F9807F0EDFE0F906A
:1005300016990E9807F0E8FE0E9015990D9807F0A1
:10054000E3FE0D9014990C9807F0DEFE0C900099D4
:10055000089808F0D9F811904846009908F0D4F8A6
:100560001B904046009908F0CFF817903846009944
:1005700008F0CAF81A903046009908F0C5F81990AA
:1005800000990A9808F0C0F8169000990B9808F0A6
:10059000BBF815905046009908F0B6F8149055F83D
:1005A000040B009054F8040B08901199019807F07F
:1005B000ABFE01901B99139807F0A6FE13901799B4
:1005C000129807F0A1FE12901A99109807F09CFE5D
:1005D000109019990F9807F097FE0F9016990E98A2
:1005E00007F092FE0E9015990D9807F08DFE0D9074
:1005F00014990C9807F088FE0C904846009908F072
:1006000083F811904046009908F07EF81B90384618
:10061000009908F079F817903046009908F074F8BE
:100620001A9000990A9808F06FF8199000990B98A1
:1006300008F06AF816905046009908F065F8159091
:100640000099089808F060F8149055F8040B009091
:1006500054F8049B1199019807F056FE01901B99DC
:10066000139807F051FE13901799129807F04CFE5B
:1006700012901A99109807F047FE109019990F9848
:1006800007F042FE0F9016990E9807F03DFE0E906F
:1006900015990D9807F038FE0D9014990C9807F0F5
:1006A00033FE0C904046009908F02EF81190384621
:1006B000009908F029F81B903046009908F024F8BA
:1006C000179000990A9808F01FF81A9000990B9853
:1006D00008F01AF819905046009908F015F816908D
:1006E0000099089808F010F815904846009908F00D
:1006F0000BF8149055F8040B009054F8048B1199E2
:10070000019807F001FE01901B99139807F0FCFD7A
:1007100013901799129807F0F7FD12901A991098F4
:1007200007F0F2FD109019990F9807F0EDFD0F906A
:1007300016990E9807F0E8FD0E9015990D9807F0A0
:10074000E3FD0D9014990C9807F0DEFD0C903846EF
:10075000009907F0D9FF11903046009907F0D4FFB7
:100760001B9000990A9807F0CFFF179000990B98FB
:1007700007F0CAFF1A905046009907F0C5FF19907C
:100780000099089807F0C0FF16904846009907F0B6
:10079000BBFF15904046009907F0B6FF149055F83E
:1007A000040B009054F8047B1199019807F0ACFDFC
:1007B00001901B99139807F0A7FD139017991298B1
:1007C00007F0A2FD12901A99109807F09DFD109065
:1007D00019990F9807F098FD0F9016990E9807F049
:1007E00093FD0E9015990D9807F08EFD0D901499BC
:1007F0000C9807F089FD0C903046009907F084FFB3
:10080000119000990A9807F07FFF1B9000990B98B0
:1008100007F07AFF17905046009907F075FF1A907D
:100820000099089807F070FF19904846009907F062
:100830006BFF16904046009907F066FF159038460A
:10084000009907F061FF149055F8040B009054F8DC
:10085000046B1199019807F057FD01901B991398AB
:1008600007F052FD13901799129807F04DFD129062
:100870001A99109807F048FD109019990F9807F0F1
:1008800043FD0F9016990E9807F03EFD0E901599B6
:100890000D9807F039FD0D9014990C9807F034FD70
:1008A0000C9000990A9807F02FFF119000990B986F
:1008B00007F02AFF1B905046009907F025FF17907C
:1008C0000099089807F020FF1A904846009907F011
:1008D0001BFF19904046009907F016FF1690384606
:1008E000009907F011FF15903046009907F00CFFB2
:1008F0001490ABF1010B1199019807F005FD0190DF
:100900001B99139807F000FD13901799129807F0A0
:10091000FBFC12901A99109807F0F6FC10901999A8
:100920000F9807F0F1FC0F9016990E9807F0ECFC69
:100930000E9015990D9807F0E7FC0D9014990C98FE
:1009400007F0E2FC0C90BBF1000F7FF44FAD18985C
:1009500010F0070B63D000BF55F8040B009054F85B
:10096000040B0A9000990B9807F0CEFE11905046A8
:10097000009907F0C9FE1B900099089807F0C4FE83
:1009800017904846009907F0BFFE1A90404600991C
:1009900007F0BAFE19903846009907F0B5FE169098
:1009A0003046009907F0B0FE159000990A9807F0BC
:1009B000ABFECDF82CA0DDF820A0CDF82090C146EC
:1009C0001490B84637460A9E1199019807F09CFC8E
:1009D00001901B99139807F097FC139017991298A0
:1009E00007F092FC12901A99109807F08DFC109065
:1009F00019990F9807F088FC0F9016990E9807F038
:100A000083FC0E9015990D9807F07EFC0D901499BB
:100A10000C9807F079FC0C90BBF1010B9CD102986B
:100A2000203002902599019808602598139940F884
:100A3000041F129940F8041F109940F8041F0F99E1
:100A400040F8041F0E9940F8041F0D9940F8041F48
:100A50000C994160083025901F98401E1F907FF42C
:100A60007FAC269810F0070850D024980025016824
:100A7000039801602498209E001D24900398029CF6
:100A8000001D0390DDF860903168206807F03CFE9F
:100A9000294607F039FC371D261D0546B9F101042A
:100AA00029D0B4F1004F7DD2002C24DD361F3F1F2A
:100AB00014F0010F09D057F8041F56F8040F07F07F
:100AC00023FE294607F020FC0546641013D0796800
:100AD000706807F019FE294607F016FC054657F81E
:100AE000081F56F8080F07F00FFE294607F00CFC08
:100AF0000546641EEBD1259805602598001D2590BC
:100B00000298001D0290B8F10108AED123981899FF
:100B100040684C1EA30820D0B3F1004F56D2002BE2
:100B20001BDD029A01469C4652F8045B41F8045BC7
:100B300052F8045B41F8045B52F8085B41F8085B2B
:100B400052F8045C41F8045CBCF1010CECD1029950
:100B500000EB031001EB0311029114F0030104BF39
:100B600027B0BDE8F08FB1F1004F44D20029DCBFBF
:100B700027B0BDE8F08F031F029A121F11F0010F7A
:100B800003D052F8040F43F8040F480804BF27B0FD
:100B9000BDE8F08F5168596052F8081F43F8081FEC
:100BA000401E00E003E0F5D127B0BDE8F08F3968C2
:100BB000306807F0A9FD294607F0A6FB0546641E2C
:100BC00006F1040607F10407F1D194E702990968D8
:100BD00040F8041B029951F8042F40F8042B51F8F7
:100BE000042F40F8042B4A68083140F8042B029186
:100BF0005B1EEBD1B1E7029A126840F8042B029A0F
:100C0000121D0292491EF6D127B0BDE8F08F70B5D3
:100C100004460498218008448000011F1D461846A0
:100C2000A26001F03BFB656070BD00002DE9F34F51
:100C30009BB00C461B98008801EB80051B9940086F
:100C400004EB8006D1F804800590CDE90B5405EB48
:100C500080075FEA900900F00481236802936268CC
:100C60001792A2681A92E268159229680E91686834
:100C70000690A8681290E868119030681890726821
:100C80000792B2681692F2680392D7E900A0139017
:100C9000B86810901846D7F80CB007F035FB44F848
:100CA000040B0699179807F02FFB44F8040B1299D0
:100CB0001A9807F029FB44F8040B1199159807F0CE
:100CC00023FB44F8040B0E99029807F0ADFE0E903A
:100CD0000699179807F0A8FE069012991A9807F03F
:100CE000A3FE12901199159807F09EFE119051469F
:100CF000189807F009FB46F8040B1399079807F0BA
:100D000003FB46F8040B1099169807F0FDFA46F815
:100D1000040B5946039807F0F7FA46F8040B5046BF
:100D2000189907F081FE14900799139807F07CFE3C
:100D300013901699109807F077FE10905846039973
:100D400007F072FE824658F8040B019058F804BB75
:100D500001990E9807F0D8FC03905946069807F0C1
:100D6000D3FC02900199069807F0CEFC06905946F4
:100D70000E9807F0C9FC0790DDE9021007F0C4FAED
:100D800045F8040BDDE9060107F04EFE45F8040BBB
:100D90005946149807F0B8FC03900199139807F08E
:100DA000B3FC02905946139807F0AEFC06900199E7
:100DB000149807F0A9FC8346DDE9021007F034FE21
:100DC00047F8040B5946069807F09EFA47F8040BBB
:100DD00058F8040B019058F804BB0199129807F0D9
:100DE00093FC03905946119807F08EFC02900199EC
:100DF000119807F089FC06905946129807F084FC78
:100E00000790DDE9021007F07FFA45F8040BDDE9F1
:100E1000060107F009FE45F8040B5946109807F043
:100E200073FC03905046019907F06EFC0290504607
:100E3000594607F069FC83460199109807F064FC55
:100E40008246DDE9021007F0EFFD47F8040B51463A
:100E5000584607F059FA47F8040BB9F101097FF435
:100E6000FCAE1B980223059942680C9800F0F8FB31
:100E70001B980599022342680B981DB0BDE8F04FFE
:100E800000F0EEBB2DE9F34FA7B00F46279800887E
:100E9000400801EB800404EB800606EB8005189601
:100EA0001A95CDE91D412799A5F1040A0AEB80099D
:100EB0004968400806900A910420199006200E9176
:100EC0000D911590306801903868A4F1040BA6F1DB
:100ED00004080090019907F017FA0290DDE900017B
:100EE00007F0A2FD0390706805907868019005995D
:100EF00007F00AFA00900599019807F095FD019016
:100F0000606810900146039807F0FEF969680C913B
:100F100007F08AFD169020680F900146019807F0AF
:100F200083FD2968059107F0EFF911900F99029858
:100F300007F07AFD059907F077FD14901099009855
:100F400007F072FD0C9907F06FFD0B901099039854
:100F500007F06AFD0C9907F0D7F90C900F990198EA
:100F600007F0D2F9059907F05FFD12900F990298EA
:100F700007F0CAF9059907F0C7F947F8040B61684B
:100F8000009807F0C1F9696807F0BEF947F8040B4B
:100F9000169844F8040B119844F8040B149846F87A
:100FA000040B0B9846F8040B0C9845F8040B1298A8
:100FB00045F8040B0A9901F108000D990A9001F116
:100FC00010000E990D9001F118000E900698801EE9
:100FD0004008209000F0C681306801903868009089
:100FE000019907F091F90290DDE9000107F01CFD7D
:100FF00003907068059078680190059907F084F96E
:1010000000900599019807F00FFD019060680C9021
:101010000146039807F078F96968109107F004FD1C
:10102000169020680F900146019807F0FDFC296892
:10103000059107F069F911900F99029807F0F4FCF7
:10104000059907F0F1FC14900C99009807F0ECFC5E
:10105000109907F0E9FC0B900C99039807F0E4FC59
:10106000109907F051F90C900F99019807F04CF97D
:10107000059907F0D9FC12900F99029807F044F9EE
:10108000059907F041F947F8040B6168009807F0EB
:101090003BF9696807F038F947F8040B5AF8040C73
:1010A00002905BF8040C0190029907F02DF9009072
:1010B000DDE9010107F0B8FC0190DAF800000590C5
:1010C000DBF800000390059907F01EF902900599DE
:1010D000039807F0A9FC10900390D9F80000059040
:1010E000D8F800001390059907F09EFC2290019912
:1010F00007F00AF9269058F8041C1098109107F090
:1011000093FC59F8041C0F9107F0FEF823901099F6
:10111000009807F089FC0F9907F086FC249013993A
:10112000029807F081FC059907F07EFC2190019957
:10113000229807F079FC2290DDE90F0107F074FC9A
:10114000039907F071FC17901399029807F0DCF8E7
:10115000059907F0D9F8CBF80000ABF104011F9115
:1011600058F8041C009807F0CFF859F8041C07F051
:10117000CBF81F99ABF1080B08600A980068019042
:101180000A984168009108300A900199169807F072
:10119000BBFA10900099119807F0B6FA0F900199D8
:1011A000119807F0B1FA03900099169807F0ACFA7D
:1011B0000290DDE90F1007F0A7F844F8040BDDE911
:1011C000021007F031FC44F8040B0099239807F053
:1011D0009BFA10900199269807F096FA0F900099C3
:1011E000269807F091FA03900199239807F08CFA5A
:1011F0000290DDE90F1007F017FCA8F10401C8F810
:1012000000001C91DDE9021007F07EF81C99A8F19E
:10121000080808600D980D99006801900D984068C5
:101220000090199801EB80000D900199149807F037
:101230006BFA109000990B9807F066FA0F900199DD
:101240000B9807F061FA03900099149807F05CFA84
:101250000290DDE90F1007F057F846F8040BDDE9BE
:10126000021007F0E1FB46F8040B2198019980F089
:10127000004007F049FA10900099249807F044FACA
:101280000F900199249807F03FFA03900099219854
:1012900007F03AFA0290DDE90F1007F0C5FBAAF15A
:1012A0000401CAF800000991DDE9020107F0BCFB66
:1012B0000999AAF1080A08600E98006801900E9832
:1012C0001599406800900E9800EB81000E900199EE
:1012D0000C9807F019FA10900099129807F014FA78
:1012E0000F900199129807F00FFA039000990C984B
:1012F00007F00AFA0290DDE90F1007F005F845F84B
:10130000040BDDE9021007F08FFB45F8040B009990
:10131000179807F0F9F910900199229807F0F4F95D
:101320000F900099229807F0EFF903900199179810
:1013300007F0EAF90290DDE90F1007F075FBA9F15B
:101340000401C9F800001B91DDE9021006F0DCFF82
:101350001B99A9F1080908602098401E20907FF48D
:101360003BAE00BFD6F80080D7F800904146484613
:1013700006F0CAFF02904146484607F055FB03902D
:10138000D6F80490D7F804804946404606F0BCFFE2
:1013900000904946404607F047FB019060680F9077
:1013A0000146039806F0B0FFD5F80490494607F0CF
:1013B0003BFB8346206809900146019807F034FB07
:1013C0002968059106F0A0FF82460999029807F066
:1013D0002BFB059907F028FB80460F99009807F032
:1013E00023FB494607F020FB0B900F99039807F069
:1013F0001BFB494606F088FF0C900999019806F0FE
:1014000083FF059907F010FB81460999029806F0C1
:101410007BFF059906F078FF38606168009806F058
:1014200073FF696806F070FF78600A98D0E9007071
:1014300000905846394607F067F9109050460099D9
:1014400007F062F90F905046394607F05DF90746FC
:101450005846009907F058F98246DDE90F1006F06A
:1014600053FF20605146384607F0DEFA60600D9861
:10147000D0E900474046214607F046F98346394601
:101480000B9807F041F9824621460B9807F03CF98A
:1014900004464046394607F037F907465146584654
:1014A00006F032FF30603946204607F0BDFA706022
:1014B0000E98D0E9004621460C9807F025F98046A1
:1014C0004846314607F020F907464846214607F0CE
:1014D0001BF9044631460C9807F016F906463946C2
:1014E000404606F011FF28603146204607F09CFA7E
:1014F000686027980423069942681E9800F0B0F8A7
:1015000027980423069942681D9800F0A9F82798A7
:10151000042306994268189800F0A2F827980699C3
:10152000042342681A9829B0BDE8F04F00F098B83B
:101530002DE9F0410588984617460C460646012AD3
:1015400018D1201DB5B1083815F0010F04D050F89E
:10155000081F81F00041016069080BD050F8082F86
:10156000491E82F0004240F8082B026882F00042D7
:101570000260F3D1B5F5807F1BD008DC102D13D0AD
:10158000202D16D0402D19D0802D0DD01CE0B5F5A2
:10159000007F13D0B5F5806F06D0B5F5006F08D089
:1015A000B5F5805F0AD00FE021463046FFF73EFBDD
:1015B0000AE021463046FFF765FC05E02946012395
:1015C0002046726800F04CF8B8F1000F04D0B189E1
:1015D0002046B268FEF7E4FD012F18BFBDE8F08198
:1015E000284607F049F801464FF07E5006F0FAFE13
:1015F0000646002D08BFBDE8F081083C15F0010F3C
:101600000CD03146A06807F07FF8A060E068314652
:1016100080F0004007F078F8E06008346D0808BFFB
:10162000BDE8F0813146A06807F06EF8A060E06880
:10163000314680F0004007F067F8E06031462069ED
:1016400007F062F820616069314680F0004007F0E1
:101650005BF8606110346D1EE4D1BDE8F0810000DC
:101660002DE9FF4FB3B00446349D2895ED080026C0
:1016700006EB050A0AEB050909EB050808EB050B63
:101680000BEB05004719229078192A9054F83B007B
:10169000039054F836000290039906F035FE00904E
:1016A000DDE9020107F0C0F90990229854F83000F2
:1016B000039054F83A000290039906F025FE059035
:1016C000DDE9020107F0B0F9089054F83700039003
:1016D00054F839000290039906F016FE1590DDE9E2
:1016E000020107F0A1F914902A9854F830000490F0
:1016F00054F838000390049906F006FE0290DDE9E4
:10170000030107F091F913901599009807F08CF9EF
:1017100004901599009806F0F7FD0090029905983D
:1017200007F082F915900299059806F0EDFD014643
:101730000590009806F0E8FD44F8360005990098F9
:1017400007F072F944F83B0004EBCB000D904068C1
:1017500004EBC60B0390DBF804000290039906F03B
:10176000D3FD0090DDE9020107F05EF906902298B2
:1017700004EBC00016904068039004EBCA000E9082
:1017800040680290039906F0BFFD0590DDE9020173
:1017900007F04AF9079004EBC7001A9040680390DD
:1017A00004EBC900199040680290039906F0ACFD63
:1017B0001090DDE9020107F037F90F902A9804EB49
:1017C000C00018904068039004EBC8001790406870
:1017D0000B90039906F098FD029003990B9807F07F
:1017E00023F912901099009807F01EF903901099B0
:1017F000009806F089FD00900299059807F014F909
:1018000010900299059806F07FFD0146059000981A
:1018100006F07AFDCBF804000599009807F004F96A
:1018200001460D9841601099049806F06DFD44F84A
:1018300039001099049807F0F7F844F83700159923
:10184000039807F0F1F8014619984160159903983B
:1018500006F05AFD01461A9841601399089807F05E
:10186000E3F8FE4F394606F04FFF8146139908987A
:1018700006F04AFD394606F047FF0890129907988E
:1018800007F0D2F8394606F03FFF834612990798D1
:1018900006F03AFD394606F037FF079049460998A9
:1018A00007F0C2F804904946099806F02DFD09900A
:1018B0000899149807F0B8F813900899149806F04E
:1018C00023FD14905946069807F0AEF80390594648
:1018D000069806F019FD069007990F9807F0A4F8EE
:1018E000814607990F9806F00FFD83460146099837
:1018F00006F00AFD44F83A005946099807F094F8B2
:1019000001462A9844F830104946049806F0FCFC39
:101910000146229844F830104946049807F084F8AC
:1019200044F838001499069807F07EF801460E989E
:1019300041601499069806F0E7FC0146189841604A
:101940001399039807F070F80146169841601399AF
:10195000039806F0D9FC0146179841602898064480
:1019600034988642FFF484AE082D3CBF37B0BDE802
:10197000F08F00201D9001201B9036991D98359FF7
:1019800008441D90DDF874804200161857F838702E
:101990000E97359F810001EB000C57F832700C97C1
:1019A000359F0CEB0003184457F836702097359F8D
:1019B00057F831701997359F57F83C700B97359F42
:1019C00057F833702597359F57F830702997359F12
:1019D00007EBC8077F681797359F07EBC20207EB35
:1019E000C10152681A9207EBC60207EBC0005268A9
:1019F0001E924968189107EBCC011B9E49682791FC
:101A000007EBC3014968239140681C90771907EBE5
:101A1000050808EB050909EB050A0AEB050B0BEBBA
:101A20000500219028442A9054F83A00039054F875
:101A300036000290039906F067FC0090DDE9020190
:101A400006F0F2FF099054F83B00039054F8370079
:101A50000290039906F058FC0590DDE9020106F0BA
:101A6000E3FF0890219854F83000039054F83800B0
:101A70000290039906F048FC1590DDE9020106F09A
:101A8000D3FF14902A9854F83000049054F8390089
:101A90000390049906F038FC0290DDE9030106F09A
:101AA000C3FF13901599009806F0BEFF0490159996
:101AB000009806F029FC00900299059806F0B4FF02
:101AC00015900299059806F01FFC014605900098B4
:101AD00006F01AFC44F836000599009806F0A4FFB9
:101AE000059004EBCA002B904068039004EBC600FD
:101AF000169040680090039906F006FC0290039946
:101B0000009806F091FF069004EBCB002D90406802
:101B1000039004EBC7002C9040680090039906F0F6
:101B2000F3FB0D900399009806F07EFF0790219833
:101B300004EBC0002F904068039004EBC8002E9087
:101B400040680090039906F0DFFB1090039900981D
:101B500006F06AFF0F902A9804EBC00030904068AE
:101B6000129004EBC900319040680390129906F07E
:101B7000CBFB00901299039806F056FF1290109933
:101B8000029806F051FF03901099029806F0BCFBF2
:101B9000029000990D9806F047FF109000990D985B
:101BA00006F0B2FB0D901099049806F0ADFB009082
:101BB0001099049806F038FF04900D99029806F0E9
:101BC000A3FB0146169841600D99029806F02CFF80
:101BD0000D901599039806F027FF02901599039828
:101BE00006F092FB03900599199806F08DFD16906A
:101BF0000D99189806F088FD15900D99199806F022
:101C000083FD0D900599189806F07EFD0590DDE99D
:101C1000151006F079FB44F83A0005990D9806F086
:101C200003FF01462B98416000990C9806F06CFD6B
:101C3000169002991A9806F067FD824602990C9850
:101C400006F062FD0D9000991A9806F05DFD059072
:101C50005146169806F058FB02E00000F304353FA9
:101C600044F8380005990D9806F0DEFE01462E98DE
:101C700041600499259806F047FD82460399239810
:101C800006F042FD80460399259806F03DFD0D9033
:101C90000499239806F038FD05904146504606F019
:101CA00033FB0146219844F8301005990D9806F051
:101CB000BBFE01462F9841601399089806F0B4FEC8
:101CC000844906F021FD80461399089806F01CFB14
:101CD000804906F019FD82461299079806F0A4FE85
:101CE0007C4906F011FD02901299079806F00CFB52
:101CF000784906F009FD07904146099806F094FEE0
:101D000004904146099806F0FFFA0990514614984C
:101D100006F08AFE13905146149806F0F5FA1490D6
:101D20000299069806F080FE03900299069806F044
:101D3000EBFA069007990F9806F076FE824607990F
:101D40000F9806F0E1FA80460146099806F0DCFAA1
:101D500000904146099806F067FE099051460498A4
:101D600006F0D2FA08905146049806F05DFE049001
:101D70001499069806F058FE80461499069806F0C5
:101D8000C3FA06901399039806F04EFE0790139934
:101D9000039806F0B9FA039000990E9806F0B4FC87
:101DA00016904146179806F0AFFC824641460E98C1
:101DB00006F0AAFC0D900099179806F0A5FC804645
:101DC0005146169806F0A0FA44F8370041460D989F
:101DD00006F02AFE01462C9841600999299806F0E0
:101DE00093FC824606991C9806F08EFC8046069964
:101DF000299806F089FC0D9009991C9806F084FC3E
:101E000007464146504606F07FFA01462A9844F8B4
:101E1000301039460D9806F007FE014630984160B3
:101E200008990B9806F070FC80460799279806F0F1
:101E30006BFC824607990B9806F066FC0D9008999A
:101E4000279806F061FC07465146404606F05CFACA
:101E500044F83B0039460D9806F0E6FD01462D9802
:101E600041600499209806F04FFC834603991E9820
:101E700006F04AFC82460399209806F045FC80460D
:101E800004991E9806F040FC07465146584606F055
:101E90003BFA44F839003946404606F0C5FD014694
:101EA000319841602898064434988642FFF4AEADDC
:101EB0001B98401C1B9085423FF65FAD36984FF64D
:101EC000FF7101EAC0003690072D3FF6CEAB37B068
:101ED000BDE8F08FF304353F704710B54C1084EA2D
:101EE000530404D54042C1F1000138BF491E1B42D2
:101EF00004D55242C3F1000338BF5B1E00F0F9F96C
:101F000014F0804F04D04042C1F1000138BF491E97
:101F100014F0004F04D05242C3F1000338BF5B1EDF
:101F200010BD00000FB4044910B503AA029800F0D8
:101F3000D1FA10BC5DF814FB6800002070B50446AF
:101F400085690068C10601D5302600E02026C0075B
:101F500007D070BDD4E9012130469047206A401C6B
:101F600020626D1EF6D570BD70B504468569007897
:101F7000C00707D170BDD4E9012120209047206A15
:101F8000401C20626D1EF6D570BD70B50C4605462E
:101F9000012A05D02878800600D5EA69002302E0EE
:101FA000012305E05B1C934202D2E05C0028F9D1DA
:101FB000A869E618C01AA861286A18442862284649
:101FC000FFF7BCFF04E0D5E9012114F8010B9047AD
:101FD000B442F8D32846FFF7C7FF70BD2DE9F041A2
:101FE0000646002410687529314616A510D0AFF3B7
:101FF0000080002802DA404213A507E031688A0712
:1020000001D512A502E0490704D511A5012401E07C
:10201000AFF3008000210A2206F1240709E0B0FB9B
:10202000F2FCB0FBF2F302FB1C003030785418468F
:10203000491C0028F3D123462A463046BDE8F0412A
:1020400000F0D9B9000000002D0000002B000000B6
:102050002000000070B504460D4621461068AFF31D
:1020600000802188090502D50F4A7A4402E00E4A11
:102070007A440E32002104F1240305E000F00F063B
:102080000009965D5E54491C0028F7D12078002392
:10209000000704D5702D02D009B102231132204669
:1020A000BDE8704000F0A7B9AE8300002DE9F05FF5
:1020B000894604464FF0000ADFF874B1FB44C0F8CB
:1020C00020A02046E1688847002874D0252806D043
:1020D000D4E901219047206A401C2062F1E70026E4
:1020E0005F462046E16888472028054607DB312DFA
:1020F00005D2781910F8200C08B10643F1E7B007B3
:1021000001D526F00406C4F81CA00027C4F818A0C6
:102110002A2D09D0284601F0B3F838B304EB87081C
:10212000303DC8F8185019E059F8041B204604EB5C
:1021300087029161E1688847012F054618D1E0695F
:10214000002820DA26F020061DE0D8F8180000EB61
:10215000800005EB40003038C8F818002046E168E0
:102160008847054601F08CF80028EED1012F0AD0EF
:102170002E2D08D12046E16888477F1C0546022F96
:1021800046F02006C4DBA069002803DA404246F08E
:102190000106A061F00701D026F010066C2D0BD0CF
:1021A000682D09D04C2D39D06A2D35D0742D35D0FD
:1021B0007A2D33D016E038E0E1682F462046884774
:1021C000B842054609D16C2F26D04FF48060E168F3
:1021D000064320468847054604E06C2F1AD04FF48A
:1021E000807006430DB3A5F14100192802D82035AF
:1021F00046F400664A462946204626604E46FEF7CB
:102200002FF880B101280BD0F61D26F0070000F151
:10221000080956E74020E4E78020D8E70020D6E709
:1022200006F104094DE7284652E7206ABDE8F09F11
:102230008483000040EA010310B59B070FD1042AF4
:102240000DD310C808C9121F9C42F8D020BA19BA81
:10225000884201D9012010BD4FF0FF3010BD1AB1E6
:10226000D30703D0521C07E0002010BD10F8013B3B
:1022700011F8014B1B1B07D110F8013B11F8014B62
:102280001B1B01D1921EF1D1184610BD02F0FF03B5
:1022900043EA032242EA024200F030B94FF0000262
:1022A00000B5134694469646203922BFA0E80C504C
:1022B000A0E80C50B1F12001BFF4F7AF090728BF27
:1022C000A0E80C5048BF0CC05DF804EB890028BFA3
:1022D00040F8042B08BF704748BF20F8022B11F0CC
:1022E000804F18BF00F8012B704770477047704748
:1022F000704753EA020C00F069802DE9F04B4FF073
:102300000006002B1FBFB3FA83F503FA05F424FA85
:1023100005F65E4012BF1643B2FA82F502FA05F4E2
:10232000C5F120051EBF22FA05FC44EA0C04203545
:1023300056EA044C4FEA144418BF641C4FF00008DE
:102340004FF00009904271EB030C39D3002919BFFB
:10235000B1FA81F701FA07F6B0FA80F700FA07F64A
:10236000C7F120071EBF20FA07FC46EA0C062037FB
:10237000B6FBF4FCA7EB0507103F07F01F0BCBF1F2
:1023800020060CFA0BFB2CFA06F644BFB3460026D7
:10239000202FA4BF5E464FF0000B5BEA060C08BF7F
:1023A0004FF0010B19EB0B09ABFB027C48EB060865
:1023B000C01B06FB02CC0BFB03CC71EB0C01C1E78D
:1023C0000B46024641464846BDE8F08B13B54FF038
:1023D00000004FF00001AFF30080BDE81C407047E3
:1023E00010B500F0ABF8006810BD10B5044600F061
:1023F000A5F8046010BD2DE9F0470D4699469246B8
:10240000044600F124080168880604D5E06921F03B
:102410001001216000E00120A84201DD471B00E01F
:102420000027A1697A1902EB0900081AA061207837
:10243000C00602D42046FFF781FD002608E0D4E95B
:1024400001211AF806009047206A401C761C206281
:102450004E45F4DB2078C0060AD52046FFF76EFD16
:1024600006E0D4E9012130209047206A401C206218
:10247000381EA7F10107F4DC07E0D4E9012118F8C0
:1024800005009047206A401C2062281EA5F1010526
:10249000F3DC2046FFF768FD2078000602D5022015
:1024A000BDE8F0870120FBE710B5436913B1AFF336
:1024B000008001E0FFF769FD012010BD127800F1F6
:1024C00024010A7000224A700122EDE711684FF0E2
:1024D000FF32E9E7074B70B50D467B4400F037F853
:1024E0000446284600F046F810B14FF0FF3070BDAA
:1024F000204670BD1F2300004FF000020429C0F0E9
:10250000128010F0030C3FF4CBAECCF1040CBCF104
:10251000020F18BF00F8012BA8BF20F8022BA1EB77
:102520000C01FFF7BDBE5FEAC17C24BF00F8012BA0
:1025300000F8012B48BF00F8012B70470048704796
:10254000E01A002001694A1C02610878704700B552
:102550008FB0CDE901310021059105497944CDE9DC
:10256000031011466846FFF7A1FD0FB000BD000043
:10257000E5FFFFFF007B00F08000704700487047D8
:10258000E01A00207546FFF7F9FFAE4605006946E0
:10259000534620F00700854618B020B5FDF790FEA1
:1025A000BDE820404FF000064FF000074FF0000854
:1025B0004FF0000B21F00701AC46ACE8C009ACE8D5
:1025C000C009ACE8C009ACE8C0098D46704710B539
:1025D0000446AFF300802046BDE81040FDF75EBE24
:1025E0002DE9F05F81468B46D9E9005601240EE0C3
:1025F00009EBC4002A463346D0E90071384605F09D
:1026000045FC03D209EBC40060C8A246641C5C45CB
:10261000EEDB022C01DD022402E0002C00DA0024B3
:102620005046BDE8F09F000010B5044803F09AFE44
:102630000349086001200349086010BD080E00200E
:10264000280000201404014010B501220021084692
:1026500000F008F8022306220321184600F06AFC65
:1026600010BD000070B504460B46CE1701EB967600
:10267000C6F38700CE1701EB9676B610A1EB86065F
:10268000B606350E1C4B9B6943F001031A4EB3612D
:102690004FEAB63353F820300F26AE40B343174EFF
:1026A00046F82030334653F8203004FA05F61E432E
:1026B000124B43F82060124B1B6801268E403343B7
:1026C0000F4E336002F0010343B10D4B0C331B6816
:1026D00001268E4033430A4E0C36336002F002036B
:1026E00043B1074B08331E6801238B401E43044B44
:1026F00008331E6070BD0000001002400800014059
:10270000000401402DE9F04F89B005460E46914680
:102710009A46002400E0641C55F82400494605F060
:10272000BFFFF8D355F82400514606F0B9F8F2D3AC
:10273000B44202DC55F8247000E01E4F641C00E037
:10274000641C55F82400494605F0AAFFF8D355F853
:102750002400514606F0A4F8F2D3B44202DC55F846
:10276000248001E0DFF84C80404605F0A1FD4FF0E9
:102770003332114BCDE9000105F08AFACDE90401AD
:10278000384605F095FD4FF066320C4BCDE900015F
:1027900005F07EFACDE90201DDE9042305F010F829
:1027A000CDE9060104F0DAFF8346584609B0BDE8DA
:1027B000F08F0000000080BF3333D33F6666E63FF2
:1027C0002DE9F04788B08246894600200546064636
:1027D00000210F46884600240CE05AF8240005F03A
:1027E00067FD2A463346CDE9060104F0E9FF0546B8
:1027F0000E46641C4C45F0DBA9F1010005F0F4F92C
:1028000002460B46CDE906012846314605F094F80C
:1028100005460E46002424E05AF8240005F048FD41
:102820002A463346CDE9000105F058FCCDE9040104
:102830005AF8240005F03CFD2A463346CDE9000154
:1028400005F04CFCCDE90201DDE9042305F020FA96
:102850003A464346CDE9060104F0B2FF07468846F2
:10286000641C4C45D8DB09F1010005F0BDF90246B6
:102870000B46CDE906013846414605F05DF80746AE
:1028800088463846414608B0BDE8F087014649060B
:10289000084A926942F00102064B9A61064A526860
:1028A00022F0E062044B5A601A4652680A435A60AA
:1028B0007047000000100240000001401848806985
:1028C00040F00800164988610846806940F04000E1
:1028D00088611448006820F47000124908600846B6
:1028E000006840F4401008600E480C30006840F06A
:1028F00020000C490C3108600B48006820F470007F
:10290000094908600846006840F44010086006481D
:102910000C30006840F0200003490C31086070471B
:1029200000100240000C0140001801402DE9F84F52
:102930006B4602224121682000F0F1F99DF8010068
:102940009DF8001040EA01200FFA80FA504605F089
:102950004BF9804600220B4B04F0EEFF06460A4A74
:102960000A4B04F02DFF044604F0F8FE83460849A4
:10297000584605F0C9FE044605F02AFE00B2BDE83F
:10298000F88F000000407540A4703D0AD7434240D4
:102990000000C84210B500200E4908600E480068CB
:1029A00020F470400C4908600846006840F440502C
:1029B000086000200949C1F8AC0100F011F80120BD
:1029C0000449086000F00CF800200449C1F8A8018F
:1029D00010BD0000A8812142040C0140008021426A
:1029E00010B5022001F040F810BD00000C488069CD
:1029F00040F008000A4988610A48006820F47F40D6
:102A0000084908600846006840F44C5008600548D2
:102A10000830006840F4406002490831086070479F
:102A200000100240040C014010B500200E4908605F
:102A30000E48006820F470400C49086008460068A1
:102A400040F44050086001200949C1F8AC01FFF78B
:102A5000C7FF012004490860FFF7C2FF00200449B6
:102A6000C1F8A80110BD0000A8812142040C01405A
:102A70000080214270B5054600241648006820F405
:102A80007040144908600846006840F4004008603F
:102A9000002614E0002010490860FFF7A1FF012084
:102AA0000E49C1F8A8016006040E0B487C38006886
:102AB00008B1601CC4B2FFF793FF701CC6B2082EA9
:102AC000E8DB15B9FFF7B0FF01E0FFF763FF204631
:102AD00070BD0000040C0140A88121420080214209
:102AE00070B504461248006820F470401049086030
:102AF0000846006840F44050086000200D49086016
:102B0000002512E0E0090B49091D08606006040E6B
:102B100001200949C1F8A801FFF762FF002005491B
:102B20000860FFF75DFF681CC5B2082DEADB70BDC9
:102B3000040C0140A88121420080214210B50E48BA
:102B4000006820F470400C4908600846006840F4B2
:102B5000405008600120094908600949C1F8A801EE
:102B6000FFF73EFF002005490860FFF739FF00200E
:102B70000349C1F8A80110BD040C0140AC812142F9
:102B80000080214210B50E48006820F470400C49C6
:102B900008600846006840F4405008600020094979
:102BA00008600949C1F8AC01FFF71AFF0120054987
:102BB00008600549C1F8AC01FFF712FF10BD000025
:102BC000040C0140A88121420080214210B500245C
:102BD0001448006820F470401249086008460068F4
:102BE00040F40040086001200F490860FFF7F8FE3C
:102BF00001200E49C1F8A801FFF7F2FE07E0601CB2
:102C0000C4B2FA2C03DDFFF7BDFF012010BD06485A
:102C1000803800680028F2D10349091F086000BF0E
:102C2000F4E70000040C0140AC8121420080214205
:102C300010B52948806940F0040027498861274879
:102C4000006820F07040254908600846006840F0A0
:102C5000405008600120FFF719FE0020204908605D
:102C6000FFF7C4FE80216B2000F0DDF8642000F047
:102C7000DDFE00216B2000F0D6F8032000F091F873
:102C8000002000F086F8322000F0B0F80021382053
:102C900000F0C9F800216A2000F0C5F800212320C7
:102CA00000F0C1F88021372000F0BDF8752000F059
:102CB00019F80446682C0BD101216B2000F0B3F801
:102CC00000216C2000F0AFF8322000F08FF801E016
:102CD000012010BD0020FCE7001002400408014064
:102CE000BC01214270B50446FFF728FFD020FFF752
:102CF000F7FEFFF76BFF2046FFF7F2FEFFF766FFD8
:102D0000FFF71CFFD120FFF7EBFEFFF75FFF00206E
:102D1000FFF7B0FE0546FFF735FF284670BD2DE9E9
:102D2000F04106460F4614461D46FFF707FF0021F7
:102D300041EA4601C8B2FFF7D3FEFFF747FF20B1D3
:102D4000FFF720FF0120BDE8F0813846FFF7C8FEFD
:102D5000FFF73CFFFFF7F2FE012101EB4601C8B28D
:102D6000FFF7BEFEFFF732FF0DE0012C04D100207B
:102D7000FFF780FE287003E00120FFF77BFE28703C
:102D8000601EC4B26D1C002CEFD1FFF7FBFE0020CB
:102D9000D9E710B50446E006010E1C2000F043F808
:102DA00010BD10B50446E006010E1B2000F03BF8F4
:102DB00010BD70B504460025BC2C01DB012510E0D8
:102DC000622C01DB02250CE02A2C01DB032508E044
:102DD000142C01DB042504E00A2C01DB052500E0AE
:102DE000062529461A2000F01EF870BD70B504466D
:102DF000B4F57A7F01DD4FF47A74042C00DA0424F0
:102E00004FF47A7090FBF4F0401EC5B229461920A9
:102E100000F009F80546264604EBD671C1F34F00D1
:102E2000FFF7C7FF70BD70B505460C46FFF786FE7D
:102E3000D020FFF755FEFFF7C9FE18B1FFF7A2FE3D
:102E4000012070BD2846FFF74BFEFFF7BFFE20466E
:102E5000FFF746FEFFF7BAFE18B1FFF793FE012019
:102E6000EFE7FFF78FFE0020EBE72DE9F041054685
:102E70000E4617469846FFF761FE002141EA4501DC
:102E8000C8B2FFF72DFEFFF7A1FE20B1FFF77AFED3
:102E90000120BDE8F0813046FFF722FEFFF796FEE5
:102EA00000240CE018F80400FFF71AFEFFF78EFE6E
:102EB00018B1FFF767FE0120EBE7601CC4B2BC420B
:102EC000F0DBFFF75FFE0020E3E7000000B5002025
:102ED00015490861C8601420486100208861C861F4
:102EE0000846006840F001000860084640680F4945
:102EF00008400D494860084600680D4908400A49E5
:102F000008600846006820F4802008600846406891
:102F100020F4FE0048600020886000214FF000602F
:102F200000F058F800BD0000001002400000FFF85B
:102F3000FFFFF6FE2DE9F0410746884614461D4680
:102F4000284600F033F8C5F1040007FA00F60F2018
:102F5000284100EA0800064306F00F06E21704EBDA
:102F6000D2625211920002F1E022D2F800212146F1
:102F7000E31704EBD3635B11A4EB431C012303FAB7
:102F80000CF31A432046E31704EBD3635B119B0059
:102F900003F1E023C3F800210348005D40EA061076
:102FA00001490855BDE8F08100E400E0014607232F
:102FB00023EA01021202054B18684FF6FF0318407E
:102FC000034B18431043014B186070470CED00E0B1
:102FD0000000FA05024A0A400243024B1A60704799
:102FE00080FFFF1F08ED00E030B504460025FFF725
:102FF0006DFF1F48006840F480301D49086000BF25
:103000001B480068400C0028FAD04FF48060184933
:103010004860A01EC4B20846406840EA8440486048
:103020000846406840F4803048601248006840F02C
:103030003200104908600E48006840F080700C496A
:10304000086000BF0A480068400E0028FAD008480F
:10305000406840F002000649486005E004484068C6
:10306000C0F3870505F00305022DF7D130BD000040
:10307000001002400020024010B50C48008800F00B
:10308000010058B10A4908698047002007491431F6
:1030900008804FF47A7005491C3108800348008885
:1030A00020F001000149088010BD00001008004018
:1030B000C400002070B505460C461048C06940F0B9
:1030C00004000E49C8610E480580001F04800C48AA
:1030D0002038008840F0010009492039088008485C
:1030E0002C38008840F0010005492C390880022363
:1030F0001E2203210846FFF71DFF70BD001002408D
:103100002C0800401D49098801F0200111B31B491A
:10311000091D0988C8B21A49098801F40041C9B9D2
:103120001749098801F4804161B10A2803D00021C0
:10313000134A118020E01249098841F40041104AE5
:10314000118019E00D2806D10D49098841F480410C
:103150000B4A118010E00A490988C1F30D01094AA0
:10316000505407490988491C054A118011460988AD
:10317000C72901DD0021118070470000003801409F
:103180006C000020181A0020490050EAC12018BF26
:1031900004204A0D18BF40F0010040F2FF72B2EB6C
:1031A000515F08BF40F00200012808BF05207047AA
:1031B0002DE9F0414F1E00EBC7010446D1E90001A3
:1031C00015461E4637F006020DD02A46334604F057
:1031D0005FFD7F1E04EBC703D3E9002304F0F0FA80
:1031E00037F00602F1D1022F25D0042F13D0062F7D
:1031F00018BFBDE8F0812A46334604F049FDD4E902
:103200000A2304F0DDFA2A46334604F041FDD4E9EE
:10321000082304F0D5FA2A46334604F039FDD4E9F0
:10322000062304F0CDFA2A46334604F031FDD4E9F2
:10323000042304F0C5FA2A46334604F029FDD4E9F4
:10324000022304F0BDFA2A46334604F021FDD4E9F6
:103250000023BDE8F04104F0B3BA012205F08BBCB5
:1032600004F0AEBA002213461046114604F064BBC7
:10327000024A0020110705F07EBC000001FDFFFF9F
:1032800030380A2801D201207047002070470146DB
:1032900000BF70472DE9FE4F074688460026684666
:1032A00001F048FB002444E057F8240058F82410AB
:1032B000A0EB010ABAF1000F01DB514601E0CAF1AF
:1032C0000001084605F0C0F983464FF08F4105F034
:1032D00089F881465DF82400002105F045F918D0F1
:1032E0005DF82410484605F07DF882464FF07E5187
:1032F00005F09AFB054600BF25F0004082460F48C6
:10330000416A504605F0CCFA12D20120A040064393
:103310000EE00A48C169484605F0C2F905D30748DE
:10332000016A484605F0BCFA02D20120A0400643DB
:10333000641C032CB8DB3046BDE8FE8F7C8C000893
:1033400070B504460D4608480378084802782146BF
:103350000748FEF7EDF80748294602682046FCF7C3
:10336000BDFF012070BD00001C00002018000020DF
:103370009C980008140000202DE9F04D8D4F21F09D
:10338000004A86B005460C46BA452ADBAAEB070080
:1033900028430AD08848824501DC1AD1CDB106B055
:1033A0002846BDE8F04DFFF758BF844A844B2846B5
:1033B00004F06EFC07460E46824A834B284621469F
:1033C00004F066FC06B03A463346BDE8F04D04F022
:1033D000F7B90120FFF709F806B0BDE8F04DFFF797
:1033E00041BF7A48824542DABAF1795F0BDA284662
:1033F000FFF7CAFE042808BFFFF73AFF284606B0C9
:103400002146BDE8F08D2A460B46104604F040FCEC
:10341000834602466E480E460B4606217844FFF767
:10342000C7FE5A46334604F033FC804669488A4654
:103430005A46334604217844FFF7BAFE5A463346CB
:1034400004F026FC00223B4604F0BAF902460B4683
:103450004046514604F070FA2A46234604F018FC10
:1034600006B02A462346BDE8F04D04F0A9B9284627
:1034700024F0004100223D463B4604F03DFD4FF064
:10348000FF3205F078FB0646024653480F460B46CE
:1034900006217844FFF78CFE32463B4604F0F8FBE9
:1034A000CDE900014D4832463B4604217844FFF700
:1034B0007FFE32463B4604F0EBFB00222B4604F035
:1034C0007FF9834602913046394603F065F880461D
:1034D00043480D46504517DCDDE900015A46029B82
:1034E00004F02AFA42462B4604F0D2FB42462B4611
:1034F00004F066F9012205F03EFB304A304B04F03F
:10350000EDFD304A304B4CE04FF0000A52460B467E
:10351000404604F055F9CDE9031052462B461046BB
:10352000194604F0B5FB32463B4604F0E5FCDDE904
:10353000033204F001FA06460F46DDE900015A465F
:10354000029B04F0F9F98346009101223046394686
:1035500005F011FB194A1A4B04F0CEFC06460F4643
:1035600001224046294605F006FB5A46009B04F01E
:103570008FFB32463B4604F0B1FD06460F46012262
:103580005046294605F0F7FA0E4DDFF858802A46D6
:10359000434604F0B1FC32463B4604F0ADFC2A46FB
:1035A000434604F0A9FC002CD8BF81F0004106B0CE
:1035B000BDE8F08D0000F03F0000F07F075C1433A1
:1035C00026A6913C182D4454FB21F93F0000E03F12
:1035D000387000004E700000C26F0000D86F00000D
:1035E0003333EF3FFB21E93F2DE9F84F04460D4609
:1035F00021F0004000917349814211DC72498842F8
:1036000001DC06D12CB120462946BDE8F84FFFF772
:1036100024BE6E48002DCCBF6D496E49BDE8F88FC1
:103620006D49814211DD6D498142D8BF4FF0FF36AF
:103630006DDD20462946FFF7A7FD042808BFFFF7E8
:1036400017FE20462946BDE8F88F6549654F25F0ED
:103650000045814233DD6449814219DD002632464E
:103660004FF080432046294604F0AAF880468A4657
:1036700001222046294605F07EFA00223B4604F04E
:103680002DFD4246534604F057F904460D463EE0F0
:1036900001260022BA463B462046294604F090F80F
:1036A00080460F46002253462046294604F016FD68
:1036B00042463B4604F040F904460D4627E04B499C
:1036C00081421BDDDFF828A1022600225346204656
:1036D000294604F0DDFA00223B4604F071F88046EA
:1036E0000F46002253462046294604F0F7FC424686
:1036F0003B4604F021F904460D4608E00326224625
:103700002B4600203B4904F017F904460D4622469B
:103710002B461046194604F0BBFA8B4682460246F9
:103720000B4604F0B5FA07460246334888460B4676
:1037300006217844FFF73CFD52465B4604F0A8FAA8
:1037400082462E488B463A46434605217844FFF789
:103750002FFD3A46434604F09BFA02460B46002EE4
:10376000504659460CDA04F02BF822462B4604F05A
:103770008FFA01B022462B46BDE8F04F04F0BCBBE7
:1037800004F01EF822462B4604F082FA1C4A7A44C2
:1037900002EBC603D3E9002304F0A0FC22462B462B
:1037A00004F09CFC174A7A4402EBC603D3E90023D9
:1037B00004F0A2FB009A002AB8BF81F00041BDE8E6
:1037C000F88F0000000010440000F07F182D4454D2
:1037D000FB21F93FFB21F9BF0000DC3F0000203E48
:1037E0000000F33F0000F03F0000E63F0080034090
:1037F0000000F83F0000F0BFDA6D0000986D000097
:10380000366D0000FE6C00002DE9F04D9446CCF1C1
:10381000000423F000464CEA0404524F46EAD474F4
:103820009A46884621F00042BC4206D8454240EA0A
:10383000050442EAD474BC4204D9BDE8F04D6246A6
:10384000FFF70EBDAAF14055A5F17F6555EA0C04BE
:103850000BD0022404EAAA74434DDFF810E144EAD5
:10386000D87452EA000B04D00CE0BDE8F04DFFF72D
:10387000BBBE002C14BF012CBDE8F08D022C30D053
:10388000032C32D056EA0C0B0AD0BE4220D1BA42E9
:1038900009D126F0804622F080423346114617E0D7
:1038A00000291ADB25E0DFF8C8B0FB44002C04BF78
:1038B000DBE90001BDE8F08D012C02BFDBE900016E
:1038C00081F00041BDE8F08D022C0AD0032C0CD011
:1038D000BA4212D1B8F1000F0BDA23482549BDE8EE
:1038E000F08D28462449BDE8F08D28467146BDE894
:1038F000F08D1D482149BDE8F08D921B12153C2A20
:10390000C4BF19481D490EDCBAF1000FBEBF12F149
:103910003C0F0020014606DB624604F00DF821F062
:103920000041FFF761FE002C08BFBDE8F08D012CBF
:1039300004BF81F00041BDE8F08D114A114B022C0B
:1039400007D004F0CBFB2A46BDE8F04D0A4B04F04B
:10395000C5BB04F0C3FB2A46BDE8F04D064B04F09E
:10396000CBBA00000000F07F182D4454FB2109C0A1
:10397000926C0000FB21F9BFFB210940FB21F93FBC
:10398000075C143326A6A13C2DE9F0410446E078FB
:1039900000F0C006E07800F03F05607800F001001C
:1039A00098B1EF102846E91705EB5171C910A5EB46
:1039B000C101491C01F0FF080B48006820B10A480A
:1039C000414602683846904700BF607800F0080022
:1039D00030B10548406818B1B011034A51688847B2
:1039E0000020BDE8F0810000081A00204FF0E0211F
:1039F000096921F004014FF0E0221161C21700EBC8
:103A00005272C2F3C702074B1A701946097801EBCC
:103A10004102C2EBC1114FF6FF7202EAC101024A34
:103A200011807047620000206400002001460D4AAA
:103A300012884A434FF0E0235A6100229A61012222
:103A40001A6100BF4FF0E022106900F001021AB1C4
:103A500000F48032002AF5D000224FF0E0231A61F2
:103A60009A6170476400002001460D4A12784A436B
:103A70004FF0E0235A6100229A6101221A6100BFCF
:103A80004FF0E022106900F001021AB100F4803218
:103A9000002AF5D000224FF0E0231A619A617047A6
:103AA000620000202DE9F04F97B081468A4600243D
:103AB00000200546064600210F46884614911591C0
:103AC0001291139100BF00BF00BF00BF00BF36E0DE
:103AD000204604F089F82A463346CDE9080103F070
:103AE0006FFE05460E4659F8240004F0E1FB3A4605
:103AF0004346CDE9080103F063FE074688462046A9
:103B000004F0A2FD079059F8241004F0FDFD83464F
:103B100004F0CEFBCDE90801DDE9142303F050FEEB
:103B2000CDE9140104FB04F004F05EF8CDE90801CE
:103B3000DDE9122303F044FECDE91201641C544573
:103B4000C6DB2A4633462846314604F0A1F8CDE9C3
:103B50000401504604F048F8CDE90001DDE91223E4
:103B600004F096F8CDE90201DDE9042304F0B6FA89
:103B70003A464346CDE908012846314604F088F824
:103B8000CDE90401504604F02FF8CDE90001DDE94C
:103B9000142304F07DF8CDE90201DDE9042304F0EB
:103BA0009DFACDE90601DDE9082303F0C5FECDE964
:103BB0000C01504604F018F802460B46CDE9080106
:103BC0002846314603F0B8FECDE91001504604F016
:103BD0000BF802460B46CDE908013846414603F092
:103BE000ABFECDE90E01DDE91023DDE90C0104F0A7
:103BF0004FF8CDE90801DDE90E2304F07DF9CDE9A8
:103C00000A0100241AE0204603F0EEFFCDE904018A
:103C1000DDE90C2304F03CF8CDE90601DDE90A23D7
:103C200003F0CEFDCDE9080103F098FD834659F875
:103C3000241004F066FE49F82400641C5445E2DBBD
:103C400017B0BDE8F08F38B5044664B120208DF878
:103C5000000028208DF8010030208DF80200382067
:103C60008DF8030004E0A32204216846FEF70EFB52
:103C70006A46042140F69E2002F030FB01F01AFF54
:103C800038BD00003EB5044602208DF80000CA2071
:103C90008DF80100E3208DF8020009208DF8030063
:103CA0006A460421682002F019FBA3208DF8000069
:103CB00004F0400048B1C0208DF80100C8208DF804
:103CC0000200C2208DF8030006E0A3208DF8010059
:103CD0008DF802008DF8030004F4C07048B1C420D0
:103CE0008DF80400CC208DF80500C6208DF8060064
:103CF00006E0A3208DF804008DF805008DF806007D
:103D0000A3208DF807008DF808008DF809006A4699
:103D10000A2140F6A72002F0E1FA04F0030018B1EE
:103D200020208DF8000002E0D8208DF800006A46BF
:103D3000012140F6B62002F0D1FA04F0200018B1BB
:103D4000012000F0ADF802E0002000F0A9F804F432
:103D5000C07008B304F4807060B1B2208DF8000028
:103D60008B208DF80100B6208DF802009B208DF885
:103D700003000BE0B0208DF8000080208DF80100DA
:103D8000B4208DF8020090208DF803006A460421CB
:103D900040F6A22002F0A2FA04F0010020B3F820BD
:103DA0008DF800006A4601214FF40B6002F096FA8C
:103DB000FA21072000F02CFC072000F0F3FB012083
:103DC00000F013FC642000F0F3FC4FF4FA7000F0F4
:103DD00002FDC821304800F0A3FB282000F0BCFB06
:103DE0000A2000F0CCFB08E0D8208DF800006A46DD
:103DF00001214FF40B6002F071FA04F0020018B1D7
:103E0000D9208DF8000002E0D8208DF800006A4625
:103E1000012140F23D7002F061FA04F0040018B193
:103E2000012000F069F802E0002000F065F804F0DD
:103E3000100018B10120FFF706FF02E00020FFF795
:103E400002FF44F008001549488101F033FE0020CC
:103E50001249887304F0400018B10846807B801D29
:103E6000887304F4C07020B10C48807B801D0B491E
:103E7000887304F0140020B10848807B1030074993
:103E8000887304F0030020B10448807B001D0349BF
:103E9000887300203EBD000009E3CA02081A002012
:103EA0003EB504466CB10EA1D1E900208968CDE988
:103EB000002002916A4609214FF4976002F00EFA41
:103EC0003EBD0AA2D2E900109268CDE9010200913C
:103ED0006A4609214FF4976002F000FAF0E700000B
:103EE000B8AAB38DB4980D355D000000B8AAAAAA8F
:103EF000B088C3C5C700000038B5044664B1C0200F
:103F00008DF80000C2208DF80100C4208DF8020059
:103F1000C6208DF8030004E08B2204216846FEF7DA
:103F2000B5F96A46042140F6982002F0D7F901F06D
:103F3000C1FD38BD10B5C8234FF48062024940F678
:103F4000F63001F0F9FB10BDA48C00082DE9F04F0C
:103F50008DB00746884615469946DDE9166B002464
:103F6000002030806B49887B5A4605A901F002FD8C
:103F700018B1601E0DB0BDE8F08F6648807A00F081
:103F80001400002867D09DF8140000069DF8151055
:103F900040EA01409DF8161040EA01209DF81710F4
:103FA000084328609DF8180000069DF8191040EAA3
:103FB00001409DF81A1040EA01209DF81B100843AB
:103FC00068609DF81C0000069DF81D1040EA014045
:103FD0009DF81E1040EA01209DF81F100843A860BC
:103FE0009DF8200000069DF8211040EA01409DF850
:103FF000221040EA01209DF823100843E86004F1F4
:104000001000C4B22868001401906868001402907F
:10401000A86800140390E8680014049001984043D5
:10402000029901FB0100039901FB0100049901FBC6
:10403000010ABAF1706F02DBBAF1885F05DD01F0A9
:1040400039FD00203080401E94E7B6F9000040F4AE
:104050008070308000BF2F48807A00F0400020B38D
:1040600005A9601C085C095D40EA012000B2A8F8BF
:10407000000005A9E01C095C05AAA01C105C41EA2F
:10408000002000B2A8F8020005A9601D095C201DEF
:10409000105C41EA002000B2A8F80400A01DC4B2E0
:1040A000B6F9000040F0080030801A48408900F45A
:1040B000C07008B305A9601C085C095D40EA0120D6
:1040C00000B2388005A9E01C095C05AAA01C105CA0
:1040D00041EA002000B2788005A9601D095C201D1E
:1040E000105C41EA002000B2B880A01DC4B2B6F94D
:1040F000000040F0700030800648807A00F0030035
:1041000018B105A90819FFF73FFC484600F0A6FFC3
:1041100000202FE7081A002070B588B0064601A8D5
:1041200001F05EF9BDF804000021C90341EA5045E1
:10413000C4034448007A00F0030056F820000590BC
:104140004048007A00F0040010B105984042059004
:104150003C48007AC0F3C10056F820000690394868
:10416000007A00F0200010B10698404206903548D1
:10417000007AC0F3811056F820000790314800897A
:1041800000F4807010B10798404207900598C1175D
:10419000A0FB042301FB043100FB0510810041EA70
:1041A000927005900698C117A0FB042301FB04310F
:1041B00000FB0510810041EA927006900798C11734
:1041C000A0FB042301FB043100FB0510810041EA40
:1041D000927007900598000E8DF808000598000C65
:1041E0008DF809000598000A8DF80A000598C0B2FC
:1041F0008DF80B000698000E8DF80C000698000C48
:104200008DF80D000698000A8DF80E000698C0B2D1
:104210008DF80F000798000E8DF810000798000C1D
:104220008DF811000798000A8DF812000798C0B2A7
:104230008DF8130002AA0C214FF4257002F04EF8FD
:1042400008B070BD081A002030B585B0044616A22B
:1042500007CA02AB07C3C82C03DD4FF0FF3005B01F
:1042600030BDC82090FBF4F0401E85B2280A8DF8BE
:104270000000E8B28DF801006A46022140F21620E3
:1042800002F02CF810B14FF0FF30E8E702AA0C2141
:1042900040F6C12002F022F810B14FF0FF30DEE707
:1042A000044884810020DAE7FEF2ABC4AAF1DFDF24
:1042B000BBAFDFDF081A00201FB504464848007A6C
:1042C00000F0030054F8200001904548007A00F007
:1042D000040010B10198404201904148007AC0F3B7
:1042E000C10054F8200002903D48007A00F0200000
:1042F00010B10298404202903948007AC0F3811010
:1043000054F8200003903648008900F4807010B102
:104310000398404203903349019880FB0101800FCC
:1043200040EA810001902F49029880FB0110820031
:1043300042EA917002902B49039880FB01108200A1
:1043400042EA917003900198000E8DF800000198E8
:10435000000C8DF801000198000A8DF80200019808
:10436000C0B28DF803006A4604214FF4747001F066
:10437000B5FF18B14FF0FF3004B010BD0298000E29
:104380008DF800000298000C8DF801000298000AD8
:104390008DF802000298C0B28DF803006A4604212D
:1043A0004FF4757001F09AFF10B14FF0FF30E3E762
:1043B0000398000E8DF800000398000C8DF80100A2
:1043C0000398000A8DF802000398C0B28DF803002C
:1043D0006A4604214FF4767001F080FFCCE70000BC
:1043E000081A002009E3CA0210B586B0044647A0A7
:1043F0000068039046A00068029046A00068019003
:1044000045A00068009004F0030003A9085C8DF843
:10441000140003A8C4F3C101405C8DF8150003A883
:10442000C4F38111405C8DF8160004F0030002A96A
:10443000085C8DF8100002A8C4F3C101405C8DF83F
:10444000110002A8C4F38111405C8DF8120005AA86
:10445000032140F2264001F041FF18B14FF0FF3038
:1044600006B010BD04AA032140F22A4001F036FF35
:1044700010B14FF0FF30F3E70198059000980490D9
:1044800004F0040058B19DF8140040F001008DF8CC
:1044900014009DF8100040F001008DF8100004F0A9
:1044A000200058B19DF8150040F001008DF815006E
:1044B0009DF8110040F001008DF8110004F48070A7
:1044C00058B19DF8160040F001008DF816009DF8D7
:1044D000120040F001008DF8120005AA03214FF4EC
:1044E000886001F0FBFE10B14FF0FF30B8E704AA7E
:1044F000032140F2314001F0F1FE10B14FF0FF30E6
:10450000AEE7064804810020AAE700004CCD6C000D
:104510000CC92C003656760026466600081A002084
:10452000F8B505460E464FF47A7095FBF0F000FBA7
:1045300006F4200E8DF80000200C8DF80100200AF2
:104540008DF80200E0B28DF803006A4604214FF4B2
:10455000AE7001F0C3FEF8BD38B50446052094FBEB
:10456000F0F084B220128DF80000E0B28DF8010066
:104570006A4602214FF4AD7001F0B0FE38BD38B587
:104580000446052094FBF0F084B220128DF8000060
:10459000E0B28DF801006A4602214FF4AC7001F0E0
:1045A0009DFE38BD38B504460020009004F001009F
:1045B00020B19DF8000040F03000009004F00200AF
:1045C00020B19DF8000040F00C00009004F00400C1
:1045D00020B19DF8000040F0030000906A460121E0
:1045E0004FF4A47001F07AFE38BD38B50446012CB2
:1045F00001DA012402E0042C00DD0424601EC0B2B4
:1046000000906A46012140F24F1001F067FE38BD6C
:104610002DE9FC4706460F4606F0070010B1B7F536
:10462000C86F03DD4FF0FF30BDE8FC87384604F06B
:1046300023F88146594903F0D5FE8046684600F0CC
:10464000A9FE9DF80000022806D0042816D00828EC
:1046500026D0102848D135E04FF08D41404604F077
:1046600053F8814603F0D0FF84B24D49404604F030
:104670004BF8814603F0C8FF85B238E04FF08C411B
:10468000404604F041F8814603F0BEFF84B245493C
:10469000404604F039F8814603F0B6FF85B226E0C3
:1046A0004FF08B41404604F02FF8814603F0ACFFF9
:1046B00084B23D49404604F027F8814603F0A4FF48
:1046C00085B214E04FF08A41404604F01DF881465F
:1046D00003F09AFF84B23549404604F015F881464C
:1046E00003F092FF85B202E04FF0FF309CE700BF7D
:1046F00020128DF80400E0B28DF8050028128DF824
:104700000600E8B28DF8070006F00100A0B101AA8A
:1047100002214FF4EA7001F0E1FD10B14FF0FF30DB
:1047200082E70DF1060202214FF4927001F0D6FDEE
:1047300010B14FF0FF3077E706F00200A0B101AAF8
:1047400002214FF4EC7001F0C9FD10B14FF0FF30C1
:104750006AE70DF1060202214FF4947001F0BEFDEC
:1047600010B14FF0FF305FE706F00400A0B101AADE
:1047700002214FF4EE7001F0B1FD10B14FF0FF30A7
:1047800052E70DF1060202214FF4967001F0A6FDEA
:1047900010B14FF0FF3047E7002045E700004843E5
:1047A000000040460000C045000040450000C044F5
:1047B00038B50446052094FBF0F085B228128DF838
:1047C0000000E8B28DF801006A4602214FF4EF7054
:1047D00001F084FD38BD38B50446052094FBF0F0A7
:1047E00085B228128DF80000E8B28DF801006A4603
:1047F00002214FF4ED7001F071FD38BD00BF054A94
:10480000128802F04002002AF9D0C2B2014B1B1DEF
:104810001A807047003801402DE9FE4F81460D4651
:1048200016469A46DDF830B0701E03F00DFF0746BD
:104830005146584604F0F8F88046394603F0D2FD58
:10484000029000241DE059F8240003F0FDFE80468C
:10485000029903F059FF0746514603F055FD45F80C
:10486000240055F8240003F023FD0022074BCDE976
:10487000000103F00DFA074602F070FF45F824002E
:10488000641CB442DFDB0120BDE8FE8F00004E4017
:104890002DE9FF4706460F4601254FF4807AB046C2
:1048A000B9460E4B0E4A142101A80095FCF7AFF94A
:1048B00000240CE004FB05F009EB800204FB05F08A
:1048C00008EB80012B4601A8FBF730FD641C544522
:1048D000F0D3012004B0BDE8F0870000B80100204B
:1048E000048C00082DE9F84F05460E4617469846F9
:1048F000DDF828B0781E03F0A7FE4FF0814100904C
:1049000003F070FD81464146484603F0FDFE0090ED
:1049100003F05EFE8246002406E00AEB040055F830
:10492000200046F82400641C452CF6DB0120BDE87D
:10493000F88F00007CB5054628494968087801AB26
:1049400004220D21FEF7EBF908B107207CBD9DF88C
:104950000700C0F301109DF8041001F0E00140EAE7
:10496000E1008DF800009DF80700C0F381009DF87C
:10497000051001F0E00140EAE1008DF801009DF82A
:10498000070000F003009DF8061001F0E00140EA86
:10499000E1008DF8020000241CE01DF8040018B9A5
:1049A000002045F8240013E00D4845F8240006E0F7
:1049B00055F824000B4903F0A7FE45F824001DF824
:1049C0000400401EC0B20DF804000028F0D100BF62
:1049D000601CC4B2032CE0DB0020B7E72C000020F1
:1049E0007B14AE3E1D5A843F2DE9F04F87B005463B
:1049F0000C46914601208DF8100000208DF8110022
:104A0000FE4A1268917CFD4A5268107804AB02227B
:104A1000FEF72BFA20B14FF0FF3007B0BDE8F08F62
:104A2000C820FFF703F800208DF81000F34A126841
:104A3000D17BF24A5268107804AB0122FEF715FAD6
:104A400010B14FF0FF30E8E7EC4A12685179EB4AB9
:104A50005268107804AB0122FEF707FA10B14FF04C
:104A6000FF30DAE7E54A1268917CE44A5268107830
:104A700004AB0122FEF7F9F910B14FF0FF30CCE79B
:104A8000DE4A1268D17DDD4A5268107804AB0122FB
:104A9000FEF7EBF910B14FF0FF30BEE7D74A1268CE
:104AA0001179D64A5268107804AB0122FEF7DDF97D
:104AB00010B14FF0FF30B0E70C208DF81000CF4A56
:104AC00012681179CD4A5268107804AB0122FEF7C2
:104AD000CCF910B14FF0FF309FE70F20FEF7A6FF93
:104AE000C648806A407A8DF81000C44A12689178EE
:104AF000C24A5268107804AB0122FEF7B6F910B131
:104B00004FF0FF3089E7BD48806A007A8DF81000C9
:104B1000BA4A12685178B94A5268107804AB012237
:104B2000FEF7A3F910B14FF0FF3076E7B9F1000FAF
:104B300007D0B248806A807A40F0E0008DF810001B
:104B400004E0AE48806A807A8DF81000AB4A1268A3
:104B50009179AA4A5268107804AB0122FEF785F9D0
:104B600010B14FF0FF3058E7B9F1000F07D0A3485C
:104B7000806AC07A40F0E0008DF8100003E0A048A1
:104B8000C07A8DF810009D4A1268D1799B4A52680C
:104B9000107804AB0122FEF768F910B14FF0FF3036
:104BA0003BE7B9F1000F02D0C820FEF73FFF4020DD
:104BB0008DF81000914A12681179904A5268107865
:104BC00004AB0122FEF751F910B14FF0FF3024E79A
:104BD00078208DF81000894A12685179874A526806
:104BE000107804AB0122FEF740F910B14FF0FF300E
:104BF00013E783498889FEF719FF00208DF810001C
:104C00007E4A126851797D4A5268107804AB0122BD
:104C1000FEF72BF910B14FF0FF30FEE6774A12682D
:104C2000917A764A5268107804AB0222FEF777F840
:104C300010B14FF0FF30F0E69DF811009DF8101014
:104C400040EA012B0C209BFBF0F0C6B20020A860CC
:104C500068602860A06060602060824665E0674A06
:104C60001268D17A654A5268107804AB0C22FEF7BC
:104C700056F810B14FF0FF30CFE69DF811009DF8C7
:104C8000101040EA012000B2ADF808009DF81300B2
:104C90009DF8121040EA012000B2ADF80A009DF81C
:104CA00015009DF8141040EA012000B2ADF80C0088
:104CB000BDF90810206808442060BDF90A1060683A
:104CC00008446060BDF90C10A0680844A0609DF81D
:104CD00017009DF8161040EA012000B2ADF8000060
:104CE0009DF819009DF8181040EA012000B2ADF8B7
:104CF00002009DF81B009DF81A1040EA012000B246
:104D0000ADF80400BDF90010286808442860BDF91A
:104D10000210686808446860BDF90410A868084477
:104D2000A8600AF1010000F0FF0AB24597DB3448A1
:104D3000D0F800C02868C117090441EA10410704EF
:104D4000624600233846FDF7C8F832460023CDE915
:104D50000201FDF7C2F828602948D0F800C0686851
:104D6000C117090441EA104107046246002338468E
:104D7000FDF7B3F832460023CDE90201FDF7ADF8A7
:104D800068601F48D0F800C0A868C117090441EA4C
:104D900010410704624600233846FDF79EF832466C
:104DA0000023CDE90201FDF798F8A8601448D0F877
:104DB00004C02168C817000440EA11480F04624685
:104DC000002338464146FDF788F832460023CDE9F6
:104DD0000201FDF782F820600948D0F804C060683D
:104DE000C117090441EA104107046246002338460E
:104DF000FDF773F83246002304E000002C00002089
:104E00007C8C0008CDE90201FDF767F8606011486D
:104E1000D0F804C0A068C117090441EA1041070492
:104E2000624600233846FDF758F832460023CDE9A4
:104E30000201FDF752F8A060A068002804DDA06818
:104E4000A0F58030A06003E0A06800F58030A0608D
:104E50000020E2E57C8C00082DE9FC5F07468846CF
:104E600000263F494968087801AB03220D21FDF770
:104E700056FF10B10720BDE8FC9F9DF8040000F02C
:104E80001F008DF804009DF8050000F01F008DF84C
:104E900005009DF8060000F01F008DF806000024B4
:104EA00059E057F8240058F82410A0EB010BBBF18F
:104EB000000F01DB594601E0CBF10001084603F089
:104EC000C3FB4FF08F41009003F08CFA824601A89B
:104ED000005D78B32349086803F0CEFB834659464A
:104EE000214803F07FFA814604E02049484603F058
:104EF0000BFC814601A8005D401EC0B201A9085507
:104F00000028F2D14946504603F06CFA83464FF030
:104F10007E5103F089FD054600BF25F00040834621
:104F200010488169584603F0BBFC13D20120A04011
:104F300006430FE0FFE70B480169504603F0B0FB62
:104F400005D308484169504603F0AAFC02D201206B
:104F5000A0400643641C032CA3DB30468BE7000013
:104F60002C0000207C8C000800B04C4554E3853FA9
:104F700010B50446204600F00FF80346E01C00F090
:104F80000BF843EAC00083B2A01D00F005F843EA25
:104F9000801083B2184610BD014691F90020002A06
:104FA00001DD00201EE091F90020002A01DA042032
:104FB00018E091F90120002A01DD012012E091F9A9
:104FC0000120002A01DA05200CE091F90220002AD4
:104FD00001DD022006E091F90220002A01DA062014
:104FE00000E00720704700000020174908601749BB
:104FF000C1F894010920FDF7F7FF4820FEF7F6FC01
:105000001348416848208847FDF758FCFDF710FE1B
:1050100000BF00F06FF90028FBD1FDF715FB11E090
:105020000C4800F055FC0C48006840280AD106489E
:10503000006808B9012000E0002003490860002052
:1050400005490860ECE700009481214200002342FA
:10505000C4000020080E002010000020704700004F
:1050600070B50446002624F00104184890F8240086
:1050700008B1002070BD1548807A10B94FF0FF309C
:10508000F8E71248057C807A2040104908740846E9
:10509000007CA04202D04FF0FF3600E0002614B999
:1050A0000A48007D18B1012001F02EFA02E000202C
:1050B00001F02AFA3CB100F0FDFC20B10348057470
:1050C0004FF0FF30D6E73046D4E700002C00002038
:1050D0002DE9F04F99B004460D4616464FF07E5725
:1050E0004FF000084FF000094FF0000A12A813A972
:1050F00018AB0EAACDE9001014A916A8FEF726FFDA
:1051000018B1012019B0BDE8F08FBDF84C0000F4D3
:10511000807000287ED00E9803F096FA83464FF0F8
:105120009D4103F05FF907460F9803F08DFA83461F
:105130004FF09D4103F056F98046109803F084FA31
:1051400083464FF09D4103F04DF98146119803F0DD
:105150007BFA83464FF09D4103F044F9824639467D
:105160004FF0804003F0D0FA4946059003F0CCFAA6
:10517000414607904FF0404003F0C6FA5146059073
:1051800003F0C2FA0690079903F0BEF8834603F0D5
:105190008FF8CDE90801FEF7EFF84FF06632544B77
:1051A000CDE90A0102F074FDCDE90C0102F0D6FA56
:1051B000206049464FF0804003F0A6FA494602902D
:1051C00003F0A2FA414604904FF0404003F09CFAED
:1051D0004146029003F098FA0390049903F024FCEE
:1051E00083464FF07E5103F08FF8059003F060F88E
:1051F000CDE9080139464FF0804003F085FA414679
:10520000039003F081FA494604904FF0804003F088
:105210007BFA00E068E05146039003F075FA83469C
:10522000049903F071F8059003F042F8CDE9060106
:10523000DDE90823FEF7E8FA4FF066322C4BCDE9A2
:105240000A0102F025FDCDE90C0102F087FA286081
:105250005146504603F058FA49460490484603F038
:1052600053FA41460390404603F04EFA3946019006
:10527000384603F049FA0090019903F045F802908E
:10528000039903F0D1FB8346049903F0CDFB05900D
:1052900003F00EF8CDE908015146384603F034FA20
:1052A00049460490404603F02FFA0390049903F016
:1052B0002BF84FF08041059003F026FA834602F068
:1052C000F7FFCDE90601DDE90823FEF79DFA4FF06F
:1052D0006632074BCDE90A0102F0DAFCCDE90C0198
:1052E00002F03CFA306001E002200BE7002009E701
:1052F00066A64C4070B50024FDF778FB00F024F959
:10530000002840D1782000F081FFC4B20CB1012008
:1053100070BD7820FFF7A4FEC4B20CB10220F7E7FD
:10532000642000F025FFC4B20CB10320F0E7FEF7C3
:1053300001FEC4B20CB10420EAE71548FFF718FEDD
:105340000546FFF751F8C4B20CB10520E0E740F282
:105350007310FEF797FCC4B20CB10620D8E76420A6
:10536000FEF772FFC4B20CB10720D1E701F082F85A
:1053700004460CB10820CBE7012000F0F5FDC4B2D3
:105380001CB10920C4E70A20C2E70020C0E70000E2
:105390005800002001461148407A30B1012807D05A
:1053A000022808D003280CD108E0022008700BE086
:1053B0000420087008E00820087005E0102008703C
:1053C00002E04FF0FF30704700BF0448C07C18B1C6
:1053D00008784006000E08700020F4E72C0000203A
:1053E00001461348407A30B1012808D002280AD07B
:1053F000032810D10BE04FF4804008800EE041F606
:105400009C7008800AE04FF48050088006E04FF45A
:105410000060088002E04FF0FF30704700BF044892
:10542000C07C10B10888401008800020F5E700001B
:105430002C00002001460248007C087000207047C4
:105440002C00002001460F48007A30B1012807D017
:10545000022809D003280FD10AE0FA2008800EE0C4
:105460004FF4FA7008800AE04FF47A70088006E082
:105470004FF4FA60088002E00020088000BF00BFFF
:10548000002070472C00002001460E48007A30B101
:10549000012807D0022808D003280CD108E00A48C8
:1054A00008600BE00948086008E00948086005E06A
:1054B0000848086002E04FF0FF30704700BF00204E
:1054C000FBE700002C0000200000034300008342A3
:1054D000333303423333834101461248C07A0828EC
:1054E00017D2DFE800F01704070A0D101318BC20CC
:1054F000088013E06220088010E02A2008800DE078
:10550000142008800AE00A20088007E005200880AF
:1055100004E000BF00BF0020088000BF00BF0020E3
:10552000704700002C0000200146064890F8240037
:1055300010B14FF0FF3070470248C089088000204A
:10554000F9E700002C0000201CB580208DF8000039
:10555000654A1268917C644A526810786B46012251
:10556000FDF783FC10B14FF0FF301CBD6420FEF747
:105570005DFA00208DF800005B4A1268917C5A4A5F
:10558000526810786B460122FDF76FFC10B14FF0A6
:10559000FF30EAE7544A1268917D534A5268107806
:1055A0006B460622FDF7BBFB10B14FF0FF30DCE786
:1055B0009DF80500C007400F9DF8031001F00101A0
:1055C00040EA41009DF8011001F0010140EA0104A8
:1055D00094B1012C03D101214348C17431E0022C64
:1055E00003D100214048C1742BE021463FA0FCF7C5
:1055F00099FC4FF0FF30B8E73B4A1268D1783A4A3D
:10560000526810786B460122FDF789FB10B14FF00C
:10561000FF30AAE79DF8000000F00F042CB93D48C8
:10562000FCF780FC4FF0FF309FE7042C06D13AA036
:10563000FCF778FC01212C48C17402E000212A48C3
:10564000C174FF2128488172FF2027490872FF2179
:1056500025484172C1724FF6FF71C181FF2101746B
:1056600081740121017380F82210002180F8231039
:10567000417501751630016041608160163880F80F
:10568000241080F82510C1844FF4FA6000F0B4FCB7
:1056900010B14FF0FF3068E7022000F07DFB10B141
:1056A0004FF0FF3061E72A2000F020FD10B14FF0ED
:1056B000FF305AE7322000F05BFD10B14FF0FF30B1
:1056C00053E70020FFF7CCFC10B14FF0FF304CE760
:1056D000002000F0A3FB10B14FF0FF3045E70020A1
:1056E00000F094FD002040E72C000020556E7375FB
:1056F00070706F7274656420736F66747761726521
:105700002070726F64756374207265762025642E34
:105710000A00000048A5000848616C662073656EA9
:105720007369746976697479207061727420666F28
:10573000756E642E0A0000002DE9F04385B0054621
:105740000E4690469946294890F8250020B14FF022
:10575000FF3005B0BDE8F08316B94FF0FF30F8E731
:10576000002423E0281B102801DD102000E0281B66
:1057700087B232193946204600F0B0FD10B14FF023
:10578000FF30E6E701AA3946204600F053F910B190
:105790004FF0FF30DDE730193A4601A9FCF74AFD2A
:1057A00010B16FF00100D4E7E01984B2AC42D9DB4C
:1057B0004FEA28208DF8000008F0FF008DF8010066
:1057C0000A4A1268917E094A526810786B46022292
:1057D000FDF74BFB10B14FF0FF30BAE70121034852
:1057E00080F82510A0F826900020B2E72C000020B9
:1057F00038B50446282C02DD4FF0FF3038BDDCB947
:10580000002000F03DFC00208DF8000007208DF8FE
:1058100001002E4A1268917C2C4A526810786B461F
:105820000222FDF722FB10B14FF0FF30E6E7002126
:10583000264801750020E1E7012000F021FC20202E
:105840008DF80000012C06D100208DF80100052004
:1058500000F04CFC17E0052C06DC01208DF801005F
:10586000052000F043FC0EE0142C06DC02208DF82D
:1058700001000A2000F03AFC05E003208DF8010049
:10588000142000F033FC9DF80100072101EB80108B
:10589000C0B28DF801000D4A1268917C0B4A526823
:1058A00010786B460222FDF7E0FA10B14FF0FF309E
:1058B000A4E70821054881720021017301210175C7
:1058C0000020FFF7CDFB002098E700002C0000200F
:1058D00070B50446214A22492248FFF7F9FB002807
:1058E0003AD121480078401C1F49087008460078CA
:1058F00019282FD10020087000250EE0012609E0AC
:1059000004EB852050F8261004EB8522701E42F827
:105910002010761CFF2EF3DD6D1C032DEEDB1148ED
:105920000068C4F8FC030D480168C4F8FC170C4873
:105930000168C4F8FC1B0D480068401C0B49086056
:105940000B48006808B9012000E000200849086001
:10595000012070BD0220FCE70020FAE708000020CB
:1059600004000020000000200C0000201000002097
:1059700094012342F8B504460F4616462C4890F889
:10598000240010B94FF0FF30F8BD2948807A10B9D3
:105990004FF0FF30F8E7264A1268917A244A52689D
:1059A00010786B460222FDF7BAF910B14FF0FF30C4
:1059B000EAE79DF801009DF8001040EA0125A542A4
:1059C00003DA00203070401EDEE719484068408846
:1059D000B5EB600F17DD164A1268517C144A526805
:1059E00010786B460122FDF79AF910B14FF0FF30A5
:1059F000CAE79DF8000000F0100020B100F05AF84E
:105A00006FF00100C0E7E2B2094B1B68D97A084B7E
:105A10005B6818783B46FDF782F910B14FF0FF3014
:105A2000B2E795FBF4F0401E30700020ACE70000B8
:105A30002C000020F8B504460D46164616B94FF066
:105A4000FF30F8BD1A48807A10B94FF0FF30F8E700
:105A500020128DF80000E0B28DF801009DF80100E1
:105A60002844134949684989884202DD4FF0FF30D4
:105A7000E7E70F4A1268117E0D4A526810786B46AC
:105A80000222FDF7F2F910B14FF0FF30D9E7EAB288
:105A9000074B1B68597D064B5B6818783346FDF74A
:105AA0003EF910B14FF0FF30CBE70020C9E700000E
:105AB0002C00002008B57048807A10B94FF0FF30F4
:105AC00008BD002000906C4A1268D17B6A4A526877
:105AD00010786B460122FDF7C8F910B14FF0FF3086
